:020000022000DC
:1070000000000420757302005D7302005F730200CC
:1070100061730200637302006573020000000000E8
:107020000000000000000000000000006773020084
:1070300069730200000000006B7302006D730200B0
:107040007DC802006F730200D1D502006F73020089
:107050006F7302006F730200E9D202006F730200C7
:107060006F7302006F7302006F7302006F73020090
:107070006F7302006F7302006F7302006F73020080
:107080006F730200FDA202006F7302006F730200B3
:107090006F7302006F7302003D3D03006F730200C7
:1070A0006F7302006F7302006F7302006F73020050
:1070B0006F7302006F730200000000000000000008
:1070C0006F7302006F7302006F7302006F73020030
:1070D0006F7302006F7302006F7302006F73020020
:1070E0006F7302006F7302006F73020000000000F4
:1070F000000000006F730200000000006F730200C8
:10710000000000000000000000000000000000007F
:10711000000000000000000000000000000000006F
:10712000000000000000000000000000000000005F
:10713000000000000000000000000000000000004F
:10714000000000000000000000000000000000003F
:10715000000000000000000000000000000000002F
:10716000000000000000000000000000000000001F
:10717000000000000000000000000000000000000F
:1071800000000000000000000000000000000000FF
:1071900000000000000000000000000000000000EF
:1071A00000000000000000000000000000000000DF
:1071B00000000000000000000000000000000000CF
:1071C00000000000000000000000000000000000BF
:1071D00000000000000000000000000000000000AF
:1071E000000000000000000000000000000000009F
:1071F000000000000000000000000000000000008F
:10720000354936480A1A02D0072291438D4634493F
:1072100034480A1A06D00722914381F309880222D2
:1072200082F3148830483149314A00F044F831483B
:107230003149324A00F03FF831483249324A00F0D1
:107240003AF832483249334A00F035F83248334987
:10725000334A00F030F833483349344A00F02BF811
:1072600033483449344A00F026F83448344900227F
:1072700000F02CF833483449002200F027F8334856
:107280003349091A082902DB002202604160314AB1
:1072900090471F481F49884205D00268043003B454
:1072A000904703BCF7E700208646EC46002000210B
:1072B000294A9047FEE7884207D0521A05D0037842
:1072C00001300B700131013AF9D17047884202D088
:1072D00002700130FAE770470000042000E003204C
:1072E0000000042000000420A4690300102B0020EB
:1072F000B02B0020D0730200D0730200F44C0300C6
:10730000A4690300102B0020102B0020F84D03006F
:10731000F84D0300F84D0300F84D0300F84D03004D
:10732000F84D0300F84D0300F84D0300A469030075
:10733000446A0300B02B0020B02B0020B02B0020AB
:107340000C4100200C4100200C4100200C41002089
:107350000C6100209D730200F1060300FEE7FEE7CA
:10736000FEE7FEE7FEE7FEE7FEE7FEE7FEE7FEE7F5
:1073700000F002B8FFF7FCBF0F484FF00701884349
:1073800085460E4880470E48016841F4700101604F
:10739000BFF34F8FBFF36F8FFFF732BF09480A4922
:1073A0000A4A884207D0521A05D0037801300B7080
:1073B0000131013AF9D1704700000420E5B802001C
:1073C00088ED00E0F84D0300102B0020102B00206A
:1073D00000B585B00190019B002B0AD0074B43F00C
:1073E00001030393019B9B010293039B029898471F
:1073F00000E000BF05B05DF804FB00BF104E0300C5
:1074000000B583B00190019B002B0AD04FF47A7035
:10741000FFF7DEFF019B013B0193019B002BF5D1A0
:1074200000E000BF03B05DF804FB08B509F038FBCD
:1074300000BF08BD00B589B0039002910192019B85
:10744000002B33D00023079303230693029A079B54
:107450001344019A1946002009F0D4FA0590079ABE
:10746000059B13440793019A059BD31A0193059B2F
:10747000002B13D10F4B1B7883F00103DBB2002BE1
:1074800013D10120FFF7BCFF069B013B0693069B2F
:10749000002B03D1074B00221A7007E0054B012295
:1074A0001A70019B002BD1D100E000BF00BF09B0D2
:1074B0005DF804FBB02B002000B585B0039002916D
:1074C000054B00934023054A0299039800F012F8F7
:1074D00000BF05B05DF804FB35740200B42B00203A
:1074E00082B0019000BF02B0704782B0019000BF2F
:1074F00002B0704700B5A1B00590049103920293C9
:10750000049803F0CAFE039B1593029B1693002375
:10751000179300238DF8603000231993229B1A9350
:1075200000231F930FA91F9B0822049803F08EFFCE
:1075300008231F93119B1293BDF84030ADF84C30D7
:10754000BDF84230ADF84E3000238DF851309DF833
:107550003C3003F00303DBB2012B26D10F9BC3F3B6
:1075600095231D939DF83C30C3F3C203DBB28DF825
:107570005030BDF83C30C3F38313DBB21C931C9B2B
:107580009A0009A91F9B049803F060FF1C9B9B00B5
:107590001F9A13441F9312AA09A915AB009313460F
:1075A0001C9A1D9800F0D2FE2FE09DF83C3003F0AD
:1075B0000303DBB2022B28D1BDF83E30C3F389139D
:1075C0009BB21E939DF83C30C3F3C203DBB28DF82F
:1075D00050301E9B082B28BF08231B9307A91F9B15
:1075E0001B9A049803F032FF1F9A1B9B13441F93AE
:1075F0001E9A1B9BD31A1E9315AB12AA07A81B99A0
:1076000000F046FF1E9B002BE3D1049803F054FECC
:1076100000BF21B05DF804FB82B00190019BDB68E4
:1076200001225A7100BF02B07047000000B583B05C
:107630004FF0FF330193FFF7F8FE0421084800F0F4
:10764000A1FD0190019B002B03DA0649412008F0BF
:107650003FFA0348FFF7E0FF00BF03B05DF804FB0B
:10766000E84D0300284E030000B583B0019000915F
:10767000019B1B681B6800990198984700BF03B0E5
:107680005DF804FB00B583B00190019B1B685B684B
:107690000198984700BF03B05DF804FB00B583B0C4
:1076A0000190019B1B689B680198984700BF03B03D
:1076B0005DF804FB82B001900B468DF80330019B0E
:1076C000DB689DF803201A7100BF02B0704782B0DA
:1076D0000190019BDB681B79184602B0704782B0AD
:1076E0000190019BDB6801225A7100BF02B0704714
:1076F00082B00190019BDB685B79184602B070474D
:1077000000B585B001900091154BFF229A60144B93
:1077100000221A60124B00225A60114B0022C3F85B
:1077200018240F4B0022C3F814240D4B002283F8B9
:1077300020240C4803F016FD0390039B002B01D07E
:10774000039B08E0084803F03BFF084A084BD31AA4
:10775000DB0802930023184605B05DF804FB00BF68
:107760005C2D0020544D0300804E0300E84D0300C3
:10777000684D0300024A034BD31ADB0818467047D2
:10778000E84D0300684D030000B587B001900B463B
:107790008DF803309DF80330002B1FD0FFF7EAFF70
:1077A00004900023059313E0059B9B000E4A1344AD
:1077B0000393039B1B881A46019B1B689A4204D1C2
:1077C000019B059A1A60002309E0059B013305938C
:1077D000059A049B9A42E7D3052300E0002318464C
:1077E00007B05DF804FB00BF102B002000B585B08A
:1077F00001900B468DF803309DF8032001AB114634
:107800001846FFF7C1FF0346002B07D1019BDB00A1
:10781000054A13440393039B1B6800E000231846AA
:1078200005B05DF804FB00BF684D030084B0019013
:107830000B468DF80330019BDB00174A134402937B
:107840009DF80330013B032B1CD801A252F823F012
:107850006178020069780200717802007B7802008A
:1078600002238DF80F3011E004238DF80F300DE066
:10787000029B1B798DF80F3008E0029B5B798DF835
:107880000F3003E000238DF80F3000BF9DF80F305C
:10789000184604B0704700BF684D030084B00190E3
:1078A000009100238DF80F30019B1B7803F0040337
:1078B000DBB2002B24D0019B1B78C3F30103DBB2A6
:1078C000012B02D0022B0CD017E0009B1B68019A01
:1078D0001288C2F38312D2B213449A1C009B1A601E
:1078E0000BE0009B1B68019A5288C2F3891292B286
:1078F00013449A1C009B1A6000BF01238DF80F30BF
:107900009DF80F30184604B07047000000B58BB0EA
:107910000023ADF826303E4802F0D6FE3D4802F086
:10792000D3FE3D4B5B6804933B4B9B680693049AE4
:10793000069B134002339B00374A134404330893D9
:1079400004AB19460898FFF7A9FF0346002B09D09E
:10795000049A069B134002339B002F4A13440433BE
:107960000893EDE700BF0023079311E0049B5A1C26
:107970000492069A1340079A920001A90A442649E4
:1079800002339B000B445B681360079B0133079332
:10799000079B012BEAD99DF80430C3F30103DBB246
:1079A000012B10D0022B1CD1BDF80A30ADF82630C7
:1079B000BDF80630C3F389139BB203339A08049BC6
:1079C0001344049313E0BDF80A30ADF82630BDF837
:1079D0000430C3F38313DBB21A46049B13440493AD
:1079E00005E00E494FF4BF7008F072F800BF094877
:1079F00002F076FE0590059B002B02D0049B064A00
:107A00005360BDF8263018460BB05DF804FB00BF8C
:107A100074310020703100205C2D0020904E030056
:107A200000B585B00021074802F0BFFD0390039B1D
:107A30000293029B83F310030193019B184605B048
:107A40005DF804FB7831002000B589B00390029105
:107A500001920093039B1B0C0793FFF7E1FF069035
:107A6000FFF788FE0246079B934204D3214940F268
:107A7000A31008F02DF8069B1904009B5A1C0A9BC2
:107A80001340079A0A431C4902339B000B445A6077
:107A9000009A0A9B134002339B00174A1344043395
:107AA0000593039B03F00703D9B2059A137861F39A
:107AB000C5031370019B03F00F03D9B2059A138815
:107AC00061F389131380029BC3F31501059A1368B0
:107AD00061F39F231360059A1378012161F3010379
:107AE0001370059A13786FF38203137000BF09B007
:107AF0005DF804FB904E03005C2D002000B58DB0B6
:107B00000390029113468DF80730039B02330A93CA
:107B100001238DF8273000238DF81B300DF11B0356
:107B2000184601F0D7FF404B1A68029B1A603E4B83
:107B30009A683D4B59683C4B1B68CB1A1344013380
:107B40000B9314E00121394802F08EFDFFF7DEFEB1
:107B500008900899354802F087FD334B9A68324BFC
:107B60005968314B1B68CB1A134401330B930A9AA3
:107B70000B9B9A42E6D89DF82730002B48D0002373
:107B800005939DF80730002B17D09DF81430012283
:107B900062F301038DF814309DF8143043F00403B0
:107BA0008DF81430039B03F00F03DAB2BDF81430E4
:107BB00062F38913ADF8143016E09DF814300222F8
:107BC00062F301038DF814309DF8143043F0040380
:107BD0008DF81430039BC3F309039AB2BDF8163035
:107BE00062F38F13ADF816300F4B1A680E4B9B687B
:107BF000134002339B000C4A134404330793059A45
:107C0000079B1A60084B1A680A9B1344064A1360C4
:107C10009DF81B30184601F073FF9DF82730184679
:107C20000DB05DF804FB00BF5C2D00207831002012
:107C300000B58BB005900491039202931F4B9B6893
:107C4000079306AB012219460298FFF757FF034638
:107C5000002B24D0069B023309930023089311E0E4
:107C6000089B9B00039A1A44099B591C0991079988
:107C70000B401268114902339B000B445A60089B69
:107C800001330893089A029B9A42E9D3069A079B0C
:107C900000931346029A04990598FFF7D5FE074B07
:107CA00093F82034002B05D000BF00F065F80346A0
:107CB000002BFAD100BF0BB05DF804FB5C2D002057
:107CC00000B583B001900091002300220099019833
:107CD000FFF7AEFF00BF03B05DF804FB00B587B04F
:107CE000039002910192019B059305AA0123029939
:107CF0000398FFF79DFF00BF07B05DF804FB00B5D8
:107D000087B00390029101920093019B0493009B22
:107D1000059304AA022302990398FFF789FF00BF85
:107D200007B05DF804FB00B58BB00390029101929F
:107D30000093019B0593009B06930C9B07930D9B5F
:107D400008930E9B099305AA052302990398FFF750
:107D50006FFF00BF0BB05DF804FB0000054B5A68D5
:107D6000044B1B689A420CBF01230023DBB2184668
:107D7000704700BF5C2D002000B599B0FFF7EEFF03
:107D80000346002B01D00023BCE19A4B0022C3F82C
:107D90001824BFF34F8F974B5B680493954B9B68F8
:107DA0001093049A109B134002339B00914A134492
:107DB00004331193002317930023169300230F938A
:107DC00004AB19461198FFF769FD0346002B19D043
:107DD000884BD3F81834002B14D1864B1A68049BB7
:107DE0009A4205D8834B1B68824A5360002389E17D
:107DF000049A109B134002339B007E4A13440433C1
:107E00001193DDE70023159311E0049B5A1C0492A3
:107E1000109A1340159A920001A90A447549023339
:107E20009B000B445B681360159B01331593159BF6
:107E3000012BEAD99DF8043003F00303DBB2022BD7
:107E400040F09C80BDF80630C3F389139BB20E93BB
:107E5000BDF80630C3F389139BB2502B28BF5023C3
:107E60009BB20D930D9BC3F309039AB2BDF8063084
:107E700062F38F13ADF806300D9B08330C939DF819
:107E80000430C3F3C203DBB20F930C995A4803F0DA
:107E900074F91790179B002B00F0D080179803F00F
:107EA000FCF901A9169B0822179803F0B1FA169B5A
:107EB00008331693049BDA43109B134001339B0055
:107EC0000B930D9A0B9B9A4242D90B9B002B08D027
:107ED000049A109B134002339B00464A1344043318
:107EE00000E0464B0A930B9B002B02D00B9BDBB2AE
:107EF00001E00D9BDBB28DF827300B9B002B01D0EE
:107F00003E4B00E0002308930B9B002B06D00D9BFB
:107F1000DAB20B9BDBB2D31ADBB200E000238DF8A0
:107F20001F309DF82720169B0A99179803F070FAC6
:107F30009DF82730169A13441693089B002B16D0F1
:107F40009DF81F20169B0899179803F061FA0EE020
:107F5000049A109B134002339B00264A13440433B7
:107F60000693169B0D9A0699179803F051FA0E9BEB
:107F700003339A08049B134404935FE09DF8043094
:107F800003F00303DBB2012B58D1BDF80430C3F377
:107F90008313DBB2062B28BF0623DAB2BDF8043008
:107FA00062F38913ADF80430BDF80430C3F38313D2
:107FB000DBB2023305939DF80430C3F3C203DBB296
:107FC0000F93059B9B0019460B4803F0D6F81790BA
:107FD000179B002B32D0179803F05FF901A9169B6D
:107FE0000822179803F014FA169B083316930023FF
:107FF00015931AE05C2D0020544D0300682D0020DD
:10800000049B5A1C0492109A134002339B003F4A6F
:108010001344191D169B0422179803F0F9F9169BB7
:1080200004331693159B01331593BDF80430C3F345
:108030008313DBB21A46159B9342E1D3179B002BA7
:1080400040D0324BD3F810341493304BD3F818345B
:10805000002B1BD0179803F02FF94DE000238DF86B
:108060004F301498FFF744FB0346002B02D0012346
:108070008DF84F309DF84F30002B03D0179914988E
:10808000FFF7F2FA149BDB681B681493149B002B18
:10809000E4D1179803F010F900238DF803300DF1A7
:1080A0000303184601F016FD184BD3F81834002BC3
:1080B00002D1049B154A53609DF80330184601F025
:1080C0001FFD19E0114BD3F81034129306E01298FB
:1080D000FFF7E4FA129BDB681B681293129B002BDC
:1080E000F5D10B4A0B4BD31ADB081B0443F00203F8
:1080F00009491846FFF7E4FDFFF730FE034683F019
:108100000103DBB2184619B05DF804FB5C2D0020BA
:10811000904D0300684D0300E04E030000B585B0AC
:108120000023039323E0164BD3F81034029301236A
:108130008DF807300FE00298FFF7C9FA03461A4698
:10814000039B934203D100238DF8073006E0029B86
:10815000DB681B680293029B002BECD19DF8073073
:10816000002B01D0039B07E0039B01330393039B88
:10817000092BD8DD4FF0FF33184605B05DF804FB3E
:108180005C2D002000B585B001900B468DF80330C2
:10819000FFF7C4FF0390039BB3F1FF3F01D1039BA3
:1081A00022E0039BDBB219460198FFF783FA104BDC
:1081B000D3F81034002B08D10D4A019BC2F81034BB
:1081C000019BDB6800221A600DE0094BD3F81034E4
:1081D000DA68019BDB6812681A60054BD3F810342B
:1081E000DB68019A1A60039B184605B05DF804FB32
:1081F0005C2D002000B583B00C4BD3F810340193F4
:108200000A4B012283F8202409E00198FFF767FA5E
:108210000198FFF737FA019BDB681B680193019B0C
:10822000002BF2D100BF03B05DF804FB5C2D0020F1
:1082300082B00190009100BF02B0704710B584B0C9
:1082400003900291039BDB88002B0AD0039BDB8801
:108250001A461F4B009313461E4A1F49029802F00C
:108260007BFB039B1B7A052B2ED0039B5B7A002B99
:1082700012D0039B9B881A46039B1B7A1946104613
:10828000FFF7D4FA03461A46144B53F822301A4625
:108290001349029802F060FB039B1B681946029881
:1082A000FFF7C6FF039B1B7A1A460E4B53F822407A
:1082B000039B9B8800211846FFF798FA0346224645
:1082C0000949029802F048FB00BF04B010BD00BF8E
:1082D000144F0300244F03005C4F03002C2B00209D
:1082E000744F0300182B0020784F030000B585B0B1
:1082F0000390029113468DF80730039B1B7A052BE0
:108300000FD0039B5B7A002B06D00D4B1B681A46DF
:108310000C49029802F020FB0B49029802F01CFB6A
:1083200007E09DF80730002B03D00749029802F0C0
:1083300013FB029802F0EEFA00BF05B05DF804FBF3
:108340002C2B0020744F0300844F030030B58BB0FA
:1083500007900691059204930E9B1B7B8DF82730A6
:108360000E9B00221A730E990498FFF767FF059B76
:10837000062B7FD801A252F823F000BF9983020098
:10838000A3830200B3830200C7830200E5830200D7
:108390000D8402003D84020007990E9802F0DCFA79
:1083A00069E0069B1B681A4607990E9802F0D4FAFA
:1083B00061E0069B1A68069B04331B6807990E98B8
:1083C00002F0CAFA57E0069B1A68069B0433196844
:1083D000069B08331B6800930B4607990E9802F022
:1083E000BBFA48E0069B1968069B04331868069B95
:1083F00008331B68069A0C321268019200930346F8
:108400000A4607990E9802F0A7FA34E0069B18680E
:10841000069B04331C68069B08331B68069A0C32C3
:10842000126806991031096802910192009323465F
:10843000024607990E9802F08FFA1CE0069B1C6812
:10844000069B04331D68069B08331B68069A0C3292
:108450001268069910310968069814300068039074
:108460000291019200932B46224607990E9802F042
:1084700073FA00E000BF00220E990498FFF736FF60
:108480000E9B9DF827201A7300BF0BB030BD00BFB4
:1084900000B587B00390029101920093029B082BD4
:1084A00060D8009B1B7B8DF81330009B00221A7351
:1084B00000990198FFF7C2FE0023059314E0059A86
:1084C000029B9A4209D2039A059B13441B781A46D1
:1084D0002649009802F040FA03E02549009802F08E
:1084E0003BFA059B01330593059B072BE7D92149EF
:1084F000009802F031FA0023059326E0059A029BCA
:108500009A421BD2039A059B13441B788DF81230B4
:108510009DF812307E2B0AD89DF8123018460BF0C9
:108520005FFF0346002B02D09DF8123000E02E239F
:108530001A461149009802F00FFA03E00F4900981B
:1085400002F00AFA059B01330593059B072BD5D949
:10855000012200990198FFF7C9FE009B9DF81320A6
:108560001A7300E000BF07B05DF804FB884F0300FA
:10857000904F0300944F0300984F03009C4F03005B
:1085800084B003468DF807309DF807305B08DBB2F6
:108590001A460D4B9B5C8DF80F309DF8073003F0A9
:1085A0000103002B04D09DF80F301B09DBB204E05F
:1085B0009DF80F3003F00F03DBB28DF80E309DF8FD
:1085C0000E30184604B07047B831002084B003461E
:1085D0000A468DF8073013468DF806309DF80730AF
:1085E00003F00103002B01D00F2300E0F0238DF8EE
:1085F0000F309DF8073003F00103002B04D09DF8E5
:1086000006301B01DBB201E09DF806308DF80E301C
:108610009DF807305B08DBB21A46114B9A5C9DF857
:1086200007305B08DBB219469DF80F301340DAB211
:108630000B4B5A549DF807305B08DBB21A46084BC7
:108640009A5C9DF807305B08DBB219469DF80E3046
:108650001343DAB2024B5A5400BF04B0704700BF54
:10866000B831002000B585B003468DF807300023EF
:10867000039310E00F4B1A68039BDB001344029333
:10868000029B1B789DF807209A4201D1029B0DE0C6
:10869000039B01330393084B1B781A46039B9342B9
:1086A000E8DB0649882007F013FA0023184605B0D6
:1086B0005DF804FB8031002084310020AC4F0300C2
:1086C00000B585B003460A468DF8073013468DF88D
:1086D00006309DF807301846FFF7C4FF0390039B50
:1086E000002B0BD0039B5B68002B07D0039B5B68C0
:1086F0009DF806109DF807201046984700BF05B06A
:108700005DF804FB2DE9F04F87B003460A468DF86B
:108710000F3013468DF80E309DF80F301846FFF7D6
:108720002FFF0346042B00F2C38001A252F823F06E
:1087300045870200BB870200D78702000788020036
:108740001D8802009DF80E30002B00F0AE809DF8D1
:108750000F3001211846FFF739FF00238DF817303D
:108760000DF11703184601F0B5F99DF80F204FF0F1
:1087700001034FF00004A2F12000C2F1200104FA2D
:1087800002F703FA00F0074323FA01F10F4303FA5B
:1087900002F6494BD3E9003446EA0302009247EA65
:1087A00004030193444BDDE90012C3E900129DF874
:1087B0001730184601F0A4F977E09DF80E30002B31
:1087C00001D0022200E000229DF80F301146184629
:1087D000FFF7FCFE6CE09DF80E30002B0CD09DF8EE
:1087E0000F3003211846FFF7F1FE9DF80F300121ED
:1087F0001846FFF765FF5BE09DF80F300121184632
:10880000FFF7E4FE54E09DF80E30002B4FD19DF8A9
:108810000F3004211846FFF7D9FE48E09DF80E30CE
:10882000002B06D09DF80F3003211846FFF7CEFE2F
:108830003EE09DF80F3000211846FFF7C7FE9DF877
:108840000F3000211846FFF73BFF00238DF816304C
:108850000DF11603184601F03DF99DF80F104FF089
:1088600001024FF00003A1F12006C1F1200003FA3C
:1088700001F502FA06F6354322FA00F0054302FA42
:1088800001F46FEA04086FEA05090B4BD3E90034E1
:1088900008EA030A09EA040B074BC3E900AB9DF899
:1088A0001630184601F02CF902E000BF00E000BFCE
:1088B00000BF07B0BDE8F08FB031002000B583B035
:1088C0000648074B1B685B080022194600F008FEAB
:1088D000019000BF03B05DF804FB00BF90310020A1
:1088E0008831002010B586B001900023059328E060
:1088F0001C4B1A68059BDB0013440493049B1B78F4
:10890000184604F0D7FC03468DF80F30049B5B78C3
:10891000012B0CBF01230023DBB21A469DF80F3058
:108920009A420CBF012300238DF80E30049B1B7864
:108930009DF80E2011461846FFF7E4FE059B013313
:108940000593094B1B781A46059B9342D0DB074BD6
:10895000D3E90034234301D0FFF7B0FF00BF06B0D6
:1089600010BD00BF8031002084310020B0310020D4
:1089700010B584B001900B468DF80330019BDBB23B
:108980001846FFF76FFE0390039B1B78184604F010
:1089900091FC03468DF80B30039B5B78012B0CBFD9
:1089A00001230023DBB21A469DF80B309A420CBF1C
:1089B000012300238DF80A309DF80A30002B06D0E1
:1089C000044BD3E90034234301D1FFF777FF00BF05
:1089D00004B010BDB031002010B58AB003900B4632
:1089E00001928DF80B30019B092B01D8072367E01A
:1089F00004F052FB034683F00103DBB2002B09D0E5
:108A000004F0F8FA0990099B0893089B002B01D009
:108A1000089B55E02C4A039B13602C4A9DF80B30B1
:108A200013702B4A019B13602022002129480BF070
:108A300037FD294A4FF000034FF00004C2E900342B
:108A400031E09DF80B30DB00039A134407930323B6
:108A50008DF8143000238DF815309DF816306FF323
:108A600000038DF816309DF816306FF341038DF832
:108A700016309DF816306FF382038DF81630079B81
:108A80009B788DF81530079B1B78184605AB134A69
:108A9000194604F00DFB0990099B0693069B002BD9
:108AA00001D0069B0CE09DF80B305A1E8DF80B2070
:108AB000002BC6D10A4A00210A4800F0DDFC03461B
:108AC00018460AB010BD00BF80310020843100205C
:108AD00088310020B8310020B031002071890200B7
:108AE000E5880200F44F030000B583B0114B1B680A
:108AF000002B04D1104940F2351006F0E9FF0023A5
:108B000001930CE00B4B1A68019BDB0013441B78AC
:108B10000121184604F046FB019B01330193074BEA
:108B20001B781A46019B9342ECD30023184603B0EE
:108B30005DF804FB80310020AC4F0300843100203D
:108B400086B003900291019201238DF817309DF8B1
:108B50001730204A039B13601E4A029B53601D4A34
:108B6000019B9360039B44F20102934213D0039B49
:108B700044F20202934221D1019B164AD360154B65
:108B8000DB681B881A46134B9A61124BDB685B68E3
:108B9000104AD36112E0019B0E4A13610D4B1B6911
:108BA0009B680C4A53610B4B1B691B68094A936114
:108BB000084B1B695B68074AD36100BF72B600BFF0
:108BC0009DF81730DBB2002BFAD162B600BF06B0B9
:108BD000704700BFD831002000B583B002900091EB
:108BE000019244F2010071466A4600F003F803B0B6
:108BF00000BD00BF30B58BB007900691059272B6EC
:108C0000FFF7F8FA00BFFFF7B7F80346002BFAD1D9
:108C1000079B41F2010293421FD0079B41F20102E0
:108C2000934203D8079B012B0BD061E0079B44F2D2
:108C3000010293422FD0079B44F20202934218D0C4
:108C400056E0394A394BD31ADB081B0443F00103C1
:108C500037491846FFF734F857E0334A334BD31AF5
:108C6000DB081B0443F0010332491846FFF728F8DC
:108C70004BE0059B09932C4A2C4BD31ADB081B04B1
:108C800043F00100099B5B681A46099B1B882A492F
:108C9000FFF735F839E0059B0893234A234BD31A95
:108CA000DB081B0443F00104089B9D68089B9B683C
:108CB000184602F0A5FD03461846089B5B68194656
:108CC000089B1B68069A02920193009103462A466C
:108CD0001A492046FFF727F8134A144BD31ADB082A
:108CE0001B0443F0010316491846FEF7E9FF0CE0A8
:108CF0000D4A0E4BD31ADB081B0443F00103069AFE
:108D000010491846FEF7EAFF00BF0F4B1B6803F03F
:108D10000103002B00D000BE059A06990798FFF7C3
:108D20000FFF00BF0BB030BD904D0300684D030036
:108D3000F84F0300185003003C5003005850030044
:108D40008050030094500300F0ED00E084B00190E7
:108D5000019B9B680393019BDA68039BD31A184617
:108D600004B0704782B001900B468DF80330019B30
:108D70001A68019BDB68019989880B4013449DF8B0
:108D800003201A70019BDB685A1C019BDA6000BF4C
:108D900002B0704784B003900B460192ADF80A30E0
:108DA000039B1A68039B9968BDF80A300B4403992A
:108DB00089880B4013441A78019B1A7000BF04B0D5
:108DC000704700B583B001900091009A002101988E
:108DD000FFF7E0FF019B9B685A1C019B9A6000BF54
:108DE00003B05DF804FB84B0039002911346ADF824
:108DF0000630029B002B01D10E231DE0BDF806308A
:108E0000002B07D0BDF806305A1EBDF806301340BF
:108E1000002B01D009230FE0039B029A1A60BDF8D2
:108E20000630013B9AB2039B9A80039B00229A6012
:108E3000039B0022DA600023184604B0704700B597
:108E400083B001900B468DF803300198FFF77EFF49
:108E50000246019B9B889A4207D89DF80330194629
:108E60000198FFF77FFF002300E00423184603B0BA
:108E70005DF804FB00B583B0019000910198FFF705
:108E800065FF0346002B05D000990198FFF799FF75
:108E9000002300E00523184603B05DF804FB000042
:108EA0002DE9F04182B0134801F00EFA034619464D
:108EB0004FF00002104BD3E90034CF1842EB040806
:108EC000CDE900780D4BD3E90034DDE90012A24270
:108ED00008BF994207D2DDE9003413F1807544F1EF
:108EE0000006CDE90056DDE900341846214602B0FF
:108EF000BDE8F081502B0020003200200832002015
:108F000010B489B001900091019B0793009B0693D8
:108F1000079BD3E90234CDE90434069BD3E902343C
:108F2000CDE90234DDE90434DDE90212A24208BFD2
:108F300099422CBF01230023DBB2184609B05DF82B
:108F4000044B704770B584B00190019B5B69002BA6
:108F500003D12B49A22006F0BBFD00238DF80F3072
:108F6000284B1B78002B46D0019B002B43D0019B44
:108F70001B7FDBB2002B3ED0FFF792FF0A46014673
:108F8000019BD3E90234A24208BF99422BD3019B33
:108F90001B69002B02D1019B00221A77019B5B69A0
:108FA000019A926910469847019B1B69002B22D0B9
:108FB000019B1B7FDBB2002B1DD0019BD3E902126A
:108FC000019B1B694FF00004CD1842EB0406019B86
:108FD000C3E90256019B19460B4802F06BFB0123C3
:108FE0008DF80F3007E0019B1946074802F062FB3D
:108FF00001238DF80F309DF80F30184604B070BD76
:10900000B8500300FC31002004510300F0B589B0D2
:10901000019000910D230793009B00221A70019B81
:10902000D3E90245FFF73CFF02460B46A61A65EB63
:109030000307CDE90467DDE90434012B74F1000373
:109040001ADB049BB3F5350F05D300F0A9FA0246ED
:10905000154B134402E0019BD3E9023403934FF410
:109060009603039A0021114801F030F80790079BFE
:10907000002B05D1012313E000210C4801F0FEF87C
:10908000079B0D2B07D10198FFF75CFF03461A469B
:10909000009B1A7003E00649F52006F019FD002335
:1090A000184609B0F0BD00BFFFFFB400502B0020F0
:1090B000B850030000B583B0044802F035FB0190BE
:1090C000019B184603B05DF804FB00BF0451030088
:1090D00000B583B0044802F049FB0190019B18469B
:1090E00003B05DF804FB00BF0451030000B583B07A
:1090F000FFF7E0FF0190019B002B02D0019B0022B3
:109100001A77019B002BF3D100BF03B05DF804FB7D
:1091100010B4074BD3E9003413F1807144F100021D
:10912000034BC3E9001200BF5DF8044B704700BF5A
:109130000032002010B582B00190134B1B68002B49
:109140001ED0019801F0C0F802460F4B1B68D3E90E
:10915000023423F07F431946104600F015FA034607
:10916000B3F5960F04D3094940F22B1006F0B0FC7A
:10917000054B1B681846FFF7E5FE034B00221A60FB
:1091800000BF02B010BD00BFF8310020B85003008E
:1091900010B582B00190FFF783FE03460C46034AE8
:1091A000C2E9003400BF02B010BD00BF0832002089
:1091B00010B586B00190FFF78BFF049000238DF867
:1091C0001730049B002B48D02B4B1B68002B03D17E
:1091D00001238DF8173019E0049BD3E90212264BC6
:1091E0001B68D3E90234A24208BF99420ED2012380
:1091F0008DF81730204B1B681B7FDBB2002B05D08E
:109200001D4B1B6819461D4802F054FA9DF8173093
:10921000002B2AD0FFF74EFF04900DF10F031946E3
:109220000498FFF7F3FE0346002B12D0124B1B6885
:10923000002B02D1019800F055FE0F4A049B1360E9
:109240009DF80F3083F00103DBB2002BB3D000BFD9
:109250000EE0094B00221A60ADE7074B1B68002B9C
:1092600005D1019800F054FE01E000BF00E000BF0E
:1092700000BF06B010BD00BFF8310020045103004C
:1092800000B587B001902A4A03AB1946104601F099
:1092900018F9059045E0059B1B78012B17D0022B90
:1092A00029D0002B2DD1059B5B681B7FDBB283F09F
:1092B0000103DBB2002B26D0059B5B6801221A77E5
:1092C000059B5B6819461B4802F0F4F91BE0059BFF
:1092D0005A68194B1B689A4203D1174B00221A6037
:1092E00012E0059B5B681946124802F053FA0346E8
:1092F0008DF8133008E0FFF7F9FE104B01221A70C9
:1093000002E000BF00E000BF094A03AB1946104667
:1093100001F0F0F8064A03AB1946104601F0D1F807
:109320000590059B002BB6D100BF07B05DF804FB8C
:109330006832002004510300F8310020FC31002085
:1093400000B583B00190019800F08BFF0346002B1D
:1093500001D0FFF7DDFE0021019800F0A0FF0346D9
:10936000002B02D00198FFF7E5FE0121019800F0E3
:1093700096FF0346002B02D00198FFF709FF0198E2
:10938000FFF77EFF0198FFF713FF00BF03B05DF802
:1093900004FB000008B5024800F0A3FF00BF08BDB1
:1093A000502B002000B585B0034600918DF80730A2
:1093B000114A02AB1946104601F056F80390039B80
:1093C000002B13D0039B9DF807201A70039B009A73
:1093D0005A60094A02AB1946104601F05EF803468E
:1093E000002B01D0FFF7D6FF002300E0042318462E
:1093F00005B05DF804FB00BF6832002000B583B003
:10940000164B1B680093164808235822154900F094
:10941000F8FF0190019B002B01D0019B19E06B46E6
:10942000114A1946114800F0DFFC0190019B002B06
:1094300001D0019B0DE001210C4800F001FF012348
:109440000B4A0121094800F079FD0A4B01221A70EC
:10945000019B184603B05DF804FB00BF00510300F8
:10946000683200201032002041930200502B00206F
:10947000FFFF7F00FC31002000B587B003900B4652
:1094800001928DF80B30039B002B04D1134940F25D
:109490002E2006F01DFB019B002B04D10F4940F24A
:1094A0002F2006F015FB019B002B01D1072310E0B4
:1094B000039B1B680593059B019A5A619DF80B302D
:1094C000012B0CBF01230023DBB21A46059B1A6156
:1094D0000023184607B05DF804FB00BFB850030036
:1094E00070B586B0039002910192039B002B04D1CA
:1094F000164940F23E2006F0EBFA039B0593059BCC
:109500001B7FDBB2002B01D000231BE0059B019ADF
:109510009A61FFF7C5FC0A460146029B4FF0000422
:10952000CD1842EB0406059BC3E90256059B1B6957
:10953000002B02D0059B029A1A6105990020FFF7C3
:1095400031FF0346184606B070BD00BFB850030097
:1095500000B585B00190019B002B04D109494FF45F
:10956000157006F0B5FA019B0393039B00221A774E
:1095700003990120FFF716FF0346184605B05DF872
:1095800004FB00BFB850030082B001900091019A23
:10959000009BD31A23F07F43184602B070470000A7
:1095A00008B5034800F090FE0346184608BD00BF0A
:1095B000502B002000B587B00390029113468DF820
:1095C000073000230593039B1B781A46114B9B5CC5
:1095D000002B09D0039B04339DF8072002991846FD
:1095E00005F0C2F905900FE0039B1B781A46094B62
:1095F0009B5C002B08D1039B0C339DF8072002993C
:10960000184604F073FB0590059B184607B05DF8FB
:1096100004FB00BFF432002000B585B001900023A8
:109620008DF80F30019B1B781A46114B9B5C002B69
:1096300008D0019B0433184605F056FA03468DF80E
:109640000F300EE0019B1B781A46094B9B5C002BE8
:1096500007D1019B0C33184604F0D0FB03468DF86C
:109660000F309DF80F30184605B05DF804FB00BFC1
:10967000F432002000B587B00390029113468DF8B4
:10968000073000230593039B1B781A46114B9B5C04
:10969000002B09D0039B04339DF80720029918463C
:1096A00005F03AFA05900FE0039B1B781A46094B28
:1096B0009B5C002B08D1039B0C339DF8072002997B
:1096C000184604F0F3FB0590059B184607B05DF8BB
:1096D00004FB00BFF432002084B00190019B9B6822
:1096E0000393019BDA68039BD31A184604B07047B2
:1096F00000B587B001900091019B1B78012B04D02D
:10970000022B42D0002B51D066E0019B1B7A002B2C
:1097100005D1012232493348FFF7ACFF5CE0019BE1
:109720005B681B7819463048FFF789FB0590059B5D
:10973000002B0AD001238DF80C30059B04932B4B92
:109740001B6803AA104698470DE02748FFF7C4FF9F
:109750000346002B07D000238DF80C30234B1B68E9
:1097600003AA104698472048FFF7B6FF02461E4B53
:109770009B889A4205D8012219491A48FFF77AFFB7
:109780002AE01B4B01221A7026E002238DF80C30D0
:10979000019BDB680493012211491248FFF76AFF1D
:1097A000124B1B6803AA1046984715E0114912484E
:1097B000FFF760FB0346002B05D101220D49094844
:1097C000FFF7F8FE07E003238DF80C30074B1B680A
:1097D00003AA1046984700BF00BF07B05DF804FB1E
:1097E00084320020582B0020883200207C32002058
:1097F00085320020803200209832002030B591B0B0
:109800000390029101928DF803303C4A019B136052
:10981000029B002B01D107236DE0029B1968029B7C
:109820005B689BB21A463648FFF7DDFA0F900F9B34
:109830000E930E9B002B01D00E9B5CE0029B99685F
:10984000029BDB689BB21A462E48FFF7CCFA0F90BA
:109850000F9B0D930D9B002B01D00D9B4BE02A4BD2
:1098600004AC1D460FCD0FC495E80F0084E80F002F
:10987000039B5B690A93039B1B7C002B14BF012392
:109880000023DBB28DF824309DF803308DF82C30A6
:10989000039B5B7C002B01D00E2300E000238DF89E
:1098A0002530039BDB680693039B9B680793039B10
:1098B0001B680593039B5B68049304AB134A19462A
:1098C000134802F0F5FD0F900F9B0C930C9B002B9F
:1098D00001D00C9B0FE00F4B00221A70039B1B68FA
:1098E000B3F1FF3F06D001220B490948FFF7C2FE42
:1098F000034600E00023184611B030BD7C32002042
:10990000883200209832002010510300F1960200A6
:10991000582B0020853200208432002000B587B00B
:109920000190019B002B03D11449CA2006F0D0F806
:10993000134B1B788DF8173001991248FFF79AFAEC
:1099400004909DF81730002B12D00D4B00221A7096
:1099500001220D490D48FFF78DFE0390039B0293F2
:10996000029B002B04D0054AD6210298FFF734F958
:10997000049B184607B05DF804FB00BF305103009C
:10998000853200208832002084320020582B0020AD
:1099900000B585B003468DF807309DF807301946AD
:1099A0001048FFF74CFA0390039B002B15D10E488B
:1099B000FFF732FE034683F00103DBB2002B0CD02D
:1099C0000A490848FFF756FA0346002B05D1012241
:1099D00006490548FFF7EEFD0390039B184605B0C6
:1099E0005DF804FB98320020582B002080320020C4
:1099F00082B0EFF310830093009B019372B6019B3A
:109A0000184602B0704762B600BF704700B585B017
:109A10000190FFF7EDFF0390164B9B68002B1BD1C5
:109A2000144B01229A60144BD3F88020134B13403F
:109A3000104A1360104B114AC3F880200E4BD3F824
:109A400084300C4A53600C4B4FF0FF32C3F8842033
:109A5000019B00221A7002E0019B01221A70039BF5
:109A6000002B01D1FFF7CFFF0023184605B05DF8AA
:109A700004FB00BFA832002000E100E0FC06FFBDAF
:109A800000B585B003468DF80730104B9B68002B5E
:109A900016D09DF80730002B12D1FFF7A9FF0390D5
:109AA0000B4A0A4B1B681360094A084B5B685360FA
:109AB000064B00229A60039B002B01D1FFF7A3FF06
:109AC0000023184605B05DF804FB00BFA832002053
:109AD00000E100E000B583B0019000F02BF80346F0
:109AE000012B03D00549432005F0F2FF0198FFF751
:109AF0008DFF00BF03B05DF804FB00BF7C51030085
:109B000000B583B003468DF8073000F013F8034624
:109B1000012B03D00649512005F0DAFF9DF80730EC
:109B20001846FFF7ADFF00BF03B05DF804FB00BFB0
:109B30007C51030084B0EFF305830193019BC3F3D1
:109B400008030393039B002B0DD1EFF314830093C1
:109B5000009B0293029B03F00103002B0CBF012327
:109B60000023DBB200E00123184604B07047000078
:109B700082B003468DF807309DF8073003F01F02CE
:109B800005499DF907305B09012000FA02F241F80E
:109B9000232000BF02B0704700E100E082B003461E
:109BA0008DF807309DF8073003F01F0206499DF934
:109BB00007305B09012000FA02F2403341F823200C
:109BC00000BF02B0704700BF00E100E082B0034672
:109BD00000918DF807309DF90730002B0CDA009BBF
:109BE000DAB20C499DF8073003F00F03043B520131
:109BF000D2B20B441A7609E0009BDAB206499DF90D
:109C000007305201D2B20B4483F8002300BF02B0E8
:109C1000704700BF00ED00E000E100E000B583B058
:109C200003460A468DF8073013468DF806309DF836
:109C30000630012B03D99DF80630032B0BD99DF874
:109C40000630042B03D99DF80630072B03D90849A9
:109C50006B2005F03DFF9DF806209DF90730114669
:109C60001846FFF7B3FF00BF03B05DF804FB00BF69
:109C7000CC51030000B583B003468DF807309DF941
:109C800007301846FFF774FF00BF03B05DF804FB10
:109C900000B585B00190019B002B0AD0074B43F023
:109CA00001030393019B9B010293039B0298984736
:109CB00000E000BF05B05DF804FB00BFC052030028
:109CC00084B0039002910192039B029A02F5A8725C
:109CD000019943F8221000BF04B0704782B0019090
:109CE0000091019B009A02F5A87253F822301846A1
:109CF00002B0704782B001900091019B009AC3F8B6
:109D0000042300BF02B0704782B001900091019B14
:109D1000009AC3F8082300BF02B0704782B00190D8
:109D20000B46ADF80230BDF80230019A13441B68AF
:109D3000184602B0704784B001900B46ADF802306F
:109D4000BDF80230019A134400221A60BDF80230B7
:109D5000019A13441B680393039B00BF04B0704730
:109D600082B00190019BD3F80435184602B07047C9
:109D700000B583B001900091009BB3F5805F04D3E0
:109D800006494FF4BE7005F0A3FE019B009AC3F88C
:109D9000082500BF03B05DF804FB00BFFC510300C1
:109DA00082B001900B468DF803309DF80320019B93
:109DB00013441A460123136000BF02B0704782B0FB
:109DC00001900091019B009AC3F8442300BF02B0A8
:109DD000704782B001900091019B009AC3F848231C
:109DE00000BF02B07047000000B587B00390029139
:109DF0000192039B002B03D13349552005F068FEE7
:109E0000029B002B03D13049562005F061FE019BD7
:109E1000002B03D12C49572005F05AFE039B5B7998
:109E200019462A4A019B42F82130039B5B79284A54
:109E3000DB0013441B79002B0ED008230593254A21
:109E4000254BD31ADB081B0443F0020323491846B1
:109E5000FDF736FF059B32E0039B1A68029B1B88C7
:109E600019461046FFF784FF039B93F90420029BD9
:109E70009B7819461046FFF7D1FE039B93F90430F7
:109E80001846FFF7F7FE039B5B79114ADB0013448A
:109E900001221A71039B5B7919460D4A039B42F814
:109EA0003130002305930B4A0B4BD31ADB081B04FC
:109EB00043F003030A491846FDF702FF059B1846C5
:109EC00007B05DF804FB00BF2C520300B432002041
:109ED000B8320020A04D0300684D0300705203000B
:109EE0009452030000B583B00190019B002B03D175
:109EF0000649872005F0ECFD019B1B6800211846F0
:109F0000FFF74EFF00BF03B05DF804FB2C520300C7
:109F100000B583B00190019B002B03D106498D2031
:109F200005F0D6FD019B1B6804211846FFF738FF9A
:109F300000BF03B05DF804FB2C52030000B587B0EE
:109F40000390029101928DF80330039B002B03D103
:109F50002149962005F0BCFD4FF48032029B02FAA5
:109F600003F30593029B50339BB29B00ADF8123074
:109F7000019B23F07F430193039B1B6805991846BF
:109F8000FFF7C2FE039B1B6805991846FFF721FFE8
:109F9000039B1B68BDF8122011461846FFF7CBFE45
:109FA000039B1B68019A02991846FFF789FE039BE1
:109FB0001B6805991846FFF702FF9DF80330002B38
:109FC00005D0039B1B6805991846FFF793FE00BF59
:109FD00007B05DF804FB00BF2C52030000B585B04C
:109FE0000390029113468DF80730039B002B03D199
:109FF0000B49A92005F06CFD039B1B6802991846CC
:10A00000FFF7DDFE9DF80730002B05D0039B1B6892
:10A0100002991846FFF76EFE00BF05B05DF804FB1D
:10A020002C52030000B583B001900091019B002BDE
:10A0300003D10A49B32005F04BFD019B1B68009931
:10A040001846FFF7C6FE019B1B6800991846FFF7EC
:10A050005BFE00BF03B05DF804FB00BF2C520300A1
:10A0600000B583B001900B46ADF80230019B002B88
:10A0700003D10F49BA2005F02BFD019B1B68BDF8E9
:10A08000022011461846FFF749FE0346002B09D06F
:10A09000019B1B68BDF8022011461846FFF74BFED6
:10A0A000012300E00023184603B05DF804FB00BF65
:10A0B0002C52030082B001900091019A009BD31AA8
:10A0C00023F07F43184602B07047000000B58BB004
:10A0D0000390029101920093039B002B03D15749F7
:10A0E000CD2005F0F5FC4FF48032029B02FA03F319
:10A0F0000993029B50339BB29B00ADF82230019B29
:10A1000023F07F43019309990398FFF78BFF039B8B
:10A110001B681846FFF724FE0790039B1B680299F3
:10A120001846FFF7DBFD0690039B1B68079A029910
:10A130001846FFF7C5FD039B1B68BDF8222011469A
:10A140001846FFF7F8FD07990698FFF7B3FF034697
:10A15000012B0AD11020FFF79BFD039B1B68BDF864
:10A16000222011461846FFF7E6FD039B1B681846A0
:10A17000FFF7F6FD079007990198FFF79BFF059001
:10A18000039B1B6809991846FFF719FE059B012BD5
:10A1900015D1039B1868019B01331A460299FFF7FA
:10A1A0008FFD1020FFF774FD039B1B681846FFF717
:10A1B000D7FD0246079B934235D00D2339E0039B20
:10A1C0001B68019A02991846FFF77AFD039B1B68EA
:10A1D0001846FFF7C5FD0790019B013B07991846FC
:10A1E000FFF768FF0590009BC3F1FF1303F57F4362
:10A1F000059A9A4201D90D231BE0059B002B12D131
:10A20000039B1868019B01331A460299FFF758FD1A
:10A21000039B1B681846FFF7A3FD0246079B93426A
:10A2200001D00D2305E0012209990398FFF7D6FE1E
:10A23000002318460BB05DF804FB00BF2C5203004E
:10A2400000B583B001900B468DF803309DF80330C4
:10A250001A4602210198FFF7C1FE00BF03B05DF866
:10A2600004FB00B583B001904FF482710198FFF7B1
:10A27000F7FE0346184603B05DF804FB00B583B053
:10A28000019000914FF48032009B02FA03F31946CB
:10A290000198FFF7C7FE00BF03B05DF804FB00B5EF
:10A2A00085B001900091009B50339BB29B00ADF8AC
:10A2B0000E30BDF80E3019460198FFF7D1FE034667
:10A2C000184605B05DF804FB00B583B00190019B12
:10A2D0001B681846FFF744FD0346184603B05DF8B7
:10A2E00004FB00B583B00190019B93F9043018463C
:10A2F000FFF754FC00BF03B05DF804FB08B5044B46
:10A300001B68044A12681046984700BF08BD00BF8A
:10A31000B4320020B832002086B001900091019B39
:10A3200053E8011F8AB2D88902449889824228BF23
:10A33000121A1889824202BFBFF32F8F002307E051
:10A34000C2EA010243E801200028E9D14FF00103ED
:10A350008DF80F30059002910492029A009B1A60CA
:10A360009DF80F30DBB2184606B0704784B00190FC
:10A37000019951E8013FC3EA034341E80132002A51
:10A38000F7D10392029300BF04B0704786B00190EA
:10A390000091019B53E8021F1FFAA1F2D888824264
:10A3A00002BFBFF32F8F00230DE0D88902449889A4
:10A3B000824228BF121AC1EA024243E80220002862
:10A3C000E8D14FF001038DF80F300590029104920F
:10A3D000029A009B1A609DF80F30DBB2184606B057
:10A3E000704784B00190019951E8023FC3EA2343CA
:10A3F00041E80232002AF7D10392029300BF04B071
:10A40000704784B00390029111461A460B46ADF88E
:10A4100006301346ADF80430029B002B01D10E2309
:10A420001FE0BDF80630BDF80420B3FBF2F102FBDB
:10A4300001F29B1A9BB2002B01D0092311E0039B70
:10A44000029A1A60039B00225A60039B00229A60C2
:10A45000039BBDF806209A81039BBDF80420DA8196
:10A460000023184604B0704700B585B001900091F4
:10A47000009B19460198FFF74FFF0346002B07D0BA
:10A48000019B1B68009A128813440393039B00E00E
:10A490000023184605B05DF804FB00B583B00190B9
:10A4A0000091009B1A88009B5B889A4204D1019816
:10A4B000FFF75CFF012300E00023184603B05DF8BE
:10A4C00004FB00B585B001900091009B19460198EE
:10A4D000FFF75CFF0346002B07D0019B1B68009A27
:10A4E000528813440393039B00E00023184605B0F1
:10A4F0005DF804FB00B583B001900091009B1A88C1
:10A50000009B5B889A4204D10198FFF76AFF012300
:10A5100000E00023184603B05DF804FB00B585B0E9
:10A5200001900091009B5B099B00019AD018009B51
:10A5300003F01F03012202FA03F3194600F04CF85E
:10A54000039000BF05B05DF804FB00B585B0019035
:10A550000091009B5B099B00019AD018009B03F0BF
:10A560001F03012202FA03F3DB43194600F064F8EB
:10A57000039000BF05B05DF804FB82B0019000912C
:10A58000009B5B099B00019A13441A68009B03F02F
:10A590001F0322FA03F303F00103002B14BF01236E
:10A5A0000023DBB2184602B0704710B487B00190A8
:10A5B0000091019B009A53E8004F104643E80001C8
:10A5C00091F0000FF7D1059404900391059B184674
:10A5D00007B05DF8044B704710B487B0019000914C
:10A5E000019B009A53E8004F44EA020043E800014F
:10A5F00091F0000FF6D1059404900391049B184646
:10A6000007B05DF8044B704710B487B0019000911B
:10A61000019B009A53E8004F04EA020043E800015E
:10A6200091F0000FF6D1059404900391059B184614
:10A6300007B05DF8044B704710B487B001900091EB
:10A64000019B009A53E8004F04EA020043E800012E
:10A6500091F0000FF6D1059404900391049B1846E5
:10A6600007B05DF8044B704710B487B001900091BB
:10A67000019B009A53E8004F04EB020043E80001FD
:10A6800091F0000FF6D1059404900391049B1846B5
:10A6900007B05DF8044B704710B487B0019000918B
:10A6A000019B009A53E8004FA4EB020043E800012D
:10A6B00091F0000FF6D1059404900391049B184685
:10A6C00007B05DF8044B704700B583B001900121DD
:10A6D0000198FFF781FF0346184603B05DF804FBBD
:10A6E00000B583B0019000210198FFF78DFF03466C
:10A6F000184603B05DF804FB00B583B001900B462B
:10A700008DF80330019B002B03D10849E82005F0A8
:10A71000DFF9019BDA689DF803300199098A01FB92
:10A7200003F31344184603B05DF804FBC85203005A
:10A7300000B583B001900091019B002B03D1084923
:10A74000F52005F0C5F9009B019AD2689B1A019A81
:10A75000128AB3FBF2F3DBB2184603B05DF804FBD8
:10A76000C852030000B585B00190019B002B01D1B8
:10A770000E234CE0019B1B68002B03D12649FF20D0
:10A7800005F0A6F9019B5B68002B04D122494FF428
:10A79000807005F09DF9019B9B68002B04D11E4938
:10A7A00040F2011005F094F9019BDB68002B04D105
:10A7B00019494FF4817005F08BF9019B1B8A002B1E
:10A7C00004D1154940F2031005F082F9019B9A6803
:10A7D000019B5B68D31A8DF80F30019B1B68019AAF
:10A7E00052681A6007E0019B1A681368591C1160CF
:10A7F0009DF80F201A709DF80F305A1E8DF80F200B
:10A80000002BF0D1019B1B6800221A71002318460F
:10A8100005B05DF804FB00BFC852030000B585B069
:10A820000190019B002B04D11F494FF4927005F059
:10A830004FF90023039300238DF80A300DF10A032A
:10A840001846FFF747F9019B1B681A68019B5B6874
:10A850009A421FD9019B1B681A68013A1A601B684B
:10A860001B7819460198FFF747FF0390019B9A68F0
:10A87000019B1B681B68D31A8DF80B30019B1B686A
:10A880001B799DF80B209A4204D9019B1B689DF807
:10A890000B201A719DF80A301846FFF731F9039B17
:10A8A000184605B05DF804FBC852030010B584B02B
:10A8B00001900091019B002B04D1154940F24710F3
:10A8C00005F006F9009B002B04D111494FF4A47048
:10A8D00005F0FEF8009B039300238DF80B300DF17B
:10A8E0000B031846FFF7F6F8019B1B681C68621CF7
:10A8F0001A6003990198FFF71BFF034623709DF828
:10A900000B301846FFF7FCF800BF04B010BD00BFC5
:10A91000C852030000B583B00190019B002B03D106
:10A920000C49312005F0D4F8019B9B68002B0CD01A
:10A93000019B5B69019A1069019A1168019A9268FA
:10A940009847019B00229A6000E000BF03B05DF8C9
:10A9500004FB00BF105303000EB400B584B0019097
:10A96000019B002B03D11849422005F0B1F8019B4F
:10A970005B69002B03D11449432005F0A9F8019B22
:10A980001B68002B03D11049442005F0A1F8019B5E
:10A990005B68002B03D10C49452005F099F8059B15
:10A9A000002B0AD00023039306AB039303AB1A4694
:10A9B0000599019800F0B8F900E000BF04B05DF817
:10A9C00004EB03B0704700BF1053030000B583B021
:10A9D00001900B468DF803309DF803300A2B03D10C
:10A9E0000D210198FFF7F2FF019B1A68019B9B68FC
:10A9F000581C0199886013449DF803201A70019B2C
:10AA00009A68019B5B689A4202D30198FFF782FF24
:10AA100000BF03B05DF804FB00B587B0039002915E
:10AA20000192009300230593009B03F00103002B88
:10AA300024D00BE0029B01330293059B0133059365
:10AA40009DF8133019460398FFF7C0FF029B1B784F
:10AA50008DF813309DF81330002BEBD106E0019BED
:10AA6000013B019320210398FFF7B0FF019A059B5A
:10AA70009A422ED9019B002BF1D12AE0029B002B98
:10AA80000BD0029809F061FD059006E0019B013BA7
:10AA9000019320210398FFF799FF019A059B9A42A1
:10AAA0000FD9019B002BF1D10BE0029B01330293E4
:10AAB000059B013305939DF8133019460398FFF762
:10AAC00085FF029B1B788DF813309DF81330002B07
:10AAD000EBD100BF07B05DF804FB000000B589B002
:10AAE0000390029101920093029B07930123069326
:10AAF00007E0079A019BB2FBF3F30793069B013330
:10AB00000693079A019B9A42F3D2009A069B9A42B7
:10AB100001D9009B06930B9B03F00103002B22D16C
:10AB20000A9B002B1FD00B9B03F00203002B06D0C7
:10AB3000009B002B03D130238DF8173002E0202337
:10AB40008DF8173008E00A9B013B0A939DF81730F7
:10AB500019460398FFF73AFF0A9B002B03D0069A89
:10AB60000A9B9A42EFD301230793009B012B03D941
:10AB7000009B013B009309E0029A079BB2FBF3F3B1
:10AB80000493049A019B9A4200D205E0079B019A24
:10AB900002FB03F30793E8E7029A079BB2FBF3F388
:10ABA0000493049B079A02FB03F3029AD31A0293BD
:10ABB000154A049B13441B7819460398FFF706FFB8
:10ABC000079A019BB2FBF3F30793079B002BE3D19A
:10ABD0000B9B03F00103002B11D00A9B002B0ED01E
:10ABE00006E00A9B013B0A9320210398FFF7EEFE43
:10ABF0000A9B002B03D0069A0A9B9A42F1D300BF0E
:10AC000009B05DF804FB00BF9853030000B589B09C
:10AC10000590049103920293049B002BB8BF5B4202
:10AC200006930123079307E0039B069A92FBF3F335
:10AC30000693079B01330793039B069A9A42F3DA24
:10AC4000029A079B9A4201D9029B07930A9B002B09
:10AC50000AD0049B002B04DB0B9B03F00403002BA6
:10AC600002D00A9B013B0A930B9B03F00203002BCB
:10AC700002D0029B002B16D00B9B03F00103002B8C
:10AC800011D10A9B002B0ED006E00A9B013B0A93D0
:10AC900020210598FFF79AFE0A9B002B03D0079A04
:10ACA0000A9B9A42F1D3049B002B07DA049B5B4278
:10ACB00004932D210598FFF789FE08E00B9B03F014
:10ACC0000403002B03D02B210598FFF77FFE0B9B7D
:10ACD00003F00203002B19D00B9B03F00103002BA0
:10ACE00014D1029B002B11D10A9B002B0ED006E041
:10ACF0000A9B013B0A9330210598FFF767FE0A9BE8
:10AD0000002B03D0079A0A9B9A42F1D304990B9B1C
:10AD100001930A9B0093029B039A0598FFF7DEFEBE
:10AD200000BF09B05DF804FB00B58FB00590049139
:10AD30000392059B002B04D1C84940F2522004F035
:10AD4000C7FE059B5B69002B04D1C4494FF4157005
:10AD500004F0BEFE059B1B68002B04D1BF4940F2E6
:10AD6000552004F0B5FE059B5B68002B04D1BB4960
:10AD700040F2562004F0ACFE049B002B00F0ED8165
:10AD8000049B1B788DF83730049B013304939DF8A6
:10AD90003730002B00F0D8819DF83730252B40F05C
:10ADA000C78100230A9301230C93049B1B788DF821
:10ADB00037309DF837302D2B04D0302B0AD02B2B79
:10ADC00010D017E00A9B43F001030A93049B013360
:10ADD000049312E00A9B43F002030A93049B01339D
:10ADE00004930AE00A9B43F004030A93049B013393
:10ADF000049302E000230C9300BF0C9B002BD4D1E2
:10AE0000002309939DF837302A2B0CD1039B1B6834
:10AE1000191D039A11601B68099A13440993049B36
:10AE2000013304931AE0049B1B788DF837309DF8AA
:10AE300037302F2B12D99DF83730392B0ED8049B81
:10AE400001330493099A13469B0013445B001A468E
:10AE50009DF837301344303B0993D3E700230B931D
:10AE6000049B1B788DF837309DF837302E2B1DD181
:10AE7000049B01330493049B1B788DF837309DF8B5
:10AE800037302F2B12D99DF83730392B0ED8049B31
:10AE9000013304930B9A13469B0013445B001A463C
:10AEA0009DF837301344303B0B93E4E7049B1B7849
:10AEB0008DF837309DF837306C2B03D09DF8373044
:10AEC000682B07D1049B01330493049B1B788DF8F6
:10AED0003730EFE79DF83730253B532B00F22381C5
:10AEE00001A252F823F000BF1DB1020027B10200F9
:10AEF00027B1020027B1020027B1020027B10200EA
:10AF000027B1020027B1020027B1020027B10200D9
:10AF100027B1020027B1020027B1020027B10200C9
:10AF200027B1020027B1020027B1020027B10200B9
:10AF300027B1020027B1020027B1020027B10200A9
:10AF400027B1020027B1020027B1020027B1020099
:10AF500027B1020027B1020027B1020027B1020089
:10AF600027B1020027B1020027B1020027B1020079
:10AF700027B1020027B1020027B1020027B1020069
:10AF800027B1020027B1020027B1020027B1020059
:10AF900027B1020027B1020027B1020027B1020049
:10AFA00027B1020027B1020027B1020027B1020039
:10AFB00027B10200A9B0020027B1020027B10200A8
:10AFC00027B1020027B1020027B1020027B1020019
:10AFD00027B1020027B1020027B1020027B1020009
:10AFE00039B0020061B0020027B1020027B10200AF
:10AFF00027B1020027B1020061B0020027B10200B0
:10B0000027B1020027B1020027B1020027B10200D8
:10B0100027B10200E9B0020027B1020027B1020007
:10B02000CDB0020027B1020085B0020027B10200B6
:10B0300027B10200A9B00200039B1B68191D039AE7
:10B0400011601B680C930C9B8DF823309DF8233006
:10B0500019460598FFF7BAFC66E000BF505303009D
:10B06000039B1B68191D039A11601B680C930A9BB4
:10B070000193099B00930B9B0A220C990598FFF7FB
:10B08000C5FD51E0039B1B68191D039A11601B68E5
:10B090000C930C990A9B0193099B00930B9B0A222A
:10B0A0000598FFF71BFD3FE0039B1B68191D039AE2
:10B0B00011601B680C930C990A9B0193099B0093E8
:10B0C0000B9B10220598FFF709FD2DE0039B1B68E1
:10B0D000191D039A11601B6807930A9B099A079927
:10B0E0000598FFF799FC1FE0039B1B68191D039A45
:10B0F00011601B680C9330210598FFF767FC7821DD
:10B100000598FFF763FC0C99002301930823009333
:10B11000082310220598FFF7E1FC05E0252105989A
:10B12000FFF754FC00E000BF049B0133049305E0EB
:10B130009DF8373019460598FFF748FC049B1B78AB
:10B14000002B7FF41DAE00E000BF059B1B7B002B96
:10B1500004D00598FFF7DEFB00E000BF0FB05DF8FC
:10B1600004FB00BF00B583B001900198FFF7FAFA25
:10B170000346184603B05DF804FB00B58BB00190A0
:10B180000091019B1B8A043B0793009A079B134481
:10B19000DA1C079BB2FBF3F38DF81B300198FFF725
:10B1A0003DFB0590059B002B01D1002338E0059B5A
:10B1B00000221A71059B01225A71079B9AB2059BC6
:10B1C000DA80059B09939DF81B30013B0493099B92
:10B1D000019A1A60002308931DE00198FFF71EFBF7
:10B1E0000390039B002B0ED0059B5B790133DAB2F1
:10B1F000059B5A71099B039A1A60039B019A1A6076
:10B20000039B099304E0059800F00EF8002307E083
:10B21000089B01330893089A049B9A42DDD3059B4F
:10B2200018460BB05DF804FB00B58BB00190019B94
:10B230000793079B5B798DF81B30019B08939DF862
:10B240001B30013B05930023099305E0089B1B6815
:10B250000893099B01330993099A059B9A42F5D3F8
:10B26000089B1B680493019B0893002309930BE040
:10B27000089B1B68039308990498FFF717FB039B2F
:10B280000893099B013309939DF81B30099A9A4250
:10B29000EED300BF0BB05DF804FB00B585B00190A4
:10B2A000019B0393039B043301211846FFF7DCF94C
:10B2B00000BF05B05DF804FB00B587B00190019BAD
:10B2C0000593059B043301211846FFF7E5F9034672
:10B2D000039303AB0493049B1B78002B02D10198CA
:10B2E000FFF7A2FF00BF07B05DF804FB00B591B007
:10B2F0000390029101920093039B002B03D14349D9
:10B30000B62004F0E5FB039B0993039B0F93099B75
:10B31000DB881A46099B5B7903FB02F3043B089325
:10B32000009A089B9A4203D33849C42004F0D0FB0A
:10B33000099BDB880793009B1A1D079BB2FBF3F365
:10B340000E93009B0433079AB3FBF2F2079901FBBB
:10B3500002F29B1A0D93019B1A68009B1344089AF2
:10B360009A4203D2089A009BD31A01E0019B1B6802
:10B370000C93019B0C9A1A6005E00F9B1B680F93BE
:10B380000E9B013B0E930E9B002BF6D100230B93DB
:10B39000079A0D9BD31A0A930A9A0C9B934228BFD3
:10B3A00013460A932AE0029A0B9B134406930F9AC2
:10B3B0000D9B1344043305939DF84830002B05D0B2
:10B3C0000A9A0599069809F042F804E00A9A069943
:10B3D000059809F03CF800230D930F9B1B680F9311
:10B3E0000C9A0A9BD31A0C930B9A0A9B13440B9347
:10B3F000079A0C9B934228BF13460A930C9B002B81
:10B40000D1D100BF11B05DF804FB00BFA853030009
:10B4100000B589B00590049103920293039B0793B2
:10B4200007AA00230093029B04990598FFF75EFF8B
:10B43000079B039A9A4203D00349F62004F048FB85
:10B4400000BF09B05DF804FBA853030000B589B044
:10B450000590049103920293039B079307AA01238B
:10B460000093029B04990598FFF740FF079B039AFE
:10B470009A4204D004494FF4807004F029FB00BFC5
:10B4800009B05DF804FB00BFA853030082B0034677
:10B490008DF807309DF8073003F01F0206499DF92B
:10B4A00007305B09012000FA02F2603341F82320E3
:10B4B00000BF02B0704700BF00E100E000B583B0FC
:10B4C0000190019B002B03D10649722004F000FB80
:10B4D000019B00221A60BFF35F8F00BF03B05DF8CD
:10B4E00004FB00BF4454030041DF704700BF18460F
:10B4F00000B585B000238DF803300DF10303184625
:10B50000FEF7E8FAF1EE103A0193019B0393039BD7
:10B5100023F09F030293029BE1EE103ABFF35F8F8B
:10B520002620FFF7B3FF9DF803301846FEF7E8FA30
:10B53000039B03F00703002B03D004497D2004F094
:10B54000C7FA00BF05B05DF804FB00BF88540300D4
:10B5500008B5064B00221A700548FFF7AFFF0549F2
:10B56000054800F04BF80023184608BDC4320020FF
:10B57000C0320020D4540300C832002000B583B08C
:10B58000FFF7B6FF08F0AEFB0346002B0ED0FFF727
:10B59000ABFF0190019B002B0BD0019B022B08D02D
:10B5A00006494FF4B07004F093FA02E020BF40BFA8
:10B5B00020BF00BF03B05DF804FB00BF8854030048
:10B5C00082B00190019B9B6800229A60019B9B685E
:10B5D00000221A61019B9B6800225A61019B9B68B3
:10B5E0000022DA60019B9B6800225A60019B9B68E5
:10B5F00000221A6000BF02B07047000000B583B09F
:10B6000001900091019B002B03D11049502004F0C0
:10B610005FFA009B002B03D10C49512004F058FA2B
:10B62000019B009A1A60019B1B681A68019B5A6073
:10B63000019B5A68019B1B685B689A4202D1019B7F
:10B6400000225A6000BF03B05DF804FBE054030021
:10B6500000B583B00190019B002B03D114496320F6
:10B6600004F036FA019B1B68002B03D110496420BB
:10B6700004F02EFA019B5B68002B14D0019B5B68E1
:10B680001A46019B1B689B6813441A46019B5A602B
:10B69000019B5A68019B1B685B689A4204D1019B1D
:10B6A00000225A6000E000BF03B05DF804FB00BF59
:10B6B000E054030000B585B001900091019B002B80
:10B6C00003D118493A2004F003FA009B002B03D160
:10B6D00014493B2004F0FCF9019B5B6803930FE0E5
:10B6E000019B9B68039A126800991046984703468D
:10B6F00083F00103DBB2002B07D1039B1B6803938C
:10B70000039B1B68002BEBD100E000BF039B1A6872
:10B71000009B1A60039B009A1A6000BF05B05DF899
:10B7200004FB00BF5055030000B585B00190019B9C
:10B73000002B03D10C49512004F0CAF9019B5B682E
:10B740001B680393019B5B681B68002B06D0019B61
:10B750005B681A68019B5B6812681A60039B184655
:10B7600005B05DF804FB00BF5055030000B583B081
:10B770000190019B002B03D105495D2004F0A8F93D
:10B78000019B5B681B68184603B05DF804FB00BFB3
:10B790005055030000B585B001900091019B002B2E
:10B7A00003D11649692004F093F9009B002B03D1C3
:10B7B00012496A2004F08CF900238DF80F30019BA8
:10B7C0005B6802930FE0029B1B68009A9A4207D1C4
:10B7D000009B1A68029B1A6001238DF80F3006E067
:10B7E000029B1B680293029B1B68002BEBD19DF808
:10B7F0000F30184605B05DF804FB00BF505503003C
:10B8000000B585B00190019800F00EF80390039BFD
:10B81000002B01D0039B00E0024B184605B05DF8F9
:10B8200004FB00BF9C55030086B00190164B0593A6
:10B83000164B04931FE0049A059BD31ADB10DA0F12
:10B8400013445B10DB00059A13440393039B1B68AE
:10B850000293029A019B9A4202D9039B04930AE045
:10B86000029A019B9A4203D2039B0833059302E09C
:10B87000039B5B6804E0059A049B9A42DBD3002398
:10B88000184606B0704700BF9C590300C45A030015
:10B8900000B583B001900091019BDBB21846FEF722
:10B8A00077F8019B184603B05DF804FBBFF34F8F98
:10B8B000054BDB6803F4E0620349044B1343CB60A0
:10B8C000BFF34F8F00BFFDE700ED00E00400FA0575
:10B8D000024B034A1A6000BF704700BF6C2B002068
:10B8E0000090D00308B500F025F90346002B0ED0D8
:10B8F0004FF080430022C3F80C214FF08043002218
:10B90000C3F810214FF080430022C3F8382500F01F
:10B9100035F90346002B76D04FF080537C4AD3F89C
:10B920000434C2F820354FF08053794AD3F80834F4
:10B93000C2F824354FF08053754AD3F80C34C2F85E
:10B9400028354FF08053724AD3F81034C2F82C35A2
:10B950004FF080536E4AD3F81434C2F830354FF0AC
:10B9600080536B4AD3F81834C2F834354FF0805303
:10B97000674AD3F81C34C2F840354FF08053644A0C
:10B98000D3F82034C2F844354FF08053604AD3F8DE
:10B990002434C2F848354FF080535D4AD3F8283438
:10B9A000C2F84C354FF08053594AD3F82C34C2F8C2
:10B9B00050354FF08053564AD3F83034C2F85435DE
:10B9C0004FF08053524AD3F83434C2F860354FF008
:10B9D00080534F4AD3F83834C2F864354FF080535F
:10B9E0004B4AD3F83C34C2F868354FF08053484A8C
:10B9F000D3F84034C2F86C354FF08053444AD3F842
:10BA00004434C2F8703500F0DDF80346002B02D054
:10BA1000404B414A1A6000F0E7F80346002B03D080
:10BA20003E4BFB22C3F8182500F0F0F80346002B2C
:10BA30000AD03B4B1B6823F00F023A4B1B6803F004
:10BA40000F03374913430B6000F0F2F80346002B55
:10BA500003D0354B4FF400721A6000F0FBF8034638
:10BA6000002B0DD04FF08043D3F8003403F00103D6
:10BA7000002B05D04FF080436FF00102C3F8002483
:10BA80002A4BD3F88830294A43F47003C2F888302F
:10BA9000BFF34F8FBFF36F8F4FF01023D3F80032F7
:10BAA000002B05DB4FF01023D3F80432002B2BDAE8
:10BAB0001F4B0122C3F8042500BF1D4BD3F80034EF
:10BAC000002BFAD04FF010231222C3F8002200BF3F
:10BAD000174BD3F80034002BFAD04FF0102312226A
:10BAE000C3F8042200BF124BD3F80034002BFAD065
:10BAF0000F4B0022C3F8042500BF0D4BD3F80034D0
:10BB0000002BFAD0FFF7D2FEFFF7E2FE00BF08BD20
:10BB100000C000408C5600404881030000F0004007
:10BB2000E40E0040580200104096024000ED00E094
:10BB300000E001400F4B1B68082B17D10E4B1B6810
:10BB4000002B01D1012312E00B4B1B68012B01D10B
:10BB500001230CE0084B1B68022B01D1012306E0F6
:10BB6000054B1B68032B01D1012300E0012318467C
:10BB7000704700BF30010010340100100F4B1B68EC
:10BB8000082B17D10E4B1B68002B01D1012312E0AB
:10BB90000B4B1B68012B01D101230CE0084B1B68E8
:10BBA000022B01D1012306E0054B1B68032B01D1B9
:10BBB000012300E001231846704700BF3001001048
:10BBC00034010010064B1B68082B05D1054B1B6880
:10BBD000002B01D1012300E000231846704700BF6D
:10BBE0003001001034010010064B1B68082B05D1F2
:10BBF000054B1B68002B01D1012300E000231846F0
:10BC0000704700BF3001001034010010064B1B6864
:10BC1000082B05D1054B1B68002B01D1012300E047
:10BC200000231846704700BF300100103401001097
:10BC3000064B1B68082B05D1054B1B68002B01D157
:10BC4000012300E000231846704700BF30010010B8
:10BC5000340100100F4B1B68082B17D10E4B1B68CB
:10BC6000002B01D1012312E00B4B1B68012B01D1EA
:10BC700001230CE0084B1B68022B01D1012306E0D5
:10BC8000054B1B68032B01D1012300E0012318465B
:10BC9000704700BF300100103401001000B583B0C0
:10BCA0000190019B1B682F2B04D90B4940F2CD104A
:10BCB00003F00EFF019B1B681F2B02D84FF0A0431F
:10BCC00006E0019B1B6803F01F02019B1A60034BF7
:10BCD000184603B05DF804FBC45A0300000300508B
:10BCE00000B585B00190084611461A4603468DF806
:10BCF00003300B468DF8023013468DF8013001AB4E
:10BD00001846FFF7CBFF03909DF803209DF8023003
:10BD10005B001A439DF801309B001A439DF81830D0
:10BD20001B0242EA03019DF81C301B04019A1943CF
:10BD3000039B02F5E07243F8221000BF05B05DF8E6
:10BD400004FB00B585B0039000230193002300930A
:10BD50000023012201210398FFF7C2FF00BF05B0B5
:10BD60005DF804FB00B585B003900B468DF80B30F1
:10BD70009DF80B200023019300230093134600221B
:10BD800000210398FFF7ACFF00BF05B05DF804FB8E
:10BD900000B585B0019001AB1846FFF77FFF039017
:10BDA000019B012202FA03F31946039800F086F87A
:10BDB00000BF05B05DF804FB00B585B0019001AB94
:10BDC0001846FFF76BFF0390019B012202FA03F371
:10BDD0001946039800F07CF800BF05B05DF804FB3D
:10BDE00000B585B0019001AB1846FFF757FF0390EF
:10BDF000039BD3F804350293029BDA43019B012194
:10BE000001FA03F31A40039BC3F80825019B0122A2
:10BE10009A40029B1A40039BC3F80C2500BF05B053
:10BE20005DF804FB00B583B001900091009B002BEE
:10BE300003D10198FFF7C0FF02E00198FFF7A8FFC8
:10BE400000BF03B05DF804FB00B585B0019001AB05
:10BE50001846FFF723FF0390039800F01FF80246EF
:10BE6000019B22FA03F303F00103184605B05DF8C5
:10BE700004FB00B585B0019001AB1846FFF70EFF3B
:10BE80000390039800F012F80246019B22FA03F394
:10BE900003F00103184605B05DF804FB82B0019081
:10BEA000019BD3F81035184602B0704782B001905C
:10BEB000019BD3F80435184602B0704782B0019058
:10BEC0000091019B009AC3F8082500BF02B070479B
:10BED00082B001900091019B009AC3F80C2500BF2D
:10BEE00002B0704700B585B00190019B032B03D9C8
:10BEF00011493A2003F0ECFD104A019B13441B78D2
:10BF00001846FFF7B6FF0346002B14BF012300239A
:10BF10008DF80F309DF80F30002B14BF0123002344
:10BF2000DBB283F00103DBB203F00103DBB218469E
:10BF300005B05DF804FB00BFF45A0300305B03005A
:10BF400000B583B00190019B032B03D90749412021
:10BF500003F0BEFD064A019B13441B7800211846DE
:10BF6000FFF760FF00BF03B05DF804FBF45A030065
:10BF7000305B030000B583B00190019B032B03D914
:10BF80000749472003F0A4FD064A019B13441B7890
:10BF900001211846FFF746FF00BF03B05DF804FB20
:10BFA000F45A0300305B030000B583B00023019313
:10BFB00005E00198FFF7DEFF019B01330193019B30
:10BFC000032BF6D900BF03B05DF804FB00B583B0C6
:10BFD0000023019305E00198FFF7B2FF019B0133B5
:10BFE0000193019B032BF6D900BF03B05DF804FB5E
:10BFF00000B583B00190019B032B03D907495F2053
:10C0000003F066FD064A019B13441B781846FFF7B0
:10C01000E7FE00BF03B05DF804FB00BFF45A030065
:10C02000305B030000B583B00023019309E0094AA7
:10C03000019B13441B781846FFF783FE019B0133D5
:10C040000193019B032BF2D9FFF7AEFF00BF03B0B2
:10C050005DF804FB305B030000B585B00190019BE7
:10C06000032B03D91149AC2003F032FD104A019B88
:10C0700013441B781846FFF7E7FE0346002B14BF56
:10C08000012300238DF80F309DF80F30002B14BFD3
:10C0900001230023DBB283F00103DBB203F00103D1
:10C0A000DBB2184605B05DF804FB00BFF45A03008C
:10C0B000345B030000B583B0002301930AE0094A12
:10C0C000019B13441B7803211846FFF74BFE019B8D
:10C0D00001330193019B032BF1D900BF03B05DF83D
:10C0E00004FB00BF345B030084B001904FF0FF33CA
:10C0F0000293002303930DE00A4A039B13441B7829
:10C100001A46019B934202D1039B029305E0039BD5
:10C1100001330393039B032BEED9029B184604B013
:10C12000704700BF345B030000B583B00190019BF2
:10C13000032B03D90549CB2003F0CAFC044A019B19
:10C1400013441B78184603B05DF804FBF45A03004F
:10C15000345B030000B583B00190019B03F0010341
:10C16000002B01D0FFF75EFF019B03F00203002BC1
:10C1700001D0FFF79FFF00BF03B05DF804FB000094
:10C1800082B003468DF807309DF8073003F01F0298
:10C1900006499DF907305B09012000FA02F22033BD
:10C1A00041F8232000BF02B0704700BF00E100E06B
:10C1B00008B507F097FD034683F00103DBB2002BBF
:10C1C00003D10549792003F083FC00F03FFB034BCA
:10C1D00000229A7000BF08BD405B0300D0320020EF
:10C1E00000B583B000230193144B1B78002B02D0C1
:10C1F000852301931CE0114B00229A600F4B002213
:10C200005A600E4B00221A610C4B0022DA600C4877
:10C2100000F0E2FA019007F065FD034683F00103A8
:10C22000DBB2002B01D000F0FDFA044B01221A70A2
:10C23000019B184603B05DF804FB00BFD03200201C
:10C2400019C3020084B00190019B1B680393039BF8
:10C25000002B03D0039B1A68019B1A60039B1846AE
:10C2600004B0704700B583B0164B1B78002B04D187
:10C2700015494FF4857003F02BFC124BDB68002B43
:10C2800004D1114940F20B1003F022FC00238DF879
:10C2900007300DF107031846FDF71CFC094BDB685E
:10C2A000013B084AD360074BDB68002B01D1FFF745
:10C2B0007FFF9DF807301846FDF722FC00BF03B052
:10C2C0005DF804FBD0320020405B030000B585B070
:10C2D00003468DF807309DF80730002B02D10C4B38
:10C2E000039301E00B4B03930398FFF7ABFF02901E
:10C2F000029B002B06D0029B5B689DF8072010462E
:10C300009847F1E700BF00BF05B05DF804FB00BF30
:10C31000D8320020E032002000B583B003468DF80B
:10C3200007309DF80730002B05D10A4B01225A70C7
:10C330000020FFF7CBFF9DF80730012B05D1054BFF
:10C3400001229A700120FFF7C1FF00BF03B05DF822
:10C3500004FB00BFD032002000B583B001900091F3
:10C36000019B002B05D1054B01225A700020FFF7DD
:10C37000ADFF00BF03B05DF804FB00BFD03200206A
:10C3800000B585B0034600918DF807309DF8073061
:10C39000012B07D0032B24D0002B30D10020FFF736
:10C3A000EFFE2DE000238DF80F300DF10F0318463E
:10C3B000FDF790FB144B1B7883F00103DBB2002BDD
:10C3C00001D0FFF70DFF104BDB6801330E4AD3603D
:10C3D0000D4B01229A709DF80F301846FDF790FB27
:10C3E0000EE0094B1B78002B04D1084940F2452090
:10C3F00003F06EFB00F016FAFFF734FF00E000BF19
:10C4000000BF05B05DF804FBD0320020405B0300A4
:10C4100000B589B001900091009B0793019B1B78A8
:10C420008DF80C30019B5B680493019B9B68DBB229
:10C430008DF81430019BDB680693074A079B52F87E
:10C4400023300649079A51F8221003AA104698474C
:10C4500000BF09B05DF804FBE4320020EC3200209C
:10C4600000B589B001900091009B0793019B1B7858
:10C470008DF80C30019B5B680493019B9B68DBB2D9
:10C480008DF81430019BDB680693074A079B52F82E
:10C4900023300649079A51F8221003AA10469847FC
:10C4A00000BF09B05DF804FBE4320020EC3200204C
:10C4B00030B58FB0039002910192039B1B780C93CF
:10C4C0002C490C9B019A41F82320029B1A692A49A6
:10C4D0000C9B41F823200C9B012B07D1029B5B7F17
:10C4E000002B03D12549762003F0F2FA029B5B7FF3
:10C4F0001946234A0C9B13440A461A70029B04AC4B
:10C500001D460FCD0FC495E80F0084E80F000C9B6B
:10C51000089300230D93039B1B781A46184B9B5CD2
:10C52000002B0DD0039B181D019B002B01D0154A39
:10C5300000E0002204AB194602F0B0F90D9014E0BF
:10C54000039B1B781A460E4B9B5C002B0DD1039B63
:10C5500003F10C00019B002B01D00B4A00E00022EC
:10C5600004AB194601F00EFB0D900D9B18460FB061
:10C5700030BD00BFE4320020EC320020885B0300B5
:10C58000F432002011C4020061C4020082B00346EC
:10C590008DF807309DF8073003F01F0205499DF91B
:10C5A00007305B09012000FA02F241F8232000BFA6
:10C5B00002B0704700E100E082B0034600918DF8C0
:10C5C00007309DF90730002B0CDA009BDAB20C49DA
:10C5D0009DF8073003F00F03043B5201D2B20B4425
:10C5E0001A7609E0009BDAB206499DF9073052013C
:10C5F000D2B20B4483F8002300BF02B0704700BFE3
:10C6000000ED00E000E100E082B00190019B1B0B17
:10C610005BB2184602B0704700B583B003460A46C5
:10C620008DF8073013468DF806309DF80630012B43
:10C6300003D99DF80630032B0BD99DF80630042B47
:10C6400003D99DF80630072B03D908496B2003F066
:10C650003FFA9DF806209DF9073011461846FFF76E
:10C66000ABFF00BF03B05DF804FB00BFD05B03006D
:10C6700000B583B003468DF807309DF907301846A2
:10C68000FFF784FF00BF03B05DF804FB82B00346F0
:10C690008DF807300F4A9DF90730002B00DA1F3361
:10C6A0005B115BB252F823209DF90730594203F029
:10C6B0001F0301F01F0158BF4B425BB222FA03F384
:10C6C00003F00103002B14BF01230023DBB2184643
:10C6D00002B0704700E100E082B001904FF080426C
:10C6E000019BC2F8083300BF02B0704782B0034616
:10C6F0008DF807309DF8073003F1804301221A605E
:10C7000000BF02B0704784B00346ADF80630BDF8F4
:10C71000063003F1804300221A60BDF8063003F1B1
:10C7200080431B680393039B00BF04B0704782B033
:10C730000346ADF80630BDF8063003F180431B68B0
:10C74000002B14BF01230023DBB2184602B0704750
:10C7500082B001904FF08042019BC2F8183500BFB3
:10C7600002B070474FF08043D3F818341B0C03F02D
:10C770000103002B14BF01230023DBB218467047CE
:10C7800000B583B006238DF807304FF08040FFF7E7
:10C790003BFF03461846FFF779FF034683F001038A
:10C7A000DBB2002B13D04FF08040FFF72DFF034684
:10C7B0001A469DF8073019461046FFF72DFF4FF037
:10C7C0008040FFF721FF03461846FFF751FF00BFE7
:10C7D00003B05DF804FB000000B585B00190019B3B
:10C7E000002B03D10D49A42003F072F90023039319
:10C7F0000B4B1B79002B02D08523039308E0084ADA
:10C80000019B1360064B01221A71054B00225A71DD
:10C81000039B184605B05DF804FB00BF085C0300ED
:10C82000F832002008B5074B1B79002B03D10649CD
:10C83000BD2003F04DF9FFF7A3FF0120FFF788FFAC
:10C8400000BF08BDF8320020085C030008B5094BA2
:10C850001B79002B03D10849F72003F039F90C208C
:10C86000FFF744FF00BFFFF77DFF0346002BFAD11F
:10C8700000BF08BDF8320020085C030008B54FF483
:10C880008070FFF754FF0346002B14D04FF48070E4
:10C89000FFF739FF0120FFF71FFF114B5B7983F092
:10C8A0000103DBB2002B06D00D4B01225A710C4B59
:10C8B0001B68002098474FF48270FFF738FF03464B
:10C8C000002B0AD04FF48270FFF71DFF0220FFF704
:10C8D00003FF034B1B680120984700BF08BD00BF42
:10C8E000F832002082B003468DF807309DF80730FB
:10C8F00003F01F0205499DF907305B09012000FA8A
:10C9000002F241F8232000BF02B0704700E100E0CE
:10C9100082B0034600918DF807309DF90730002B57
:10C920000CDA009BDAB20C499DF8073003F00F03D4
:10C93000043B5201D2B20B441A7609E0009BDAB2F2
:10C9400006499DF907305201D2B20B4483F8002307
:10C9500000BF02B0704700BF00ED00E000E100E062
:10C9600000B583B003460A468DF8073013468DF8AC
:10C9700006309DF80630012B03D99DF80630032BB5
:10C980000BD99DF80630042B03D99DF80630072BF0
:10C9900003D908496B2003F09BF89DF806209DF908
:10C9A000073011461846FFF7B3FF00BF03B05DF82C
:10C9B00004FB00BF505C030000B583B003468DF854
:10C9C00007309DF907301846FFF78CFF00BF03B012
:10C9D0005DF804FB00B583B00346ADF80630BDF842
:10C9E0000630184600F026F803461B68012B0CBFE2
:10C9F00001230023DBB2184603B05DF804FB00B549
:10CA000085B00346ADF80630BDF80630184600F094
:10CA100011F803461A4600231360BDF80630184685
:10CA200000F008F803461B680393039B00BF05B0A2
:10CA30005DF804FB82B00346ADF80630BDF8063061
:10CA400003F1804303F5C043184602B0704700006D
:10CA500082B00190034A019BC2F8043300BF02B0C8
:10CA6000704700BF0060004082B00190034BD3F8D4
:10CA70000423019B1340184602B070470060004039
:10CA800082B00190084A019B03F5A27352F823304B
:10CA9000054943F00102019B03F5A27341F82320ED
:10CAA00000BF02B0704700BF0060004084B0039038
:10CAB000029113468DF80730144A039B03F5A273C5
:10CAC00052F82330114923F44F3323F44073039A6F
:10CAD00002F5A27241F822300C4A039B03F5A273BF
