:020000022000DC
:10600000000004205D630200B9630200BB6302006C
:10601000BD630200BF630200C16302000000000014
:10602000000000000000000000000000C363020048
:10603000C563020000000000C7630200C9630200DC
:1060400035AF0200CB63020089BC02007DDF020095
:10605000C5EC0200CB630200A1B90200CB630200D1
:10606000CB630200CB630200CB630200CB63020070
:10607000CB630200CB630200CB630200CB63020060
:10608000CB630200CD880200CB630200CB63020029
:106090000D890200CB630200E5490300CB630200D7
:1060A000CB630200CB630200CB630200CB63020030
:1060B000CB630200CB630200000000000000000080
:1060C000CB630200CB630200CB630200CB63020010
:1060D000CB630200CB630200CB630200CB63020000
:1060E000CB630200CB630200CB6302000000000020
:1060F00000000000CB63020000000000CB63020040
:10610000000000000000000000000000000000008F
:10611000000000000000000000000000000000007F
:10612000000000000000000000000000000000006F
:10613000000000000000000000000000000000005F
:10614000000000000000000000000000000000004F
:10615000000000000000000000000000000000003F
:10616000000000000000000000000000000000002F
:10617000000000000000000000000000000000001F
:10618000000000000000000000000000000000000F
:1061900000000000000000000000000000000000FF
:1061A00000000000000000000000000000000000EF
:1061B00000000000000000000000000000000000DF
:1061C00000000000000000000000000000000000CF
:1061D00000000000000000000000000000000000BF
:1061E00000000000000000000000000000000000AF
:1061F000000000000000000000000000000000009F
:10620000354936480A1A02D0072291438D4634494F
:1062100034480A1A06D00722914381F309880222E2
:1062200082F3148830483149314A00F044F831484B
:106230003149324A00F03FF831483249324A00F0E1
:106240003AF832483249334A00F035F83248334997
:10625000334A00F030F833483349344A00F02BF821
:1062600033483449344A00F026F83448344900228F
:1062700000F02CF833483449002200F027F8334866
:106280003349091A082902DB002202604160314AC1
:1062900090471F481F49884205D00268043003B464
:1062A000904703BCF7E700208646EC46002000211B
:1062B000294A9047FEE7884207D0521A05D0037852
:1062C00001300B700131013AF9D17047884202D098
:1062D00002700130FAE770470000042000E003205C
:1062E0000000042000000420A87E0300982B00205A
:1062F000482C0020D0630200D063020082510300CA
:10630000A87E0300982B0020982B002088520300C1
:106310008852030088520300885203008852030009
:10632000885203008852030088520300A87E0300AD
:10633000587F0300482C0020482C0020482C0020C7
:1063400001400020044000200440002004400020C0
:106350000460002085630200A902030000F036B843
:106360000F484FF00701884385460E4880470E4886
:10637000016841F470010160BFF34F8FBFF36F8F6D
:10638000FFF73EBF09480A490A4A884207D0521A15
:1063900005D0037801300B700131013AF9D1704713
:1063A00000000420E9A4020088ED00E08852030008
:1063B000982B0020982B0020FEE7FEE7FEE7FEE783
:1063C000FEE7FEE7FEE7FEE7FEE7FEE7FFF7C8BFF2
:1063D00000B585B00190019B002B0AD0074B43F01C
:1063E00001030393019B9B010293039B029898472F
:1063F00000E000BF05B05DF804FB00BFA052030041
:1064000000B583B00190019B002B0AD04FF47A7045
:10641000FFF7DEFF019B013B0193019B002BF5D1B0
:1064200000E000BF03B05DF804FB08B50AF0BAFF56
:1064300000BF08BD00B589B0039002910192019B95
:10644000002B33D00023079303230693029A079B64
:106450001344019A194600200AF056FF0590079A46
:10646000059B13440793019A059BD31A0193059B3F
:10647000002B13D10F4B1B7883F00103DBB2002BF1
:1064800013D10120FFF7BCFF069B013B0693069B3F
:10649000002B03D1074B00221A7007E0054B0122A5
:1064A0001A70019B002BD1D100E000BF00BF09B0E2
:1064B0005DF804FB482C002000B585B003900291E4
:1064C000054B00934023054A0299039800F012F807
:1064D00000BF05B05DF804FB356402004C2C0020C1
:1064E00082B0019000BF02B0704782B0019000BF3F
:1064F00002B0704700B5A1B00590049103920293D9
:10650000049803F0BEFE039B1593029B1693002391
:10651000179300238DF8603000231993229B1A9360
:1065200000231F930FA91F9B0822049803F082FFEA
:1065300008231F93119B1293BDF84030ADF84C30E7
:10654000BDF84230ADF84E3000238DF851309DF843
:106550003C3003F00303DBB2012B26D10F9BC3F3C6
:1065600095231D939DF83C30C3F3C203DBB28DF835
:106570005030BDF83C30C3F38313DBB21C931C9B3B
:106580009A0009A91F9B049803F054FF1C9B9B00D1
:106590001F9A13441F9312AA09A915AB009313461F
:1065A0001C9A1D9800F0E8FE2FE09DF83C3003F0A7
:1065B0000303DBB2022B28D1BDF83E30C3F38913AD
:1065C0009BB21E939DF83C30C3F3C203DBB28DF83F
:1065D00050301E9B082B28BF08231B9307A91F9B25
:1065E0001B9A049803F026FF1F9A1B9B13441F93CA
:1065F0001E9A1B9BD31A1E9315AB12AA07A81B99B0
:1066000000F05CFF1E9B002BE3D1049803F048FED2
:1066100000BF21B05DF804FB82B00190019BDB68F4
:1066200001225A7100BF02B07047000000B583B06C
:106630004FF0FF330193FFF7F8FE0421084800F004
:10664000B7FD0190019B002B03DA0649412009F0B8
:1066500063F80348FFF7E0FF00BF03B05DF804FBF9
:1066600078520300B852030000B583B00190009146
:10667000019B1B681B6800990198984700BF03B0F5
:106680005DF804FB00B583B00190019B1B685B685B
:106690000198984700BF03B05DF804FB00B583B0D4
:1066A0000190019B1B689B680198984700BF03B04D
:1066B0005DF804FB82B001900B468DF80330019B1E
:1066C000DB689DF803201A7100BF02B0704782B0EA
:1066D0000190019BDB681B79184602B0704782B0BD
:1066E0000190019BDB6801225A7100BF02B0704724
:1066F00082B00190019BDB685B79184602B070475D
:1067000000B585B001900091154BFF229A60144BA3
:1067100000221A60124B00225A60114B0022C3F86B
:1067200018240F4B0022C3F814240D4B002283F8C9
:1067300020240C4803F00AFD0390039B002B01D09A
:10674000039B08E0084803F095FE084A084BD31A5B
:10675000DB0802930023184605B05DF804FB00BF78
:10676000F42D002044520300105303004452030050
:10677000CC510300024A034BD31ADB08184670477A
:1067800044520300CC51030000B587B001900B4682
:106790008DF803309DF80330002B1FD0FFF7EAFF80
:1067A00004900023059313E0059B9B000E4A1344BD
:1067B0000393039B1B881A46019B1B689A4204D1D2
:1067C000019B059A1A60002309E0059B013305939C
:1067D000059A049B9A42E7D3052300E0002318465C
:1067E00007B05DF804FB00BF982B002000B585B012
:1067F00001900B468DF803309DF8032001AB114644
:106800001846FFF7C1FF0346002B07D1019BDB00B1
:10681000054A13440393039B1B6800E000231846BA
:1068200005B05DF804FB00BFCC51030084B00190BB
:106830000B468DF80330019BDB00174A134402938B
:106840009DF80330013B032B1CD801A252F823F022
:106850006168020069680200716802007B680200DA
:1068600002238DF80F3011E004238DF80F300DE076
:10687000029B1B798DF80F3008E0029B5B798DF845
:106880000F3003E000238DF80F3000BF9DF80F306C
:10689000184604B0704700BFCC51030084B001908B
:1068A000009100238DF80F30019B1B7803F0040347
:1068B000DBB2002B24D0019B1B78C3F30103DBB2B6
:1068C000012B02D0022B0CD017E0009B1B68019A11
:1068D0001288C2F38312D2B213449A1C009B1A602E
:1068E0000BE0009B1B68019A5288C2F3891292B296
:1068F00013449A1C009B1A6000BF01238DF80F30CF
:106900009DF80F30184604B07047000000B58BB0FA
:106910000023ADF826303E4802F03DFC3D4802F031
:106920003AFC3D4B5B6804933B4B9B680693049A8F
:10693000069B134002339B00374A134404330893E9
:1069400004AB19460898FFF7A9FF0346002B09D0AE
:10695000049A069B134002339B002F4A13440433CE
:106960000893EDE700BF0023079311E0049B5A1C36
:106970000492069A1340079A920001A90A442649F4
:1069800002339B000B445B681360079B0133079342
:10699000079B012BEAD99DF80430C3F30103DBB256
:1069A000012B10D0022B1CD1BDF80A30ADF82630D7
:1069B000BDF80630C3F389139BB203339A08049BD6
:1069C0001344049313E0BDF80A30ADF82630BDF847
:1069D0000430C3F38313DBB21A46049B13440493BD
:1069E00005E00E494FF4BF7008F096FE00BF09485D
:1069F00002F0DDFB0590059B002B02D0049B064AAC
:106A00005360BDF8263018460BB05DF804FB00BF9C
:106A10000C32002008320020F42D00202053030007
:106A200000B585B00021074802F026FB0390039BC8
:106A30000293029B83F310030193019B184605B058
:106A40005DF804FB1032002000B589B0039002917C
:106A500001920093039B1B0C0793FFF7E1FF069045
:106A6000FFF788FE0246079B934204D3214940F278
:106A7000A31008F051FE069B1904009B5A1C0A9BA8
:106A80001340079A0A431C4902339B000B445A6087
:106A9000009A0A9B134002339B00174A13440433A5
:106AA0000593039B03F00703D9B2059A137861F3AA
:106AB000C5031370019B03F00F03D9B2059A138825
:106AC00061F389131380029BC3F31501059A1368C0
:106AD00061F39F231360059A1378012161F3010389
:106AE0001370059A13786FF38203137000BF09B017
:106AF0005DF804FB20530300F42D002000B58DB099
:106B00000390029113468DF80730039B02330A93DA
:106B100001238DF8273000238DF81B300DF11B0366
:106B2000184602F0ADF9404B1A68029B1A603E4BC2
:106B30009A683D4B59683C4B1B68CB1A1344013390
:106B40000B9314E00121394802F0F5FAFFF7DEFE5D
:106B500008900899354802F0EEFA334B9A68324BA8
:106B60005968314B1B68CB1A134401330B930A9AB3
:106B70000B9B9A42E6D89DF82730002B48D0002383
:106B800005939DF80730002B17D09DF81430012293
:106B900062F301038DF814309DF8143043F00403C0
:106BA0008DF81430039B03F00F03DAB2BDF81430F4
:106BB00062F38913ADF8143016E09DF81430022208
:106BC00062F301038DF814309DF8143043F0040390
:106BD0008DF81430039BC3F309039AB2BDF8163045
:106BE00062F38F13ADF816300F4B1A680E4B9B688B
:106BF000134002339B000C4A134404330793059A55
:106C0000079B1A60084B1A680A9B1344064A1360D4
:106C10009DF81B30184602F049F99DF827301846B8
:106C20000DB05DF804FB00BFF42D002010320020F1
:106C300000B58BB005900491039202931F4B9B68A3
:106C4000079306AB012219460298FFF757FF034648
:106C5000002B24D0069B023309930023089311E0F4
:106C6000089B9B00039A1A44099B591C0991079998
:106C70000B401268114902339B000B445A60089B79
:106C800001330893089A029B9A42E9D3069A079B1C
:106C900000931346029A04990598FFF7D5FE074B17
:106CA00093F82034002B05D000BF00F07BF803469A
:106CB000002BFAD100BF0BB05DF804FBF42D0020CF
:106CC00000B583B001900091002300220099019843
:106CD000FFF7AEFF00BF03B05DF804FB00B587B05F
:106CE000039002910192019B059305AA0123029949
:106CF0000398FFF79DFF00BF07B05DF804FB00B5E8
:106D000087B00390029101920093019B0493009B32
:106D1000059304AA022302990398FFF789FF00BF95
:106D200007B05DF804FB00B589B0039002910192B1
:106D30000093019B0593009B06930A9B079305AA6A
:106D4000032302990398FFF773FF00BF09B05DF8B2
:106D500004FB00B58BB00390029101920093019B5C
:106D60000593009B06930C9B07930D9B08930E9B2A
:106D7000099305AA052302990398FFF759FF00BF5D
:106D80000BB05DF804FB0000054B5A68044B1B6810
:106D90009A420CBF01230023DBB21846704700BFA4
:106DA000F42D002000B599B0FFF7EEFF0346002B4D
:106DB00001D00023BCE19A4B0022C3F81824BFF392
:106DC0004F8F974B5B680493954B9B681093049A85
:106DD000109B134002339B00914A134404331193D8
:106DE000002317930023169300230F9304AB194637
:106DF0001198FFF753FD0346002B19D0884BD3F8A9
:106E00001834002B14D1864B1A68049B9A4205D87B
:106E1000834B1B68824A5360002389E1049A109BCC
:106E2000134002339B007E4A134404331193DDE781
:106E30000023159311E0049B5A1C0492109A1340EE
:106E4000159A920001A90A44754902339B000B442C
:106E50005B681360159B01331593159B012BEAD9D1
:106E60009DF8043003F00303DBB2022B40F09C805A
:106E7000BDF80630C3F389139BB20E93BDF80630FC
:106E8000C3F389139BB2502B28BF50239BB20D93A1
:106E90000D9BC3F309039AB2BDF8063062F38F135A
:106EA000ADF806300D9B08330C939DF80430C3F306
:106EB000C203DBB20F930C995A4803F052F91790B2
:106EC000179B002B00F0D080179803F0DAF901A986
:106ED000169B0822179803F08FFA169B0833169317
:106EE000049BDA43109B134001339B000B930D9AD4
:106EF0000B9B9A4242D90B9B002B08D0049A109B03
:106F0000134002339B00464A1344043300E0464BCF
:106F10000A930B9B002B02D00B9BDBB201E00D9B75
:106F2000DBB28DF827300B9B002B01D03E4B00E0ED
:106F3000002308930B9B002B06D00D9BDAB20B9B12
:106F4000DBB2D31ADBB200E000238DF81F309DF8CE
:106F50002720169B0A99179803F04EFA9DF82730C0
:106F6000169A13441693089B002B16D09DF81F20E9
:106F7000169B0899179803F03FFA0EE0049A109BAD
:106F8000134002339B00264A134404330693169B96
:106F90000D9A0699179803F02FFA0E9B03339A085F
:106FA000049B134404935FE09DF8043003F0030353
:106FB000DBB2012B58D1BDF80430C3F38313DBB22D
:106FC000062B28BF0623DAB2BDF8043062F389131A
:106FD000ADF80430BDF80430C3F38313DBB20233E1
:106FE00005939DF80430C3F3C203DBB20F93059BF6
:106FF0009B0019460B4803F0B4F81790179B002B21
:1070000032D0179803F03DF901A9169B0822179872
:1070100003F0F2F9169B08331693002315931AE038
:10702000F42D002044520300002E0020049B5A1C23
:107030000492109A134002339B003F4A1344191DD7
:10704000169B0422179803F0D7F9169B0433169366
:10705000159B01331593BDF80430C3F38313DBB2E2
:107060001A46159B9342E1D3179B002B40D0324B1D
:10707000D3F810341493304BD3F81834002B1BD0B2
:10708000179803F00DF94DE000238DF84F30149858
:10709000FFF72EFB0346002B02D001238DF84F3063
:1070A0009DF84F30002B03D017991498FFF7DCFAA6
:1070B000149BDB681B681493149B002BE4D1179876
:1070C00003F0EEF800238DF803300DF103031846AA
:1070D00001F0D6FE184BD3F81834002B02D1049BD4
:1070E000154A53609DF80330184601F0DFFE19E0A1
:1070F000114BD3F81034129306E01298FFF7CEFA32
:10710000129BDB681B681293129B002BF5D10B4A74
:107110000B4BD31ADB081B0443F002030949184642
:10712000FFF7CEFDFFF730FE034683F00103DBB22D
:10713000184619B05DF804FBF42D0020045203003A
:10714000CC5103007053030000B585B000230393B6
:1071500023E0164BD3F81034029301238DF8073047
:107160000FE00298FFF7B3FA03461A46039B9342D7
:1071700003D100238DF8073006E0029BDB681B6813
:107180000293029B002BECD19DF80730002B01D01D
:10719000039B07E0039B01330393039B092BD8DD7B
:1071A0004FF0FF33184605B05DF804FBF42D0020C6
:1071B00000B585B001900B468DF80330FFF7C4FF92
:1071C0000390039BB3F1FF3F01D1039B22E0039B9C
:1071D000DBB219460198FFF76DFA104BD3F8103463
:1071E000002B08D10D4A019BC2F81034019BDB68CB
:1071F00000221A600DE0094BD3F81034DA68019BC5
:10720000DB6812681A60054BD3F81034DB68019A0A
:107210001A60039B184605B05DF804FBF42D0020AE
:1072200000B583B00C4BD3F8103401930A4B012204
:1072300083F8202409E00198FFF751FA0198FFF73D
:1072400021FA019BDB681B680193019B002BF2D1A3
:1072500000BF03B05DF804FBF42D002082B0019064
:10726000009100BF02B0704710B584B00390029146
:10727000039BDB88002B0AD0039BDB881A461F4B3D
:10728000009313461E4A1F49029802F0CDF8039B53
:107290001B7A052B2ED0039B5B7A002B12D0039B0D
:1072A0009B881A46039B1B7A19461046FFF7BEFAC5
:1072B00003461A46144B53F822301A4613490298D3
:1072C00002F0B2F8039B1B6819460298FFF7C6FF4D
:1072D000039B1B7A1A460E4B53F82240039B9B8854
:1072E00000211846FFF782FA034622460949029810
:1072F00002F09AF800BF04B010BD00BFA453030011
:10730000B4530300EC530300B42B002004540300D7
:10731000A02B00200854030000B585B00390029113
:1073200013468DF80730039B1B7A052B0FD0039B68
:107330005B7A002B06D00D4B1B681A460C4902984D
:1073400002F072F80B49029802F06EF807E09DF81F
:107350000730002B03D00749029802F065F8029825
:1073600002F040F800BF05B05DF804FBB42B00202C
:10737000045403001454030030B58BB007900691F9
:10738000059204930E9B1B7B8DF827300E9B0022E9
:107390001A730E990498FFF767FF059B062B7FD899
:1073A00001A252F823F000BFC5730200CF730200A0
:1073B000DF730200F37302001174020039740200DB
:1073C0006974020007990E9802F02EF869E0069B96
:1073D0001B681A4607990E9802F026F861E0069B92
:1073E0001A68069B04331B6807990E9802F01CF874
:1073F00057E0069B1A68069B04331968069B0833FE
:107400001B6800930B4607990E9802F00DF848E0B0
:10741000069B1968069B04331868069B08331B6893
:10742000069A0C3212680192009303460A460799A5
:107430000E9801F0F9FF34E0069B1868069B0433B0
:107440001C68069B08331B68069A0C321268069962
:107450001031096802910192009323460246079970
:107460000E9801F0E1FF1CE0069B1C68069B0433AC
:107470001D68069B08331B68069A0C321268069931
:107480001031096806981430006803900291019247
:1074900000932B46224607990E9801F0C5FF00E0A5
:1074A00000BF00220E990498FFF736FF0E9B9DF84F
:1074B00027201A7300BF0BB030BD00BF00B587B0E6
:1074C0000390029101920093029B082B60D8009BCD
:1074D0001B7B8DF81330009B00221A7300990198D2
:1074E000FFF7C2FE0023059314E0059A029B9A421F
:1074F00009D2039A059B13441B781A462649009823
:1075000001F092FF03E02549009801F08DFF059BF3
:1075100001330593059B072BE7D92149009801F01A
:1075200083FF0023059326E0059A029B9A421BD213
:10753000039A059B13441B788DF812309DF8123086
:107540007E2B0AD89DF8123018460DF067FD0346D1
:10755000002B02D09DF8123000E02E231A4611496C
:10756000009801F061FF03E00F49009801F05CFF13
:10757000059B01330593059B072BD5D90122009963
:107580000198FFF7C9FE009B9DF813201A7300E0D5
:1075900000BF07B05DF804FB18540300205403003B
:1075A00024540300285403002C54030084B00346E1
:1075B0008DF807309DF807305B08DBB21A460D4B9B
:1075C0009B5C8DF80F309DF8073003F00103002B12
:1075D00004D09DF80F301B09DBB204E09DF80F309A
:1075E00003F00F03DBB28DF80E309DF80E30184615
:1075F00004B070475032002084B003460A468DF82C
:10760000073013468DF806309DF8073003F001036C
:10761000002B01D00F2300E0F0238DF80F309DF8F0
:10762000073003F00103002B04D09DF806301B0146
:10763000DBB201E09DF806308DF80E309DF8073082
:107640005B08DBB21A46114B9A5C9DF807305B0869
:10765000DBB219469DF80F301340DAB20B4B5A5487
:107660009DF807305B08DBB21A46084B9A5C9DF820
:1076700007305B08DBB219469DF80E301343DAB2CF
:10768000024B5A5400BF04B0704700BF5032002074
:1076900000B585B003468DF807300023039310E052
:1076A0000F4B1A68039BDB0013440293029B1B7869
:1076B0009DF807209A4201D1029B0DE0039B013304
:1076C0000393084B1B781A46039B9342E8DB064959
:1076D000882008F021F80023184605B05DF804FB67
:1076E000183200201C3200203C54030000B585B045
:1076F00003460A468DF8073013468DF806309DF88C
:1077000007301846FFF7C4FF0390039B002B0BD0F4
:10771000039B5B68002B07D0039B5B689DF80610FA
:107720009DF807201046984700BF05B05DF804FBA0
:107730002DE9F04F87B003460A468DF80F30134607
:107740008DF80E309DF80F301846FFF72FFF0346D7
:10775000042B00F2C38001A252F823F071770200DB
:10776000E7770200037802003378020049780200CC
:107770009DF80E30002B00F0AE809DF80F300121F7
:107780001846FFF739FF00238DF817300DF1170366
:10779000184601F075FB9DF80F204FF001034FF0E4
:1077A0000004A2F12000C2F1200104FA02F703FA5A
:1077B00000F0074323FA01F10F4303FA02F6494BA5
:1077C000D3E9003446EA0302009247EA0403019336
:1077D000444BDDE90012C3E900129DF8173018464A
:1077E00001F064FB77E09DF80E30002B01D00222FF
:1077F00000E000229DF80F3011461846FFF7FCFE0E
:107800006CE09DF80E30002B0CD09DF80F3003215A
:107810001846FFF7F1FE9DF80F3001211846FFF7DB
:1078200065FF5BE09DF80F3001211846FFF7E4FE8D
:1078300054E09DF80E30002B4FD19DF80F300421FD
:107840001846FFF7D9FE48E09DF80E30002B06D011
:107850009DF80F3003211846FFF7CEFE3EE09DF85D
:107860000F3000211846FFF7C7FE9DF80F300021AA
:107870001846FFF73BFF00238DF816300DF1160375
:10788000184601F0FDFA9DF80F104FF001024FF07D
:107890000003A1F12006C1F1200003FA01F502FA6C
:1078A00006F6354322FA00F0054302FA01F46FEAC6
:1078B00004086FEA05090B4BD3E9003408EA030A10
:1078C00009EA040B074BC3E900AB9DF816301846D4
:1078D00001F0ECFA02E000BF00E000BF00BF07B01B
:1078E000BDE8F08F4832002000B583B00648074B52
:1078F0001B685B080022194601F072F8019000BF76
:1079000003B05DF804FB00BF2432002020320020C9
:1079100010B586B001900023059328E01C4B1A682F
:10792000059BDB0013440493049B1B78184604F06A
:107930001DF803468DF80F30049B5B78012B0CBFBC
:1079400001230023DBB21A469DF80F309A420CBF88
:10795000012300238DF80E30049B1B789DF80E2028
:1079600011461846FFF7E4FE059B01330593094BCA
:107970001B781A46059B9342D0DB074BD3E90034B2
:10798000234301D0FFF7B0FF00BF06B010BD00BF1A
:10799000183200201C3200204832002010B584B07C
:1079A00001900B468DF80330019BDBB21846FFF7C0
:1079B0006FFE0390039B1B78184603F0D7FF034626
:1079C0008DF80B30039B5B78012B0CBF0123002348
:1079D000DBB21A469DF80B309A420CBF01230023FC
:1079E0008DF80A309DF80A30002B06D0044BD3E9FD
:1079F0000034234301D1FFF777FF00BF04B010BD6F
:107A00004832002010B58AB003900B4601928DF8E1
:107A10000B30019B092B01D8072367E003F098FE88
:107A2000034683F00103DBB2002B09D003F03EFED6
:107A30000990099B0893089B002B01D0089B55E0F7
:107A40002C4A039B13602C4A9DF80B3013702B4A71
:107A5000019B13602022002129480DF00DFB294ACB
:107A60004FF000034FF00004C2E9003431E09DF80C
:107A70000B30DB00039A1344079303238DF8143073
:107A800000238DF815309DF816306FF300038DF844
:107A900016309DF816306FF341038DF816309DF8BF
:107AA00016306FF382038DF81630079B9B788DF8A4
:107AB0001530079B1B78184605AB134A194603F08F
:107AC00053FE0990099B0693069B002B01D0069B51
:107AD0000CE09DF80B305A1E8DF80B20002BC6D100
:107AE0000A4A00210A4800F04BFF034618460AB034
:107AF00010BD00BF183200201C32002020320020B0
:107B000050320020483200209D7902001179020095
:107B10008454030000B583B0114B1B68002B04D1C3
:107B2000104940F2351007F0F7FD002301930CE0F7
:107B30000B4B1A68019BDB0013441B78012118468C
:107B400003F08CFE019B01330193074B1B781A460F
:107B5000019B9342ECD30023184603B05DF804FB6D
:107B6000183200203C5403001C32002086B00390E1
:107B70000291019201238DF817309DF81730204AA9
:107B8000039B13601E4A029B53601D4A019B936036
:107B9000039B44F20102934213D0039B44F202027E
:107BA000934221D1019B164AD360154BDB681B8899
:107BB0001A46134B9A61124BDB685B68104AD3611B
:107BC00012E0019B0E4A13610D4B1B699B680C4A26
:107BD00053610B4B1B691B68094A9361084B1B6976
:107BE0005B68074AD36100BF72B600BF9DF81730CB
:107BF000DBB2002BFAD162B600BF06B0704700BFFF
:107C00007032002000B583B002900091019244F2DE
:107C1000010071466A4600F003F803B000BD00BFE2
:107C200030B58BB007900691059272B6FFF7F8FA5F
:107C300000BFFFF7B7F80346002BFAD1079B41F2CC
:107C4000010293421FD0079B41F20102934203D8E5
:107C5000079B012B0BD061E0079B44F2010293428A
:107C60002FD0079B44F20202934218D056E0394AC3
:107C7000394BD31ADB081B0443F00103374918467C
:107C8000FFF71EF857E0334A334BD31ADB081B04C7
:107C900043F0010332491846FFF712F84BE0059B09
:107CA00009932C4A2C4BD31ADB081B0443F0010028
:107CB000099B5B681A46099B1B882A49FFF71FF836
:107CC00039E0059B0893234A234BD31ADB081B0496
:107CD00043F00104089B9D68089B9B68184602F0CE
:107CE000EDF903461846089B5B681946089B1B681C
:107CF000069A02920193009103462A461A492046A9
:107D0000FFF727F8134A144BD31ADB081B0443F080
:107D1000010316491846FEF7D3FF0CE00D4A0E4B3F
:107D2000D31ADB081B0443F00103069A10491846D6
:107D3000FEF7D4FF00BF0F4B1B6803F00103002BBD
:107D400000D000BE059A06990798FFF70FFF00BF05
:107D50000BB030BD04520300CC5103008854030023
:107D6000A8540300CC540300E8540300105503004A
:107D700024550300F0ED00E084B00190019B9B6866
:107D80000393019BDA68039BD31A184604B070472B
:107D900082B001900B468DF80330019B1A68019B5D
:107DA000DB68019989880B4013449DF803201A7001
:107DB000019BDB685A1C019BDA6000BF02B0704770
:107DC00084B003900B460192ADF80A30039B1A6809
:107DD000039B9968BDF80A300B44039989880B40CE
:107DE00013441A78019B1A7000BF04B0704700B5A5
:107DF00083B001900091009A00210198FFF7E0FF05
:107E0000019B9B685A1C019B9A6000BF03B05DF800
:107E100004FB84B0039002911346ADF80630029B38
:107E2000002B01D10E231DE0BDF80630002B07D03A
:107E3000BDF806305A1EBDF806301340002B01D0A5
:107E400009230FE0039B029A1A60BDF80630013B3C
:107E50009AB2039B9A80039B00229A60039B0022A4
:107E6000DA600023184604B0704700B583B0019073
:107E70000B468DF803300198FFF77EFF0246019B09
:107E80009B889A4207D89DF8033019460198FFF75E
:107E90007FFF002300E00423184603B05DF804FBD5
:107EA00000B583B0019000910198FFF765FF03468C
:107EB000002B05D000990198FFF799FF002300E0FF
:107EC0000523184603B05DF804FB000082B00346AA
:107ED0008DF807309DF8073003F01F0205499DF922
:107EE00007305B09012000FA02F241F8232000BFAD
:107EF00002B0704700E100E082B003468DF8073021
:107F00009DF8073003F01F0206499DF907305B0911
:107F1000012000FA02F2203341F8232000BF02B012
:107F2000704700BF00E100E082B003468DF80730E3
:107F30009DF8073003F01F0206499DF907305B09E1
:107F4000012000FA02F2403341F8232000BF02B0C2
:107F5000704700BF00E100E082B003468DF80730B3
:107F60009DF8073003F01F0206499DF907305B09B1
:107F7000012000FA02F2603341F8232000BF02B072
:107F8000704700BF00E100E082B0034600918DF829
:107F900007309DF90730002B0CDA009BDAB20C4950
:107FA0009DF8073003F00F03043B5201D2B20B449B
:107FB0001A7609E0009BDAB206499DF907305201B2
:107FC000D2B20B4483F8002300BF02B0704700BF59
:107FD00000ED00E000E100E000B585B00190019BFC
:107FE000002B0AD0074B43F001030393019B9B0135
:107FF0000293039B0298984700E000BF05B05DF82C
:1080000004FB00BF4055030000B583B00190064A51
:10801000019BC2F8083507211120FFF7B5FF00BF0B
:1080200003B05DF804FB00BF0010014008B50D4B24
:108030004FF48032C3F844230A4B4FF48032C3F824
:1080400004231120FFF788FF1120FFF73FFF054BA6
:1080500001221A602F20FFF7BFFF034B01221A7085
:1080600000BF08BD00100140AE33002008B511204C
:10807000FFF742FF0E4B4FF48032C3F848230C4BFE
:108080004FF48032C3F80823094B01225A602F2095
:10809000FFF7A2FF064B01229A60064B00221A60EE
:1080A0002F20FFF799FF044B00221A7000BF08BD74
:1080B00000100140A0330020AE330020024BD3F863
:1080C00004351846704700BF0010014082B001908F
:1080D0000091019A009BD31A23F07F43184602B007
:1080E0007047000082B00190034A019BC2F84035FE
:1080F00000BF02B0704700BF0010014086B0019081
:10810000284B1B68002B03D1264A019B136045E0D6
:10811000019B1A68234B1B681B689A4210D8214B9D
:108120001B681968019B1A681E4B1B688A1A1A6023
:108130001C4B1A68019BDA611A4A019B13602DE0FF
:10814000019B1B680393174B1B680593154B1B681A
:10815000049309E0049B1B68039AD31A0393049BBE
:108160000593049BDB690493049B002B04D0049BC0
:108170001B68039A9A42EDD8049B002B05D0049B00
:108180001A68039BD21A049B1A60019B039A1A6017
:10819000019B049ADA61059B019ADA6100BF06B07F
:1081A000704700BF9C33002000B587B001902A4B78
:1081B0001B680393284B1B680593059B049308E0F9
:1081C000049A019B9A4208D0049B0593049BDB69A7
:1081D0000493049B002BF3D100E000BF049B002B11
:1081E00001D1002333E0059A049B9A4214D11A4B23
:1081F0001B68DB69184A1360174B1B68002B0BD1F7
:10820000164B01229A60164B00221A60154B012270
:108210001A702F20FFF7E0FE049B1B680293049B5B
:10822000DA69059BDA61059BDB690493049B002BEB
:1082300005D0049B1A68029B1A44049B1A60064BE3
:108240001B68039A9A4214BF01230023DBB218462D
:1082500007B05DF804FB00BF9C3300200010014014
:10826000A0330020AF33002008B51120FFF75CFEDB
:1082700000BF08BD08B51420FFF756FE00BF08BDBB
:1082800000B583B00190019B5B69019A9269104629
:10829000984700BF03B05DF804FB000000B585B04F
:1082A0002B4B1B68002B4ED000230193FFF706FFDA
:1082B0000246284B1B6819461046FFF707FF02903D
:1082C000234B1B6803931DE0039B1B68029A9A4291
:1082D0001CD3039B1B68029AD31A0293039B1B684F
:1082E000019A13440193039B0093039BDB6903935F
:1082F000009B1B7C002B05D0009B00221A74009869
:10830000FFF7BEFF039B002BDED100E000BF124B46
:108310001A78124B1B789A420CD1104B1B78013300
:10832000DAB20E4B1A700D4B1B78022B02D10B4B9D
:1083300000221A70094B1B781946094A019B42F822
:108340002130FFF797FF00BF05B05DF804FB00BFC9
:108350009C330020A0330020AC330020AD3300203C
:10836000A433002082B00190184B1A78184B1B7868
:108370009A4223D0154B1B780133DAB2134B1A7093
:10838000124B1B78022B02D1104B00221A700F4B9C
:108390001B781A460F4B53F82220019B1A60019B51
:1083A0001A680D4B1B6813440B4A13600A4B1B6879
:1083B00023F07F43084A1360012303E0019B00225E
:1083C0001A600023184602B0704700BFAC3300208B
:1083D000AD330020A4330020A033002088B00390E8
:1083E000029101920023079338E0204B1B6806930B
:1083F000069B1B68039A9A4206D2069B1A68039B47
:10840000D21A069B1A602DE0069B1B68039AD31AAA
:108410000393069B1B68079A13440793069B00224D
:108420001A60124B1B680593069BDB690F4A1360A9
:10843000069BDB68002B11D0029A079B134423F0A4
:108440007F42069B5A60069BDA68069B9A60019BF6
:108450001A68069BDA61019B059A1A60034B1B6838
:10846000002BC2D100BF08B0704700BF9C33002072
:1084700000B589B0019000238DF81F30664B1B6852
:108480000593AAE0019B002B05D0019B0693069B58
:10849000DB69019361E0614B1B781A4613465B0070
:1084A0001344DB005D4A1344043304935B4B1B7895
:1084B0000133DAB2594B1A70584B1A78574B9B78E4
:1084C0009A4202D1554B00221A70049B5B680693B6
:1084D000049B1B78022B04D0032B1BD0012B1FD035
:1084E0001DE0049B5B681846FFF75EFE0346002B09
:1084F00002D001238DF81F30069B00221A746CE015
:10850000454B1B680393039B00221A74039BDB6992
:10851000414A1360404B1B68002BF1D15DE05CE0E9
:1085200000BF069B1B7C002B00D056E0049B9A6882
:10853000069B5A60049BDA68069B9A60049B1A6942
:10854000069BDA60049B5A69069B9A61344B1B7840
:10855000002B02D0069B00225A60069B5A68314BC2
:108560001B68D31A23F07F432F4A93420ED8069BF1
:108570005A682C4B1B6819461046FFF7A7FD0246A8
:10858000069B9B681A44069B1A6017E0254B1A68E5
:10859000069B5B6819461046FFF798FD0290069B04
:1085A0009B68029A9A4206D2069B9A68029BD21A4C
:1085B000069B1A6002E0069B00221A60069B0022BE
:1085C0005A60069B00229A60069B01221A74069B41
:1085D0000022DA610698FFF791FD019B002B7FF4E2
:1085E00051AF0E4B1A780D4B5B789A427FF44AAF2D
:1085F0009DF81F30002B04D1074B1B68059A9A4247
:1086000001D0012300E0002303F00103DBB2184690
:1086100009B05DF804FB00BF9C33002090320020BD
:10862000AF330020A0330020FEFF7F0010B588B0DC
:108630000190274B1B68002B44D0254B1B681B68FF
:108640000793FFF73BFD0690224B1B6805930599A6
:108650000698FFF73BFD0346033304931E4B1B783C
:1086600083F00103DBB2002B01D0FFF7DFFC049A9B
:10867000079B934238BF1346059A13440593059B05
:1086800023F07F4305930598FFF72CFDFFF716FDB8
:10869000039006990398FFF719FD0346DC1C069921
:1086A0000598FFF713FD03469C420DD9FFF706FD21
:1086B00003461846FFF716FD2F20FFF78DFCFFF746
:1086C000D3FD01E0FFF7D2FC00BF08B010BD00BF32
:1086D0009C330020A0330020AE33002000B587B0CB
:1086E0000023019300238DF81730194B1B68049366
:1086F000184B1B6803936B461846FFF733FE03467F
:108700008DF80B309DF80B30002B08D0009B01AA90
:1087100004991846FFF762FE01238DF81730019B7C
:108720001846FFF7A5FE0346002B02D001238DF863
:1087300017309DF81730002B02D00398FFF776FF13
:10874000054B00221A7000BF07B05DF804FB00BFA4
:10875000A03300209C330020AF33002082B00346BA
:108760008DF80730034A9DF80730537000BF02B000
:10877000704700BF9032002084B00190144B5B78AA
:1087800001338DF80F30124B9B789DF80F209A42E1
:1087900002D100238DF80F300D4B1B789DF80F2070
:1087A0009A4201D100230FE0019B9DF80F201A701F
:1087B000074B5B781A4613465B001344DB00044A00
:1087C000134404330293029B184604B0704700BF61
:1087D0009032002000B589B003900291019200937D
:1087E0000023079300238DF816300DF11603184669
:1087F00000F046FB0DF117031846FFF7BDFF06908A
:10880000069B002B02D10423079318E0069B01224C
:108810001A70069B039A5A60FFF750FC0246069BAB
:108820009A60069B029ADA60069B019A1A61069B7F
:10883000009A5A619DF817301846FFF78FFF9DF890
:108840001630184600F032FB079B002B01D1FFF7D2
:1088500011FD079B184609B05DF804FB00B587B011
:1088600001900B468DF803300023059300238DF80B
:108870000E300DF10E03184600F002FB0DF10F0350
:108880001846FFF779FF0490049B002B02D10423C4
:1088900005930BE0049B9DF803201A70049B019A3A
:1088A0005A609DF80F301846FFF758FF9DF80E30BC
:1088B000184600F0FBFA059B002B01D1FFF7DAFC0C
:1088C000059B184607B05DF804FB000008B50E4B89
:1088D0000022C3F840210C4B0022C3F844210A4B6C
:1088E0000022C3F84821084B0022C3F84C21064B54
:1088F0000022C3F80021044B0022C3F80421FFF733
:10890000CDFC00BF08BD00BF0010014008B5FFF757
:10891000E5FE00BF08BD000008B5FFF7A7FB134B3D
:1089200000221A70114B00225A70104B0B229A70C1
:108930000F4B00221A600F4B00221A700E4B0022C0
:108940001A701420FFF708FB07211420FFF71CFB07
:108950001420FFF7BBFA0020FFF756FBFFF7AEFB32
:108960000246064B1A600023184608BD90320020CC
:108970009C330020AC330020AD330020A033002016
:1089800086B003900B4601928DF80B30134B9B7809
:10899000002B01D108231EE0019B002B01D10723EE
:1089A00019E0039B002B01D1072314E0039B1B68F4
:1089B0001B7C002B01D008230DE0039B1B68059353
:1089C000059B00221A74059B9DF80B205A74059B89
:1089D000019A5A610023184606B070479032002071
:1089E00000B587B0039002910192039B0593164B4B
:1089F0009B78002B01D1082322E0039B002B01D19F
:108A000008231DE0029B042B03D9029BB3F1807F56
:108A100001D3072314E0059B5B69002B01D10823D8
:108A20000EE0059B5B7C012B01D1029B00E0002343
:108A30000493019B049A02990598FFF7CBFE034625
:108A4000184607B05DF804FB9032002000B585B0F1
:108A50000190019B03930D4B9B78002B01D10823C0
:108A600010E0019B002B03D0039B5B69002B01D11D
:108A7000082307E0039B00221A7402210398FFF7E2
:108A8000EDFE0346184605B05DF804FB9032002069
:108A900000B587B00390029113468DF8073000238C
:108AA0000593039B1B781A46114B9B5C002B09D046
:108AB000039B04339DF807200299184604F0B0FA8E
:108AC00005900FE0039B1B781A46094B9B5C002B1B
:108AD00008D1039B0C339DF807200299184603F038
:108AE00061FC0590059B184607B05DF804FB00BFCC
:108AF0002434002000B587B00390029113468DF80E
:108B0000073000230593039B1B781A46114B9B5C8F
:108B1000002B09D0039B04339DF8072002991846C7
:108B200004F056FB05900FE0039B1B781A46094B97
:108B30009B5C002B08D1039B0C339DF80720029906
:108B4000184603F00FFD0590059B184607B05DF829
:108B500004FB00BF2434002084B00190019B9B687B
:108B60000393019BDA68039BD31A184604B070473D
:108B700000B587B001900091019B1B78012B04D0B8
:108B8000022B42D0002B51D066E0019B1B7A002BB8
:108B900005D1012232493348FFF7ACFF5CE0019B6D
:108BA0005B681B7819463048FFF75FF90590059B15
:108BB000002B0AD001238DF80C30059B04932B4B1E
:108BC0001B6803AA104698470DE02748FFF7C4FF2B
:108BD0000346002B07D000238DF80C30234B1B6875
:108BE00003AA104698472048FFF7B6FF02461E4BDF
:108BF0009B889A4205D8012219491A48FFF77AFF43
:108C00002AE01B4B01221A7026E002238DF80C305B
:108C1000019BDB680493012211491248FFF76AFFA8
:108C2000124B1B6803AA1046984715E011491248D9
:108C3000FFF736F90346002B05D101220D490948FB
:108C4000FFF726FF07E003238DF80C30074B1B6866
:108C500003AA1046984700BF00BF07B05DF804FBA9
:108C6000B8330020D82B0020BC330020B0330020C4
:108C7000B9330020B4330020CC33002030B591B09C
:108C80000390029101928DF803303C4A019B1360DE
:108C9000029B002B01D107236DE0029B1968029B08
:108CA0005B689BB21A463648FFF7B3F80F900F9BEC
:108CB0000E930E9B002B01D00E9B5CE0029B9968EB
:108CC000029BDB689BB21A462E48FFF7A2F80F9072
:108CD0000F9B0D930D9B002B01D00D9B4BE02A4B5E
:108CE00004AC1D460FCD0FC495E80F0084E80F00BB
:108CF000039B5B690A93039B1B7C002B14BF01231E
:108D00000023DBB28DF824309DF803308DF82C3031
:108D1000039B5B7C002B01D00E2300E000238DF829
:108D20002530039BDB680693039B9B680793039B9B
:108D30001B680593039B5B68049304AB134A1946B5
:108D4000134802F059F80F900F9B0C930C9B002BCB
:108D500001D00C9B0FE00F4B00221A70039B1B6885
:108D6000B3F1FF3F06D001220B490948FFF7C2FECD
:108D7000034600E00023184611B030BDB033002098
:108D8000BC330020CC33002048550300718B020017
:108D9000D82B0020B9330020B833002082B0EFF385
:108DA00010830093009B019372B6019B184602B09A
:108DB000704762B600BF704700B585B00190FFF7FD
:108DC000EDFF0390164B9B68002B1BD1144B012227
:108DD0009A60144BD3F88020134B1340104A136051
:108DE000104B114AC3F880200E4BD3F884300C4A44
:108DF00053600C4B4FF0FF32C3F88420019B0022DC
:108E00001A7002E0019B01221A70039B002B01D112
:108E1000FFF7CFFF0023184605B05DF804FB00BF45
:108E2000DC33002000E100E0FC06FFBD00B585B0AA
:108E300003468DF80730104B9B68002B16D09DF829
:108E40000730002B12D1FFF7A9FF03900B4A0A4B02
:108E50001B681360094A084B5B685360064B00228D
:108E60009A60039B002B01D1FFF7A3FF0023184654
:108E700005B05DF804FB00BFDC33002000E100E03A
:108E800000B583B0019000F02BF80346012B03D00E
:108E90000549432006F040FC0198FFF78DFF00BF15
:108EA00003B05DF804FB00BFB455030000B583B008
:108EB00003468DF8073000F013F80346012B03D06A
:108EC0000649512006F028FC9DF807301846FFF7A8
:108ED000ADFF00BF03B05DF804FB00BFB455030055
:108EE00084B0EFF305830193019BC3F3080303935D
:108EF000039B002B0DD1EFF314830093009B02938F
:108F0000029B03F00103002B0CBF01230023DBB203
:108F100000E00123184604B0704786B0019000912C
:108F2000019B53E8021F1FFAA1F2D888824202BFB8
:108F3000BFF32F8F00230DE0D88902449889824225
:108F400028BF121AC1EA024243E802200028E8D1F1
:108F50004FF001038DF80F30059002910492029AB0
:108F6000009B1A609DF80F30DBB2184606B07047C0
:108F700084B00190019951E8023FC3EA234341E8DC
:108F80000232002AF7D10392029300BF04B0704767
:108F900000B585B001900091009B19460198FFF73C
:108FA000BCFF0346002B07D0019B1B68009A528828
:108FB00013440393039B00E00023184605B05DF8BB
:108FC00004FB00B583B001900091009B1A88009BC0
:108FD0005B889A4204D10198FFF7CAFF012300E0A1
:108FE0000023184603B05DF804FB00B585B001907E
:108FF0000091009B5B099B00019AD018009B03F035
:109000001F03012202FA03F3194600F04CF8039003
:1090100000BF05B05DF804FB00B585B0019000917C
:10902000009B5B099B00019AD018009B03F01F0373
:10903000012202FA03F3DB43194600F064F80390BF
:1090400000BF05B05DF804FB82B001900091009B69
:109050005B099B00019A13441A68009B03F01F03ED
:1090600022FA03F303F00103002B14BF01230023B2
:10907000DBB2184602B0704710B487B0019000917F
:10908000019B009A53E8004F104643E8000191F01D
:10909000000FF7D1059404900391059B184607B083
:1090A0005DF8044B704710B487B001900091019BAC
:1090B000009A53E8004F44EA020043E8000191F0AF
:1090C000000FF6D1059404900391049B184607B055
:1090D0005DF8044B704710B487B001900091019B7C
:1090E000009A53E8004F04EA020043E8000191F0BF
:1090F000000FF6D1059404900391059B184607B024
:109100005DF8044B704710B487B001900091019B4B
:10911000009A53E8004F04EA020043E8000191F08E
:10912000000FF6D1059404900391049B184607B0F4
:109130005DF8044B704710B487B001900091019B1B
:10914000009A53E8004F04EB020043E8000191F05D
:10915000000FF6D1059404900391049B184607B0C4
:109160005DF8044B704710B487B001900091019BEB
:10917000009A53E8004FA4EB020043E8000191F08D
:10918000000FF6D1059404900391049B184607B094
:109190005DF8044B704700B583B001900121019840
:1091A000FFF781FF0346184603B05DF804FB00B5E6
:1091B00083B0019000210198FFF78DFF0346184608
:1091C00003B05DF804FB000000B583B001900B46CE
:1091D0008DF80330019B002B03D10849E82006F0ED
:1091E0009BFA019BDA689DF803300199098A01FB1B
:1091F00003F31344184603B05DF804FB0456030060
:1092000000B583B001900091019B002B03D1084968
:10921000F52006F081FA009B019AD2689B1A019A08
:10922000128AB3FBF2F3DBB2184603B05DF804FB1D
:109230000456030000B585B00190019B002B01D1BD
:109240000E234CE0019B1B68002B03D12649FF2015
:1092500006F062FA019B5B68002B04D122494FF4AF
:10926000807006F059FA019B9B68002B04D11E49BF
:1092700040F2011006F050FA019BDB68002B04D18C
:1092800019494FF4817006F047FA019B1B8A002BA5
:1092900004D1154940F2031006F03EFA019B9A688A
:1092A000019B5B68D31A8DF80F30019B1B68019AF4
:1092B00052681A6007E0019B1A681368591C116014
:1092C0009DF80F201A709DF80F305A1E8DF80F2050
:1092D000002BF0D1019B1B6800221A710023184655
:1092E00005B05DF804FB00BF0456030000B585B06F
:1092F0000190019B002B04D11F494FF4927006F09E
:109300000BFA0023039300238DF80A300DF10A03B2
:109310001846FFF7B5FD019B1B681A68019B5B6847
:109320009A421FD9019B1B681A68013A1A601B6890
:109330001B7819460198FFF747FF0390019B9A6835
:10934000019B1B681B68D31A8DF80B30019B1B68AF
:109350001B799DF80B209A4204D9019B1B689DF84C
:109360000B201A719DF80A301846FFF79FFD039BEA
:10937000184605B05DF804FB0456030010B584B030
:1093800001900091019B002B04D1154940F2471038
:1093900006F0C2F9009B002B04D111494FF4A470D0
:1093A00006F0BAF9009B039300238DF80B300DF102
:1093B0000B031846FFF764FD019B1B681C68621CC9
:1093C0001A6003990198FFF71BFF034623709DF86D
:1093D0000B301846FFF76AFD00BF04B010BD00BF98
:1093E0000456030000B583B00190019B002B03D10C
:1093F0000C49312006F090F9019B9B68002B0CD0A2
:10940000019B5B69019A1069019A1168019A92683F
:109410009847019B00229A6000E000BF03B05DF80E
:1094200004FB00BF4C5603000EB400B584B001909D
:10943000019B002B03D11849422006F06DF9019BD6
:109440005B69002B03D11449432006F065F9019BA9
:109450001B68002B03D11049442006F05DF9019BE5
:109460005B68002B03D10C49452006F055F9059B9C
:10947000002B0AD00023039306AB039303AB1A46D9
:109480000599019800F0B0F900E000BF04B05DF864
:1094900004EB03B0704700BF4C56030000B583B027
:1094A00001900B468DF80330019B1A68019B9B6865
:1094B000581C0199886013449DF803201A70019B81
:1094C0009A68019B5B689A4202D30198FFF78AFF72
:1094D00000BF03B05DF804FB00B587B003900291B4
:1094E0000192009300230593009B03F00103002BDE
:1094F00024D00BE0029B01330293059B01330593BB
:109500009DF8133019460398FFF7C8FF029B1B789C
:109510008DF813309DF81330002BEBD106E0019B42
:10952000013B019320210398FFF7B8FF019A059BA7
:109530009A422ED9019B002BF1D12AE0029B002BED
:109540000BD002980BF0EDFD059006E0019B013B6E
:10955000019320210398FFF7A1FF019A059B9A42EE
:109560000FD9019B002BF1D10BE0029B0133029339
:10957000059B013305939DF8133019460398FFF7B7
:109580008DFF029B1B788DF813309DF81330002B54
:10959000EBD100BF07B05DF804FB000000B589B057
:1095A0000390029101920093029B0793012306937B
:1095B00007E0079A019BB2FBF3F30793069B013385
:1095C0000693079A019B9A42F3D2009A069B9A420D
:1095D00001D9009B06930B9B03F00103002B22D1C2
:1095E0000A9B002B1FD00B9B03F00203002B06D01D
:1095F000009B002B03D130238DF8173002E020238D
:109600008DF8173008E00A9B013B0A939DF817304C
:1096100019460398FFF742FF0A9B002B03D0069AD6
:109620000A9B9A42EFD301230793009B012B03D996
:10963000009B013B009309E0029A079BB2FBF3F306
:109640000493049A019B9A4200D205E0079B019A79
:1096500002FB03F30793E8E7029A079BB2FBF3F3DD
:109660000493049B079A02FB03F3029AD31A029312
:10967000154A049B13441B7819460398FFF70EFF05
:10968000079A019BB2FBF3F30793079B002BE3D1EF
:109690000B9B03F00103002B11D00A9B002B0ED073
:1096A00006E00A9B013B0A9320210398FFF7F6FE90
:1096B0000A9B002B03D0069A0A9B9A42F1D300BF63
:1096C00009B05DF804FB00BFD456030000B589B0B3
:1096D0000590049103920293049B002BB8BF5B4258
:1096E00006930123079307E0039B069A92FBF3F38B
:1096F0000693079B01330793039B069A9A42F3DA7A
:10970000029A079B9A4201D9029B07930A9B002B5E
:109710000AD0049B002B04DB0B9B03F00403002BFB
:1097200002D00A9B013B0A930B9B03F00203002B20
:1097300002D0029B002B16D00B9B03F00103002BE1
:1097400011D10A9B002B0ED006E00A9B013B0A9325
:1097500020210598FFF7A2FE0A9B002B03D0079A51
:109760000A9B9A42F1D3049B002B07DA049B5B42CD
:1097700004932D210598FFF791FE08E00B9B03F061
:109780000403002B03D02B210598FFF787FE0B9BCA
:1097900003F00203002B19D00B9B03F00103002BF5
:1097A00014D1029B002B11D10A9B002B0ED006E096
:1097B0000A9B013B0A9330210598FFF76FFE0A9B35
:1097C000002B03D0079A0A9B9A42F1D304990B9B72
:1097D00001930A9B0093029B039A0598FFF7DEFE14
:1097E00000BF09B05DF804FB00B58FB0059004918F
:1097F0000392059B002B04D1C84940F2522005F08A
:109800008BFF059B5B69002B04D1C4494FF4157095
:1098100005F082FF059B1B68002B04D1BF4940F275
:10982000552005F079FF059B5B68002B04D1BB49EF
:1098300040F2562005F070FF049B002B00F0ED81F4
:10984000049B1B788DF83730049B013304939DF8FB
:109850003730002B00F0D8819DF83730252B40F0B1
:10986000C78100230A9301230C93049B1B788DF876
:1098700037309DF837302D2B04D0302B0AD02B2BCE
:1098800010D017E00A9B43F001030A93049B0133B5
:10989000049312E00A9B43F002030A93049B0133F2
:1098A00004930AE00A9B43F004030A93049B0133E8
:1098B000049302E000230C9300BF0C9B002BD4D137
:1098C000002309939DF837302A2B0CD1039B1B688A
:1098D000191D039A11601B68099A13440993049B8C
:1098E000013304931AE0049B1B788DF837309DF800
:1098F00037302F2B12D99DF83730392B0ED8049BD7
:1099000001330493099A13469B0013445B001A46E3
:109910009DF837301344303B0993D3E700230B9372
:10992000049B1B788DF837309DF837302E2B1DD1D6
:10993000049B01330493049B1B788DF837309DF80A
:1099400037302F2B12D99DF83730392B0ED8049B86
:10995000013304930B9A13469B0013445B001A4691
:109960009DF837301344303B0B93E4E7049B1B789E
:109970008DF837309DF837306C2B03D09DF8373099
:10998000682B07D1049B01330493049B1B788DF84B
:109990003730EFE79DF83730253B532B00F223811A
:1099A00001A252F823F000BFDD9B0200E79B0200FA
:1099B000E79B0200E79B0200E79B0200E79B020097
:1099C000E79B0200E79B0200E79B0200E79B020087
:1099D000E79B0200E79B0200E79B0200E79B020077
:1099E000E79B0200E79B0200E79B0200E79B020067
:1099F000E79B0200E79B0200E79B0200E79B020057
:109A0000E79B0200E79B0200E79B0200E79B020046
:109A1000E79B0200E79B0200E79B0200E79B020036
:109A2000E79B0200E79B0200E79B0200E79B020026
:109A3000E79B0200E79B0200E79B0200E79B020016
:109A4000E79B0200E79B0200E79B0200E79B020006
:109A5000E79B0200E79B0200E79B0200E79B0200F6
:109A6000E79B0200E79B0200E79B0200E79B0200E6
:109A7000E79B0200699B0200E79B0200E79B020054
:109A8000E79B0200E79B0200E79B0200E79B0200C6
:109A9000E79B0200E79B0200E79B0200E79B0200B6
:109AA000F99A0200219B0200E79B0200E79B02005B
:109AB000E79B0200E79B0200219B0200E79B02005C
:109AC000E79B0200E79B0200E79B0200E79B020086
:109AD000E79B0200A99B0200E79B0200E79B0200B4
:109AE0008D9B0200E79B0200459B0200E79B020062
:109AF000E79B0200699B0200039B1B68191D039AE8
:109B000011601B680C930C9B8DF823309DF823305B
:109B100019460598FFF7C2FC66E000BF8C560300AB
:109B2000039B1B68191D039A11601B680C930A9B09
:109B30000193099B00930B9B0A220C990598FFF750
:109B4000C5FD51E0039B1B68191D039A11601B683A
:109B50000C930C990A9B0193099B00930B9B0A227F
:109B60000598FFF71BFD3FE0039B1B68191D039A37
:109B700011601B680C930C990A9B0193099B00933D
:109B80000B9B10220598FFF709FD2DE0039B1B6836
:109B9000191D039A11601B6807930A9B099A07997C
:109BA0000598FFF799FC1FE0039B1B68191D039A9A
:109BB00011601B680C9330210598FFF76FFC78212A
:109BC0000598FFF76BFC0C99002301930823009381
:109BD000082310220598FFF7E1FC05E025210598F0
:109BE000FFF75CFC00E000BF049B0133049305E039
:109BF0009DF8373019460598FFF750FC049B1B78F9
:109C0000002B7FF41DAE00E000BF059B1B7B002BEB
:109C100004D00598FFF7E6FB00E000BF0FB05DF849
:109C200004FB00BF29DF704700BF184628DF7047DC
:109C300000BF184600B589B001900091019B1B68D8
:109C40009B68002B35D002AB00221A605A609A60E4
:109C5000DA601A615A61009B0393019B9B6807932A
:109C6000019B1B79002B02D0012B0DD01AE00123A0
:109C70008DF80830019B1B690493019BDB680593F9
:109C8000019B5B6906930DE002238DF80830019B70
:109C9000DB684FF4805202FB03F30493019B5B6982
:109CA000069300BF019B1B689B6802AA1046984759
:109CB00000E000BF09B05DF804FB00B587B001907B
:109CC000019B5A69019B9B69D31AB3F5805F28BF3A
:109CD0004FF4805305930422059BB3FBF2F3012B51
:109CE00038BF01230593019B1A69019B9B691344AB
:109CF0000493019BDB681A46019B9B691344039301
:109D0000059A03990498FFF78DFF0346184607B09C
:109D10005DF804FB00B583B00190019BDA68019BFC
:109D20001B6913441846FFF781FF0346184603B02A
:109D30005DF804FB08B5034B03491846FFF741F9EA
:109D400000BF08BDE83300201034002008B5084BE0
:109D500008491846FFF71CF90246074B1A60064BE4
:109D60001B68002B14BF01230023DBB2184608BD7B
:109D7000E8330020103400200C34002000B583B0FC
:109D80002B4B1B7A002B0BD1FFF7E0FF034683F030
:109D90000103DBB2002B03D0254B00225A6043E0C5
:109DA000234B02221A72234B1B681B79002B02D013
:109DB000012B07D00DE01F4B1B681846FFF77DFFF6
:109DC000019009E01B4B1B681846FFF7A3FF0190A9
:109DD00002E00323019300BF019B002B03D0019BF2
:109DE000112B0CD00FE0124B1B7C83F00103DBB274
:109DF000002B18D00021022000F070F813E00C4B6B
:109E000001221A7210E00B4B1B6803211846FFF762
:109E100011FF074B00221A72054B00225A60FFF710
:109E200089FF00BF00E000BF03B05DF804FB00BF86
:109E3000F83300200C34002084B001901B4B00222A
:109E4000DA60019B1B79002B02D0012B19D028E08E
:109E5000019B5A69019B9B69D31AB3F5805F28BFA8
:109E60004FF480530393019B9A69039B1A44019B0F
:109E70009A61019B9A69019B5B699A420ED1012309
:109E800010E0019B1B695A1C019B1A61019B1A6916
:109E9000019B5B699A4203D1012303E000BF00E00C
:109EA00000BF0023184604B0704700BFF8330020FD
:109EB00082B00190084BDB680133074AD360064B40
:109EC000DB68082B04D9044B0022DA60012300E090
:109ED0000023184602B07047F833002000B585B063
:109EE00001900091019B022B02D0019B032B4AD1D0
:109EF000274B1B7A012B36D0022B02D0002B35D1F9
:109F000042E000238DF80F30019B022B03D0019B10
:109F1000032B09D011E01F4B1B681846FFF78CFF7D
:109F200003468DF80F3008E01A4B1B681846FFF700
:109F3000BFFF03468DF80F3000BF9DF80F30002B98
:109F400013D0134B00221A72124B1A68019B022B7A
:109F500001D1002300E00D2319461046FFF76AFEE9
:109F6000FFF7E8FE01E000BF00E000BF084B5B7CAC
:109F700083F00103DBB2002B02D0FFF7FFFE03E00A
:109F80000AF0EEFC00E000BF05B05DF804FB00BF86
:109F9000F83300200C34002082B0034600918DF885
:109FA0000730064B01225A74044B1B7A002B0CBF5E
:109FB00001230023DBB2184602B07047F8330020BB
:109FC00000B583B0034600918DF807309DF8073047
:109FD000012B03D09DF80730032B0DD1084B002235
:109FE0005A749DF80730012B0CBF01230023DAB20D
:109FF000034B1A74FFF7C2FE00BF03B05DF804FB09
:10A00000F833002000B583B001900091019B002B34
:10A0100003D11049502005F07FFB009B002B03D19A
:10A020000C49512005F078FB019B009A1A60019BB6
:10A030001B681A68019B5A60019B5A68019B1B6848
:10A040005B689A4202D1019B00225A6000BF03B0B4
:10A050005DF804FB7C59030000B583B00190019BBF
:10A06000002B03D11449632005F056FB019B1B68AC
:10A07000002B03D11049642005F04EFB019B5B6867
:10A08000002B14D0019B5B681A46019B1B689B68E0
:10A0900013441A46019B5A60019B5A68019B1B6836
:10A0A0005B689A4204D1019B00225A6000E000BF25
:10A0B00003B05DF804FB00BF7C59030000B585B018
:10A0C0000190019800F00EF80390039B002B01D043
:10A0D000039B00E0024B184605B05DF804FB00BF8F
:10A0E000E059030086B00190164B0593164B04937C
:10A0F0001FE0049A059BD31ADB10DA0F13445B10A0
:10A10000DB00059A13440393039B1B680293029A96
:10A11000019B9A4202D9039B04930AE0029A019B95
:10A120009A4203D2039B0833059302E0039B5B68CA
:10A1300004E0059A049B9A42DBD30023184606B03C
:10A14000704700BFE05D0300085F030000B583B007
:10A1500001900198FFF76EF80346184603B05DF8CA
:10A1600004FB00B58BB001900091019B1B8A043B5E
:10A170000793009A079B1344DA1C079BB2FBF3F387
:10A180008DF81B300198FFF7B1F80590059B002B67
:10A1900001D1002338E0059B00221A71059B0122A2
:10A1A0005A71079B9AB2059BDA80059B09939DF82B
:10A1B0001B30013B0493099B019A1A60002308930A
:10A1C0001DE00198FFF792F80390039B002B0ED03F
:10A1D000059B5B790133DAB2059B5A71099B039A9F
:10A1E0001A60039B019A1A60039B099304E0059887
:10A1F00000F00EF8002307E0089B01330893089A4B
:10A20000049B9A42DDD3059B18460BB05DF804FB16
:10A2100000B58BB00190019B0793079B5B798DF88C
:10A220001B30019B08939DF81B30013B05930023D5
:10A23000099305E0089B1B680893099B0133099368
:10A24000099A059B9A42F5D3089B1B680493019BCE
:10A250000893002309930BE0089B1B68039308995C
:10A260000498FFF78BF8039B0893099B013309932C
:10A270009DF81B30099A9A42EED300BF0BB05DF8EF
:10A2800004FB00B585B00190019B0393039B04334D
:10A2900001211846FEF74FFF00BF05B05DF804FB33
:10A2A00000B587B00190019B0593059B0433012104
:10A2B0001846FEF758FF0346039303AB0493049B31
:10A2C0001B78002B02D10198FFF7A2FF00BF07B057
:10A2D0005DF804FB00B591B00390029101920093E8
:10A2E000039B002B03D14349B62005F015FA039BCD
:10A2F0000993039B0F93099BDB881A46099B5B79A3
:10A3000003FB02F3043B0893009A089B9A4203D391
:10A310003849C42005F000FA099BDB880793009BAD
:10A320001A1D079BB2FBF3F30E93009B0433079AAD
:10A33000B3FBF2F2079901FB02F29B1A0D93019B0A
:10A340001A68009B1344089A9A4203D2089A009B09
:10A35000D31A01E0019B1B680C93019B0C9A1A60B5
:10A3600005E00F9B1B680F930E9B013B0E930E9B0A
:10A37000002BF6D100230B93079A0D9BD31A0A9357
:10A380000A9A0C9B934228BF13460A932AE0029A2A
:10A390000B9B134406930F9A0D9B134404330593B0
:10A3A0009DF84830002B05D00A9A059906980AF0C6
:10A3B0003AFE04E00A9A069905980AF034FE002352
:10A3C0000D930F9B1B680F930C9A0A9BD31A0C9347
:10A3D0000B9A0A9B13440B93079A0C9B934228BF3A
:10A3E00013460A930C9B002BD1D100BF11B05DF82E
:10A3F00004FB00BF085F030000B589B0059004911D
:10A4000003920293039B079307AA00230093029BE6
:10A4100004990598FFF75EFF079B039A9A4203D0C1
:10A420000349F62005F078F900BF09B05DF804FB98
:10A43000085F030000B589B0059004910392029370
:10A44000039B079307AA01230093029B0499059895
:10A45000FFF740FF079B039A9A4204D004494FF448
:10A46000807005F059F900BF09B05DF804FB00BF2A
:10A47000085F030082B00190019B9B6800229A60F4
:10A48000019B9B6800221A61019B9B6800225A6114
:10A49000019B9B680022DA60019B9B6800225A6046
:10A4A000019B9B6800221A6000BF02B07047000049
:10A4B000BFF34F8F054BDB6803F4E0620349044BA5
:10A4C0001343CB60BFF34F8F00BFFDE700ED00E00B
:10A4D0000400FA05024B034A1A6000BF704700BF30
:10A4E000EC2B00200090D00308B500F025F90346BE
:10A4F000002B0ED04FF080430022C3F80C214FF008
:10A5000080430022C3F810214FF080430022C3F89B
:10A51000382500F035F90346002B76D04FF08053F4
:10A520007C4AD3F80434C2F820354FF08053794A7E
:10A53000D3F80834C2F824354FF08053754AD3F865
:10A540000C34C2F828354FF08053724AD3F81034D7
:10A55000C2F82C354FF080536E4AD3F81434C2F849
:10A5600030354FF080536B4AD3F81834C2F8343585
:10A570004FF08053674AD3F81C34C2F840354FF08F
:10A580008053644AD3F82034C2F844354FF08053E6
:10A59000604AD3F82434C2F848354FF080535D4AFE
:10A5A000D3F82834C2F84C354FF08053594AD3F8C9
:10A5B0002C34C2F850354FF08053564AD3F830341B
:10A5C000C2F854354FF08053524AD3F83434C2F8AD
:10A5D00060354FF080534F4AD3F83834C2F86435B1
:10A5E0004FF080534B4AD3F83C34C2F868354FF0F3
:10A5F0008053484AD3F84034C2F86C354FF080534A
:10A60000444AD3F84434C2F8703500F0DDF803460C
:10A61000002B02D0404B414A1A6000F0E7F8034695
:10A62000002B03D03E4BFB22C3F8182500F0F0F8B6
:10A630000346002B0AD03B4B1B6823F00F023A4B1A
:10A640001B6803F00F03374913430B6000F0F2F867
:10A650000346002B03D0354B4FF400721A6000F014
:10A66000FBF80346002B0DD04FF08043D3F80034A5
:10A6700003F00103002B05D04FF080436FF001027F
:10A68000C3F800242A4BD3F88830294A43F47003D6
:10A69000C2F88830BFF34F8FBFF36F8F4FF0102396
:10A6A000D3F80032002B05DB4FF01023D3F804322F
:10A6B000002B2BDA1F4B0122C3F8042500BF1D4BD2
:10A6C000D3F80034002BFAD04FF010231222C3F835
:10A6D000002200BF174BD3F80034002BFAD04FF004
:10A6E00010231222C3F8042200BF124BD3F8003407
:10A6F000002BFAD00F4B0022C3F8042500BF0D4BEE
:10A70000D3F80034002BFAD0FFF7D2FEFFF7E2FEB9
:10A7100000BF08BD00C000408C56004048810300C7
:10A7200000F00040E40E0040580200104096024045
:10A7300000ED00E000E001400F4B1B68082B17D133
:10A740000E4B1B68002B01D1012312E00B4B1B6841
:10A75000012B01D101230CE0084B1B68022B01D116
:10A76000012306E0054B1B68032B01D1012300E008
:10A7700001231846704700BF30010010340100105B
:10A780000F4B1B68082B17D10E4B1B68002B01D1F8
:10A79000012312E00B4B1B68012B01D101230CE0BC
:10A7A000084B1B68022B01D1012306E0054B1B68F7
:10A7B000032B01D1012300E001231846704700BF9D
:10A7C0003001001034010010064B1B68082B05D126
:10A7D000054B1B68002B01D1012300E00023184624
:10A7E000704700BF3001001034010010064B1B6899
:10A7F000082B05D1054B1B68002B01D1012300E07C
:10A8000000231846704700BF3001001034010010CB
:10A81000064B1B68082B05D1054B1B68002B01D18B
:10A82000012300E000231846704700BF30010010EC
:10A8300034010010064B1B68082B05D1054B1B6823
:10A84000002B01D1012300E000231846704700BF10
:10A8500030010010340100100F4B1B68082B17D17A
:10A860000E4B1B68002B01D1012312E00B4B1B6820
:10A87000012B01D101230CE0084B1B68022B01D1F5
:10A88000012306E0054B1B68032B01D1012300E0E7
:10A8900001231846704700BF30010010340100103A
:10A8A00000B583B00190019B1B682F2B04D90B4985
:10A8B00040F2CD1004F030FF019B1B681F2B02D823
:10A8C0004FF0A04306E0019B1B6803F01F02019BB1
:10A8D0001A60034B184603B05DF804FB505F030099
:10A8E0000003005000B585B00190084611461A4695
:10A8F00003468DF803300B468DF8023013468DF871
:10A90000013001AB1846FFF7CBFF03909DF8032001
:10A910009DF802305B001A439DF801309B001A43FA
:10A920009DF818301B0242EA03019DF81C301B04FD
:10A93000019A1943039B02F5E07243F8221000BF0D
:10A9400005B05DF804FB00B585B0039000230193CA
:10A95000002300930023012201210398FFF7C2FF87
:10A9600000BF05B05DF804FB00B585B003900B4651
:10A970008DF80B309DF80B200023019300230093EA
:10A980001346002200210398FFF7ACFF00BF05B07B
:10A990005DF804FB00B585B0019001AB1846FFF7E8
:10A9A0007FFF0390019B012202FA03F319460398EB
:10A9B00000F086F800BF05B05DF804FB00B585B077
:10A9C000019001AB1846FFF76BFF0390019B01223A
:10A9D00002FA03F31946039800F07CF800BF05B0B3
:10A9E0005DF804FB00B585B0019001AB1846FFF798
:10A9F00057FF0390039BD3F804350293029BDA437D
:10AA0000019B012101FA03F31A40039BC3F80825B7
:10AA1000019B01229A40029B1A40039BC3F80C251C
:10AA200000BF05B05DF804FB00B583B00190009154
:10AA3000009B002B03D10198FFF7C0FF02E00198B3
:10AA4000FFF7A8FF00BF03B05DF804FB00B585B0B9
:10AA5000019001AB1846FFF723FF0390039800F025
:10AA60001FF80246019B22FA03F303F00103184684
:10AA700005B05DF804FB00B585B0019001AB184648
:10AA8000FFF70EFF0390039800F012F80246019BB7
:10AA900022FA03F303F00103184605B05DF804FB46
:10AAA00082B00190019BD3F81035184602B0704770
:10AAB00082B00190019BD3F80435184602B070476C
:10AAC00082B001900091019B009AC3F8082500BF55
:10AAD00002B0704782B001900091019B009AC3F8C8
:10AAE0000C2500BF02B0704700B585B00190019BF6
:10AAF000032B03D911493A2004F00EFE104A019BA2
:10AB000013441B781846FFF7B6FF0346002B14BF0B
:10AB1000012300238DF80F309DF80F30002B14BF58
:10AB200001230023DBB283F00103DBB203F0010356
:10AB3000DBB2184605B05DF804FB00BF805F030080
:10AB4000BC5F030000B583B00190019B032B03D9C8
:10AB50000749412004F0E0FD064A019B13441B789D
:10AB600000211846FFF760FF00BF03B05DF804FB4B
:10AB7000805F0300BC5F030000B583B00190019BC0
:10AB8000032B03D90749472004F0C6FD064A019B61
:10AB900013441B7801211846FFF746FF00BF03B09E
:10ABA0005DF804FB805F0300BC5F030000B583B069
:10ABB0000023019305E00198FFF7DEFF019B0133BD
:10ABC0000193019B032BF6D900BF03B05DF804FB92
:10ABD00000B583B00023019305E00198FFF7B2FFB1
:10ABE000019B01330193019B032BF6D900BF03B0F6
:10ABF0005DF804FB00B583B00190019B032B03D9E2
:10AC000007495F2004F088FD064A019B13441B7826
:10AC10001846FFF7E7FE00BF03B05DF804FB00BF76
:10AC2000805F0300BC5F030000B583B00023019385
:10AC300009E0094A019B13441B781846FFF783FE7D
:10AC4000019B01330193019B032BF2D9FFF7AEFF68
:10AC500000BF03B05DF804FBBC5F030000B585B026
:10AC60000190019B032B03D91149AC2004F054FD42
:10AC7000104A019B13441B781846FFF7E7FE034672
:10AC8000002B14BF012300238DF80F309DF80F30E7
:10AC9000002B14BF01230023DBB283F00103DBB2DE
:10ACA00003F00103DBB2184605B05DF804FB00BFFA
:10ACB000805F0300C05F030000B583B000230193F1
:10ACC0000AE0094A019B13441B7803211846FFF749
:10ACD0004BFE019B01330193019B032BF1D900BF74
:10ACE00003B05DF804FB00BFC05F030084B00190B7
:10ACF0004FF0FF330293002303930DE00A4A039BB6
:10AD000013441B781A46019B934202D1039B029382
:10AD100005E0039B01330393039B032BEED9029BB6
:10AD2000184604B0704700BFC05F030000B583B091
:10AD30000190019B03F00103002B01D0FFF774FF8A
:10AD4000019B03F00203002B01D0FFF7B5FF00BF0A
:10AD500003B05DF804FB000000B589B001900091DC
:10AD6000009B0793019B1B788DF80C30019B5B685F
:10AD70000493019B9B68DBB28DF81430019BDB6868
:10AD80000693074A079B52F823300649079A51F861
:10AD9000221003AA1046984700BF09B05DF804FBD3
:10ADA000143400201C34002000B589B001900091BB
:10ADB000009B0793019B1B788DF80C30019B5B680F
:10ADC0000493019B9B68DBB28DF81430019BDB6818
:10ADD0000693074A079B52F823300649079A51F811
:10ADE000221003AA1046984700BF09B05DF804FB83
:10ADF000143400201C34002030B58FB00390029131
:10AE00000192039B1B780C932C490C9B019A41F8EF
:10AE10002320029B1A692A490C9B41F823200C9B92
:10AE2000012B07D1029B5B7F002B03D125497620A4
:10AE300004F072FC029B5B7F1946234A0C9B13446F
:10AE40000A461A70029B04AC1D460FCD0FC495E84C
:10AE50000F0084E80F000C9B089300230D93039BC5
:10AE60001B781A46184B9B5C002B0DD0039B181DBA
:10AE7000019B002B01D0154A00E0002204AB1946CB
:10AE800002F068F80D9014E0039B1B781A460E4BF5
:10AE90009B5C002B0DD1039B03F10C00019B002B4D
:10AEA00001D00B4A00E0002204AB194601F0C6F9BC
:10AEB0000D900D9B18460FB030BD00BF143400201C
:10AEC0001C340020C45F03002434002059AD02006C
:10AED000A9AD020082B001904FF08042019BC2F800
:10AEE000083300BF02B0704784B00346ADF80630A7
:10AEF000BDF8063003F1804300221A60BDF8063029
:10AF000003F180431B680393039B00BF04B07047A9
:10AF100082B00346ADF80630BDF8063003F1804339
:10AF20001B68002B14BF01230023DBB2184602B0BC
:10AF30007047000008B54FF48070FFF7E9FF034643
:10AF4000002B14D04FF48070FFF7CEFF0120FFF7E5
:10AF5000C1FF114B5B7983F00103DBB2002B06D0FC
:10AF60000D4B01225A710C4B1B68002098474FF47F
:10AF70008270FFF7CDFF0346002B0AD04FF482709A
:10AF8000FFF7B2FF0220FFF7A5FF034B1B6801206C
:10AF9000984700BF08BD00BF2834002082B0034698
:10AFA0008DF807309DF8073003F01F0205499DF921
:10AFB00007305B09012000FA02F241F8232000BFAC
:10AFC00002B0704700E100E082B0034600918DF8C6
:10AFD00007309DF90730002B0CDA009BDAB20C49E0
:10AFE0009DF8073003F00F03043B5201D2B20B442B
:10AFF0001A7609E0009BDAB206499DF90730520142
:10B00000D2B20B4483F8002300BF02B0704700BFE8
:10B0100000ED00E000E100E000B583B003460A4621
:10B020008DF8073013468DF806309DF80630012B59
:10B0300003D99DF80630032B0BD99DF80630042B5D
:10B0400003D99DF80630072B03D908496B2004F07B
:10B0500063FB9DF806209DF9073011461846FFF75F
:10B06000B3FF00BF03B05DF804FB00BF8C600300BA
:10B0700000B583B003468DF807309DF907301846B8
:10B08000FFF78CFF00BF03B05DF804FB00B583B091
:10B090000346ADF80630BDF80630184600F026F835
:10B0A00003461B68012B0CBF01230023DBB21846AB
:10B0B00003B05DF804FB00B585B00346ADF806307B
:10B0C000BDF80630184600F011F803461A46002372
:10B0D0001360BDF80630184600F008F803461B68F8
:10B0E0000393039B00BF05B05DF804FB82B00346E9
:10B0F000ADF80630BDF8063003F1804303F5C043D8
:10B10000184602B07047000082B00190034A019BCC
:10B11000C2F8043300BF02B0704700BF00600040B7
:10B1200082B00190034BD3F80423019B13401846CF
:10B1300002B070470060004082B00190084A019B55
:10B1400003F5A27352F82330054943F00102019B35
:10B1500003F5A27341F8232000BF02B0704700BF7F
:10B160000060004084B00390029113468DF80730D0
:10B17000144A039B03F5A27352F82330114923F4B8
:10B180004F3323F44073039A02F5A27241F8223040
:10B190000C4A039B03F5A27352F82320029B1B0267
:10B1A00003F47C519DF807301B0403F440330B4338
:10B1B00004491A43039B03F5A27341F8232000BFFF
:10B1C00004B070470060004082B00190054A019BC6
:10B1D00003F5A27352F823301B0A03F03F0318460D
:10B1E00002B070470060004082B00190064A019BA7
:10B1F00003F5A27352F823301B0C03F00303DBB2F8
:10B20000184602B0704700BF0060004000B583B030
:10B210000190019B1B682F2B04D90B4940F2CD10E4
:10B2200004F07AFA019B1B681F2B02D84FF0A04351
:10B2300006E0019B1B6803F01F02019B1A60034B91
:10B24000184603B05DF804FBBC6003000003005027
:10B2500000B585B00190084611461A4603468DF8A0
:10B2600003300B468DF8023013468DF8013001ABE8
:10B270001846FFF7CBFF03909DF803209DF802309E
:10B280005B001A439DF801309B001A439DF818306B
:10B290001B0242EA03019DF81C301B04019A19436A
:10B2A000039B02F5E07243F8221000BF05B05DF881
:10B2B00004FB00B585B003900B468DF80B309DF86C
:10B2C0000B2000230193002300931346002200214A
:10B2D0000398FFF7BDFF00BF05B05DF804FB00B5A4
:10B2E00085B0019001AB1846FFF790FF0390019ADB
:10B2F000039B02F5E07253F8223023F0020302931D
:10B30000019A039B02F5E072029943F8221000BFF4
:10B3100005B05DF804FB00B585B001900B468DF8D3
:10B32000033001AB1846FFF771FF0390019A039BAE
:10B3300002F5E07253F82230019A23F44031039B66
:10B3400002F5E07243F82210019A039B02F5E072C5
:10B3500053F822309DF8032012041146019A194334
:10B36000039B02F5E07243F8221000BF05B05DF8C0
:10B3700004FB00B585B0019001AB1846FFF746FF0E
:10B380000390039800F020F80246019B22FA03F391
:10B3900003F00103184605B05DF804FB00B585B065
:10B3A000019001AB1846FFF731FF0390019A039B10
:10B3B00002F5E07253F822301B0C03F00303DBB2FA
:10B3C000184605B05DF804FB82B00190019BD3F8EC
:10B3D0001035184602B0704700B589B0039002914D
:10B3E0000192174A05AB92E8030083E80300039A31
:10B3F000029B1344022B04D9124940F2FD2004F0B1
:10B400008BF9039B079311E0079B9B0008AA134449
:10B4100053F80C3C1846FFF7D7FF0246019B1A6011
:10B42000019B04330193079B01330793039A029B0B
:10B430001344079A9A42E7D300BF09B05DF804FBB2
:10B44000EC600300BC60030084B001900091009B9D
:10B450000393019BDB080293019B03F00703019315
:10B460000122019B02FA03F30399029A0A4412781B
:10B470001340184604B0704784B001900091009BBF
:10B480000393019BDB080293019B03F007030193E5
:10B49000039A029B13441B785AB20121019B01FAC3
:10B4A00003F35BB2134359B2039A029B1344CAB22B
:10B4B0001A7000BF04B0704782B001900C4A019B23
:10B4C0001344303393F90030002B09DB084A019B09
:10B4D0001344303393F90030072B01DC012300E0E3
:10B4E000002303F00103DBB2184602B0704700BF2F
:10B4F0003034002082B00190064A019B134430335F
:10B5000093F90030072BCCBF01230023DBB2184690
:10B5100002B070473034002082B00190064A019B8F
:10B520001344303393F90030DB43DBB2DB09DBB289
:10B53000184602B0704700BF3034002084B003903A
:10B54000029101928DF80330029B59B20E4A039B7F
:10B55000134430330A461A700B49029B019A41F892
:10B5600023209DF8033083F00103DBB2002B08D0C9
:10B57000029B083B039A51B2034A13440A4683F8DC
:10B58000602000BF04B070473034002082B00190CA
:10B59000044A019B13443033FF221A7000BF02B0EB
:10B5A000704700BF3034002000B583B001900449DB
:10B5B0000198FFF761FF00BF03B05DF804FB00BF17
:10B5C0009434002082B00190044A019B134430332C
:10B5D00093F90030184602B0704700BF30340020A5
:10B5E00082B00190034A019B52F82330184602B002
:10B5F000704700BF3034002000B589B0039002913D
:10B6000013468DF80730FF238DF81F309DF8073063
:10B61000002B01D0002300E0082305939DF807309C
:10B62000002B01D0082300E00C230493059B069314
:10B6300014E00F4A069B52F82330B3F1FF3F0AD1C2
:10B640009DF80730029A06990398FFF777FF069B4B
:10B650008DF81F3006E0069B01330693069A049B83
:10B660009A42E6D39DF91F30184609B05DF804FBF5
:10B670003034002082B003468DF807309DF8073043
:10B68000094A4FF0FF3142F823109DF80730072B8D
:10B6900007D99DF80730083B034A1344FF2283F87B
:10B6A000602000BF02B070473034002000B583B086
:10B6B000254B93F86A30002B03D008230093009B9E
:10B6C0003EE000238DF8073009E09DF8073018466A
:10B6D000FFF75CFF9DF8073001338DF807309DF8C8
:10B6E00007302F2BF1D900238DF8073009E09DF8A2
:10B6F00007301846FFF7BEFF9DF8073001338DF87D
:10B7000007309DF807300B2BF1D9062200210F4896
:10B7100009F0B2FC07210620FFF77EFC0620FFF7A8
:10B72000A7FC4FF4BE70FFF7C6FC4FF00040FFF7D8
:10B73000EBFC054B012283F86A2000230093009B59
:10B74000184603B05DF804FB303400209434002028
:10B75000044B93F86A30002B14BF01230023DBB2A3
:10B76000184670473034002000B587B0039002912E
:10B770000192039B2F2B04D9364940F2072003F096
:10B78000CBFF002305930398FFF7C6FE0346002B6B
:10B7900002D00823059357E0029B9B78C3F3400334
:10B7A000DBB21A4601990398FFF726FF03468DF88E
:10B7B00013309DF91330B3F1FF3F43D0029B9B78C8
:10B7C000C3F38003DBB283F00103DBB2002B13D0A1
:10B7D000029B9B7803F00103DBB2002B03D003989C
:10B7E000FFF77DFD05E0029B5B7819460398FFF7A4
:10B7F00060FD0398FFF7D8FE029B9B7803F00203DD
:10B80000DBB2002B08D09DF91300029B1B781A466F
:10B810000399FFF7A7FC17E09DF91330083B0E4A88
:10B82000134493F96010029B1B789B015AB29DF957
:10B830001330083B0A4351B2074A13440A4683F8BF
:10B84000602001E004230593059B184607B05DF8CE
:10B8500004FB00BFFC6003003034002000B587B05B
:10B8600001900B468DF80330019B2F2B04D93D49E5
:10B8700040F2372003F050FF0198FFF74DFE0346DA
:10B88000002B04D137494FF40E7003F045FF0198A7
:10B89000FFF730FE0346002B2FD00198FFF792FEF2
:10B8A0000346083B304A134493F960308DF8163054
:10B8B0009DF816309B098DF815309DF81530032B37
:10B8C0000BD10198FFF755FD0346002B01D0032350
:10B8D00000E002238DF8173008E09DF81530012BA9
:10B8E00001D1022300E003238DF817309DF81730B3
:10B8F00019460198FFF70FFD30E00198FFF7DCFDD6
:10B900000346002B2AD00198FFF75CFE0346049300
:10B91000049B9BB240339BB29B00ADF80E30049B5E
:10B920001846FFF709FCBDF80E301846FFF7C3FBB9
:10B930009DF80330002B11D00198FFF743FE03461A
:10B940001846FFF74DFE0290029B002B06D0012205
:10B95000049B02FA03F31846FFF7D6FB00BF07B0BB
:10B960005DF804FBFC6003003034002000B583B0B8
:10B970000190019B2F2B04D908494FF4227003F04A
:10B98000CBFE0198FFF7F5FC0346002B14BF012303
:10B990000023DBB2184603B05DF804FBFC60030033
:10B9A00000B599B00023149306AB00221A605A60C8
:10B9B0004FF48073ADF84A3001231693002313939C
:10B9C00021E0BDF84A301846FFF760FB0346002B24
:10B9D0000ED01698FFF7A4FB0346002B08D0BDF845
:10B9E0004A301846FFF767FB149A169B13431493CB
:10B9F000169B5B001693BDF84A300433ADF84A300D
:10BA0000139B01331393139B072BDAD94FF4BE70AA
:10BA1000FFF73CFB0346002B0DD04FF4BE70FFF741
:10BA20004AFB149B43F00043149306AB1A460221D1
:10BA30000020FFF7D1FC149BDBB2002B29D001239F
:10BA400016930023139321E0169A149B1340002BA6
:10BA500016D01398FFF7B8FB11901398FFF7C4FBAB
:10BA600003468DF843301398FFF7BAFD0F900F9BF4
:10BA7000002B05D09DF843200F9B11461198984745
:10BA8000169B5B001693139B01331393139B072B99
:10BA9000DAD9149B002B80F2F08000238DF85F3000
:10BAA00004AB00221A605A60002315930AE0159B2C
:10BAB0009B0018AA13444FF0FF3243F8582C159BF3
:10BAC00001331593159B012BF1D900238DF85F30BD
:10BAD0000023139378E06B4A139B1344603393F96C
