:020000022000DC
:1070000000000120757302005D7302005F730200CF
:1070100061730200637302006573020000000000E8
:107020000000000000000000000000006773020084
:1070300069730200000000006B7302006D730200B0
:1070400071AA02006F73020029AF02006F73020081
:107050006F7302006F7302007DAD02006F73020058
:107060006F7302006F7302006F7302006F73020090
:107070006F7302006F7302006F7302006F73020080
:107080006F730200B18702006F7302006F7302001A
:107090006F7302006F7302007D0803006F730200BC
:1070A0006F7302006F7302006F7302006F73020050
:1070B0006F7302006F730200000000000000000008
:1070C0006F7302006F7302006F7302006F73020030
:1070D0006F7302006F7302006F7302006F73020020
:1070E0006F7302006F7302006F73020000000000F4
:1070F000000000006F730200000000006F730200C8
:10710000000000000000000000000000000000007F
:10711000000000000000000000000000000000006F
:10712000000000000000000000000000000000005F
:10713000000000000000000000000000000000004F
:10714000000000000000000000000000000000003F
:10715000000000000000000000000000000000002F
:10716000000000000000000000000000000000001F
:10717000000000000000000000000000000000000F
:1071800000000000000000000000000000000000FF
:1071900000000000000000000000000000000000EF
:1071A00000000000000000000000000000000000DF
:1071B00000000000000000000000000000000000CF
:1071C00000000000000000000000000000000000BF
:1071D00000000000000000000000000000000000AF
:1071E000000000000000000000000000000000009F
:1071F000000000000000000000000000000000008F
:10720000354936480A1A02D0072291438D4634493F
:1072100034480A1A06D00722914381F309880222D2
:1072200082F3148830483149314A00F044F831483B
:107230003149324A00F03FF831483249324A00F0D1
:107240003AF832483249334A00F035F83248334987
:10725000334A00F030F833483349344A00F02BF811
:1072600033483449344A00F026F83448344900227F
:1072700000F02CF833483449002200F027F8334856
:107280003349091A082902DB002202604160314AB1
:1072900090471F481F49884205D00268043003B454
:1072A000904703BCF7E700208646EC46002000210B
:1072B000294A9047FEE7884207D0521A05D0037842
:1072C00001300B700131013AF9D17047884202D088
:1072D00002700130FAE770470000012000E0002052
:1072E000000001200000012034340300842200202B
:1072F000D8220020D0730200D0730200D40E030005
:107300003434030084220020842200205C10030017
:107310005C1003005C1003005C1003005C100300B1
:107320005C1003005C1003005C10030034340300A5
:1073300088340300D8220020D8220020D822002040
:107340001C3800201C3800201C3800201C3800206D
:107350001C5800209D73020079C10200FEE7FEE781
:10736000FEE7FEE7FEE7FEE7FEE7FEE7FEE7FEE7F5
:1073700000F002B8FFF7FCBF0F484FF00701884349
:1073800085460E4880470E48016841F4700101604F
:10739000BFF34F8FBFF36F8FFFF732BF09480A4922
:1073A0000A4A884207D0521A05D0037801300B7080
:1073B0000131013AF9D1704700000120EDA402002B
:1073C00088ED00E048100300702200208422002095
:1073D0007047000007B5044B0093044A402300F0B7
:1073E00032F803B05DF804FBF1730200D9220020EB
:1073F0002DE9F84389461446B2B10F4B0F4E0325D1
:10740000002743F00108224609EB0701002005F0A0
:1074100049F80744241A48B933782BB14FF47A401D
:10742000C047013D02D13570BDE8F88301233370B8
:10743000002CE8D1F8E700BF60100300D82200203C
:10744000704705F090B8F0B595B01C461646084652
:107450000D4602F067FF1A9B0D93CDE908640024E6
:107460002346082205A928460A948DF82C400C943E
:1074700002F075FF079B0293069B03939DF814305F
:107480008DF8114003F00302012A1DD1BDF814400C
:10749000059EC3F3C203C4F383148DF81030A20019
:1074A00008230EA9284602F05AFFC6F3952608AB1A
:1074B0000093224602AB0EA9304600F0EFFB2846AF
:1074C00002F034FF15B0F0BD022AF8D1BDF8164025
:1074D000C3F3C203A4098DF810300827082C2646F0
:1074E00028BF08263B4632460EA9284602F037FF41
:1074F000A41B08AB02AA31460EA8374400F032FCA8
:10750000002CEBD1DBE70000014B01221A70704721
:107510005A2300207047000070B50E4D06460FCD6F
:1075200088B06C460FC495E80F00002E84E80F0069
:107530004FF00603084A0948009308BF0022694635
:1075400003F030FA08B100F0D3FD054B1E7008B00F
:1075500070BD00BF74100300097502008422002072
:107560001923002007B5044B0093044A4023FFF77A
:107570006AFF03B05DF804FB817502001A23002046
:1075800038B50D4B0D4D002018700D4804782D5D59
:10759000D2B21C4665B1043004F05EF908B100F0C7
:1075A000A7FD084B1A7812B12378002BFBD038BD09
:1075B0000C3003F005FFF1E75A230020E82B0020F0
:1075C000842200201923002008B50848084A0378BF
:1075D000D35C3BB1043004F0D7F80020BDE808408C
:1075E000FFF79ABF0C3003F095FEF6E784220020E7
:1075F000E82B00200120FFF78FBF000038B50A4DAF
:10760000FFF71FFF0421284600F0B6FA074B0124BC
:107610005C71FFF7EFFF042105F1100000F0ACFAF8
:10762000034B5C7138BD00BF281003009822002076
:10763000A0220020037813F0040216D003F0030305
:10764000012B03D0022B09D0012070470A68008863
:107650000232C0F3831002440A60F5E70B684288E7
:10766000023303EB92130B60EEE710467047000005
:107670002DE9F04F87B000230446851C0DF107006B
:107680000F4690468DF8073000F026FF4548066803
:107690003E60D0E90132134401339B1B824600F265
:1076A0001C4600F5836900F21447AB421BD300224D
:1076B000B8F1000F70D0052363F3070264F3891259
:1076C000DAF80010DAF808309DF807000B400333B1
:1076D0000D444AF82320CAF8005000F021FF012091
:1076E00007B0BDE8F08F0121304602F09DF8484612
:1076F00002F0B3F8384602F0B0F8DAF80400DAF82D
:1077000008B0029000EA0B0003300AEB800002A9E7
:10771000FFF790FF029B50BB0BEA03020AEB8202C9
:1077200003F1020CD2680392013303EA0B0B0AEB5C
:107730008B0B02F00302012ACDF808C0DBF80C1015
:1077400022D0022A16D08346384602F089F810B1BA
:10775000029BCAF804305946304602F065F8DAE96F
:1077600001231344DAF8002001339B1A9DE70BEA4A
:107770000300C9E7BDF80E309B0903334FEA114BF4
:107780000CEB93030293DFE7BDF80C30C3F38313D4
:107790004FEA114B6344F5E7062363F3070264F3F2
:1077A0009F528DE72C2400200B4B0C48FF2210B574
:1077B0009A600022C3F81824C3E90022C3F81424F5
:1077C00083F8202402F067FD044610B9044802F053
:1077D0000FFE204610BD00BF2C2400204C0F0300DC
:1077E000C410030030B50A4C71B10A4A0A49121B91
:1077F000D20800239A4201D1002030BD31F8235035
:10780000854202D00133F5E7034654F83300F4E72C
:10781000600F03002810030084220020094B013967
:1078200003EBC000032909D8DFE801F00A020406CF
:1078300004207047007970474079704700207047F6
:1078400002207047600F0300034BD3E90030C31AD6
:1078500058425841704700BF2C2400202DE9F043C6
:1078600087B0FFF7F1FF0646002840F0FB807E4D11
:10787000C5F81804BFF34F8F6868AC6802902040C9
:10788000033005EB800002A9FFF7D4FE029B18B17C
:10789000D5F81824002A5FD004EA0302991C0133AA
:1078A00005EB8202234005EB8303D268DB68049377
:1078B00002F00303022B0392029162D1BDF80E3055
:1078C0006A484FEA9318B8F1500FC14628BF4FF0ED
:1078D000500969F38F1309F10801ADF80E3002F079
:1078E000F2FC0746002800F0A88002F01BFD03A967
:1078F00000230822384602F028FD029924EA0106F6
:107900000136B600B14535D95FFA89F97EB3F6B2D2
:10791000A9EB0609214003315FFA89F4B146544EC0
:1079200005EB810108234A46384602F00EFD36B1C8
:1079300009F1080322463146384602F006FD029B53
:1079400008F1030803EB98030293D5F81834002BD1
:107950004BD1D5F810445BE02A689A4204D86A609B
:10796000304607B0BDE8F08304EA030088E74049E9
:107970003446D7E72140033108234A4605EB81010D
:10798000DAE7012B59D1BDF80C303848C3F3831125
:10799000062928BF062161F3891302318900ADF859
:1079A0000C3002F090FC0746002846D002F0BAFCEA
:1079B0000023082203A9384602F0C7FC0026BDF8C0
:1079C0000C20C2F38312B300964203F10803BCD229
:1079D00002994A1C21400331029205EB81010422E5
:1079E000384602F0B2FC0136E9E7384602F09EFC68
:1079F000FFF72AFF80F00100C6B2B1E7E3685B79C8
:107A000023B1236839461B6820469847E3681C6801
:107A1000002CF3D1384602F089FC0DF107008DF8F7
:107A2000074000F059FDD5F818340BB9029B6B6084
:107A30009DF8070000F074FDDAE7D5F8104454B95A
:107A40000C4B0D480D49C01AC008000440F002005C
:107A500000F06EF8CCE7236820469B689847E368FF
:107A60001C68ECE700267BE72C2400204C0F030069
:107A700038240020600F0300880F0300D01003009B
:107A80002DE9F74F284C80460F46924601A9012266
:107A900018469B46D4F80890FFF7EAFD80B3019D95
:107AA0000026A91C5E4506EB010233D100211F48C8
:107AB00001F079FE80F310006A1C02EA090204EB6F
:107AC0008202000405EA0903033340EA1840D0604B
:107AD00014F8232068F3C50204F8232034F8232087
:107AE00066F3891224F8232054F8232067F39F2299
:107AF00044F8232002F0F80242F0010204F82320A7
:107B000094F820341BB1FFF7A9FE0028FBD103B085
:107B1000BDE8F08F09EA020204EB82025AF826302F
:107B2000D3600136BEE700BF2C2400204828002087
:107B300000231A46FFF7A4BF07B50123019201AA4B
:107B4000FFF79EFF03B05DF804FB07B5CDE9002306
:107B500002236A46FFF794FF03B05DF804FB1FB5EC
:107B6000CDE90123069B039301AA0323FFF788FFB6
:107B700005B05DF804FB000030B50F49D1F81024C2
:107B8000002314463CB9C468237152B9C1F81004EB
:107B90002260184630BDE46825799D4206D02468ED
:107BA000F0E7D268116821601060F2E701330A2B18
:107BB000E7D14FF0FF33ECE72C240020094A38B519
:107BC0000123D2F8104482F820341D4604B938BD90
:107BD000E3685D71236820465B689847E3681C682A
:107BE000F4E700BF2C240020037A052B10B50C46C7
:107BF0000FD0437A23B1084A0849204601F093FE8A
:107C00000749204601F08FFE2046BDE8104001F0F4
:107C10007FBE002AF8D0F3E71B11030020110300F8
:107C200040110300C38873B504460D4633B1144AAE
:107C300000921449144A284601F075FE217A05295C
:107C40001CD0637A4BB1A088FFF7E8FD0F4B1049B9
:107C500053F82020284601F066FE227A0D4BA088BA
:107C600053F822600021FFF7BDFD0B490346324661
:107C7000284602B0BDE8704001F055BE02B070BDAC
:107C80001B1103002B11030023110300E810030054
:107C90002011030050110300431103002DE9F043AC
:107CA00085B01F460C9D002306460C46904695F86D
:107CB0000C902B7329463846FFF7B4FFB8F1060F36
:107CC00009D8DFE808F00412181F283340003146B5
:107CD000284601F028FE002229463846FFF784FF97
:107CE00085F80C9005B0BDE8F0832268314628463F
:107CF00001F019FEEFE7D4E900233146284601F0F0
:107D000012FEE8E7A36800933146D4E90023284631
:107D100001F009FEDFE7E3680193A36800933146B1
:107D2000D4E90023284601F0FEFDD4E7236902933D
:107D3000E3680193A36800933146D4E90023284601
:107D400001F0F1FDC7E76369039323690293E368D8
:107D50000193A36800933146D4E90023284601F03B
:107D6000E2FDB8E708292DE9F84F80460E46174690
:107D70001C463AD8002593F80C901D7319461046FE
:107D8000FFF750FFDFF884A0DFF884B0AE422ED9B1
:107D900018F805205946204601F0C5FD0135082D8B
:107DA000F4D11849DFF86CB0204601F0BCFD4FF06B
:107DB000000A564520D918F80A507E2D03D82846C7
:107DC00008F09AFF00B92E252A465946204601F0B0
:107DD000AAFD0AF1010ABAF1080FEAD101222146EF
:107DE0003846FFF701FF84F80C90BDE8F88F514644
:107DF000204601F098FDD1E70349204601F093FDAC
:107E0000E7E700BF1611030014110300121103006D
:107E10000C11030018110300C30710B507D4F02399
:107E20004008054A145C23401943115410BD090150
:107E3000C9B20F23F4E700BF1829002030B5094B61
:107E40001C78094B196800239C4202DC0022104672
:107E500030BD11F83350854201EBC302F7D0013336
:107E6000F2E700BFE82800203829002070B504465A
:107E70000D46FFF7E3FF30B1436823B129462046A2
:107E8000BDE87040184770BD034B044819680022D4
:107E9000490800F032BA00BFEC280020F02800208A
:107EA00010B5C0B2FFF7CAFF0446007802F058FFD1
:107EB00063785A1E53425341834208D1044BD3E99D
:107EC0000023134303D1BDE81040FFF7DDBF10BD11
:107ED0001029002037B54308364AD35CC2074CBF8F
:107EE0001B0903F00F0304460D46042B36D8DFE8C8
:107EF00003F003262D393D0081B30121FFF78CFFEC
:107F000000230DF107008DF8073000F0E5FA01229B
:107F1000A4F12003C4F12000274902FA03F322FA56
:107F200000F0034302FA04F4D1E9002014430343B0
:107F3000C1E900439DF8070000F0F2FA0EE00029C5
:107F400018BF02212046FFF767FF07E041B1032178
:107F5000FFF762FF01212046FFF788FF03B030BD25
:107F60000121EFE70029F9D10421EBE709B1032151
:107F7000E8E7FFF751FF29462046FFF777FF0DF1AD
:107F800007008DF8075000F0A7FA0122A4F12003A2
:107F9000C4F12000084902FA03F322FA00F0034377
:107FA00002FA04F4D1E9002022EA040420EA0303DF
:107FB000BEE700BF18290020102900202DE9F0415C
:107FC000124E134F00243378A34208DC114BD3E93F
:107FD0000023134318D0BDE8F041FFF755BF3D68BB
:107FE00005EBC40815F8340002F0BAFE98F8011049
:107FF0004B1E594259410A1A514215F83400514159
:10800000FFF768FF0134DEE7BDE8F081E8280020D3
:108010003829002010290020092AF7B505460C460A
:1080200016463DD902F0CCFDD8B11E4B1E481D604E
:108030001E4B1F4F1C701F4B002120221E6008F09A
:10804000C4FE1D4B00200021C3E90001013CE4B245
:108050000326FF2C0BD1194A1948002100F042F9E0
:1080600003E002F075FD0028DFD003B0F0BD20B2C0
:108070009DF806308DF8046005EBC00223F007037D
:108080008DF8063001A9937815F830008DF8053089
:108090003A4602F09FFD013CE4B20028D9D0E4E763
:1080A0000720E2E73829002018290020E8280020CE
:1080B000A17E0200EC28002010290020BD7F0200D4
:1080C000B011030070B5084D084E00242B789C4277
:1080D00001D3002070BD3368012113F8340002F091
:1080E000F5FD0134F2E700BFE82800203829002020
:1080F0001FB50021039001AA44F20100CDE901114E
:1081000000F004F805B05DF804FB000010B572B68D
:10811000FFF754FDFFF7A2FB0028FBD1104B114CD9
:108120001149E41AE408240444F00100FFF700FDBB
:108130000E4B1B68DB0700D500BE0D4944F0020062
:10814000FFF7F6FCBFF34F8F0A490B4BCA6802F4E6
:10815000E0621343CB60BFF34F8F00BFFDE700BF6A
:10816000600F0300880F0300BF110300F0ED00E073
:10817000CB11030000ED00E00400FA05D0E9022372
:10818000D1E90201994208BF90422CBF0120002092
:10819000704700002DE900480C4800F0F4FA0C4B41
:1081A000D3E9002312EB000B43F1000C094BD3E998
:1081B00000239C4508BF93455846614603D21BF1F6
:1081C00080704CF10001BDE8008800BFA8220020AB
:1081D00040290020B829002037B505460C460A483A
:1081E00001A901F014FA60B10570446001A90648C4
:1081F00001F037FA18B1054800F0CAFA002003B0C0
:1082000030BD0420FBE700BFA4290020A8220020E5
:10821000194B1B782DE9304804461BB90025284628
:10822000BDE830880028F9D0037F03F0FF05002B5C
:10823000F4D0FFF7AFFFD4E90223994208BF904280
:1082400015D3236903B92377D4E905309847216909
:108250000029E3D0237F03F0FF05002BDED0D4E913
:10826000022312EB010B43F1000CC4E902BC2146CE
:10827000024802F0DCF8D2E748290020DC110300B4
:1082800013B5114B11491868019008235822104862
:1082900001F088F9044698B90E4A0F4801A900F088
:1082A00063F9044660B901210B4800F04FFA01233D
:1082B0000A4A0948194600F0B5F9094B01221A701B
:1082C000204602B010BD00BFD81103004C29002089
:1082D000A429002045830200A8220020FFFF7F0080
:1082E000482900203AB103685A614A1E514251415F
:1082F0001961002070470720704738B5037F044696
:108300000D4683B98261FFF745FF421941F1000331
:10831000C4E90223236903B1256121460020BDE899
:108320003840FFF759BF002038BD002301460377CE
:108330000120FFF751BF0000014800F024BA00BF40
:10834000A82200202DE9F04F85B0074600F006FA7C
:1083500040B1594AD2E9003113F1807341F1000173
:10836000C2E900310021384600F007FA38B1534C19
:10837000236823B12068FFF74BFF0023236001210E
:10838000384600F0FAF920B1FFF704FF4C4BC3E97F
:10839000000103A94B48494D4B4C4C4E01F071F97B
:1083A000002845D1DFF820A1444CDFF828B1504621
:1083B00002F053F82368002875D07BB12368D0E918
:1083C0000201D3E90223994208BF90422DD22368CB
:1083D0001B7F1BB12168504602F029F8504602F07D
:1083E00036F8D0E9026305460193FFF7D3FE019BFF
:1083F000B6EB000863EB0109B8F1010F79F1000356
:1084000044DB334EB0453FD9FFF796FF82194FF456
:1084100096030021584600F025F900283ED1236834
:1084200013B9384600F0F6F8256005B0BDE8F08FC6
:108430000378012B1DD05BB1022B11D14FF0000A44
:10844000204602F004F8002833D080F81CA0F7E79B
:1084500041680B7F23B901230B77204601F0E7FF2A
:1084600003A9184801F038F903A9164801F009F9E1
:1084700096E741682B68994202D100232B60EFE711
:10848000204601F0EDFFEBE7AA68C0E7002158465F
:1084900000F069F92846FFF7BBFE01E00D28F9D08E
:1084A0000023236083E7002BBFD1384600F0B6F8E5
:1084B000BBE701233370D3E740290020C029002007
:1084C000B8290020A4290020DC110300482900203D
:1084D000FFFFB400A822002070B5EFF3108672B63B
:1084E0000C4A946801239CB993600B4B0B4DD3F855
:1084F000801029401160C3F88050D3F88410516077
:108500004FF0FF32C3F88420047006B962B670BD24
:108510000370FAE7C429002000E100E0FC06FFBD7B
:10852000084B9A6810B55AB150B9EFF3108172B682
:10853000054A1C6814605C685460986001B962B6B2
:1085400010BD00BFC429002000E100E0435882B004
:108550003BB10023435043580193019B012002B0DB
:1085600070471846FBE70000F8B5224B4679224DCC
:1085700043F82620214A224BF7009B1AEA19DB0810
:1085800012791B0432B143F002001E49FFF7D0FA02
:108590000820F8BD02680C88C2F8084590F904204C
:1085A0008978002AA8BF02F1604CD4B2BABF04F0A7
:1085B0000F0EDFF858C00CF5614C4FEA4111C9B2FB
:1085C000B4BF0CF80E108CF8001352090121DFF82B
:1085D00040C004F01F042F4401FA04F44CF8224078
:1085E000397145F83600084943F00300FFF7A0FA57
:1085F0000020CEE7D8290020D0290020600F0300FA
:10860000980F0300061203002812030014ED00E087
:1086100000E100E0036801221A607047036801224C
:108620005A60704773B501F15005AD000068ADB2F6
:108630004FF480348C400026C0F80843C0F848430B
:10864000465101F5A8714559019522F07F42019DDF
:1086500040F82120C0F844430BB1C0F8044302B0F5
:1086600070BD00002DE9F74F884699464FF48036DB
:10867000036808F150058E404FEA880AAD00C3F840
:108680004863ADB2C3F80863074603EB0A00D3F8AA
:1086900004154FF0000B22F07F44D0F84025C0F8BD
:1086A000401543F805B05B590093009B531A23F023
:1086B0007F43012B0BD1244B4FF4806043F0010327
:1086C00098473B6843F805B05B590193019B3868B4
:1086D000D0F80455C0F84463631B23F07F43012B9B
:1086E0001AD108F5A878184B013440F8284043F017
:1086F00001034FF4806098473B68D3F804359D42EE
:1087000008D13B680020C3F84463C3F8046303B096
:10871000BDE8F08F0D20FAE78244C9F1FF19CAF8CD
:108720004045D0F80435E21A013A22F07F4209F5BB
:108730007F499145EED3002AE3D10134CAF8404580
:10874000D0F804259342DBE70012030003680222FD
:10875000C3F8442309B1C3F8042370474FF482716E
:108760000068FFF7F3BE4FF4803303FA01F10368AA
:10877000C3F84813C3F8081370475031890089B211
:108780000068FFF7E3BE0368D3F8040570470000F4
:1087900090F9043001215A0903F01F0301FA03F391
:1087A0004032024941F82230704700BF00E100E04A
:1087B000024B034A1B681068184700BFD8290020E5
:1087C000D029002070B5064D0646002455F8043B1C
:1087D0000BB1304698470134042CF7D170BD00BF6F
:1087E000E8290020033080B240F2FE33984230B5D1
:1087F0001FD8134B1A783AB91C895D892C4404445C
:10880000A4B2B4F5806F0AD91A7DAAB99A8BDC8B11
:108810002244024492B2B2F5806F0DD801220A8040
:108820001446142202FB04335A8910445881002054
:1088300030BD48F20860FBE748F20660F8E700BF89
:108840001C2A00200B4A0C4B5188142000FB0131DC
:10885000CB6833B90420496810700122074801F041
:10886000E5BA05230649137002238B8001220023F9
:108870000968F3E7002A00201C2A0020702200204B
:10888000E42A002007B5002305490093054A09683A
:108890000548082301F034FA03B05DF804FB00BF7B
:1088A000E42A0020481203007022002007B50023AC
:1088B000009301460823034A034801F021FA03B05C
:1088C0005DF804FB401203007022002013B5002362
:1088D0000C46009301460423074A084801F010FAA9
:1088E00038B9074B142202FB04340123237402B06D
:1088F00010BD48F20D60FAE73C1203007022002020
:108900001C2A002037B50A480A4B42689C8819681F
:1089100053880325033305709BB2002000909B0011
:1089200001EB8401044801F0EBF903B030BD00BF56
:10893000002A0020E42A00207022002010B5014601
:10894000044800F064FE1C220446002108F03DFAB1
:10895000204610BDD02A002068B10268084B9A4218
:1089600009D14068074B984207D0013398420CBFA9
:10897000012003207047032070470020704700BF8C
:10898000DEC0ADDEFE011EF14388033300EB83033E
:1089900099420BD382884FF6FF739A4208D003881E
:1089A00033B18068431C58425841704702207047D9
:1089B000012070472DE9F8430223DFF860800B8027
:1089C0000D46174600F5805600F108044FF00109E6
:1089D000B4420FD2236801330CD031462046FFF752
:1089E000D3FF48B10FB187F8009002280BD14FF4A4
:1089F00080632B80BDE8F883A368D8F800209342F9
:108A000001D9C8F800302B886288033313442B80C7
:108A10006388033304EB8304DAE700BF142A0020E1
:108A2000154A142303FB002070B50B6844680D46FB
:108A300004F58056ABB15C88033403EB8404B44284
:108A40000DD2236801330AD031462046FFF79CFF40
:108A500001280BD010F0FF0F05D00228EFD1002025
:108A600003E00834EBE72C60012070BD638803331A
:108A700004EB8304E3E700BF1C2A0020436873B5BE
:108A800004460D466BB3244AD1688B4229D3126940
:108A9000934226D813F0030023D1204A218912895A
:108AA00091421ED121689A6891421AD11C4A51689C
:108AB0008B4203D901F580518B420DD392699342C9
:108AC0000CD902F58052934208D201232B80B0FAD0
:108AD00080F0400902B070BD0346F7E748F2096034
:108AE000F5E700232B801E46019601A92888FFF791
:108AF00097FF30B92B8801339BB2012B2B80F3D920
:108B0000E8E7019B226899689142EED16360034BCC
:108B10001B892381DEE700BF70220020002A00208D
:108B20001C2A00202DE9F8431C461D4B1B780646E5
:108B30000F46154673B382B37CB3DFF86C804FF0F9
:108B40001409A388012B02D948F2096020E009FB2F
:108B500003F318F803302BB92146A088FFF760FF14
:108B600020B92060A3880133A380EAE723681EB1FF
:108B7000998832889142EFD11FB119883A88914281
:108B8000EAD19A68C5E90023064B1B892B81002096
:108B9000BDE8F88348F20160FAE748F20460F7E7BD
:108BA000F8290020002A00201C2A002008B5074BC5
:108BB000191D5888FFF734FF18B1BDE80840FFF7CA
:108BC000A1BEBDE80840FFF73DBE00BF002A00205F
:108BD0002DE9F04FA34FDFF8B09289B00646B846B2
:108BE0003B6823B94946A04800F04BFD3860D8F8EF
:108BF000005029784B1E052B00F2FE80DFE813F0B1
:108C0000060060006000F200F20064012EB1974B94
:108C100000225A604FF40644F0E02B79032B1DD854
:108C2000DFE803F015022B3691490B78022B08463A
:108C30001AD00B7D022B4FF0010317D1142253439E
:108C4000C2180020C8545068FFF730FE03E001232B
:108C50002B71FFF717FE002800F0BE80834B002227
:108C60005A6048F20D64C9E00023E7E77F4A1370B9
:108C70000023536041F61D54C0E07E497E48002326
:108C800002222B718A800122096801F0CFF8E2E705
:108C9000784C00262E712068754DFFF707FE774B44
:108CA000D4F800C05A8814235343EA18EE5451688C
:108CB0002160A188C2F804C011810222A280CAE703
:108CC000B5F814A0AA7DDFF8A8B1AEB1022AEB88EE
:108CD00006D9142101FB0AB1DA1C088902440A8171
:108CE000142202FB0ABAC3F57F43BAF80A20FD3307
:108CF0001344AAF80A308DE7142303FB0AB318893A
:108D00005C6804EB8004062A69D8DFE802F0274E8D
:108D100036441D5A040041F61D54AA7DEB88022AF0
:108D200006D9142101FB0AB1DA1C088902440A8120
:108D3000142202FB0ABAC3F57F43BAF80A20FD33B6
:108D40001344AAF80A3059E04D484E4900234360C5
:108D5000AB690360FFF792FE002874D00223AB7565
:108D6000002300930423EA182146434800F0C8FF7B
:108D7000002831D048F20D64CFE72B69002B14BFD7
:108D800003230123AB750023009305F10C02042398
:108D900004F10801E9E70123AB750022EB8800929A
:108DA0009B002A6904F10C01DFE703290CBF0523AE
:108DB0000623AB7500230093042305F10802E11894
:108DC000D3E70623AB752F4B19882D4B5868FFF757
:108DD0007DFD04460028A0D109B0BDE8F08F48F21F
:108DE0000E649AE7002E7FF415AF2B79012B4DD03E
:108DF000EBB1022B3FF43EAF48F20E641422002187
:108E000003A807F0E2FF41F61D539C4208BF00246F
:108E1000D8F8003004941A78023A042A00F2088143
:108E2000DFE812F0E900F500180120012701022314
:108E30002B710DF10A01EB68039303A8CDE90466D9
:108E4000FFF71CFE10B948F20964D7E70498BDF893
:108E50000A108388EB8003882B81FFF737FD0446D7
:108E600029E000BF182A0020D02A0020F82900207D
:108E70001C2A0020E42A002070220020002A002062
:108E8000DC290020F02A0020102A0020DFF800A2B0
:108E900003AA53463146A81DFFF744FE044668B9AD
:108EA000BAF804100498FFF711FD044648F209636C
:108EB0009C423FF4DFAE002CA0D18DE70822314662
:108EC000504607F082FFF1E7002E7FF4A3AE6B4B14
:108ED0001A7BAAB11E731A78013A062A8CD801A10E
:108EE00051F822F08B8F0200B18F0200CF8F020069
:108EF000D58F0200F98D0200DB8F0200ED8F02009A
:108F00001A78072AE7D801A151F822F02D8F020024
:108F1000D78E0200D78E0200538F0200678F0200A7
:108F2000878F0200878F02004F8F02001A895449F1
:108F300001321A8100225A801A730A78B2FA82F238
:108F400052099A720A7DB2FA82F25209DA72012249
:108F500007E04C4958688A884088033202448A8076
:108F600002221A70B7E7464C5A884649142505FB79
:108F700002420868546850608888108102228A8002
:108F80000C600622EDE70722EBE79A7A32B9DA7A2B
:108F90008AB900221A705A805A606BE6384900225A
:108FA0009A72CA68002AF2D1097C0029EFD05A804F
:108FB000FFF7FCFD53E70022DA72314A116A0029FB
:108FC000E7D192F82420002AE3D00122EFE7FFF74F
:108FD00099FC44E7FFF736FC41E7294A5B881421F6
:108FE00001FB03235868FFF761FC38E700225A6051
:108FF000FFF748FC33E701228DF80C201A89ADF801
:1090000018209A88DB68ADF81A20059310E0022238
:109010008DF80C201A89ADF818209A88ADF81A201E
:10902000DA689B7D05929A1F534253418DF81C309C
:1090300003A8FFF7C7FB002649461348C8F800609D
:1090400000F04AFB0121114800F0F9FB00287FF4F1
:10905000C7ADC1E603228DF80C20DA88ADF81820E0
:109060001A89CFE70422DB888DF80C20ADF8183080
:10907000DEE705238DF80C30DAE700BF002A002078
:109080001C2A0020E42A0020D02A0020E02A002008
:10909000F42A00204068FFF79BBD000008B50121BD
:1090A000044800F0B6FB18B9BDE80840FFF790BDD2
:1090B00008BD00BFE02A00202DE9F3419846374B58
:1090C0001B7806460D46002B5CD000295DD0098830
:1090D0004FF6FF7399425BD06B88002B58D06B68BA
:1090E0009B0758D14AB92F890DF102013846FFF785
:1090F00079FB30B102B0BDE8F08113885788ADF834
:10910000023001A8FFF71AFC044660B9BDF802302E
:10911000234A142101FB032358890338C01B5881BB
:1091200048F20760E6E700238375BDF802308382CA
:109130006B68036180F8008001211A4800F074FB1D
:109140002B882381B8F1030F6B88A38004BF04230D
:10915000A3754FF0000508BF3368E06008BFA36146
:10916000E780658101A9104800F07BFA36B1E36819
:1091700033600E4B75601B89B5723381FFF78EFF2C
:109180000020B7E748F20160B4E748F20460B1E7B5
:1091900048F20360AEE748F20260ABE7F82900202E
:1091A0001C2A0020142A0020D02A0020002A002097
:1091B00008B5084B1A68042A09D01968064A42F80B
:1091C00021000121184600F02FFB002008BD48F2C5
:1091D0000B60FBE7EC2A0020E82900202DE9F04F86
:1091E00089B01422002103A807F0EFFD784A137814
:1091F00003F0FF01009190463BB103A8FFF7E2FAAC
:109200000027384609B0BDE8F08F101D00F022FBA2
:109210000028F5D140F6F8734FF080521B685C1CB3
:1092200008BF6C4B6C4C08BF1B6811695269581C15
:1092300008BF02FB01F323610022A3F540536749F5
:10924000E360204600F028FD019407460028D8D1AD
:109250001C238C2262496348DFF89CB100F0A2F91C
:10926000BA463D464FF003093C46019BDE68564432
:109270003046FFF771FB012860D042B2002A4AD085
:10928000032827D13268531C02D0574B9A4234D15D
:10929000321D06F58051106801302ED10432914202
:1092A000F9D1DBF800203AB902220123CBF80060A3
:1092B000ABF8042000930BE0142262434B4B0220D6
:1092C000991898544A4A4E60548001340881A4B2D7
:1092D00045F001050AF5805ABAF5405FC5D1B9F1EC
:1092E000010F98BF0025EDB2022D03D0062D44D00A
:1092F000002D4CD148F20A6783E73C4914226243AF
:10930000881809F1FF394660032088541FFA89F94B
:109310000134A4B2DEE735491420604301EB000CB0
:109320000A5400F1100208300A44CCF804600144E9
:109330003046FFF73FFB45F00205E9E7009B6BB1C4
:109340002A4B14226243991802209854DBF800201B
:109350004A60274A088154800134A4B2002225497A
:10936000CBF800603046FFF725FBBBF80420022A4B
:109370000CBF042208221543ACE7012388F8003013
:1093800003A80023C8F80430FFF71CFA39E702A845
:10939000FFF7D4FAC8B10123013D03700A2D09D8A3
:1093A000DFE805F006080608070807080F110F0098
:1093B0000023037102A90B4800F053F9FFF76EFE7A
:1093C0001FE70323F5E70223F3E748F2076718E7EF
:1093D000F829002014100010702200203C14030013
:1093E000442A0020D02A0020DEC0ADDE1C2A002046
:1093F000002A0020E82A0020E42A002073B50D4648
:109400000446C8B1C1B10DF10601FFF737FBB0B199
:109410000C4BBDF806006668142202FB00300121E7
:109420000C3000F001FA63682E600C336B6001238E
:10943000A372002002B070BD48F20460FAE748F25F
:109440000960F7E71C2A002013B50446A8B10DF106
:109450000601FFF713FB98B10C4ABDF80630142142
:1094600001FB0323DA6872B1A27A62B1DA680020E4
:10947000013ADA60A07202B010BD48F20460FAE767
:1094800048F20960F7E748F20560F4E71C2A00207B
:1094900002230022FFF710BE18B103230022FFF7BA
:1094A0000BBE48F204607047114B1B7813B504469D
:1094B000ABB14FF6FF73984214D001A8FFF73EFA04
:1094C00098B10523037001230371C48001A90948E1
:1094D00000F0C7F8FFF7E2FD002002B010BD48F22F
:1094E0000160FAE748F20360F7E748F20760F4E743
:1094F000F8290020D02A00200F4B1B7807B5A3B114
:1095000001A8FFF71BFA98B10623037001A90B48C5
:1095100000F0A7F80A4B1A780AB101221A73FFF774
:10952000BDFD002003B05DF804FB48F20160F9E7DF
:1095300048F20760F6E700BFF8290020D02A002093
:10954000002A002007B5ADF80600ADF804100DF1B3
:10955000060001A9FFF7E6FA03B05DF804FB07B5C2
:109560001346ADF806000A4600200DF10601FFF78C
:10957000D9FA03B05DF804FB07B51346ADF8060051
:109580000A460DF106000021FFF7CCFA03B05DF8A2
:1095900004FB20B119B103680B600020704748F24A
:1095A0000460704710B561B1B2FBF3F403FB1424FF
:1095B000A4B244B9C0E9001484608281C38120460A
:1095C00010BD0E20FCE70920FAE782B050E8022F18
:1095D000C188B2EB324F4FF0000317BF92B241EA9D
:1095E000014142EA014104E04268B2EB324F08BF58
:1095F000012340E80212002AE8D18DF807309DF8D7
:109600000730002B0CBF1120002002B0704737B587
:1096100050E8013F9DB2C48925448489A54228BFF2
:109620002D1B0489A54202BFBFF32F8F002207E044
:10963000C5EA030540E80154002CE9D14FF00102CE
:109640008DF803200193019B9DF803200B6002F02D
:10965000FF0322B10B880068184403B030BD1846E0
:10966000FBE70A884B889A4209D150E8012FC2EAE9
:10967000024240E80123002BF7D10120704700206F
:10968000704737B550E8023F1FFAA3F5C488A542DA
:1096900002BFBFF32F8F00220DE0C48925448489C7
:1096A000A54228BF2D1BC3EA054540E80254002C03
:1096B000E8D14FF001028DF803200193019B9DF842
:1096C00003200B6002F0FF0322B14B8800681844AE
:1096D00003B030BD1846FBE70A884B889A4209D18F
:1096E00050E8022FC2EA224240E80223002BF7D1C1
:1096F000012070470020704701F01F024B09012133
:10970000914000EB830000F063B84B0910B501F005
:109710001F040121A14000EB830000F04EF8E0405F
:1097200000F0010010BD01F01F0301229A404B0917
:1097300000EB8300D14300F061B84B0901F01F0139
:1097400050F82300C84000F0010070472DE9F047B1
:109750004E1E760980460F460136002558F82540F2
:1097600008EB8509E44394FAA4F4B4FA84F44FEACC
:10977000451A202C06D10135AE42EFD83C46204692
:10978000BDE8F0875444A742F5D921464046FFF78B
:10979000BCFF0028F3D0D9F80040E44394FAA4F4C5
:1097A000B4FA84F4E5E750E8002F0B4640E8003CAB
:1097B0009CF0000FF7D11046704750E8002F42EAA6
:1097C000010340E8003C9CF0000FF6D110467047C2
:1097D00050E8003F43EA010240E8002C9CF0000FF3
:1097E000F6D11046704750E8002F02EA010340E826
:1097F000003C9CF0000FF6D11046704750E8003F47
:1098000003EA010240E8002C9CF0000FF6D110465C
:10981000704750E8002F02EB010340E8003C9CF049
:10982000000FF6D11046704750E8003F03EB0102ED
:1098300040E8002C9CF0000FF6D11046704750E82D
:10984000003FA3EB010240E8002C9CF0000FF6D192
:10985000104670470121FFF7B0BF0121FFF7B8BFE5
:109860000021FFF7C0BF10B590B1D0E90123016816
:109870009B1ADBB20A60013BDBB2FF2B026802D10C
:109880000020107110BD11684C1C14600B70F2E7C1
:109890000E20F7E737B5054600240DF107008DF8D7
:1098A0000740FEF719FE2A686B68116899420ED9C5
:1098B000481E106011F8014CEB68298A01FB043442
:1098C000AB6811791B1ADBB2994238BF13719DF84E
:1098D0000700FEF725FE204603B030BD37B505462C
:1098E00000230DF107000C468DF80730FEF7F4FD5C
:1098F0002A681368591C1160E968641A298AB4FB44
:10990000F1F41C709DF80700FEF70AFE03B030BDAD
:10991000826810B504462AB1436901680069984716
:109920000023A36010BD0EB403B5039921B104ABAD
:1099300001AA019300F074F802B05DF804EB03B0E3
:1099400070470A2938B504460D4602D10D21FFF7AC
:10995000F8FFA3682268591CA160D554D4E90132EC
:109960009A4204D32046BDE83840FFF7D1BF38BD46
:109970002DE9F84F9946DDE90A43174682468846A5
:109980000A460126BA420FD24E4538BF4E4613F062
:10999000010B01D164B900240125B9F1010F1AD9D5
:1099A00009F1FF397D43F8E7B2FBF7F20136E9E749
:1099B0009B070ED5B9F1000F0CBF30252025A6421C
:1099C000EAD2013C29465046FFF7BBFF002CF6D1F6
:1099D000E1E72025F3E7B8FBF5F39F42E2D9DFF892
:1099E0003C90B8FBF5F3504619F8031005FB1388BB
:1099F000FFF7A7FFB5FBF7F3BD4207D2BBF1000F9E
:109A000002D00CB1A64203D3BDE8F88F1D46E8E7AB
:109A100020215046013CFFF794FFF2E7501203006B
:109A20002DE9F74F054617468846002900F030819A
:109A300018F8011B49B92B7B002B00F0298128461F
:109A400003B0BDE8F04FFFF763BF252940F0C080A9
:109A5000002698F800302D2B424608F1010823D04B
:109A6000302B24D02B2B25D000242A2B02F10101EE
:109A700023D13B681A1D1B683A601C440A461378C0
:109A80002E2B26D101324FF00009104610F8011B91
:109A9000A1F1300CBCF1090F1DD80A2303FB0913F7
:109AA000A3F130090246F0E746F00106D1E746F09F
:109AB0000206CEE746F00406CBE711F8013CA3F11D
:109AC00030000928DBD80A2202FB0434303C0A4665
:109AD000CBE74FF0000912F8011B01F0FB006828EA
:109AE0009046F8D069290ED04AD8582964D006D8B3
:109AF00025296DD098F80030002B99D19BE7632978
:109B000062D06429F6D13A68D2F800A0111D8AEA21
:109B1000EA723960A2EBEA724FF0010B092A5BDCB2
:109B2000CB4538BFCB462CB1BAF1000F01DB720731
:109B300000D5013CB30702D5B9F1000F04D0F007FE
:109B400002D4002C4ED10024BAF1000F52DACAF12F
:109B5000000A2D212846FFF7F4FE06F00302022A30
:109B600005D1B9F1000F02D1002C47D10024CDE975
:109B700000464B460A2251462846FFF7F9FEB9E750
:109B800073294CD014D87029B4D13B681A1D3A609F
:109B9000302128461C68FFF7D4FE78212846FFF7BD
:109BA000D0FE00220823CDE9003221461022E3E74F
:109BB00075292BD078299DD139680A1D3A60CDE9E5
:109BC00000464B46102228E03B681A1D19783A607F
:109BD0002846FFF7B6FE8DE70A230BF1010BB2FB17
:109BE000F3F29BE7A345AFD220212846013CFFF7C3
:109BF000A8FEA6E77107B0D52B21ABE7A345B6D2E7
:109C000030212846013CFFF79CFEADE73968CDE9DD
:109C100000460A1D3A604B460A220968ACE73B68D9
:109C20001A1D3A6016F00106D3F800A020D1BAF14F
:109C3000000F03D0504607F01DF90646B44200D984
:109C4000C4B90AF1FF3A1EE028460136FFF779FE53
:109C50001AF806100029F7D1A642BFF44BAF002C2A
:109C60003FF448AF20212846013CFFF76AFEF3E7A6
:109C70000026EDE720212846013CFFF762FEDDE7E4
:109C80002846FFF75EFE1AF8011F0029F8D131E7D8
:109C900003B0BDE8F08F000007B50B4688B9124B42
:109CA0001248134AC01A0E23C0080093114B000437
:109CB000114940F00100FDF752FF0E2003B05DF89E
:109CC00004FB4BB9084B09480C4AC01AC0080E23C4
:109CD00000930004074BEBE703601B68114603B0D9
:109CE0005DF804EB184700BF600F0300B00F0300DE
:109CF0000D13030060120300121303008913030005
:109D00002DE9F34188B93D4B3D483E4AC01AC00891
:109D10000E243D4B009400043C4940F00100FDF747
:109D20001EFF204602B0BDE8F0814AB9334B3448EB
:109D3000374AC01AC0080E2400040094324BEBE7E7
:109D4000D0F800C0BCF1000F09D12C4B2C48314A8F
:109D5000C01AC0080824000400942B4BDCE74BB960
:109D6000264B27482C4AC01AC00809240004009436
:109D7000254BD1E74768D7F80480B3FBF8F708FB19
:109D800017374FB11D4B1E48244AC01AC00809247A
:109D9000000400941C4BBFE78F0709D0174B1848ED
:109DA0001F4AC01AC008102400040094164BB3E7E1
:109DB00012F0030F09D0114B11481A4AC01AC008FB
:109DC000102400040094104BA6E7C768B9420BD3D7
:109DD0004C1E05691C44AC4206D8DCF80C40A44675
:109DE00002B0BDE8F0416047044B05480E4AC01A76
:109DF000C008102400040094034B8DE7600F03009B
:109E0000B00F03000D1303007212030012130300BE
:109E10008F13030083130300421303009513030001
:109E2000BF130300D7130300FA130300F7B580B97B
:109E30002A4B2B482B4AC01AC0080E242A4B0094E8
:109E400000042A4940F00100FDF789FE204603B0D6
:109E5000F0BDD0F800C0BCF1000F09D11F4B204865
:109E6000234AC01AC0080824000400941E4BE8E7E7
:109E70004AB91A4B1A481F4AC01AC00809240004DC
:109E80000094194BDDE74768D7F800E00EF1FF3783
:109E90000F4209D0114B1248174AC01AC0081024AB
:109EA00000040094104BCCE7C768B9420CD34C1E99
:109EB00005690EFB0244AC4206D8DCF81040A4460B
:109EC00003B0BDE8F0406047044B05480B4AC01A98
:109ED000C008102400040094034BB2E7600F030095
:109EE000B00F03000D1303008512030012130300CB
:109EF000831303004213030098120300BE120300F1
:109F000029DF704728DF704770B503689D6886B009
:109F100004460E466DB114220021684606F055FF36
:109F2000A3680593237901962BB1012B0DD06846C8
:109F3000A84706B070BD01238DF800302369029355
:109F4000E368039363690493F1E702238DF800301B
:109F5000E3681B030293F5E708467047002070474B
:109F6000024B187A003018BF01207047982B002050
:109F7000034B187A0122B0FA80F05A7440097047F6
:109F8000982B002008B510461A4606F0F5FE002072
:109F900008BD000008B514220021044806F015FF92
:109FA0000348FFF712FB002008BD00BF982B0020DC
:109FB000882B002010B5094C094B43602046FFF761
:109FC00049FC40B906F040FC1C2320748C22054952
:109FD0000548FFF7E7FA002010BD00BF982B0020CE
:109FE00030140300FC2A0020882B002070B5244C7C
:109FF000244E237A25463BB923492448FFF741FBE9
:10A00000306008B9606070BD346802232B72237918
:10A0100073B1012B24D020460321FFF775FF0023E5
:10A020002B726B6018491948BDE87040FFF754BBAC
:10A03000D4E90523D21AB2F5805F28BF4FF48052CD
:10A04000D4E903109208012A38BF012219441844A8
:10A05000FFF756FF50B11128DDD101232B72D2E753
:10A06000D4E903031844FFF74DFFF3E72B7C002BE3
:10A07000C9D10146BDE87040022000F009B800BF18
:10A08000982B0020B02B0020AC2B0020882B002028
:10A0900038B5831E012B45D8234C237A002B41D0A1
:10A0A000022B09D1032830D0204B1B680022E2602C
:10A0B0001A793AB1012A22D0637C7BBBBDE83840D3
:10A0C000FFF794BFD3E905128D1AB5F5805F94BFF1
:10A0D000521902F580529A619142EDD102284FF057
:10A0E000000308BF19462372104B18BF0D211868D2
:10A0F000FFF70AFF0E490F48FFF7EEFADCE71A698F
:10A1000001321A615B699A42E7E7E3680133082B81
:10A1100001D8E360D0E70023E360DFE7BDE8384023
:10A1200006F082BB38BD00BF982B0020B02B00206A
:10A13000AC2B0020882B002000F0FD03012B08D160
:10A14000044B00225A74421E504250411874FFF7CB
:10A150004DBF7047982B002010B5064C201DFFF70F
:10A1600079FB28B9637C1BB9BDE81040FFF73EBFFF
:10A1700010BD00BF982B00202DE9F34180460D460D
:10A180000F4801A916461F46FFF741FA0446A8B139
:10A190001C22002106F019FE2D0B0123237101A9B9
:10A1A000C4F80080A760E56066610548FFF759FACA
:10A1B000FFF7D2FF002002B0BDE8F0810420FAE7EB
:10A1C000882B00202DE9F74381468846104801A9D5
:10A1D00017461E46FFF71BFA0446B0B11C220021A9
:10A1E00006F0F3FD00250A9BA36001A92571C4F8C0
:10A1F0000090C4E9037866610548FFF732FAFFF77B
:10A20000ABFF284603B0BDE8F0830420FAE700BFA7
:10A21000882B00202DE9F047B0F806904479D2F859
:10A2200000A09DF8208009FB04F4043C06460AEBDC
:10A230000300A0420F4688BFA4EB030A191DC2F811
:10A2400000A0B1FBF9F509FB15114DB9A9EB01040B
:10A25000544528BF5446BAF1000F04D1BDE8F08739
:10A260003668013DF1E704317B1970182246B8F1D8
:10A27000000F0ED001461846AAEB040A06F07CFD3A
:10A28000D145254436684C464FF0000128BF54465E
:10A29000E1E71946F0E7FFF7E6BAF8B54679014677
:10A2A000721E0546002393422D6803D30024A64264
:10A2B00002D8F8BD0133F6E70F682846FFF70EFB1A
:10A2C00001343946F3E72DE9F843068ACD1C0746E9
:10A2D000FFF7E0FA043E35440446B5FBF6F5F0B16D
:10A2E0004FF48073EDB28380C680013D07608146E4
:10A2F0004FF00008A84512D23846FFF7CBFA0646C1
:10A3000048B163790133637108F10108C9F80000AD
:10A3100007608146EEE72046FFF7BFFF3446204640
:10A32000BDE8F88301210430FFF77EBA10B50121A2
:10A3300004460430FFF783FA10F0FF0F04D12046E3
:10A34000BDE81040FFF7A9BF10BD1FB50392002262
:10A35000009203AAFFF75EFF05B05DF804FB1FB58E
:10A3600003920122009203AAFFF754FF05B05DF8A3
:10A3700004FB41DF70470000064B10B500241C7041
:10A38000054B1C60BFF35F8F0449054800F039F8A6
:10A39000204610BDBC2B0020C02B00205C14030005
:10A3A000B42B002007B500230DF107008DF807300E
:10A3B000FEF792F8F1EE103A23F09F03E1EE103A27
:10A3C000BFF35F8F094B4022C3F884219DF807003B
:10A3D000FEF7A6F806F038FA20B1FFF7CAFF03B07F
:10A3E0005DF804FB20BF40BF20BFF8E700E100E0BC
:10A3F000836800225A609A60C3E90422DA601A6016
:10A4000070470B684A684360934208BF00230160AD
:10A4100008BF43607047436843B10268916852685F
:10A420000B449342436004BF00234360704770B500
:10A43000446806460D46206818B1B3682946984717
:10A4400018B923682B60256070BD2468F3E7436862
:10A45000186808B102681A60704743681868704746
:10A460004368186800B97047884203D102681A60CF
:10A470000120704703460068F4E7000010B50D495D
:10A48000A1F59472914201D800200FE08B1ADB10E5
:10A4900003EBD3735B1002EBC30452F833308342F7
:10A4A00005D802D204F10802ECE7606810BD21462D
:10A4B000E8E700BFB815030008B5FFF7DFFF024B60
:10A4C000002808BF184608BD7A140300054B1B6816
:10A4D000082B01BF044B1868B0FA80F0400918BF80
:10A4E00000207047300100103401001008B54FF013
:10A4F00080430022C3F80C21C3F81021C3F838258B
:10A500004FF0805203F54043D2F80414C3F82015ED
:10A51000D2F80814C3F82415D2F80C14C3F828157F
:10A52000D2F81014C3F82C15D2F81414C3F830154F
:10A53000D2F81814C3F83415D2F81C14C3F8401517
:10A54000D2F82014C3F84415D2F82414C3F84815DF
:10A55000D2F82814C3F84C15D2F82C14C3F85015AF
:10A56000D2F83014C3F85415D2F83414C3F8601577
:10A57000D2F83814C3F86415D2F83C14C3F868153F
:10A58000D2F84014C3F86C15D2F84424C3F87025EF
:10A59000FFF79CFF10B1384B384A1A60FFF796FF5F
:10A5A00018B1374BFB22C3F81825FFF78FFF48B1CE
:10A5B0003449354B0A681B6822F00F0203F00F0381
:10A5C00013430B60FFF782FF18B1304B4FF400725A
:10A5D0001A604FF08043D3F80024D20744BF6FF0D5
:10A5E0000102C3F800242A4AD2F8883043F47003E9
:10A5F000C2F88830BFF34F8FBFF36F8F4FF0102337
:10A60000D3F80022002A03DBD3F80432002B2FDA20
:10A61000204B0122C3F80425D3F80024002AFBD0E4
:10A620004FF010221221C2F80012D3F80024002AA1
:10A63000FBD04FF010231222C3F80422154B1A4608
:10A64000D3F800140029FBD00021C3F80415D2F878
:10A650000034002BFBD0BFF34F8F0D490E4BCA685F
:10A6600002F4E0621343CB60BFF34F8F00BFFDE7FE
:10A670000A4B0B4A1A6008BD8C5600404881030003
:10A6800000F00040E40E00405802001040960240E6
:10A6900000ED00E000E001400400FA05B0220020D7
:10A6A0000090D003074B1B5C1F2B8ABF064A4FF05C
:10A6B000A04203F01F03D2F80405D840C04300F0C5
:10A6C000010070477619030000030050074B1B5C24
:10A6D0001F2B86BF03F01F0305494FF0A041012245
:10A6E00002FA03F3C1F80C35704700BF7619030076
:10A6F00000030050074B1B5C1F2B86BF03F01F039A
:10A7000005494FF0A041012202FA03F3C1F80835D0
:10A71000704700BF761903000003005008B5002001
:10A72000FFF7E8FF0120FFF7E5FF0220FFF7E2FF58
:10A730000320BDE80840FFF7DDBF08B50020FFF7A4
:10A74000C5FF0120FFF7C2FF0220FFF7BFFF032074
:10A75000BDE80840FFF7BABF0A4B185C1F288ABF44
:10A76000094B4FF0A04300F01F00D3F8042501214E
:10A77000814021EA02000A40C3F80805C3F80C250D
:10A78000704700BF7619030000030050074B1B5CA5
:10A790001F2B8ABF064A4FF0A04203F01F03D2F8D6
:10A7A0001005D840C04300F0010070477219030043
:10A7B000000300500B2809D00C2809D0182809D014
:10A7C00019280CBF03204FF0FF307047002070475E
:10A7D0000120704702207047014B185C704700BF92
:10A7E00072190300C20710B504460CD54FF0A04300
:10A7F0000322C3F83427C3F83827C3F83C27C3F82B
:10A800004027FFF78BFFA3070AD54FF0A0430C2288
:10A81000C3F82C27C3F83027C3F86027C3F8642790
:10A8200010BD000038B5074C051E04F1080318BF21
:10A830001C4623682BB11A6822605B68284698473B
:10A84000F7E738BDCC2B002020B9054B01225A7008
:10A85000FFF7E8BF012802D1014A9070F8E770477E
:10A86000C42B002020B9034B01225A70FFF7DABF36
:10A87000704700BFC42B002038B50B4C237883B938
:10A880000A486360A3602361E36000F0C7F80546EF
:10A8900005F0DAFF08B900F0CDF80123237028464F
:10A8A00038BD8525FBE700BFC42B002049A8020066
:10A8B00037B50B4C00230DF107008DF80730FDF77D
:10A8C0000BFEE368013BE360E56815B900F0C4F8EE
:10A8D000A5709DF80700FDF723FE03B030BD00BF53
:10A8E000C42B0020012813B509D018B103281CD0AF
:10A8F00002B010BD0F4B0122C3F88020F8E70E4CC8
:10A9000000230DF107008DF80730FDF7E5FD2378F2
:10A910000BB9FFF7B1FFE3689DF807000133E3606F
:10A920000123A370FDF7FCFDE2E700F083F8FFF7D9
:10A93000BFFFDDE700E100E0C42B00201FB5037876
:10A940008DF800304368019383688DF80830C36840
:10A950000393054A054B684653F8213052F82110FD
:10A96000984705B05DF804FBD82B0020E02B0020B1
:10A970001FB503788DF800304368019383688DF824
:10A980000830C3680393054A054B684653F82130E5
:10A9900052F82110984705B05DF804FBD82B002031
:10A9A000E02B0020F0B5184B0778DFF86CE043F897
:10A9B0002720164B16460A6943F827204B7F0EF8CE
:10A9C00007300C4684460FCC89B06D460FC594E81D
:10A9D0000F0085E80F001EF80730049753B1002ED2
:10A9E0000B4A694608BF32460CF1040000F0EAFD4C
:10A9F00009B0F0BD002E074A694608BF32460CF187
:10AA00000C0000F0B3FBF3E7E02B0020D82B002074
:10AA10003DA9020071A90200E82B0020044A137925
:10AA200023B9012110609180184670478520704736
:10AA3000EC2B0020074B1A68D2075FBFC02283F8B7
:10AA4000002301221A604FF080430122C3F8182529
:10AA5000704700BF00E100E0044B01221A604FF094
:10AA60008042D2F81834DB03FBD470470C0000405E
:10AA7000154B07B51A687AB100221A601B6800935B
:10AA8000009B4FF080430122C3F808230F4B5879F5
:10AA900010B95A711B6898470D4B1A6882B1002291
:10AAA0001A601B680193019B4FF080430222C3F898
:10AAB0000823064B1B68012003B05DF804EB184720
:10AAC00003B05DF804FB00BF00010040EC2B002048
:10AAD0000401004000F1804000F5C040002382B036
:10AAE000036003680193019B02B0704703681F2B4A
:10AAF00083BF03F01F03036001484FF0A04070477D
:10AB00000003005007B5019001A8FFF7EFFF019B7C
:10AB100000EB8300D0F8002722F44032C0F8002771
:10AB2000D0F8003743EA0143C0F8003703B05DF8BE
:10AB300004FB0000054B4FF0FF32072843F82020AC
:10AB400084BF1B1883F85820704700BFF42B0020E7
:10AB500010B5174C94F86A3043BB04F13003302130
:10AB6000FF22013911F0FF0103F8012BF9D1C8B21E
:10AB7000FFF7E0FF01310C29F9D1062200210D4831
:10AB800006F023F90C4BC02283F8062340221A60FA
:10AB90004FF4BE70FFF79EFF084B4FF00042C3F822
:10ABA0000423012384F86A30002010BD0820FCE74C
:10ABB000F42B0020582C002000E100E00060004051
:10ABC000034B93F86A00003018BF0120704700BFA4
:10ABD000F42B0020F7B53B4E3318054693F930307F
:10ABE000002B6CDA8B78C3F34003002B0BBF0824D7
:10ABF00000240C200820844202D1042003B0F0BDC0
:10AC000056F82470013743D1701946F8242080F893
:10AC1000304013B9331983F858508B785A0717D43A
:10AC2000D80737D501A80195FFF760FF019B00EB1E
:10AC30008300D0F8003723F00203C0F80037224821
:10AC4000EA0805F007070123BB40875C3B438354B8
:10AC500088780A7810F0020028D0A40004F180441B
:10AC600004F5C0442D02D4F8103523F44F3323F4F7
:10AC70004073C4F810351204D4F8103505F47C552F
:10AC800002F4403215431D43C4F810550020B5E7C7
:10AC90000134B0E701A84A780195FFF727FF019B2F
:10ACA00003F5E073920040F82320C8E7083C3444E1
:10ACB00094F8605045EA821284F860209EE70820EC
:10ACC0009CE700BFF42B0020582C002073B5224CC9
:10ACD0002518064695F93020072A19DD224492F8F6
:10ACE00058309B09032B0FD1019001A8FFF7FEFEFE
:10ACF000019AD0F81035D340DB0707D40221304643
:10AD0000FFF700FF02B070BD012BF7D00321F6E77B
:10AD1000D3B2072BF6D8930003F1804303F5C04369
:10AD2000D3F8100540F00100C3F8100502F140000F
:10AD3000800080B2FFF7CEFE0029E3D095F93030D5
:10AD400054F82330002BDDD0012303FA02F2034B29
:10AD5000C3F80423D6E700BFF42B002000600040B6
:10AD600007B5019001A8FFF7C1FE019BD0F81005BF
:10AD7000D84000F0010003B05DF804FB2DE9F04F6E
:10AD8000002489B0CDE90244624D4FF48072012164
:10AD900002F1804303F5C04390B21B68012B06D13A
:10ADA000D5F804330B4202D0FFF794FE0C43043273
:10ADB000B2F5907F4FEA4101EAD1574B1B68012B56
:10ADC0000ED14FF4BE70FFF785FE4FF0A04344F064
:10ADD0000044D3F810350293504BD3F81035039349
:10ADE00014F0FF0F1AD04E4F00250126344210D028
:10ADF000AB0003F1804303F5C043D3F81005D3F84B
:10AE0000101557F8253023B1C1F30141C0F30520D7
:10AE100098470135082D4FEA4606E7D1002C75DA30
:10AE20000DF1100800230493C8F804304FF0FF33ED
:10AE3000CDE90633DFF8E8A0DFF8E89000273D46CB
:10AE400019F9014B631C48D0E4B2012324F0C00679
:10AE500004F0070203FA02F2F00808AB191811F81F
:10AE6000083C134239D00AEB0603A40993F93030A9
:10AE70005AF823B0BBF1000F08D1032C2DD118F8DC
:10AE800000C04CEA020C08F800C001E0032CF6D028
:10AE900001A80196FFF72AFE019B11F8181C03F583
:10AEA000E07C114250F82C00C0F3014005D002288C
:10AEB00013D1032C0BD1214604E003280DD1032C20
:10AEC00005D102213046FFF71DFE0135EDB2BBF181
:10AED000000F02D021463046D8470137042FAFD1AA
:10AEE000A5B14FF0A0430299D3F8102503F54073A4
:10AEF0009142D3F8103502D10399994206D00292BB
:10AF00000393049A059B0692079395E709B0BDE861
:10AF1000F08F00BF006000407C61004000030050E3
:10AF2000F42B0020542C0020014B1B68184700BF55
:10AF3000602C00200E4B984237B50D4602D0002001
:10AF400003B030BD00230DF107008DF80730FDF789
:10AF5000C3FA084B1C7914B901221D601A719DF8BF
:10AF60000700FDF7DDFA002CE9D01120E8E700BF6B
:10AF700000200040602C0020034B984201BF034B8F
:10AF800000221A601A71704700200040602C0020D7
:10AF90000023435082B043580193019B02B0704795
:10AFA0000A4610B54FF48E71FFF7F2FF136A9168ED
:10AFB000C95C136A01331362C0F81C1510BD8B699C
:10AFC0000A4610B54FF4847123B9FFF7E1FFD0F8BA
:10AFD000183510BDFFF7DCFF536AD168D0F81805AB
:10AFE000C854536A01335362F3E700001FB50123CD
:10AFF0008DF80030044BCDE90110D3E9001268460A
:10B00000904705B05DF804FB682C002030B54D4A30
:10B01000D2F8043313F4007F85B015464FD0D2F830
:10B020002431002B4BD04FF492711046FFF7B0FF44
:10B030004FF40173C2F80833434B93F8291009B950
:10B04000012151603F4902228DF80020D1F880246F
:10B05000C1F8802403929A690292DA680192002270
:10B06000C3E906226846D3E9001290473548D0F874
:10B070001C315BB134494A690B6A9A420A464BD982
:10B0800091F82830002B47D1FFF78AFF2D4AD2F8DC
:10B09000443193B14FF4A2711046FFF779FF2A4B68
:10B0A00093F8291009B1012111609A692AB100228F
:10B0B0009A61586AD968FFF799FF05B030BDD5F895
:10B0C00004335B07D2D5D5F80831002BCED01E4C07
:10B0D0001C482146FFF773FF636AA2699A42234620
:10B0E000C4D1E269E1684AB12369E3600023606A80
:10B0F000A261E3616362FFF779FFB7E794F8292063
:10B100000AB901226A600F4A4FF40170C2F80803BD
:10B1100000229A61586AEEE74FF48E710948FFF7F2
:10B1200037FF5369002BB1D0516902910023916818
:10B130008DF80030019153616846D2E900139847B9
:10B14000A4E700BF00200040682C00201F2886BF15
:10B1500000F01F00044B4FF0A04300F5E070022206
:10B1600043F82020704700BF000300502DE9F8434A
:10B17000624F047991462C2202FB0472064692F833
:10B180002A200D46002A40F0B3805D490068FFF791
:10B19000D1FE8046002840F0AE8029684A1C10D0BD
:10B1A0001F2987BF01F01F03564A0B464FF0A042EC
:10B1B0000120984003F5E073C2F80805032042F827
:10B1C00023006868431C0DD01F288BBF00F01F03AD
:10B1D00003464C4A4FF0A04203F5E0734FF0000CD9
:10B1E00042F823C03368AA6995F814C0C3F824252F
:10B1F0006A7DBCF1010F4CEA0202C3F86C25C3F86A
:10B200001405C3F80C152BD1A968481C0DD01F29B3
:10B210008BBF01F01F020A463A484FF0A04002F5EA
:10B22000E0724FF0000C40F822C0E868421C13D0D6
:10B230001F2887BF00F01F0C324A84464FF0A042FF
:10B240004FF0010E0EFA0CFE0CF5E07CC2F808E59A
:10B250004FF0030E42F82CE0C3F80805C3F81015B0
:10B260002C236343FA18C2F804902A69FA50B9F102
:10B27000000F2AD04FF48E7130682D7FFFF788FEC3
:10B2800030684FF4A271FFF783FE32681E4BC2F89C
:10B290000433120B51B20029A8BF01F160404FEAFC
:10B2A0004513BABF194802F00F0500F56140DBB243
:10B2B000B4BF435580F8003302F01F02012303FAA4
:10B2C00002F24909124B43F8212033680422C3F8E3
:10B2D00000252C2303FB04730022C3E9062283F814
:10B2E00029205A61012283F82A204046BDE8F883CC
:10B2F0004FF00808F9E74FF01108F6E7682C002036
:10B300000DB00200000300508000020014ED00E0C8
:10B3100000E100E02DE9F04103680479254D0022A9
:10B32000C3F800252C2202FB04520646526872B173
:10B33000214AC3F80823190B4AB20120520901F02F
:10B340001F0100FA01F120321C4840F82210D3F806
:10B350000C05D3F81485D3F80815D3F810754FF001
:10B36000FF329042C3F81425C3F80C25C3F8082512
:10B37000C3F8102501D0FFF7E9FEB8F1FF3F02D076
:10B380004046FFF7E3FE7A1C02D03846FFF7DEFEA8
:10B390004B1C02D00846FFF7D9FE3068FFF7ECFDE2
:10B3A0002C2303FB0454002384F82A306360BDE897
:10B3B000F08100BF682C00208402020000E100E060
:10B3C0002DE9F84F224F06794FF02C0909FB06743E
:10B3D00080466569002D38D16261A16025624FF415
:10B3E0008E71006884F82850FFF7D2FDD8F800006D
:10B3F000012383602146FFF7D3FD6368A1469BB913
:10B40000D8F800A0D4F814B0236A9B4512D8D8F815
:10B410000020D2F81C31002BFBD00123D3602C2359
:10B4200003FB067300225A612846BDE8F88F94F8A2
:10B43000283043B9DAF81C31002BF8D04946504681
:10B44000FFF7AEFDE0E70F25E9E71125ECE700BFC8
:10B45000682C00200023435082B043580193019B85
:10B4600002B070471FB501238DF80030044BCDE9C1
:10B470000110D3E900126846904705B05DF804FB5F
:10B48000942C00201F2886BF00F01F00044B4FF0B3
:10B49000A04300F5E070022243F82020704700BF6F
:10B4A000000300507FB5454AD2F82461002E63D0D6
:10B4B00010464FF49271FFF7CDFF02238DF8003054
:10B4C000D2F88034C2F880340393D2F83C3502932A
:10B4D0003B4BDA6801920022C3E906226846D3E9B1
:10B4E00000129047354AD2F844317BB14FF4A27133
:10B4F0001046FFF7AFFF324B996939B10021C3E91C
:10B500000611D968D2F83C05FFF7ACFF2B4AD2F8F8
:10B510002031B3B14FF490711046FFF79BFF012328
:10B52000D360274B596961B1D2F84C1502910022C2
:10B5300099688DF8002001915A616846D3E900129C
:10B5400090471E4AD2F85831A3B14FF4AC7110465F
:10B55000FFF780FF1A4B596961B1D2F84C1502917F
:10B56000002299688DF8002001915A616846D3E95C
:10B570000012904704B070BDD2F81031002BB1D04A
:10B580004FF488711046FFF765FF0D4BD2F83C056C
:10B5900099698842A6D1DC69D96864B1D2F80052B1
:10B5A00025F02005C2F800521A699C61DA60DE615C
:10B5B000FFF758FF96E79C61FAE700BF00200040C4
:10B5C000942C00202DE9F843694F067991462422F6
:10B5D00002FB0672044692F820200D46002A40F035
:10B5E000C08064490068FFF7A5FC8046002840F051
:10B5F000BB802868421C10D01F2887BF00F01F03A3
:10B600005D4A03464FF0A0420121994003F5E073E3
:10B61000C2F80815032142F8231069684B1C0DD0AD
:10B620001F298BBF01F01F030B46534A4FF0A04266
:10B6300003F5E0734FF0000C42F823C02368AA69B9
:10B6400095F814C0C3F824256A7DBCF1010F4CEABB
:10B650000202C3F86C25C3F80C05C3F814152BD1EE
:10B66000A968481C0DD01F298BBF01F01F020A4694
:10B6700041484FF0A04002F5E0724FF0000C40F856
:10B6800022C0E868421C13D01F2887BF00F01F0C9F
:10B69000394A84464FF0A0424FF0010E0EFA0CFEDC
:10B6A0000CF5E07CC2F808E54FF0030E42F82CE000
:10B6B000C3F80805C3F8101524237343FA18C2F819
:10B6C00004902A69FA50B9F1000F39D04FF488710B
:10B6D00020682D7FFFF7BEFE4FF490712068FFF7C2
:10B6E000B9FE4FF492712068FFF7B4FE4FF4A271D7
:10B6F0002068FFF7AFFE20684FF4AC71FFF7AAFE99
:10B7000022681E4BC2F80433120B51B20029A8BFA5
:10B7100001F160404FEA4513BABF194802F00F0526
:10B7200000F56140DBB2B4BF435580F8003302F04E
:10B730001F02012303FA02F24909124B43F82120A8
:10B7400023680822C3F80025242303FB0673002284
:10B75000C3E906225A61012283F820204046BDE851
:10B76000F8834FF00808F9E74FF01108F6E700BF3B
:10B77000942C0020A5B402000003005010034200E6
:10B7800014ED00E000E100E02DE9F0412F4D0479D7
:10B79000242303FB045306465B68006873B12C4BFB
:10B7A000C0F80833020B53B201215B0902F01F02FB
:10B7B00001FA02F22033274941F82320D0F8003261
:10B7C000012223F02003C0F800324FF4AC71426034
:10B7D000FFF740FE3368DA60D3F85821002AFBD027
:10B7E0000022C3F80025D3F80C05D3F81485D3F84C
:10B7F0000815D3F810754FF0FF329042C3F80C25AE
:10B80000C3F81425C3F80825C3F8102501D0FFF7A5
:10B8100039FEB8F1FF3F02D04046FFF733FE7A1CF5
:10B8200002D03846FFF72EFE4B1C02D00846FFF729
:10B8300029FE3068FFF7A0FB242303FB04540023F8
:10B8400084F820306360BDE8F08100BF942C0020B4
:10B850001003420000E100E001F06043B3F1005F3B
:10B860002DE9F041074638D11E4B0679242505FB0A
:10B87000063598466C69002C31D16A61A960006870
:10B880004FF49071FFF7E6FD4FF4AC713868FFF7A5
:10B89000E1FD3B686A69A968C3F84415C3F8482507
:10B8A00001229A606A68AAB9D3F82021D3F85841D6
:10B8B0001AB9002CF8D00F2407E0002CFBD101228C
:10B8C000DA60D3F85821002AFBD0242303FB068634
:10B8D000002373612046BDE8F0811024FAE71124AB
:10B8E000F8E700BF942C00200220FEF735BF0000CF
:10B8F0002DE9F04781460D46FEF75CFF032804461C
:10B9000004D8012D04D025B3022D2FD0BDE8F08737
:10B91000194D47003A18A918AE5C4A7852B1DFF8C1
:10B920006880164842464FF48041FCF7E6FC08B9AF
:10B9300088F800903B192B449A78114B1A55002E29
:10B94000E4D0104B1B68002BE0D03046BDE8F04738
:10B9500018470A48FCF7E9FC074B04EB4402134480
:10B960009E78074B1B5DB342D0D1E8E7024B00EB5A
:10B9700040041C446678E2E7202D0020E02C0020E3
:10B98000392D0020342D0020B82C00200221007811
:10B99000FFF7AEBF08B5094B1B7853B10020FEF787
:10B9A000A9FE0120FEF7A6FE0320BDE80840FEF731
:10B9B000A1BEBDE80840FEF7B1BE00BFB92C002013
:10B9C000F8B57B4C237805461BB100232370FFF7A5
:10B9D000E1FF172D00F28880DFE805F00C17174310
:10B9E00054657680888D888D959A9A9A9A9AC4C95A
:10B9F000D1D9E4E4FFF7CEFF6E48FCF796FC6E4B1E
:10BA0000002204461A702046F8BD0020FEF74AFEC8
:10BA1000F8B10020FEF76EFE022D0CBF4FF4E1617D
:10BA20004FF47A61644B1D704FF400404FF47A7408
:10BA30000025E0FB01454FF4FA6200232046294629
:10BA400005F09AF8002201465A48BDE8F840FCF794
:10BA500054BCFEF73BFE022D0CBFC8214FF4C87149
:10BA6000E0E70020FEF71EFE40B10020FEF742FE98
:10BA70004FF44871504B03221A70D5E7FEF726FEAB
:10BA8000C821F7E70020FEF70DFE38B10020FEF7D1
:10BA900031FE4FF47A61484B0422EDE7FEF716FEC3
:10BAA0004FF4C871F7E70020FEF7FCFD48B1002015
:10BAB000FEF720FE404B05221A7040F6CD410022D1
:10BAC000C2E7FEF703FEF5E70020FEF745FE3A4B1E
:10BAD00006221A70002240F26661B5E70020FEF7E8
:10BAE000F5FD354B07221A7000248CE701202070E9
:10BAF000FEF732FEEEE701202070FEF72DFE002259
:10BB00004FF40051A0E7FEF718FE2B4B0C22EAE79A
:10BB10002A482B4EFCF709FCD5F1110504461CD030
:10BB2000D8B9012D13D0C8235D434FF400474FF41B
:10BB30007A7000214FF4FA620023C7FB050105F07B
:10BB40001BF8224601461D48FCF7D7FB044602209D
:10BB5000FEF7BCFD0123337055E70220FEF7CAFD56
:10BB60000023F8E7FFF716FF134B1222BBE7FFF79E
:10BB700011FF0020FEF7AAFD0F4B1322B3E7FFF7DA
:10BB800009FF0120FEF7A2FD0B4B1422ABE7FFF7E4
:10BB900001FF0020FEF79AFD0120FEF797FD064BFE
:10BBA0001522A0E7FEF7C9FD034B1D709CE700BFFF
:10BBB000302D0020002D0020382D0020C02C00202A
:10BBC000B92C0020044B1B68DB0703D5034B187806
:10BBD000FFF7F6BE704700BF2C2D0020382D002047
:10BBE000002910B514BF03240024FEF7F5FD1F281B
:10BBF0008ABF0A4B4FF0A04300F01F0003EB800008
:10BC0000D0F8002722F44032C0F80027D0F80037DF
:10BC100043EA0443C0F80037002010BD0003005081
:10BC2000032801D8FEF7B2BD00207047044B1B6803
:10BC300013F0010301D0FFF7C3BE1846704700BFE1
:10BC40002C2D002038B51C4B18601C4B10F0020442
:10BC5000054619601AD01A4B1A480E221A700F2284
:10BC6000DA7010229A7111225A72042140F2333292
:10BC7000FCF7D2F9044648B9FCF724FA044628B97F
:10BC80000146114A1148FCF72DFB0446EB0711D57C
:10BC90000120FEF7A7FD6CB921460D4A0D48FCF7BF
:10BCA00021FB044630B90C4A0C480121BDE838405C
:10BCB000FCF718BB204638BD2C2D0020342D002069
:10BCC000202D00209C1903008DB90200C01903002B
:10BCD000C5BB0200C4190300E9B80200BC19030087
:10BCE000032813D8012A0BD1012908D100F10E0233
:10BCF000D2B200EB40000C4B1A54002070470022D7
:10BD00000129F6D04BB24BB1022901D00720704770
:10BD1000054B00EB400018444270EEE7024900EB8F
:10BD2000400008448270E8E7202D0020032802D854
:10BD30000121FFF755BF0620704708B501220221F7
:10BD40000020FFF7CDFF08B1072810D107220221FC
:10BD50000120FFF7C5FF08B1072808D100210A22FA
:10BD60000846FFF7BDFF10B1072808BF002008BD37
:10BD70000388102B10B502D0112B1ED010BD1A4C09
:10BD80002168B1B901220846FFF7AAFF08B10728C8
:10BD900024D1072202210120FFF7A2FF08B10728C2
:10BDA0001CD1042202210020FFF79AFF08B10728C6
:10BDB00014D1236801332360E0E70B4A1368013B89
:10BDC0001360002BDAD1FFF7B8FF0028D6D0074B5D
:10BDD0001B68002BD2D0BDE810401847034B1B68EE
:10BDE000002BE6D09847E4E7442D0020402D0020AA
:10BDF00008B50020FFF79AFF08B1062806D10120F8
:10BE0000FFF794FF10B1062808BF002008BD00000E
:10BE10000D4B10B518600C4629B10120FFF700FF4B
:10BE200040B102232370094B1B6853B9BDE8104091
:10BE3000FFF783BFFFF7F4FE08B10B23F2E7207092
:10BE4000F1E7002010BD00BF402D0020442D002050
:10BE5000A8DF704762DF7047F0B51D4B87B002AABC
:10BE6000054603F11007164618685968144603C4BE
:10BE70000833BB422246F7D14AF6CD330DF1060115
:10BE80003046ADF80430FFF7E5FF08B1FCF730F9B4
:10BE90002A4601A90120FFF7DBFF08B1FCF728F9CA
:10BEA0000C49002000F052FBBDF804200A49002094
:10BEB00000F0FBFC9DF806200849002000F0F5FC8E
:10BEC0002A880749002000F0F0FC07B0F0BD00BF51
:10BED000C8190300D8190300F71903000E1A03004C
:10BEE0002A1A030076DF70477ADF70477CDF7047DD
:10BEF0008FDF704733DF7047FCF7FAB808B50020D2
:10BF0000FFF794FE08B1FCF7F3F8FFF771FF08B1F3
:10BF1000FCF7EEF8FFF7EEFF18B1BDE80840FCF7BC
:10BF2000E7B808BD0388212B13B5044637D005D8E0
:10BF3000102B19D0112B0CD002B010BD3B2B40D0D0
:10BF4000562BF9D12648274B2749C01AC0080004B0
:10BF50003DE0244B22482549C01AC008000440F0A7
:10BF60000300FBF7E5FDE7E71E4B1D482049C01A1B
:10BF7000C008000440F00300FBF7DAFD0720FFF7DC
:10BF800055FE08B1FCF7B4F81A4BA1881A4819807D
:10BF900002F086FC0028CFD0FCF7AAF8CCE7114BC2
:10BFA0000F481649C01AC008000440F00400FBF70F
:10BFB000BFFD002301A9A088ADF80430FFF798FF6A
:10BFC000E8E70748074B0E49C01AC008000440F0D4
:10BFD0000400FBF7ADFD1321A088FFF783FFD9E72D
:10BFE000880F0300600F0300851A0300431A030043
:10BFF000511A0300B8220020903100205C1A03007F
:10C00000701A030008B503784BB9054B3B2118881B
:10C01000FFF768FF18B1BDE80840FCF769B808BD34
:10C02000B8220020072808B513D00A280DD004280C
:10C0300019D10D4B13211888FFF754FF30F0080376
:10C0400011D0BDE80840FCF753B8BDE80840FFF741
:10C0500055BF054B1A884FF6FF739A4203D1034828
:10C0600001F082F8EAE708BDB8220020482D002040
:10C0700008B598B1032815D10B4B0C480C49C01AD0
:10C08000C008000440F00300FBF752FD0220FFF758
:10C09000CDFD38B1BDE80840FCF72AB8BDE808403E
:10C0A000FFF72CBF08BD00BF600F0300880F03001F
:10C0B000BB1A030008B50321044800F00EFF18B1B5
:10C0C000BDE80840FCF714B808BD00BF482D0020AB
:10C0D00030B5037885B004460D2B12D8DFE803F0A5
:10C0E0000711131125112D3F113B113F383F1D48FA
:10C0F0001D4B1E49C01AC008000440F00300FBF7A6
:10C1000017FD05B030BD4088164D01F045FA164BBD
:10C110001749ED1AED08237A00932D04024663882F
:10C1200045F00300FBF71BFDEBE7002303A9408864
:10C130008DF80C3003F024FAE3E7FDF7DDF948F25F
:10C1400007629042DDD00028DBD0FBF7D1FFD8E7B3
:10C15000FFF7B0FFD5E700690028D2D0F5E7806887
:10C16000FAE700BF880F0300600F0300CD1A030039
:10C17000F61A0300FBF7BCBF00B54FF48041ADB029
:10C180000020FBF711FB08B1FBF7B2FFFBF736FA13
:10C19000FCF776F808B1FBF7ABFF70490320FFF717
:10C1A00051FD08B1FBF7A4FF01A90020FFF730FE05
:10C1B00008B1FBF79DFF9DF80450FEF7DDF808B1CC
:10C1C000FBF796FF04F0C2FA08B1FBF791FF0023DA
:10C1D00001A90120019304F095FB08B1FBF788FF4A
:10C1E00001A804F041FC08B1FBF782FF11235C4871
:10C1F0008DF8003004F03EFE594982B26846FFF7E0
:10C2000075FE08B1FBF774FF0021082201A804F0B5
:10C21000DCFD54494FF0C87301A8CDE90113FFF7C5
:10C2200063FE08B1FBF764FF00214F4802F0ACF950
:10C2300008B1FBF75DFF4D4B4D48019301A902F09A
:10C240001DFB08B1FBF754FF6846FFF705FEAC2263
:10C25000002101A804F0B9FD02238DF80430062363
:10C26000444A8DF807300123ADF8503015928DF80F
:10C270008030322244F25063CDE9232301A93E4BA2
:10C280003E482A9300F0B2FD08B1FBF731FF0121CF
:10C290003A4800F0A8FD1C22002101A804F095FDF9
:10C2A00000234FF4A032CDE90132ADF812304FF443
:10C2B000F0228DF81430324B039206930322314B57
:10C2C0008DF8102001A8079301F06AF808B1FBF778
:10C2D0000FFF03F0B1F808B1FBF70AFF05220021B8
:10C2E00001A804F072FD019B03F07C42264B13432E
:10C2F00001939DF8083023F0030343F0030301A8E2
:10C300008DF8083003F032F908B1FBF7F1FE1F4851
:10C3100003F014F908B1FBF7EBFE1D4B1D4C1E4951
:10C32000E41AE408240444F003042046FBF700FC6C
:10C33000022D0FD119492046FBF7FAFB03F02EF925
:10C3400008B1FBF7D5FEFBF789FA0028FBD1FEF711
:10C3500029F8F8E7FFF7AEFEF5E700BF25C00200B9
:10C360009A1A03005000A0007C310020F9BE0200A0
:10C3700090310020B422002071C00200482D00201E
:10C3800005C0020075C1020031071003D1C00200D0
:10C39000600F0300880F0300A51A0300AE1A030004
:10C3A0000369C1688B429DBF8268D21802F1FF32D7
:10C3B00003F1FF3394BF501A581A70472DE9F0412A
:10C3C000D0E9027405463E1B4068964220448846E8
:10C3D000144404D904F0D0FCEC60BDE8F08132468E
:10C3E000E41B04F0C9FC224608EB06016868F1E78B
:10C3F0002DE9F843C5680646894617464FF0000800
:10C400003469B3687068A54228BFE418013C621B18
:10C410005C1BBC4228BF3C46944228BF1446494698
:10C420002844224604F0A8FCB3682544AB4208BF68
:10C4300000253F1BA044A144F560E1D14046BDE882
:10C44000F883000010B5114C114AA2610223C4E91F
:10C450000433104BE361A2644FF400730E4A23626D
:10C46000E264002310220D49A362E01D6362E362CF
:10C47000A3656365E365226504F0DAFC084920469C
:10C4800004F0D6FC2023A37110BD00BF9C31002016
:10C49000361B030024320020143200203F1B03000F
:10C4A000431B0300F8B5184C182300FB033503FBAE
:10C4B00000402544C46A012C0F46164611D024B111
:10C4C000022C1BD000242046F8BD2846FFF768FF49
:10C4D000B042F8D3324639462846FFF76FFF34465C
:10C4E000F1E72846FFF75CFF8642344628BF044642
:10C4F000224639462846FFF761FFE4E72846BDE8B3
:10C50000F840FFF775BF00BF9C31002073B50E4B9C
:10C510001B7804460D4616460BB9FFF793FF002320
:10C520000DF107008DF80730FBF7D6FF324629469C
:10C530002046FFF7B7FF04469DF80700FBF7F0FF22
:10C54000204602B070BD00BF9C31002038B50546C2
:10C5500008460C4604F08EFC214602462846BDE8FB
:10C560003840FFF7D3BFFFF76DBF826810B50446B0
:10C570004068531C834205D820688154A360E36857
:10C580000133E360D4E901329A420BD1216820697A
:10C59000FFF7BCFFA368984215BF4FF0FF3300239D
:10C5A000E360A36010BD00002DE9F84F9A46DDE975
:10C5B0000A439046064689460A460127424513D259
:10C5C000574538BF574613F0010B01D184B90024F9
:10C5D000F368002B48DB0125BAF1010F1FD90AF1DE
:10C5E000FF3A08FB05F5F7E7B2FBF8F20137E5E79C
:10C5F0009B0712D5BAF1000F0CBF30252025A742AA
:10C60000E6D229463046FFF7B0FFF368002B04F16D
:10C61000FF34DDDB002CF2D1D9E72025EFE7B9FBB1
:10C62000F5F39845DDD9DFF848A0B9FBF5F33046BE
:10C630001AF8031005FB1399FFF797FFF368002B17
:10C6400003DBB5FBF8F3454510D2BBF1000F0BD06F
:10C6500054B1A74208D220213046FFF786FFF36885
:10C66000002B04F1FF34F3DABDE8F88F1D46DCE758
:10C670004A1B03002DE9F04F9BB00AAB0E46059311
:10C6800040210023CDE90613CDE90830039015467B
:10C690004FF00A0916F8011B39B9089B002B00F36B
:10C6A000F98008981BB0BDE8F08F25294CD14FF0D8
:10C6B000000B09E02D2B04D0302B0DD14BF0020BD9
:10C6C00001E04BF0010B0E46314611F8013B2B2BDC
:10C6D0000FD0EFD8232B0FD00024314611F8013BA7
:10C6E000A3F1300009280AD809FB0434303C0E4677
:10C6F000F3E74BF0040BE6E74BF0080BE3E72E2BD8
:10C700000FD10E464FF0000A304610F8011BA1F180
:10C710003007092F07D809FB0A13A3F1300A064690
:10C72000F2E74FF0000A304610F8011B01F0FB075A
:10C73000682F0646F8D0642926D009D8582916D083
:10C7400063291CD025290AD105A8FFF70EFF06E0B2
:10C75000732900F0878006D8702900F09380089B29
:10C76000002B97DA99E7752973D07829F7D12968D2
:10C77000CDE9004B081D28605346102270E02B685D
:10C780001A1D2A601978DFE729680F68081D87EAF3
:10C79000E7712860A1EBE7714FF00108092936DC49
:10C7A000D04538BFD0462CB1002F02DB1BF0040F60
:10C7B00000D0013C1BF0020F02D0BAF1000F04D0F0
:10C7C0001BF0010F01D13CBB002408990029C6DBF6
:10C7D000002F2DDA7F422D2105A8FFF7C6FE08990C
:10C7E0000029BCDB0BF00301022904D1BAF1000FD0
:10C7F00001D114BB002408990029B0DBCDE9004B1E
:10C8000053460A22394605A8FFF7CEFEA7E7B1FB3B
:10C81000F9F108F10108C1E7A045D6D2202105A809
:10C82000FFF7A3FE0899002904F1FF34CBDACCE727
:10C830001BF0040FD3D02B21CEE7A045DBD2302153
:10C8400005A8FFF792FE0899002904F1FF34D0DA19
:10C85000D1E72968CDE9004B081D286053460A221C
:10C860000968D0E72B681A1D2A601C6814F8011BA0
:10C8700000293FF474AF05A8FFF777FE089B002B53
:10C88000F4DA6CE729680B1D2B6000220823CDE940
:10C89000003272E7079A1AB10AA90398FFF736FE29
:10C8A000DDE9072313440893FBE60EB403B503AB9D
:10C8B00001AA53F8041B0193FFF7DCFE02B05DF8F8
:10C8C00004EB03B070476DDF704779DF70477DDFA1
:10C8D000704764DF70472DE9F04F85B000250E9C4E
:10C8E000BDF83CB027880191804691469A462E4675
:10C8F000B8F80020B2420CDC3DB12288013AD21BCC
:10C9000092B2FF2A3BD80AF80720002005B0BDE804
:10C91000F08FD8F8042052F82600039000220DF181
:10C920000B0103A8FFF7D5FF0028EFD19DF80B20DE
:10C930004A4522D12288002D14BF0020022002EB9C
:10C940000901014459451ADC45B9013292B2019BF3
:10C9500022800AF8023022880132228022880DF1DA
:10C960000B01524403A8FFF7B4FF0028CED1218861
:10C970009DF80B200A44228001250136B8E70C20DF
:10C98000C4E72DE9F341089CBDF824501746CDE9D2
:10C990000045022206469846FFF79DFF50B94346E0
:10C9A000102239463046CDE9084502B0BDE8F041D5
:10C9B000FFF791BF02B0BDE8F0812DE9F04F0023F1
:10C9C0001688138090F82D3085B007460D46144622
:10C9D00053B3082E01D80C2027E102A8FFF773FFFC
:10C9E000002840F0228123880822EA54238801335A
:10C9F0009BB21B222380EA542088013080B2208021
:10CA000006220DF10901284404F0B6F923889DF8A7
:10CA1000082006339BB212F0FE0218BF01222380C9
:10CA2000EA54238801332380BB78FBB12388043385
:10CA3000B342D0D802A8FFF748FF002840F0F580A5
:10CA400023880322EA54238801339BB219222380CE
:10CA5000EA542388BDF8082001339BB2E9182380EB
:10CA6000EA54120A4A70238802332380FA789AB172
:10CA70002388D91CB142AED80221E954238801335E
:10CA80009BB201212380E95423880B449BB223806D
:10CA9000EA5423880B4423807A68AAB12388D91CDE
:10CAA000B14298D8022192F90020E9542388013339
:10CAB0009BB20A212380E954238801339BB223804F
:10CAC000EA542388013323803B89002B40F0A18066
:10CAD0003B8A5BB1CDE900462B460722032107F1D3
