:020000021000EC
:10C000000000042075C301005DC301005FC301008F
:10C0100061C3010063C3010065C3010000000000AB
:10C0200000000000000000000000000067C30100E5
:10C0300069C30100000000006BC301006DC3010073
:10C0400091E701006FC3010049EC01006FC30100DB
:10C050006FC301006FC301009DEA01006FC30100BF
:10C060006FC301006FC301006FC301006FC3010004
:10C070006FC301006FC301006FC301006FC30100F4
:10C080006FC301000DD901006FC301006FC3010030
:10C090006FC301006FC30100151802006FC30100D8
:10C0A0006FC301006FC301006FC301006FC30100C4
:10C0B0006FC301006FC3010000000000000000001A
:10C0C0006FC301006FC301006FC301006FC30100A4
:10C0D0006FC301006FC301006FC301006FC3010094
:10C0E0006FC301006FC301006FC3010000000000B7
:10C0F000000000006FC30100000000006FC30100DA
:10C10000000000000000000000000000000000002F
:10C11000000000000000000000000000000000001F
:10C12000000000000000000000000000000000000F
:10C1300000000000000000000000000000000000FF
:10C1400000000000000000000000000000000000EF
:10C1500000000000000000000000000000000000DF
:10C1600000000000000000000000000000000000CF
:10C1700000000000000000000000000000000000BF
:10C1800000000000000000000000000000000000AF
:10C19000000000000000000000000000000000009F
:10C1A000000000000000000000000000000000008F
:10C1B000000000000000000000000000000000007F
:10C1C000000000000000000000000000000000006F
:10C1D000000000000000000000000000000000005F
:10C1E000000000000000000000000000000000004F
:10C1F000000000000000000000000000000000003F
:10C20000354936480A1A02D0072291438D463449EF
:10C2100034480A1A06D00722914381F30988022282
:10C2200082F3148830483149314A00F044F83148EB
:10C230003149324A00F03FF831483249324A00F081
:10C240003AF832483249334A00F035F83248334937
:10C25000334A00F030F833483349344A00F02BF8C1
:10C2600033483449344A00F026F83448344900222F
:10C2700000F02CF833483449002200F027F8334806
:10C280003349091A082902DB002202604160314A61
:10C2900090471F481F49884205D00268043003B404
:10C2A000904703BCF7E700208646EC4600200021BB
:10C2B000294A9047FEE7884207D0521A05D00378F2
:10C2C00001300B700131013AF9D17047884202D038
:10C2D00002700130FAE770470000042000E00320FC
:10C2E0000000042000000420F83502000C26002085
:10C2F00074260020D0C30100D0C30100F025020045
:10C30000F83502000C2600200C260020F42602003E
:10C31000F4260200F4260200F4260200F4260200AD
:10C32000F4260200F4260200F4260200F83502008A
:10C330006036020074260020742600207426002037
:10C3400074360020743600207436002074360020C5
:10C35000745600209DC30100F5FE0100FEE7FEE7D4
:10C36000FEE7FEE7FEE7FEE7FEE7FEE7FEE7FEE7A5
:10C3700000F002B8FFF7FCBF0F484FF007018843F9
:10C3800085460E4880470E48016841F470010160FF
:10C39000BFF34F8FBFF36F8FFFF732BF09480A49D2
:10C3A0000A4A884207D0521A05D0037801300B7030
:10C3B0000131013AF9D17047000004200DE201007B
:10C3C00088ED00E0F42602000C2600200C26002058
:10C3D0007047000007B5044B0093044A402300F067
:10C3E00032F803B05DF804FBF1C3010075260020AC
:10C3F0002DE9F84389461446B2B10F4B0F4E032581
:10C40000002743F00108224609EB0701002003F052
:10C4100003FF0744241A48B933782BB14FF47A400C
:10C42000C047013D02D13570BDE8F8830123337068
:10C43000002CE8D1F8E700BF002702007426002096
:10C44000704703F01DBFF0B595B01C461646084670
:10C450000D4601F0F0FD1A9B0D93CDE90864002410
:10C460002346082205A928460A948DF82C400C94EE
:10C4700001F0FEFD079B0293069B03939DF8143089
:10C480008DF8114003F00302012A1DD1BDF81440BC
:10C49000059EC3F3C203C4F383148DF81030A200C9
:10C4A00008230EA9284601F0E3FDC6F3952608AB44
:10C4B0000093224602AB0EA9304600F05DFB2846F1
:10C4C00001F0BDFD15B0F0BD022AF8D1BDF816404F
:10C4D000C3F3C203A4098DF810300827082C2646A0
:10C4E00028BF08263B4632460EA9284601F0C0FD6B
:10C4F000A41B08AB02AA31460EA8374400F0A0FBEB
:10C50000002CEBD1DBE7000008B5FFF79AFF042110
:10C51000034800F09FFA034B01225A7108BD00BF87
:10C52000E42602000C260020037813F0040216D043
:10C5300003F00303012B03D0022B09D00120704725
:10C540000A6800880232C0F3831002440A60F5E7EB
:10C550000B684288023303EB92130B60EEE7104640
:10C56000704700002DE9F04F87B000230446851C7A
:10C570000DF107000F4690468DF8073001F05AF88C
:10C58000454806683E60D0E90132134401339B1BE5
:10C59000824600F21C4600F5836900F21447AB4264
:10C5A0001BD30022B8F1000F70D0052363F30702FC
:10C5B00064F38912DAF80010DAF808309DF8070001
:10C5C0000B4003330D444AF82320CAF8005001F011
:10C5D00055F8012007B0BDE8F08F0121304601F089
:10C5E0006EFA484601F081FA384601F07EFADAF830
:10C5F0000400DAF808B0029000EA0B0003300AEBFE
:10C60000800002A9FFF790FF029B50BB0BEA0302D8
:10C610000AEB820203F1020CD2680392013303EAAF
:10C620000B0B0AEB8B0B02F00302012ACDF808C0BA
:10C63000DBF80C1022D0022A16D08346384601F0CF
:10C6400057FA10B1029BCAF804305946304601F03F
:10C6500036FADAE901231344DAF8002001339B1A91
:10C660009DE70BEA0300C9E7BDF80E309B090333D1
:10C670004FEA114B0CEB93030293DFE7BDF80C304C
:10C68000C3F383134FEA114B6344F5E7062363F3C7
:10C69000070264F39F528DE7882700200B4B0C485C
:10C6A000FF2210B59A600022C3F81824C3E90022C3
:10C6B000C3F8142483F8202401F076FC044610B952
:10C6C000044801F01DFD204610BD00BF8827002052
:10C6D000502602002427020030B50A4C71B10A4AE4
:10C6E0000A49121BD20800239A4201D1002030BD12
:10C6F00031F82350854202D00133F5E7034654F860
:10C700003300F4E764260200E42602000C26002031
:10C71000094B013903EBC000032909D8DFE801F018
:10C720000A02040604207047007970474079704778
:10C73000002070470220704764260200034BD3E9B3
:10C740000030C31A58425841704700BF8827002064
:10C750002DE9F04387B0FFF7F1FF0646002840F0CF
:10C76000FB807E4DC5F81804BFF34F8F6868AC6836
:10C7700002902040033005EB800002A9FFF7D4FEB1
:10C78000029B18B1D5F81824002A5FD004EA0302EE
:10C79000991C013305EB8202234005EB8303D26829
:10C7A000DB68049302F00303022B0392029162D12F
:10C7B000BDF80E306A484FEA9318B8F1500FC146E1
:10C7C00028BF4FF0500969F38F1309F10801ADF844
:10C7D0000E3001F001FC0746002800F0A88001F0AF
:10C7E0002AFC03A900230822384601F037FC0299ED
:10C7F00024EA01060136B600B14535D95FFA89F958
:10C800007EB3F6B2A9EB0609214003315FFA89F441
:10C81000B146544E05EB810108234A46384601F0E3
:10C820001DFC36B109F1080322463146384601F0B5
:10C8300015FC029B08F1030803EB98030293D5F85B
:10C840001834002B4BD1D5F810445BE02A689A428B
:10C8500004D86A60304607B0BDE8F08304EA0300FC
:10C8600088E740493446D7E72140033108234A4648
:10C8700005EB8101DAE7012B59D1BDF80C303848BE
:10C88000C3F38311062928BF062161F389130231FE
:10C890008900ADF80C3001F09FFB0746002846D018
:10C8A00001F0C9FB0023082203A9384601F0D6FB9A
:10C8B0000026BDF80C20C2F38312B300964203F1A8
:10C8C0000803BCD202994A1C21400331029205EBB5
:10C8D00081010422384601F0C1FB0136E9E7384600
:10C8E00001F0ADFBFFF72AFF80F00100C6B2B1E70F
:10C8F000E3685B7923B1236839461B682046984773
:10C90000E3681C68002CF3D1384601F098FB0DF168
:10C9100007008DF8074000F08DFED5F818340BB9EC
:10C92000029B6B609DF8070000F0A8FEDAE7D5F8DF
:10C93000104454B90C4B0D480D49C01AC0080004EE
:10C9400040F0020000F06EF8CCE7236820469B68B8
:10C950009847E3681C68ECE700267BE788270020FF
:10C960005026020094270020642602008C26020034
:10C97000302702002DE9F74F284C80460F4692469B
:10C9800001A9012218469B46D4F80890FFF7EAFD5A
:10C9900080B3019D0026A91C5E4506EB010233D140
:10C9A00000211F4801F060F880F310006A1C02EAC1
:10C9B000090204EB8202000405EA0903033340EA9A
:10C9C0001840D06014F8232068F3C50204F823202F
:10C9D00034F8232066F3891224F8232054F8232006
:10C9E00067F39F2244F8232002F0F80242F001028C
:10C9F00004F8232094F820341BB1FFF7A9FE002887
:10CA0000FBD103B0BDE8F08F09EA020204EB820219
:10CA10005AF82630D3600136BEE700BF88270020D1
:10CA2000A42B002000231A46FFF7A4BF07B501235B
:10CA3000019201AAFFF79EFF03B05DF804FB07B562
:10CA4000CDE9002302236A46FFF794FF03B05DF8A7
:10CA500004FB000030B50F49D1F810240023144620
:10CA60003CB9C468237152B9C1F810042260184659
:10CA700030BDE46825799D4206D02468F0E7D2688D
:10CA8000116821601060F2E701330A2BE7D14FF003
:10CA9000FF33ECE788270020094A38B50123D2F894
:10CAA000104482F820341D4604B938BDE3685D7136
:10CAB000236820465B689847E3681C68F4E700BF7A
:10CAC00088270020037A052B10B50C460FD0437A37
:10CAD00023B1084A0849204601F06DF8074920466D
:10CAE00001F069F82046BDE8104001F059B8002A6D
:10CAF000F8D0F3E77B27020080270200A82E02006F
:10CB0000C38873B504460D4633B1144A00921449E4
:10CB1000144A284601F04FF8217A05291CD0637A7F
:10CB20004BB1A088FFF7F4FD0F4B104953F82020BC
:10CB3000284601F040F8227A0D4BA08853F8226075
:10CB40000021FFF7C9FD0B4903463246284602B0D3
:10CB5000BDE8704001F02FB802B070BD7B27020025
:10CB60008B2702008327020048270200802702004B
:10CB7000B0270200A32702002DE9F04385B01F462D
:10CB80000C9D002306460C46904695F80C902B739E
:10CB900029463846FFF7B4FFB8F1060F09D8DFE899
:10CBA00008F00412181F283340003146284601F0CF
:10CBB00002F8002229463846FFF784FF85F80C90DA
:10CBC00005B0BDE8F08322683146284600F0F3FF47
:10CBD000EFE7D4E900233146284600F0ECFFE8E710
:10CBE000A36800933146D4E90023284600F0E3FF10
:10CBF000DFE7E3680193A36800933146D4E900239B
:10CC0000284600F0D8FFD4E723690293E368019334
:10CC1000A36800933146D4E90023284600F0CBFFF7
:10CC2000C7E76369039323690293E3680193A368E9
:10CC300000933146D4E90023284600F0BCFFB8E752
:10CC400008292DE9F84F80460E4617461C463AD86B
:10CC5000002593F80C901D7319461046FFF750FFFE
:10CC6000DFF884A0DFF884B0AE422ED918F8052092
:10CC70005946204600F09FFF0135082DF4D1184990
:10CC8000DFF86CB0204600F096FF4FF0000A5645E2
:10CC900020D918F80A507E2D03D8284605F01EF832
:10CCA00000B92E252A465946204600F084FF0AF195
:10CCB000010ABAF1080FEAD1012221463846FFF7EE
:10CCC00001FF84F80C90BDE8F88F5146204600F033
:10CCD00072FFD1E70349204600F06DFFE7E700BF90
:10CCE0007627020074270200722702006C270200D8
:10CCF00078270200C30710B507D4F0234008054A7F
:10CD0000145C23401943115410BD0901C9B20F230B
:10CD1000F4E700BF782C002030B5094B1C78094B94
:10CD2000196800239C4202DC0022104630BD11F835
:10CD30003350854201EBC302F7D00133F2E700BF65
:10CD4000442C0020982C002070B504460D46FFF7B7
:10CD5000E3FF30B1436823B129462046BDE8704067
:10CD6000184770BD034B044819680022490800F0B9
:10CD700064BA00BF482C0020502C002010B5C0B26F
:10CD8000FFF7CAFF0446007801F07AFE63785A1E66
:10CD900053425341834208D1044BD3E90023134348
:10CDA00003D1BDE81040FFF7DDBF10BD702C00209F
:10CDB00037B54308364AD35CC2074CBF1B0903F0A2
:10CDC0000F0304460D46042B36D8DFE803F0032694
:10CDD0002D393D0081B30121FFF78CFF00230DF1B8
:10CDE00007008DF8073000F025FC0122A4F1200394
:10CDF000C4F12000274902FA03F322FA00F00343AA
:10CE000002FA04F4D1E9002014430343C1E90043CA
:10CE10009DF8070000F032FC0EE0002918BF022147
:10CE20002046FFF767FF07E041B10321FFF762FFEC
:10CE300001212046FFF788FF03B030BD0121EFE755
:10CE40000029F9D10421EBE709B10321E8E7FFF755
:10CE500051FF29462046FFF777FF0DF107008DF8B7
:10CE6000075000F0E7FB0122A4F12003C4F12000E9
:10CE7000084902FA03F322FA00F0034302FA04F429
:10CE8000D1E9002022EA040420EA0303BEE700BF40
:10CE9000782C0020702C00202DE9F041124E134F09
:10CEA00000243378A34208DC114BD3E90023134359
:10CEB00018D0BDE8F041FFF755BF3D6805EBC40849
:10CEC00015F8340001F0DCFD98F801104B1E5942B2
:10CED00059410A1A514215F834005141FFF768FFD1
:10CEE0000134DEE7BDE8F081442C0020982C0020BE
:10CEF000702C0020092AF7B505460C4616463DD988
:10CF000001F0EEFCD8B11E4B1E481D601E4B1F4F9A
:10CF10001C701F4B002120221E6004F03FFF1D4BA0
:10CF200000200021C3E90001013CE4B20326FF2CEC
:10CF30000BD1194A1948002100F074F903E001F0FF
:10CF400097FC0028DFD003B0F0BD20B29DF806307A
:10CF50008DF8046005EBC00223F007038DF806305E
:10CF600001A9937815F830008DF805303A4601F0A4
:10CF7000C1FC013CE4B20028D9D0E4E70720E2E795
:10CF8000982C0020782C0020442C00207DCD01001E
:10CF9000482C0020702C002099CE0100102802009F
:10CFA00070B5084D084E00242B789C4201D3002018
:10CFB00070BD3368012113F8340001F017FD01340E
:10CFC000F2E700BF442C0020982C00201FB5002160
:10CFD000039001AA44F20100CDE9011100F004F828
:10CFE00005B05DF804FB000010B572B6FFF754FD04
:10CFF000FFF7AEFB0028FBD1104B114C1149E41A8E
:10D00000E408240444F00100FFF70CFD0E4B1B68FC
:10D01000DB0700D500BE0D4944F00200FFF702FD1A
:10D02000BFF34F8F0A490B4BCA6802F4E062134307
:10D03000CB60BFF34F8F00BFFDE700BF6426020047
:10D040008C2602001F280200F0ED00E02B280200D1
:10D0500000ED00E00400FA0549B152B1531E1A4038
:10D0600007D1826001608380C260104670470E2045
:10D0700070470920704710B58468C2688388121B06
:10D08000934208D3C26813400268D154C368013385
:10D09000C360002010BD0420FCE78268C3689A4288
:10D0A0000AD08268838813400268D35C0B7083685F
:10D0B000013383600020704705207047D0E90223C8
:10D0C000D1E90201994208BF90422CBF0120002003
:10D0D000704700002DE900480C4800F002FC0C4BA2
:10D0E000D3E9002312EB000B43F1000C094BD3E909
:10D0F00000239C4508BF93455846614603D21BF167
:10D1000080704CF10001BDE8008800BF14260020AB
:10D11000A02C0020182D002037B505460C460A48E3
:10D1200001A900F010FC60B10570446001A9064837
:10D1300000F033FC18B1054800F0D8FB002003B024
:10D1400030BD0420FBE700BF042D00201426002082
:10D15000194B1B782DE9304804461BB90025284699
:10D16000BDE830880028F9D0037F03F0FF05002BCD
:10D17000F4D0FFF7AFFFD4E90223994208BF9042F1
:10D1800015D3236903B92377D4E90530984721697A
:10D190000029E3D0237F03F0FF05002BDED0D4E984
:10D1A000022312EB010B43F1000CC4E902BC21463F
:10D1B000024800F0C4FFD2E7A82C00203C2802005F
:10D1C00013B5114B114918680190082358221048D3
:10D1D00000F0A6FB044698B90E4A0F4801A900F0DA
:10D1E00071FA044660B901210B4800F05DFB012390
:10D1F0000A4A0948194600F0C3FA094B01221A707D
:10D20000204602B010BD00BF38280200AC2C002020
:10D21000042D002085D2010014260020FFFF7F008E
:10D22000A82C00203AB103685A614A1E514251416C
:10D230001961002070470720704738B5037F044606
:10D240000D4683B98261FFF745FF421941F10003A2
:10D25000C4E90223236903B1256121460020BDE80A
:10D260003840FFF759BF002038BD0023014603773F
:10D270000120FFF751BF0000014800F032BB00BFA2
:10D28000142600202DE9F04F85B0074600F014FB6E
:10D2900040B1594AD2E9003113F1807341F10001E4
:10D2A000C2E900310021384600F015FB38B1534C7B
:10D2B000236823B12068FFF74BFF0023236001217F
:10D2C000384600F008FB20B1FFF704FF4C4BC3E9E0
:10D2D000000103A94B48494D4B4C4C4E00F06DFBEF
:10D2E000002845D1DFF820A1444CDFF828B1504692
:10D2F00000F03BFF2368002875D07BB12368D0E99C
:10D300000201D3E90223994208BF90422DD223683B
:10D310001B7F1BB12168504600F011FF504600F002
:10D320001EFFD0E9026305460193FFF7D3FE019B80
:10D33000B6EB000863EB0109B8F1010F79F10003C6
:10D3400044DB334EB0453FD9FFF796FF82194FF4C7
:10D3500096030021584600F033FA00283ED1236896
:10D3600013B9384600F004FA256005B0BDE8F08F27
:10D370000378012B1DD05BB1022B11D14FF0000AB5
:10D38000204600F0ECFE002833D080F81CA0F7E720
:10D3900041680B7F23B901230B77204600F0CFFEB5
:10D3A00003A9184800F034FB03A9164800F005FB58
:10D3B00096E741682B68994202D100232B60EFE782
:10D3C000204600F0D5FEEBE7AA68C0E700215846EA
:10D3D00000F077FA2846FFF7BBFE01E00D28F9D0F0
:10D3E0000023236083E7002BBFD1384600F0C4F947
:10D3F000BBE701233370D3E7A02C0020202D0020B1
:10D40000182D0020042D00203C280200A82C00200C
:10D41000FFFFB400142600200648074A0378074996
:10D42000D35C012213B1043002F0A4B80C3001F037
:10D430004BBE00BF1C2600209C2D00204C2D002040
:10D440000648074A03780749D35C012213B1043028
:10D4500002F03CB80C3001F0E1BD00BF1C260020FA
:10D460009C2D00204D2D002037B50578012D05D0CD
:10D47000002D32D0022D25D003B030BD037A13B970
:10D48000FFF7CAFFF8E743681A4C19782046FFF700
:10D49000F2FD80B18DF800500190174B68461B6873
:10D4A0009847A168E368A2885B1A9A42E8D2134BB6
:10D4B00001221A70E0E7A268E3689A42F1D08DF881
:10D4C0000000EAE7C3688DF800500193FFF7A4FF5E
:10D4D000094B68461B689847CEE709490948FFF79A
:10D4E000DCFD10B9FFF7ACFFC6E703238DF8003071
:10D4F000EEE700BF282D0020242D0020382D00202D
:10D500004D2D00203C2D0020F0B51F46234B89B047
:10D5100006461A600C4600293DD08A8820480968D2
:10D52000FFF79AFD002834D1A289A1681D48FFF7B2
:10D5300093FD00282DD11C4D0FCD6C460FC495E8EE
:10D540000F0084E80F0073690693337C174A18486C
:10D550008DF81C70003318BF01238DF81430737CD4
:10D56000002B14BF0E2300238DF81530F3680293AF
:10D57000B36803933368019369467368009301F0BD
:10D58000A1F830B90B4B18703368013301D0FFF7A5
:10D5900043FF09B0F0BD0720FBE700BF242D0020AA
:10D5A000282D00203C2D00205428020069D40100C1
:10D5B0001C260020382D002070B5084C0146084874
:10D5C0002678FFF76AFD054636B100232370FFF782
:10D5D00023FF08B1FFF7FAFC284670BD382D002064
:10D5E000282D002010B501460E48FFF744FD0446E3
:10D5F000A8B90D480D4A0378D35C63B1043001F03B
:10D60000ADFF60B90A490748FFF747FD38B9BDE8E3
:10D610001040FFF715BF0C3001F04AFDF1E720463E
:10D6200010BD00BF3C2D00201C2600209C2D00209A
:10D630004D2D002070B5EFF3108672B60C4A946839
:10D6400001239CB993600B4B0B4DD3F880102940FC
:10D650001160C3F88050D3F8841051604FF0FF324E
:10D66000C3F88420047006B962B670BD0370FAE78F
:10D67000502D002000E100E0FC06FFBD084B9A6839
:10D6800010B55AB150B9EFF3108172B6054A1C6853
:10D6900014605C685460986001B962B610BD00BF48
:10D6A000502D002000E100E0435882B03BB1002340
:10D6B000435043580193019B012002B07047184624
:10D6C000FBE70000F8B5224B4679224D43F82620AF
:10D6D000214A224BF7009B1AEA19DB0812791B0436
:10D6E00032B143F002001E49FFF79CF90820F8BD53
:10D6F00002680C88C2F8084590F904208978002A4D
:10D70000A8BF02F1604CD4B2BABF04F00F0EDFF82C
:10D7100058C00CF5614C4FEA4111C9B2B4BF0CF8C6
:10D720000E108CF8001352090121DFF840C004F0FC
:10D730001F042F4401FA04F44CF82240397145F8D3
:10D740003600084943F00300FFF76CF90020CEE7EC
:10D75000642D00205C2D0020642602009C2602001F
:10D7600086280200A828020014ED00E000E100E095
:10D77000036801221A607047036801225A607047EB
:10D7800073B501F15005AD000068ADB24FF48034BF
:10D790008C400026C0F80843C0F84843465101F5C4
:10D7A000A8714559019522F07F42019D40F8212042
:10D7B000C0F844430BB1C0F8044302B070BD000090
:10D7C0002DE9F74F884699464FF48036036808F1F3
:10D7D00050058E404FEA880AAD00C3F84863ADB2E9
:10D7E000C3F80863074603EB0A00D3F804154FF0AB
:10D7F000000B22F07F44D0F84025C0F8401543F8D4
:10D8000005B05B590093009B531A23F07F43012B13
:10D810000BD1244B4FF4806043F0010398473B68E1
:10D8200043F805B05B590193019B3868D0F8045563
:10D83000C0F84463631B23F07F43012B1AD108F522
:10D84000A878184B013440F8284043F001034FF406
:10D85000806098473B68D3F804359D4208D13B6807
:10D860000020C3F84463C3F8046303B0BDE8F08F3D
:10D870000D20FAE78244C9F1FF19CAF84045D0F8F3
:10D880000435E21A013A22F07F4209F57F499145B9
:10D89000EED3002AE3D10134CAF84045D0F804257C
:10D8A0009342DBE78028020003680222C3F8442386
:10D8B00009B1C3F8042370474FF482710068FFF781
:10D8C000F3BE4FF4803303FA01F10368C3F8481341
:10D8D000C3F8081370475031890089B20068FFF718
:10D8E000E3BE0368D3F804057047000090F90430E4
:10D8F00001215A0903F01F0301FA03F340320249E0
:10D9000041F82230704700BF00E100E0024B034ABB
:10D910001B681068184700BF642D00205C2D002094
:10D9200010B561B1B2FBF3F403FB1424A4B244B903
:10D93000C0E9001484608281C381204610BD0E209E
:10D94000FCE70920FAE737B550E8013F9DB2C489EA
:10D9500025448489A54228BF2D1B0489A54202BF06
:10D96000BFF32F8F002207E0C5EA030540E801540A
:10D97000002CE9D14FF001028DF803200193019BA7
:10D980009DF803200B6002F0FF0322B10B880068B2
:10D99000184403B030BD1846FBE70A884B889A420A
:10D9A00009D150E8012FC2EA024240E80123002BCE
:10D9B000F7D1012070470020704737B550E8023F8B
:10D9C0001FFAA3F5C488A54202BFBFF32F8F002220
:10D9D0000DE0C48925448489A54228BF2D1BC3EAD4
:10D9E000054540E80254002CE8D14FF001028DF8C3
:10D9F00003200193019B9DF803200B6002F0FF03BD
:10DA000022B14B880068184403B030BD1846FBE7CC
:10DA10000A884B889A4209D150E8022FC2EA224272
:10DA200040E80223002BF7D1012070470020704707
:10DA300001F01F024B090121914000EB830000F02F
:10DA40001DB801F01F0301229A404B0900EB83002F
:10DA5000D14300F029B84B0901F01F0150F8230011
:10DA6000C84000F00100704750E8002F0B4640E826
:10DA7000003C9CF0000FF7D11046704750E8003F83
:10DA800043EA010240E8002C9CF0000FF6D110465A
:10DA9000704750E8002F02EA010340E8003C9CF088
:10DAA000000FF6D11046704750E8003F03EA01022C
:10DAB00040E8002C9CF0000FF6D11046704750E86B
:10DAC000003F03EB010240E8002C9CF0000FF6D170
:10DAD0001046704750E8003FA3EB010240E8002CDD
:10DAE0009CF0000FF6D1104670470121FFF7C6BF2A
:10DAF0000021FFF7CEBF10B590B1D0E90123016836
:10DB00009B1ADBB20A60013BDBB2FF2B026802D139
:10DB10000020107110BD11684C1C14600B70F2E7EE
:10DB20000E20F7E737B5054600240DF107008DF804
:10DB30000740FFF77FFD2A686B68116899420ED98C
:10DB4000481E106011F8014CEB68298A01FB04346F
:10DB5000AB6811791B1ADBB2994238BF13719DF87B
:10DB60000700FFF78BFD204603B030BD37B50546F3
:10DB700000230DF107000C468DF80730FFF75AFD22
:10DB80002A681368591C1160E968641A298AB4FB71
:10DB9000F1F41C709DF80700FFF770FD03B030BD75
:10DBA000826810B504462AB1436901680069984744
:10DBB0000023A36010BD0EB403B5039921B104ABDB
:10DBC00001AA019300F074F802B05DF804EB03B011
:10DBD00070470A2938B504460D4602D10D21FFF7DA
:10DBE000F8FFA3682268591CA160D554D4E901321A
:10DBF0009A4204D32046BDE83840FFF7D1BF38BD74
:10DC00002DE9F84F9946DDE90A43174682468846D2
:10DC10000A460126BA420FD24E4538BF4E4613F08F
:10DC2000010B01D164B900240125B9F1010F1AD902
:10DC300009F1FF397D43F8E7B2FBF7F20136E9E776
:10DC40009B070ED5B9F1000F0CBF30252025A64249
:10DC5000EAD2013C29465046FFF7BBFF002CF6D123
:10DC6000E1E72025F3E7B8FBF5F39F42E2D9DFF8BF
:10DC70003C90B8FBF5F3504619F8031005FB1388E8
:10DC8000FFF7A7FFB5FBF7F3BD4207D2BBF1000FCB
:10DC900002D00CB1A64203D3BDE8F88F1D46E8E7D9
:10DCA00020215046013CFFF794FFF2E7BA2802001A
:10DCB0002DE9F74F054617468846002900F03081C8
:10DCC00018F8011B49B92B7B002B00F0298128464D
:10DCD00003B0BDE8F04FFFF763BF252940F0C080D7
:10DCE000002698F800302D2B424608F1010823D079
:10DCF000302B24D02B2B25D000242A2B02F101011C
:10DD000023D13B681A1D1B683A601C440A461378ED
:10DD10002E2B26D101324FF00009104610F8011BBE
:10DD2000A1F1300CBCF1090F1DD80A2303FB091324
:10DD3000A3F130090246F0E746F00106D1E746F0CC
:10DD40000206CEE746F00406CBE711F8013CA3F14A
:10DD500030000928DBD80A2202FB0434303C0A4692
:10DD6000CBE74FF0000912F8011B01F0FB00682817
:10DD70009046F8D069290ED04AD8582964D006D8E0
:10DD800025296DD098F80030002B99D19BE76329A5
:10DD900062D06429F6D13A68D2F800A0111D8AEA4F
:10DDA000EA723960A2EBEA724FF0010B092A5BDCE0
:10DDB000CB4538BFCB462CB1BAF1000F01DB72075F
:10DDC00000D5013CB30702D5B9F1000F04D0F0072C
:10DDD00002D4002C4ED10024BAF1000F52DACAF15D
:10DDE000000A2D212846FFF7F4FE06F00302022A5E
:10DDF00005D1B9F1000F02D1002C47D10024CDE9A3
:10DE000000464B460A2251462846FFF7F9FEB9E77D
:10DE100073294CD014D87029B4D13B681A1D3A60CC
:10DE2000302128461C68FFF7D4FE78212846FFF7EA
:10DE3000D0FE00220823CDE9003221461022E3E77C
:10DE400075292BD078299DD139680A1D3A60CDE912
:10DE500000464B46102228E03B681A1D19783A60AC
:10DE60002846FFF7B6FE8DE70A230BF1010BB2FB44
:10DE7000F3F29BE7A345AFD220212846013CFFF7F0
:10DE8000A8FEA6E77107B0D52B21ABE7A345B6D214
:10DE900030212846013CFFF79CFEADE73968CDE90B
:10DEA00000460A1D3A604B460A220968ACE73B6807
:10DEB0001A1D3A6016F00106D3F800A020D1BAF17D
:10DEC000000F03D0504603F0BEFF0646B44200D90F
:10DED000C4B90AF1FF3A1EE028460136FFF779FE81
:10DEE0001AF806100029F7D1A642BFF44BAF002C58
:10DEF0003FF448AF20212846013CFFF76AFEF3E7D4
:10DF00000026EDE720212846013CFFF762FEDDE711
:10DF10002846FFF75EFE1AF8011F0029F8D131E705
:10DF200003B0BDE8F08F2DE9F047B0F806904479D2
:10DF3000D2F800A09DF8208009FB04F4043C0646BA
:10DF40000AEB0300A0420F4688BFA4EB030A191D89
:10DF5000C2F800A0B1FBF9F509FB15114DB9A9EB09
:10DF60000104544528BF5446BAF1000F04D1BDE85E
:10DF7000F0873668013DF1E704317B1970182246BD
:10DF8000B8F1000F0ED001461846AAEB040A03F0C0
:10DF9000DCFED145254436684C464FF0000128BFD1
:10DFA0005446E1E71946F0E7FFF7A5BDF8B5467915
:10DFB0000146721E0546002393422D6803D30024B8
:10DFC000A64202D8F8BD0133F6E70F682846FFF7EE
:10DFD000CDFD01343946F3E72DE9F843068ACD1C1F
:10DFE0000746FFF79FFD043E35440446B5FBF6F5B2
:10DFF000F0B14FF48073EDB28380C680013D0760BD
:10E0000081464FF00008A84512D23846FFF78AFD36
:10E01000064648B163790133637108F10108C9F814
:10E02000000007608146EEE72046FFF7BFFF344659
:10E030002046BDE8F88301210430FFF740BD10B54C
:10E04000012104460430FFF745FD10F0FF0F04D115
:10E050002046BDE81040FFF7A9BF10BD1FB50392D1
:10E060000022009203AAFFF75EFF05B05DF804FBF3
:10E070001FB503920122009203AAFFF754FF05B0D7
:10E080005DF804FB41DF7047064B10B500241C709F
:10E09000054B1C60BFF35F8F0449054800F039F859
:10E0A000204610BD702D0020742D0020CC280200C9
:10E0B000682D002007B500230DF107008DF807300B
:10E0C000FFF7B8FAF1EE103A23F09F03E1EE103AB1
:10E0D000BFF35F8F094B4022C3F884219DF80700EE
:10E0E000FFF7CCFA03F07CFB20B1FFF7CBFF03B0C6
:10E0F0005DF804FB20BF40BF20BFF8E700E100E06F
:10E10000836800225A609A60C3E90422DA601A60C8
:10E1100070470B684A684360934208BF0023016060
:10E1200008BF43607047436843B102689168526812
:10E130000B449342436004BF00234360704770B5B3
:10E14000446806460D46206818B1B36829469847CA
:10E1500018B923682B60256070BD2468F3E7436815
:10E16000186808B102681A607047436818687047F9
:10E170004368186800B97047884203D102681A6082
:10E180000120704703460068F4E7000010B50D4910
:10E19000A1F59472914201D800200FE08B1ADB1098
:10E1A00003EBD3735B1002EBC30452F833308342AA
:10E1B00005D802D204F10802ECE7606810BD2146E0
:10E1C000E8E700BF282A020008B5FFF7DFFF024B8F
:10E1D000002808BF184608BDEA28020010B504460A
:10E1E000C0B2FFF7FFF9204610BD0000054B1B68C9
:10E1F000082B01BF044B1868B0FA80F0400918BF23
:10E2000000207047300100103401001008B54FF0B5
:10E2100080430022C3F80C21C3F81021C3F838252D
:10E220004FF0805203F54043D2F80414C3F8201590
:10E23000D2F80814C3F82415D2F80C14C3F8281522
:10E24000D2F81014C3F82C15D2F81414C3F83015F2
:10E25000D2F81814C3F83415D2F81C14C3F84015BA
:10E26000D2F82014C3F84415D2F82414C3F8481582
:10E27000D2F82814C3F84C15D2F82C14C3F8501552
:10E28000D2F83014C3F85415D2F83414C3F860151A
:10E29000D2F83814C3F86415D2F83C14C3F86815E2
:10E2A000D2F84014C3F86C15D2F84424C3F8702592
:10E2B000FFF79CFF10B1384B384A1A60FFF796FF02
:10E2C00018B1374BFB22C3F81825FFF78FFF48B171
:10E2D0003449354B0A681B6822F00F0203F00F0324
:10E2E00013430B60FFF782FF18B1304B4FF40072FD
:10E2F0001A604FF08043D3F80024D20744BF6FF078
:10E300000102C3F800242A4AD2F8883043F470038B
:10E31000C2F88830BFF34F8FBFF36F8F4FF01023D9
:10E32000D3F80022002A03DBD3F80432002B2FDAC3
:10E33000204B0122C3F80425D3F80024002AFBD087
:10E340004FF010221221C2F80012D3F80024002A44
:10E35000FBD04FF010231222C3F80422154B1A46AB
:10E36000D3F800140029FBD00021C3F80415D2F81B
:10E370000034002BFBD0BFF34F8F0D490E4BCA6802
:10E3800002F4E0621343CB60BFF34F8F00BFFDE7A1
:10E390000A4B0B4A1A6008BD8C56004048810300A6
:10E3A00000F00040E40E0040580200104096024089
:10E3B00000ED00E000E001400400FA0530260020F6
:10E3C0000090D003074B1B5C1F2B8ABF064A4FF0FF
:10E3D000A04203F01F03D2F80405D840C04300F068
:10E3E00001007047E62D020000030050074B1B5C44
:10E3F0001F2B86BF03F01F0305494FF0A0410122E8
:10E4000002FA03F3C1F80C35704700BFE62D020095
:10E4100000030050074B1B5C1F2B86BF03F01F033C
:10E4200005494FF0A041012202FA03F3C1F8083573
:10E43000704700BFE62D02000003005008B5002021
:10E44000FFF7E8FF0120FFF7E5FF0220FFF7E2FFFB
:10E450000320BDE80840FFF7DDBF08B50020FFF747
:10E46000C5FF0120FFF7C2FF0220FFF7BFFF032017
:10E47000BDE80840FFF7BABF0A4B185C1F288ABFE7
:10E48000094B4FF0A04300F01F00D3F804250121F1
:10E49000814021EA02000A40C3F80805C3F80C25B0
:10E4A000704700BFE62D020000030050074B1B5CC5
:10E4B0001F2B8ABF064A4FF0A04203F01F03D2F879
:10E4C0001005D840C04300F001007047E22D020063
:10E4D000000300500B2809D00C2809D0182809D0B7
:10E4E00019280CBF03204FF0FF3070470020704701
:10E4F0000120704702207047014B185C704700BF35
:10E50000E22D0200C20710B504460CD54FF0A0431F
:10E510000322C3F83427C3F83827C3F83C27C3F8CD
:10E520004027FFF78BFFA3070AD54FF0A0430C222B
:10E53000C3F82C27C3F83027C3F86027C3F8642733
:10E5400010BD000038B5074C051E04F1080318BFC4
:10E550001C4623682BB11A6822605B6828469847DE
:10E56000F7E738BD802D002020B9054B01225A70F5
:10E57000FFF7E8BF012802D1014A9070F8E7704721
:10E58000782D002020B9034B01225A70FFF7DABF23
:10E59000704700BF782D002038B50B4C237883B925
:10E5A0000A486360A3602361E36000F0C7F8054692
:10E5B00003F016F908B900F0CDF8012323702846BE
:10E5C00038BD8525FBE700BF782D002069E50100F7
:10E5D00037B50B4C00230DF107008DF80730FFF71E
:10E5E00029F8E368013BE360E56815B900F0C4F879
:10E5F000A5709DF80700FFF741F803B030BD00BFDC
:10E60000782D0020012813B509D018B103281CD09B
:10E6100002B010BD0F4B0122C3F88020F8E70E4C6A
:10E6200000230DF107008DF80730FFF703F823787A
:10E630000BB9FFF7B1FFE3689DF807000133E36012
:10E640000123A370FFF71AF8E2E700F083F8FFF761
:10E65000BFFFDDE700E100E0782D00201FB5037863
:10E660008DF800304368019383688DF80830C368E3
:10E670000393054A054B684653F8213052F82110A0
:10E68000984705B05DF804FB8C2D0020942D0020E8
:10E690001FB503788DF800304368019383688DF8C7
:10E6A0000830C3680393054A054B684653F8213088
:10E6B00052F82110984705B05DF804FB8C2D00201E
:10E6C000942D0020F0B5184B0778DFF86CE043F884
:10E6D0002720164B16460A6943F827204B7F0EF871
:10E6E00007300C4684460FCC89B06D460FC594E8C0
:10E6F0000F0085E80F001EF80730049753B1002E75
:10E700000B4A694608BF32460CF1040000F0FCFDDC
:10E7100009B0F0BD002E074A694608BF32460CF129
:10E720000C0000F0A7FBF3E7942D00208C2D0020B7
:10E730005DE6010091E601009C2D0020044A13795A
:10E7400023B90121106091801846704785207047D9
:10E75000A02D0020074B1A68D2075FBFC02283F8A4
:10E76000002301221A604FF080430122C3F81825CC
:10E77000704700BF00E100E0044B01221A604FF037
:10E780008042D2F81834DB03FBD470470C00004001
:10E79000154B07B51A687AB100221A601B680093FE
:10E7A000009B4FF080430122C3F808230F4B587998
:10E7B00010B95A711B6898470D4B1A6882B1002234
:10E7C0001A601B680193019B4FF080430222C3F83B
:10E7D0000823064B1B68012003B05DF804EB1847C3
:10E7E00003B05DF804FB00BF00010040A02D002035
:10E7F0000401004000F1804000F5C040002382B0D9
:10E80000036003680193019B02B0704703681F2BEC
:10E8100083BF03F01F03036001484FF0A04070471F
:10E820000003005007B5019001A8FFF7EFFF019B1F
:10E8300000EB8300D0F8002722F44032C0F8002714
:10E84000D0F8003743EA0143C0F8003703B05DF861
:10E8500004FB0000054B4FF0FF32072843F820204F
:10E8600084BF1B1883F85820704700BFA82D0020D4
:10E8700010B5174C94F86A3043BB04F130033021D3
:10E88000FF22013911F0FF0103F8012BF9D1C8B2C1
:10E89000FFF7E0FF01310C29F9D1062200210D48D4
:10E8A00003F07CFA0C4BC02283F8062340221A6046
:10E8B0004FF4BE70FFF79EFF084B4FF00042C3F8C5
:10E8C0000423012384F86A30002010BD0820FCE7EF
:10E8D000A82D00200C2E002000E100E00060004088
:10E8E000034B93F86A00003018BF0120704700BF47
:10E8F000A82D0020F7B53B4E3318054693F930306C
:10E90000002B6CDA8B78C3F34003002B0BBF082479
:10E9100000240C200820844202D1042003B0F0BD62
:10E9200056F82470013743D1701946F8242080F836
:10E93000304013B9331983F858508B785A0717D4DD
:10E94000D80737D501A80195FFF760FF019B00EBC1
:10E950008300D0F8003723F00203C0F800372248C4
:10E96000EA0805F007070123BB40875C3B4383545B
:10E9700088780A7810F0020028D0A40004F18044BE
:10E9800004F5C0442D02D4F8103523F44F3323F49A
:10E990004073C4F810351204D4F8103505F47C55D2
:10E9A00002F4403215431D43C4F810550020B5E76A
:10E9B0000134B0E701A84A780195FFF727FF019BD2
:10E9C00003F5E073920040F82320C8E7083C344484
:10E9D00094F8605045EA821284F860209EE708208F
:10E9E0009CE700BFA82D00200C2E002073B5224C00
:10E9F0002518064695F93020072A19DD224492F899
:10EA000058309B09032B0FD1019001A8FFF7FEFEA0
:10EA1000019AD0F81035D340DB0707D402213046E5
:10EA2000FFF700FF02B070BD012BF7D00321F6E71E
:10EA3000D3B2072BF6D8930003F1804303F5C0430C
:10EA4000D3F8100540F00100C3F8100502F14000B2
:10EA5000800080B2FFF7CEFE0029E3D095F9303078
:10EA600054F82330002BDDD0012303FA02F2034BCC
:10EA7000C3F80423D6E700BFA82D002000600040A3
:10EA800007B5019001A8FFF7C1FE019BD0F8100562
:10EA9000D84000F0010003B05DF804FB2DE9F04F11
:10EAA000002489B0CDE90244624D4FF48072012107
:10EAB00002F1804303F5C04390B21B68012B06D1DD
:10EAC000D5F804330B4202D0FFF794FE0C43043216
:10EAD000B2F5907F4FEA4101EAD1574B1B68012BF9
:10EAE0000ED14FF4BE70FFF785FE4FF0A04344F007
:10EAF0000044D3F810350293504BD3F810350393EC
:10EB000014F0FF0F1AD04E4F00250126344210D0CA
:10EB1000AB0003F1804303F5C043D3F81005D3F8ED
:10EB2000101557F8253023B1C1F30141C0F305207A
:10EB300098470135082D4FEA4606E7D1002C75DAD3
:10EB40000DF1100800230493C8F804304FF0FF3390
:10EB5000CDE90633DFF8E8A0DFF8E89000273D466E
:10EB600019F9014B631C48D0E4B2012324F0C0061C
:10EB700004F0070203FA02F2F00808AB191811F8C2
:10EB8000083C134239D00AEB0603A40993F930304C
:10EB90005AF823B0BBF1000F08D1032C2DD118F87F
:10EBA00000C04CEA020C08F800C001E0032CF6D0CB
:10EBB00001A80196FFF72AFE019B11F8181C03F526
:10EBC000E07C114250F82C00C0F3014005D002282F
:10EBD00013D1032C0BD1214604E003280DD1032CC3
:10EBE00005D102213046FFF71DFE0135EDB2BBF124
:10EBF000000F02D021463046D8470137042FAFD14D
:10EC0000A5B14FF0A0430299D3F8102503F5407346
:10EC10009142D3F8103502D10399994206D002925D
:10EC20000393049A059B0692079395E709B0BDE804
:10EC3000F08F00BF006000407C6100400003005086
:10EC4000A82D0020082E0020014B1B68184700BF8C
:10EC5000142E00200E4B984237B50D4602D00020EE
:10EC600003B030BD00230DF107008DF80730FEF72B
:10EC7000E1FC084B1C7914B901221D601A719DF842
:10EC80000700FEF7FBFC002CE9D01120E8E700BFED
:10EC900000200040142E00200023435082B043582F
:10ECA0000193019B02B070470A4610B54FF48E7174
:10ECB000FFF7F2FF136A9168C95C136A01331362AC
:10ECC000C0F81C1510BD024608B54FF492710068DB
:10ECD000FFF7E2FF4FF484711068FFF7DDFF136860
:10ECE00001221A6008BD8B690A4610B54FF4847181
:10ECF00023B9FFF7D1FFD0F8183510BDFFF7CCFFCF
:10ED0000536AD168D0F81805C854536A0133536266
:10ED1000F3E700001FB501238DF80030044BCDE967
:10ED20000110D3E900126846904705B05DF804FB76
:10ED30001C2E002030B54D4AD2F8043313F4007F66
:10ED400085B015464FD0D2F82431002B4BD04FF46C
:10ED500092711046FFF7A0FF4FF40173C2F8083319
:10ED6000434B93F8291009B9012151603F49022210
:10ED70008DF80020D1F88024C1F8802403929A698C
:10ED80000292DA6801920022C3E906226846D3E9BA
:10ED9000001290473548D0F81C315BB134494A69BC
:10EDA0000B6A9A420A464BD991F82830002B47D17A
:10EDB000FFF77AFF2D4AD2F8443193B14FF4A27194
:10EDC0001046FFF769FF2A4B93F8291009B101217A
:10EDD00011609A692AB100229A61586AD968FFF7CE
:10EDE00099FF05B030BDD5F804335B07D2D5D5F80F
:10EDF0000831002BCED01E4C1C482146FFF773FF74
:10EE0000636AA2699A422346C4D1E269E1684AB1C1
:10EE10002369E3600023606AA261E3616362FFF734
:10EE200079FFB7E794F829200AB901226A600F4AEE
:10EE30004FF40170C2F8080300229A61586AEEE7A5
:10EE40004FF48E710948FFF727FF5369002BB1D0AB
:10EE500051690291002391688DF80030019153614E
:10EE60006846D2E900139847A4E700BF002000409D
:10EE70001C2E00202DE9F843624F047991462C2284
:10EE800002FB0472064692F82A200D46002A40F042
:10EE9000B3805D490068FFF7DDFE8046002840F042
:10EEA000AE8029684A1C10D01F2987BF01F01F03BC
:10EEB000564A0B464FF0A0420120984003F5E073FC
:10EEC000C2F80805032042F823006868431C0DD0EF
:10EED0001F288BBF00F01F0303464C4A4FF0A0428F
:10EEE00003F5E0734FF0000C42F823C03368AA69C1
:10EEF00095F814C0C3F824256A7DBCF1010F4CEAD3
:10EF00000202C3F86C25C3F81405C3F80C152BD105
:10EF1000A968481C0DD01F298BBF01F01F020A46AB
:10EF20003A484FF0A04002F5E0724FF0000C40F874
:10EF300022C0E868421C13D01F2887BF00F01F0CB6
:10EF4000324A84464FF0A0424FF0010E0EFA0CFEFA
:10EF50000CF5E07CC2F808E54FF0030E42F82CE017
:10EF6000C3F80805C3F810152C236343FA18C2F838
:10EF700004902A69FA50B9F1000F2AD04FF48E712B
:10EF800030682D7FFFF788FE30684FF4A271FFF7DD
:10EF900083FE32681E4BC2F80433120B51B20029B3
:10EFA000A8BF01F160404FEA4513BABF194802F00B
:10EFB0000F0500F56140DBB2B4BF435580F8003364
:10EFC00002F01F02012303FA02F24909124B43F82F
:10EFD000212033680422C3F800252C2303FB04738B
:10EFE0000022C3E9062283F829205A61012283F80E
:10EFF0002A204046BDE8F8834FF00808F9E74FF0B3
:10F000001108F6E71C2E002035ED0100000300502A
:10F010008000020014ED00E000E100E02DE9F84F6F
:10F02000224F06794FF02C0909FB0674804665696A
:10F03000002D38D16261A16025624FF48E710068A5
:10F0400084F82850FFF728FED8F8000001238360D9
:10F050002146FFF729FE6368A1469BB9D8F800A0B6
:10F06000D4F814B0236A9B4512D8D8F80020D2F8FF
:10F070001C31002BFBD00123D3602C2303FB067330
:10F0800000225A612846BDE8F88F94F8283043B929
:10F09000DAF81C31002BF8D049465046FFF704FE41
:10F0A000E0E70F25E9E71125ECE700BF1C2E002063
:10F0B0000379044A2C2101FB03235869003018BF4F
:10F0C000012070471C2E00202DE9F843394E0579A8
:10F0D0002C2303FB056307465C6824B103684FF4E7
:10F0E0000170C3F808032C2303FB0563986950B132
:10F0F000D86900283ED024B13B684FF40172C3F8B0
:10F100000423112433E09A61D9605862D8612C231A
:10F1100003FB056393F829301BB910B93846FFF794
:10F12000D2FD4FF02C0909FB05683868D8F8043087
:10F13000002B34D14FF4A271FFF7AEFDC146386801
:10F14000D0F82431D0F80821D0F84441B2B90CB934
:10F15000002BF4D02C2202FB05650022AA6123BB00
:10F160002CBB95F829103B680122B1B11A602046EA
:10F17000BDE8F8831961DA610120C8E7002BE9D105
:10F18000002CE7D14946FFF7AEFDD8F82430D8F877
:10F1900018209A42D3D82346DCE75A60E7E74FF4B9
:10F1A0000173C0F804330024E1E70324DFE70F24F0
:10F1B000DDE700BF1C2E00200023435082B04358DF
:10F1C0000193019B02B070471FB501238DF80030F9
:10F1D000044BCDE90110D3E900126846904705B011
:10F1E0005DF804FB482E00207FB5454AD2F8246123
:10F1F000002E63D010464FF49271FFF7DDFF02231B
:10F200008DF80030D2F88034C2F880340393D2F8FD
:10F210003C3502933B4BDA6801920022C3E9062297
:10F220006846D3E900129047354AD2F844317BB1A1
:10F230004FF4A2711046FFF7BFFF324B996939B105
:10F240000021C3E90611D968D2F83C05FFF7BCFFDD
:10F250002B4AD2F82031B3B14FF490711046FFF72A
:10F26000ABFF0123D360274B596961B1D2F84C152C
:10F270000291002299688DF8002001915A61684638
:10F28000D3E9001290471E4AD2F85831A3B14FF487
:10F29000AC711046FFF790FF1A4B596961B1D2F873
:10F2A0004C150291002299688DF8002001915A6155
:10F2B0006846D3E90012904704B070BDD2F810310F
:10F2C000002BB1D04FF488711046FFF775FF0D4B3E
:10F2D000D2F83C0599698842A6D1DC69D96864B145
:10F2E000D2F8005225F02005C2F800521A699C613C
:10F2F000DA60DE61FFF768FF96E79C61FAE700BF1E
:10F3000000200040482E00202DE9F843694F06797F
:10F310009146242202FB0672044692F820200D46F4
:10F32000002A40F0C08064490068FFF793FC8046E3
:10F33000002840F0BB802868421C10D01F2887BFDF
:10F3400000F01F035D4A03464FF0A042012199409F
:10F3500003F5E073C2F80815032142F82310696829
:10F360004B1C0DD01F298BBF01F01F030B46534AC6
:10F370004FF0A04203F5E0734FF0000C42F823C0B9
:10F380002368AA6995F814C0C3F824256A7DBCF1E6
:10F39000010F4CEA0202C3F86C25C3F80C05C3F850
:10F3A00014152BD1A968481C0DD01F298BBF01F063
:10F3B0001F020A4641484FF0A04002F5E0724FF0AC
:10F3C000000C40F822C0E868421C13D01F2887BFF9
:10F3D00000F01F0C394A84464FF0A0424FF0010E56
:10F3E0000EFA0CFE0CF5E07CC2F808E54FF0030EB7
:10F3F00042F82CE0C3F80805C3F810152423734322
:10F40000FA18C2F804902A69FA50B9F1000F39D0FD
:10F410004FF4887120682D7FFFF7CEFE4FF4907176
:10F420002068FFF7C9FE4FF492712068FFF7C4FE11
:10F430004FF4A2712068FFF7BFFE20684FF4AC7153
:10F44000FFF7BAFE22681E4BC2F80433120B51B20A
:10F450000029A8BF01F160404FEA4513BABF19481F
:10F4600002F00F0500F56140DBB2B4BF435580F8F0
:10F47000003302F01F02012303FA02F24909124B82
:10F4800043F8212023680822C3F80025242303FB26
:10F4900006730022C3E906225A61012283F8202064
:10F4A0004046BDE8F8834FF00808F9E74FF011082F
:10F4B000F6E700BF482E0020E9F1010000030050EC
:10F4C0001003420014ED00E000E100E001F06043B1
:10F4D000B3F1005F2DE9F041074638D11E4B0679A4
:10F4E000242505FB063598466C69002C31D16A61EC
:10F4F000A96000684FF49071FFF75EFE4FF4AC71A5
:10F500003868FFF759FE3B686A69A968C3F8441573
:10F51000C3F8482501229A606A68AAB9D3F8202165
:10F52000D3F858411AB9002CF8D00F2407E0002C6A
:10F53000FBD10122DA60D3F85821002AFBD0242322
:10F5400003FB0686002373612046BDE8F08110248A
:10F55000FAE71124F8E700BF482E00200379044A97
:10F56000242101FB03235869003018BF0120704794
:10F57000482E0020F8B501F06043B3F1005F044667
:10F580000F465ED10379304D242101FB03514868B9
:10F5900020B121684FF40476C1F80863242101FBEF
:10F5A00003539E6956B1D969002939D020B1236827
:10F5B0004FF40472C3F80423112030E09A61DF6035
:10F5C000DE614FF488712068FFF7F6FD4FF4A271F9
:10F5D0002068FFF7F1FD2368C3F83475C3F83825B8
:10F5E00016BB01221A602179242202FB01525268C3
:10F5F0000ABBD3F81041D3F84421D3F824011443B3
:10F6000002D10028F5D02246242303FB0155002314
:10F61000984218BF03209A42AB6118BF0F20F8BD73
:10F620001F61DA610126CCE7D3F8002242F0200204
:10F63000C3F80022D7E74FF40472C3F80423002074
:10F64000EDE71020EBE700BF482E00200220FEF778
:10F6500013BF00002DE9F04781460D46FEF73AFF43
:10F660000328044604D8012D04D025B3022D2FD041
:10F67000BDE8F087194D47003A18A918AE5C4A78E2
:10F6800052B1DFF86880164842464FF48041FDF7DA
:10F69000D4FD08B988F800903B192B449A78114B97
:10F6A0001A55002EE4D0104B1B68002BE0D03046DA
:10F6B000BDE8F04718470A48FDF7D7FD074B04EBB4
:10F6C000440213449E78074B1B5DB342D0D1E8E758
:10F6D000024B00EB40041C446678E2E7D02E002089
:10F6E000902E0020E92E0020E42E00206C2E002019
:10F6F00002210078FFF7AEBF08B5094B1B7853B164
:10F700000020FEF787FE0120FEF784FE0320BDE8FF
:10F710000840FEF77FBEBDE80840FEF78FBE00BF81
:10F720006D2E0020F8B57B4C237805461BB10023D5
:10F730002370FFF7E1FF172D00F28880DFE805F066
:10F740000C17174354657680888D888D959A9A9A00
:10F750009A9AC4C9D1D9E4E4FFF7CEFF6E48FDF709
:10F7600084FD6E4B002204461A702046F8BD00202E
:10F77000FEF728FEF8B10020FEF74CFE022D0CBF6C
:10F780004FF4E1614FF47A61644B1D704FF4004017
:10F790004FF47A740025E0FB01454FF4FA62002330
:10F7A0002046294602F0A4F9002201465A48BDE845
:10F7B000F840FDF742BDFEF719FE022D0CBFC8212F
:10F7C0004FF4C871E0E70020FEF7FCFD40B10020D7
:10F7D000FEF720FE4FF44871504B03221A70D5E714
:10F7E000FEF704FEC821F7E70020FEF7EBFD38B175
:10F7F0000020FEF70FFE4FF47A61484B0422EDE73C
:10F80000FEF7F4FD4FF4C871F7E70020FEF7DAFDCC
:10F8100048B10020FEF7FEFD404B05221A7040F66D
:10F82000CD410022C2E7FEF7E1FDF5E70020FEF73B
:10F8300023FE3A4B06221A70002240F26661B5E7B9
:10F840000020FEF7D3FD354B07221A7000248CE709
:10F8500001202070FEF710FEEEE701202070FEF779
:10F860000BFE00224FF40051A0E7FEF7F6FD2B4BF4
:10F870000C22EAE72A482B4EFDF7F7FCD5F11105DB
:10F8800004461CD0D8B9012D13D0C8235D434FF4D2
:10F8900000474FF47A7000214FF4FA620023C7FB4F
:10F8A000050102F025F9224601461D48FDF7C5FC79
:10F8B00004460220FEF79AFD0123337055E702202B
:10F8C000FEF7A8FD0023F8E7FFF716FF134B1222FF
:10F8D000BBE7FFF711FF0020FEF788FD0F4B132257
:10F8E000B3E7FFF709FF0120FEF780FD0B4B142261
:10F8F000ABE7FFF701FF0020FEF778FD0120FEF7E0
:10F9000075FD064B1522A0E7FEF7A7FD034B1D7002
:10F910009CE700BFE02E0020B02E0020E82E002043
:10F92000702E00206D2E0020044B1B68DB0703D5D2
:10F93000034B1878FFF7F6BE704700BFDC2E00209F
:10F94000E82E0020002910B514BF03240024FEF780
:10F95000D3FD1F288ABF0A4B4FF0A04300F01F00C1
:10F9600003EB8000D0F8002722F44032C0F80027D3
:10F97000D0F8003743EA0443C0F80037002010BD38
:10F9800000030050032801D8FEF790BD0020704707
:10F99000044B1B6813F0010301D0FFF7C3BE1846E8
:10F9A000704700BFDC2E002038B51C4B18601C4B84
:10F9B00010F00204054619601AD01A4B1A480E229C
:10F9C0001A700F22DA7010229A7111225A720421D1
:10F9D00040F23332FDF78EFA044648B9FDF7E0FAFB
:10F9E000044628B90146114A1148FDF71BFC04469C
:10F9F000EB0711D50120FEF785FD6CB921460D4AB4
:10FA00000D48FDF70FFC044630B90C4A0C480121A3
:10FA1000BDE83840FDF706BC204638BDDC2E00208E
:10FA2000E42E0020D02E0020082E0200F1F6010066
:10FA30002C2E020029F90100302E02004DF60100A3
:10FA4000282E0200032813D8012A0BD1012908D13E
:10FA500000F10E02D2B200EB40000C4B1A54002011
:10FA6000704700220129F6D04BB24BB1022901D0D8
:10FA700007207047054B00EB400018444270EEE74A
:10FA8000024900EB400008448270E8E7D02E0020D5
:10FA9000032802D80121FFF755BF0620704708B59B
:10FAA000012202210020FFF7CDFF08B1072810D165
:10FAB000072202210120FFF7C5FF08B1072808D15E
:10FAC00000210A220846FFF7BDFF10B1072808BF32
:10FAD000002008BD0388102B10B502D0112B1ED0BA
:10FAE00010BD1A4C2168B1B901220846FFF7AAFFE0
:10FAF00008B1072824D1072202210120FFF7A2FF25
:10FB000008B107281CD1042202210020FFF79AFF28
:10FB100008B1072814D1236801332360E0E70B4ABA
:10FB20001368013B1360002BDAD1FFF7B8FF002800
:10FB3000D6D0074B1B68002BD2D0BDE81040184729
:10FB4000034B1B68002BE6D09847E4E7F42E002017
:10FB5000F02E002008B50020FFF79AFF08B1062814
:10FB600006D10120FFF794FF10B1062808BF00203E
:10FB700008BD00000D4B10B518600C4629B10120DE
:10FB8000FFF700FF40B102232370094B1B6853B9F4
:10FB9000BDE81040FFF783BFFFF7F4FE08B10B2369
:10FBA000F2E72070F1E7002010BD00BFF02E00202A
:10FBB000F42E002076DF70477ADF70477CDF7047D5
:10FBC0007FDF70478FDF7047B1DF704733DF7047EB
:10FBD000FDF7FCB908B50020FFF7DAFE08B1FDF724
:10FBE000F5F9FFF7B7FF08B1FDF7F0F9FFF7EEFF02
:10FBF00018B1BDE80840FDF7E9B908BD0388212B1D
:10FC000013B504463ED022D8112B2BD0132B41D054
:10FC1000102B35D1274B28482849C01AC0080004AA
:10FC200040F00300FCF7FEFE254802F05DF80720D7
:10FC3000FFF7AEFE08B1FDF7C9F9224BA1882248B3
:10FC4000198001F09FFBD8B1FDF7C0F918E0522BE5
:10FC500028D0562B01D03B2B12D11321A088FFF7BF
:10FC6000A9FFF0E7134B14481849C01AC008000454
:10FC700040F00300FCF7D6FE124B4FF6FF721A80DD
:10FC800002B010BD002301A98088ADF80430FFF751
:10FC900099FFD8E70B4800231A4685210088FFF713
:10FCA0008FFFD0E7074800231A4619460088FFF760
:10FCB0008BFFC8E7642602008C2602004C2E02004F
:10FCC000562E02003A26002000310020642E020049
:10FCD0000D4B4A881B889A4214D10A8840F6772334
:10FCE0009A420FD18B88094A09480A49033B9BB2C3
:10FCF0001380094A801AC00800041A4640F0030025
:10FD0000FCF79DBE704700BF3A2600203826002031
:10FD10008C260200712E02006426020008B50378CA
:10FD20004BB9054B3B211888FFF744FF18B1BDE8DC
:10FD30000840FDF74BB908BD3A260020072808B552
:10FD400013D00A280DD0042819D10D4B132118887F
:10FD5000FFF730FF30F0080311D0BDE80840FDF791
:10FD600035B9BDE80840FFF735BF054B1A884FF697
:10FD7000FF739A4203D1034800F0BFFEEAE708BDD3
:10FD80003A260020F02F002008B548B103280BD1F7
:10FD90000220FFF7FDFD38B1BDE80840FDF716B9B8
:10FDA000BDE80840FFF716BF08BD00000378012B2F
:10FDB000F7B53BD01BB1022B38D003B0F0BD1D4CC2
:10FDC0001D4D20782844FDF7F7FB2378E85CFDF70C
:10FDD00009FC23780133DBB21D44237015F8012C94
:10FDE0000A2A05D00D2A03D0144A12889A42E4D870
:10FDF000012B18D91248134D0F4E134F01F074FF09
:10FE00002378ADF806300DF106022B8831463846CE
:10FE100001F02AFC082806D01328F1D0052802D0CA
:10FE200008B1FDF7D3F800232370C6E74068FDF75B
:10FE3000CDF8C2E7EC2F0020F82E00203826002055
:10FE4000232F02003A2600203C2600202DE9F04115
:10FE5000057806465DBB1748174CDFF8648001F053
:10FE600043FF164BE41AE408240444F00104B28A68
:10FE700095420AD33369134413F8013C0D2B16D174
:10FE80000A20FDF7AFFB1128F9E73369585DFDF74C
:10FE9000A9FB074648B11128F7D002464146204643
:10FEA000FCF7C4FD3846FDF791F80135DFE7BDE802
:10FEB000F08100BFD42E02008C26020064260200CE
:10FEC000F82E0200FDF782B808B50849084801F08D
:10FED00049F908B1FDF77AF8F721054801F056F91C
:10FEE00018B1BDE80840FDF771B808BDD1FC0100AC
:10FEF000E830002000B5734D0FCDB1B005AC0FC494
:10FF000095E80300704B714A01934FF4807384E8C5
:10FF10000300CDE9032302936D4A072301A905A835
:10FF2000FDF7F2FA08B1FDF751F84FF480410020D7
:10FF3000FCF7B4FB08B1FDF749F8FCF7E5FAFDF76B
:10FF40003FF908B1FDF742F862490320FFF72CFDA5
:10FF500008B1FDF73BF805A90020FFF70BFE08B13B
:10FF6000FDF734F8FEF790F808B1FDF72FF801F02F
:10FF7000F9FB08B1FDF72AF8002305A90120059334
:10FF800001F07EFC08B1FDF721F805A801F046FD5F
:10FF900008B1FDF71BF811234F488DF8043001F02C
:10FFA00052FF4D4982B201A8FFF708FE08B1FDF7E4
:10FFB0000DF80021082205A801F0F0FE47494FF096
:10FFC000C87305A8CDE90513FFF7F6FD08B1FCF7E6
:10FFD000FDFFFFF779FF424B4248059305A901F069
:10FFE000BFF908B1FCF7F2FF042200210DEB02007B
:10FFF00001F0D4FE3C4B3D48019301A901F0BEFA4B
:020000022000DC
:1000000008B1FCF7E3FFAC22002105A801F0C6FE11
:1000100002238DF814304FF4A063354AADF8163042
:100020000123ADF8603019928DF89030402244F2EF
:100030005063CDE9272305A92E4B2F482E9300F0BE
:10004000B4FB08B1FCF7C2FF01212B4800F0AAFB6A
:100050001C22002105A801F0A1FE00234FF4A032CC
:10006000CDE90532ADF822304FF4F0228DF824307E
:10007000224B07920A930322214B8DF8202005A8DA
:100080000B9300F057FE08B1FCF7A0FF1D4801F0EC
:100090002BFE1D4B1D481E49C01AC008000440F02D
:1000A0000300FCF7BFFC0321134800F0F0FB08B18C
:1000B000FCF78CFFFCF74CFB0028FBD1FDF7FAFFA7
:1000C000F8E700BF342E02000C3100200C32002073
:1000D000ADFD01003DFD01008D2E020010003C0031
:1000E000D1FB0100003100204DFE01003C26002024
:1000F0003426002089FD0100F02F00201DFD0100A5
:10010000C5FE0100992E0200642602008C26020022
:10011000AB2E02000369C1688B429DBF8268D21872
:1001200002F1FF3203F1FF3394BF501A581A70479F
:100130002DE9F041D0E9027405463E1B4068964225
:1001400020448846144404D901F0FFFDEC60BDE86A
:10015000F0813246E41B01F0F8FD224608EB06016F
:100160006868F1E72DE9F843C568064689461746F1
:100170004FF000083469B3687068A54228BFE418DE
:10018000013C621B5C1BBC4228BF3C46944228BF1A
:10019000144649462844224601F0D7FDB368254459
:1001A000AB4208BF00253F1BA044A144F560E1D14C
:1001B0004046BDE8F883000010B5114C114AA26119
:1001C0000223C4E90433104BE361A2644FF40073CB
:1001D0000E4A2362E264002310220D49A362E01D4F
:1001E0006362E362A3656365E365226501F009FE6E
:1001F0000849204601F005FE2023A37110BD00BF71
:100200000C330020472F0200943300208433002059
:10021000502F0200542F0200F8B5184C182300FB91
:10022000033503FB00402544C46A012C0F461646E3
:1002300011D024B1022C1BD000242046F8BD284642
:10024000FFF768FFB042F8D3324639462846FFF739
:100250006FFF3446F1E72846FFF75CFF86423446DD
:1002600028BF0446224639462846FFF761FFE4E7E7
:100270002846BDE8F840FFF775BF00BF0C330020EB
:10028000FFF79ABF6DDF704779DF70477DDF7047FA
:1002900064DF70472DE9F04F85B000250E9CBDF856
:1002A0003CB027880191804691469A462E46B8F880
:1002B0000020B2420CDC3DB12288013AD21B92B23E
:1002C000FF2A3BD80AF80720002005B0BDE8F08FD0
:1002D000D8F8042052F82600039000220DF10B01FB
:1002E00003A8FFF7D5FF0028EFD19DF80B204A4562
:1002F00022D12288002D14BF0020022002EB090128
:10030000014459451ADC45B9013292B2019B228061
:100310000AF8023022880132228022880DF10B0176
:10032000524403A8FFF7B4FF0028CED121889DF8DE
:100330000B200A44228001250136B8E70C20C4E7CF
:100340002DE9F341089CBDF824501746CDE900453E
:10035000022206469846FFF79DFF50B943461022F9
:1003600039463046CDE9084502B0BDE8F041FFF717
:1003700091BF02B0BDE8F0812DE9F04F002316884F
:10038000138090F82D3085B007460D46144653B3C0
:10039000082E01D80C2027E102A8FFF773FF0028E0
:1003A00040F0228123880822EA54238801339BB23B
:1003B0001B222380EA542088013080B2208006224C
:1003C0000DF10901284401F0C0FC23889DF80820A4
:1003D00006339BB212F0FE0218BF01222380EA54BA
:1003E000238801332380BB78FBB123880433B342D5
:1003F000D0D802A8FFF748FF002840F0F5802388F6
:100400000322EA54238801339BB219222380EA5441
:100410002388BDF8082001339BB2E9182380EA54F1
:10042000120A4A70238802332380FA789AB123880B
:10043000D91CB142AED80221E954238801339BB2C2
:1004400001212380E95423880B449BB22380EA5482
:1004500023880B4423807A68AAB12388D91CB1422F
:1004600098D8022192F90020E954238801339BB2E5
:100470000A212380E954238801339BB22380EA5464
:100480002388013323803B89002B40F0A1803B8AE5
:100490005BB1CDE900462B460722032107F110008E
:1004A000FFF74EFF002840F09F803B8B5BB1CDE90A
:1004B00000462B461522142107F11800FFF740FFD4
:1004C000002840F091803A6A002A40F09080D7F8E6
:1004D0002480B8F1000F30D0B8F804302188981C7F
:1004E0008A1C0244B2423FF655AFFE283FF652AF97
:1004F00003336B54238801339BB2FF222380EA54D9
:10050000238801339BB22380B8F80020EA54E9180D
:10051000120A4A702088023080B22080B8F8042085
:100520005AB1D8F8081000296BD0284401F00DFC0E
:100530002388B8F804201344238097F82C30002B2C
:1005400040F09A80387800284ED03B88012B58D054
:10055000228802F1020CB4453FF61CAF012805D1F8
:100560007B78023313449E42FFF414AF023EB61A66
:10057000B6B202A905EB0C00ADF80860FFF786FEE5
:1005800090BB3978BDF80820022900F0BA807B784A
:10059000934202D3B24240F2B280012940F0B380CC
:1005A0009BB29E42C0F0AF80ADF808300821BDF884
:1005B0000830FE2B3FF6EEAE22880133AB54228882
:1005C000013292B22280A9542288134423800BE086
:1005D000CDE900462B460622022107F10800FFF76D
:1005E000AFFE00283FF453AF05B0BDE8F08FB4F87C
:1005F00000C00CF10603B3423FF6CCAE11880529CA
:1006000001D80720F0E76FF4486E01EB0E039BB2B0
:100610004FF27D3E7345F4D95388052BF1D96FF421
:100620004860181880B27045EBD94FF6FF708142D0
:1006300003D0834201D09942E3D8052305F80C305A
:10064000238801339BB212212380E954238801338C
:100650009BB223801188E954E818090A4170238865
:1006600002339BB223805288EA54E918120A4A7076
:100670002388023323802AE7BB6A002BC1D04FF0C6
:1006800000094FF00C0A4FF0160B97F82C305FFA68
:1006900089F293427FF656AFB96A0AFB02F201EB88
:1006A0000208B8F80430981CFE283FF673AE208884
:1006B00003332B54238801339BB2238005F803B006
:1006C000238801339BB223808A5AEA54E918120A1C
:1006D0004A702088023080B22080B8F804205AB1D5
:1006E000D8F8081000298CD0284401F02EFB23886C
:1006F000B8F804201344238009F10109C5E7092152
:1007000055E7B242FBD9ADF808604FE770B5E0B1EC
:100710004AB116880024B44203D305196D789D426E
:1007200008D0A14201D800200FE0055D01352C441E
:10073000A4B2F0E7A142F6D9005DA31C01389BB238
:1007400080B21C188C42EEDC138070BD13B5002300
:10075000ADF8063013460DF106020446FFF7D6FF4A
:1007600010B1BDF80600204402B010BD72DF704722
:1007700073DF704774DF704738B5012204460D46B9
:10078000B0F8D810D0F8D400FFF7E0FF00B1057042
:1007900004F13C0204F1D40104F15400BDE83840F6
:1007A000FFF7E4BF80F830107047F8B504460F46F5
:1007B000002968D0002866D091F87A301BB191F8F2
:1007C0009830002B61D1D7F8A030042B5DD0D7F83A
:1007D0009C30042B59D007F178060FCE4FF0000C57
:1007E000251D84F802C00FC50FCE0FC596E807007F
:1007F00085E8070084F830C0D7F8A4306363D7F8E1
:10080000A830A3634FF6FF7504F1D403C4F8E430B5
:10081000A4F8E8500722614604F1EA0001F0BEFAAC
:1008200023780BB984F85450224604F155011F2552
:10083000C4F8D410384622F8D85FFFF79DFD08BBF6
:10084000224604F19301C4F8DC1007F13C0022F8C1
:10085000E05FFFF791FDA8B9A369A4F848304FF411
:1008600080730125A4F8503063692064014684F840
:100870003C50636404F13C0204F15400FFF776FF3E
:1008800000B92570F8BD0E20FCE70720FAE7F8B59F
:10089000077804460D46002F00F0F88000F1EA06C4
:1008A000A17007220021304601F078FAE38813B1E5
:1008B000A378012B04D0E3794BB1A378022B06D1A6
:1008C000636BA3B1012284F8F120082098473346D6
:1008D00004F1F00113F8012F12B98B42FAD1174637
:1008E0006B1E032B51D8DFE803F0050B0F1284F8C1
:1008F000F130ECE7A3791BB194F8243003B95FB968
:10090000E3790BB1002F42D1237A002B41D1637AD6
:10091000002B0CBF00250425636BA570002B3AD07B
:10092000033D012D37D86279AAB394F8F22092BB27
:1009300084F8F420012284F8F3200720984704F17A
:100940003C0518220021284601F028FAE26A531ECD
:100950000121022B94F8243084F83C1028BF0A4669
:1009600084F8512033B1A36A5A1E022A28BF0B46CD
:1009700084F85230A278002384F85030042A1BD81F
:10098000DFE802F06C0D223252000025C4E7022598
:10099000C2E70325C0E7002384F8F330CFE7C4F8AB
:1009A000E430C4E910630223012284F83C30802340
:1009B00084F83120A4F84830A378002B51D1636B20
:1009C000002B5FD100205CE0022384F83130032348
:1009D00084F83C302369A4F848300023C4F8E4309C
:1009E000E36826646364E7E763696364A369A4F862
:1009F00048306379B3B194F8F2309BB994F8F4308D
:100A000083B1022384F8503004212046FFF7B4FE5E
:100A10000028D1D1052384F8313004F1D403C4F87F
:100A2000E430C9E70323F6E7E3696364236AA4F8C3
:100A30004830637983B194F8F2306BB994F8F430AC
:100A400053B1022384F8503004212046FFF794FE6E
:100A50000028B1D10623DEE70423DCE784F8313037
:100A6000AAE72A46D4F8E41004F15400FFF77EFE0A
:100A700038B994F8301094F85400FFF779FE002844
:100A80009DD0F8BD94F8310098479BE70820F8E71F
:100A90000388112B10B50C460AD0262B1FD0102B23
:100AA00005D1C37B012B02D18388A1F8E83010BDAA
:100AB0000022838881F8F220B1F8E8209A42F6D12A
:100AC0000B79002BF3D101212046FFF7E0FE00282F
:100AD000EDD0A36B002BEAD0BDE810401847037A95
:100AE000013B012BE3D8897805230131B1FBF3F3F6
:100AF00003EB8303C91AC9B2E6E738B5044690F898
:100B00005400FFF737FE012384F8F230002384F805
:100B1000F43084F8503006212046FFF72DFE0546BC
:100B200038B9A1782046FFF7B2FE10B1A36B03B12C
:100B30009847284638BD75DF704776DF70477ADF03
:100B400070477BDF70470000034B1A8882420CBF5E
:100B500018460020704700BFB0350020024B9B694B
:100B600003B11847704700BF9435002073B586B2B3
:100B70003046FFF7E9FF044670B1164D027A2B7B31
:100B80009A420BD200F10A013046FFF7D4FFE8B1D8
:100B9000112801D0FFF7E2FF02B070BD00230372FD
:100BA0002B7C43B13B213046FFF7C7FF30F00803F1
:100BB00001D0FFF7D3FF6B69002BEDD000228DF839
:100BC0000420ADF8066001A89847E5E7237A0133D1
:100BD0002372E1E79435002013B50B46497A0F4C98
:100BE000024669B9D4E901101C7A002C18BF0146ED
:100BF0005868FCF722FB08B1FFF7B0FF02B010BD48
:100C0000002119726369002BF8D00121ADF80600AC
:100C10008DF8041001A89847F0E700BF9435002034
:100C20004B8802889A4213D842889A4210D380880F
:100C30008A8840F2F313984294BF031AC31A93426E
:100C400006D800F2F310904234BF00200120704714
:100C5000002070470388112B70B5014648D002D898
:100C6000102B1ED070BD122B52D0502BFAD12F4B0F
:100C7000C288DB899A42F5D1038A022BF2D1868899
:100C80003046FFF761FF05460028EBD001F1120066
:100C900000F079F930BB6868FCF7E7FA0028E1D08A
:100CA00009E0C37B012BDDD14FF6FF70FFF74CFF4E
:100CB000054620B90420BDE87040FFF74FBF1C4A2D
:100CC0008E880680002303721368C5F80A300A3044
:100CD000536843601031FFF7A3FF144B6872DB8940
:100CE000002BBFD129463046BDE87040FFF774BFE6
:100CF0008088FFF729FF04460028B3D04068FCF73E
:100D0000B4FA08B1FFF72AFF4FF6FF732380A9E773
:100D100086883046FFF718FF05460028A2D0083124
:100D20000A30FFF77DFF6872DCE700BF94350020D2
:100D3000C4350020F8B5064648B305460FCD154F1B
:100D40003C460FC495E8070084E807003068124C61
:100D50003C60B0B1FFF7F3FEC0B93268136823609E
:100D6000536863600D480E4A4FF6FF7303800D4BC6
:100D700040F8043F0021FCF755FA002818BF032073
:100D800004E02046FFF7DDFE0028EBD0F8BD0E2082
:100D9000FCE700BF94350020C4350020B0350020AA
:100DA0006D0B0200D03500200AB1FCF741BEFCF704
:100DB00048BE73B50191019C06466CB100252C46D6
:100DC000294601A8FCF747FE18B106EB440301349D
:100DD0009D800135142DF3D13046346002B070BDD2
:100DE0002DE9F04703888488103B8CB005460A2B18
:100DF0001FD8DFE803F0063F1E1E1E1E1E1E1E5FCC
:100E00004400314EB368DB43009371686846FCF7D9
:100E10004BFE009901A8FFF7CCFF0DF108094FF038
:100E20000008019B984507D3132C13D90420FCF725
:100E3000CDF80CB0BDE8F08739F802AB00270137D8
:100E4000514606EB8700FCF7FCFD1E2FF7D108F199
:100E50000108E6E721461D48FCF7EAFD21461C484B
:100E6000FCF7E6FDEB7B012BE3D021461948FCF7AC
:100E7000DFFDDEE721461548FCF7E3FDD9E7057AFB
:100E800015482D09032D94BF002201222146FFF7AA
:100E90008BFF022D94BF0022012221460F48FFF74D
:100EA00083FF012D0E4894BF002201222146FFF747
:100EB0007BFFBEE7037A002BBBD1427A0648C2F320
:100EC000C0022146F3E700BFF0350020F8350020CE
:100ED000F4350020FC3500200836002004360020C0
:100EE000003600201328014602D80248FCF7B3BDA3
:100EF00000207047F435002010B50446FFF7F2FFDC
:100F0000002814BF2046142010BD70B505461646B3
:100F10000AB90E2070BD002313600028F9D00368C1
:100F2000002BF6D0C38813F003040FD10846FFF757
:100F3000E3FFC0B214280BD02B7983420AD9EB8887
:100F40002A6800FB032333602046E3E70720E1E73C
:100F50000520DFE70420DDE7AADF70470023013822
:100F60000B70042806D8DFE800F00306080A0C001E
:100F700011230B7070472123FBE73123F9E712237C
:100F8000F7E72223F5E7007800F001007047F0B59D
:100F90008B7891B0002B0C4608BF01238DF80E30E2
:100FA00005460B88ADF80C30002116466846032232
:100FB00000F0F4FE6946607CFFF7D0FF0DF10101FF
:100FC000A07CFFF7CBFF9DF80230E27B62F3C30306
:100FD000227C62F30413227B62F30003227D002A49
:100FE00014BF0222012262F3420300211C2209A83D
:100FF0008DF8023000F0D2FE637B13F0300F15D075
:1010000002AF03220021384600F0C8FE0DF10901AD
:10101000E07CFFF7A3FF11238DF808309DF80A301C
:101020000E97012262F342038DF80A30637B8DF83C
:1010300024301422A37B8DF82530002104A800F071
:10104000ADFE03AB0493A388ADF81C30A368CDF8C4
:1010500014D01BB1E288ADF818200893A369002BC7
:101060002ED001AF03220021384600F097FEA3697D
:101070001A88ADF82C205A88187BADF82E203946F6
:101080005A680A920D97FFF769FFA3690DF10501F0
:10109000587BFFF763FFA2699DF80630917A61F3F0
:1010A000C303D17A61F30413117A927B002A61F3AE
:1010B000000314BF0222012262F342038DF80630BE
:1010C000E36903B10C93334604AA09A92846FFF744
:1010D00043FF11B0F0BD90DF7047A5DF7047B5DF6B
:1010E000704700007FB50023ADF80810ADF80A1076
:1010F0006A4602A9064603930093ADF80430FFF751
:10110000EAFF054600B3124B124CE41AE408FDF75F
:101110005BF8240444F00104034632460E4920469D
:10112000FBF78DFCBDF80020BDF8023052EA030148
:1011300003D00A492046FBF782FCBDF804201AB10F
:1011400007492046FBF772FC284604B070BD00BF7B
:1011500064260200B42602005B2F0200A52F0200C5
:10116000E42F020080B14FF0F7130360FB230371FB
:10117000F723C3801723038141F6FB32002301616B
:1011800043818281184670470E20704730B1A1F12B
:101190001703E02B04D80180002070470E20704711
:1011A0000720704713B5034680880C46A0B91A88FB
:1011B000232A00F09F8011D8102A22D0112A4CD067
:1011C000A37A4BB1E1880020FFF787FF002840F0A9
:1011D00097804FF48073638102B010BD3A2A45D0E6
:1011E000552A5BD0242AEBD11A7A0B694A73002B5B
:1011F000E6D04DF67A21ADF8040000918DF8042078
:1012000074E0DB7B0A790A73012B04BF0B88CB8067
:10121000C98823898B4205D20020FFF75EFF48B9B9
:101220000123E372217B637B8B42C9D20020FFF74D
:1012300059FFC5E7112802D10123A372F2E7FCF799
:10124000C3FF384A384B39499B1ADB081B04024656
:1012500043F00100FBF7EAFBE4E7F723CB80172319
:101260000B8141F6FB3348818B81A9E75B89CA88F2
:10127000934228BF1346172B0A6938BF17230B81E7
:101280004AB1C97A39B140F677210091ADF80430FE
:101290006946204690470023638191E7DB88C9882F
:1012A000A072172B38BF17238B4228BF0B46238110
:1012B000FFF715FF60B1FCF787FF1A4A1A4B1C496C
:1012C0009B1ADB081B04024643F00100FBF7AEFB50
:1012D000E37A002B7FF474AF2369002B3FF470AFE7
:1012E00040F6772200922289ADF804206946204614
:1012F000984765E7197A237B994228BF194696E7F4
:1013000011283FF469AFFCF75FFF064A064B074917
:101310009B1ADB081B04024643F00100FBF786FB27
:101320005AE700BF64260200B42602003A300200E9
:101330006B300200B0DF704766DF704710B50021E8
:1013400004464088FFF7F8FF034608B9237210BD32
:10135000112801D10123F9E76368BDE8104018475F
:1013600060B159B10378DE2B0AD00B684360DE23ED
:1013700003704FF6FF734380002070470E207047C4
:101380000820704728B10378DE2B04D1418000206B
:1013900070470E20704708207047F0B5054685B0AD
:1013A0000C46F1B1E8B10B78DE2B1AD182884B885C
:1013B0009A4204D10B7A13B10846FFF7BFFF2B887E
:1013C000112B32D0512B0ED0012B0AD12B7A012BAD
:1013D00007D1A9886288914203D123722046FFF782
:1013E000ADFF05B0F0BDAE886388B342F9D1AF79E7
:1013F000022FF6D1AD7B2B1F022BF2D80021102239
:10140000684600F0CBFC052D14BF4FF4C0730023D9
:10141000694630468DF80070ADF80430FFF78AFF5A
:101420000028DED063689847DBE76388AA889A4281
:1014300004BF4FF6FF736380D3E7A8DF7047ADDFCB
:101440007047AEDF704762DF704770B505468AB0FF
:101450000C46002962D0002860D00388502B37D07A
:10146000572B72D0102B59D181886069002601AAB0
:101470000196FFF74AFD082231460DEB020000F00D
:101480008DFC022302AA2189A888CDF80CD00293F2
:10149000FFF7D5FF002841D1A369002B3ED0039868
:1014A000FFF771FD002839D0019B0BB101221A70A2
:1014B0001822002104A800F071FC02238DF81030DE
:1014C000AB88ADF81830019B05940793A36923E01E
:1014D0008188606902AAFFF718FD1822002104A87C
:1014E00000F05CFCAB88ADF818302189EB88029ADB
:1014F00005949942079218D12E8A022E15D16AB10D
:1015000005F11200FFF73FFD029B48B101221A705E
:101510008DF81060A3690BB104A898470AB070BD9C
:10152000187003238DF81030F4E7A2899A42F5D1A0
:10153000A369002BF2D000228DF8102005F11202D1
:1015400008922A8AADF82420E6E78188606902AA19
:10155000FFF7DBFC01460028E0D1029B1B78002B43
:10156000DCD0182204A800F019FC01238DF81030FB
:10157000AB88ADF818300594029BA6E7F0B5384B60
:101580008FB002AA04460E4603F1100C17461868E5
:101590005968154603C5083363452A46F7D1002C20
:1015A0005BD0002E59D03368A36121463846FFF73F
:1015B0004AFF00284FD12246012512F8023B8DF840
:1015C000063001A92846ADF80450FFF736FF002881
:1015D00041D10146202206A800F0E0FB224602236A
:1015E000ADF8183012F80C3B8DF81A30BDF82430E5
:1015F0001C4E6088079603F4734343F440632B4307
:1016000006A9ADF824308DF829508DF82A50FFF73F
:10161000BEFC00BB0146202206A800F0BFFB22460C
:101620000323ADF8183012F8043B8DF81A30BDF8DA
:1016300024306088079603F46F4343F480532B43B0
:10164000ADF8243006A940F201138DF82950ADF809
:101650002A30FFF79CFC0FB0F0BD0E20FBE700BF67
:10166000A7300200F4000100F0B50F4687B016461F
:101670001C46054618B301AA19464069FFF745FC08
:10168000D8B94FF6FF739C421BD0019BCBB11B789E
:10169000CBB13388F42B18D80146102202A800F0F1
:1016A0007DFBAB88ADF8083002A901232046CDE9C7
:1016B00004678DF80A30FFF7C4FE07B0F0BD0E20B6
:1016C000FBE70520F9E70820F7E70720F5E710DF3B
:1016D0007047000013B5044609496846FCF719FD38
:1016E000019808B902B010BDD0E9003120469847F2
:1016F00018B16846FCF717FDF2E71120F2E700BFCA
:10170000C430020013B5044607496846FCF701FDE2
:10171000019B0BB902B010BD2046D3E900219047D0
:101720006846FCF700FDF3E7DC3002000B4991F856
:1017300016335A09EC231341DB0706D5084B9A6888
:101740003AB94FF480030B60704742F20200FBF796
:101750003DBC1A6842F480021A60704700E100E064
:10176000502D0020F7B5194F3C7864BB184E012569
:1017700020463570FFF7AEFF112821D02046FFF735
:10178000C1FF144B8DF80340186801900DF1030060
:10179000FBF750FF104901A8FFF799FF0446B0FA84
:1017A00080F0400938709DF80300FBF767FF3CB9F3
:1017B0000A4B34701C70FFF7B9FF2846FFF7A2FFF1
:1017C000204603B0F0BD0824FAE700BF6D360020C4
:1017D0006C360020BF300200E9CF01006E360020D9
:1017E000014B1878704700BF6D36002007B50849D7
:1017F0006846FCF78EFC019B13B903B05DF804FB4F
:10180000D3E9002090476846FCF78DFCF3E700BF62
:10181000D0300200FFF7EABF60DF704769DF704732
:1018200061DF704730B5114DADF5017D4FF4FA74AD
:101830000DF1020103A8ADF80240FFF7F1FF70B906
:10184000294601A8FCF765FC029B002BF0D003A8F9
:10185000D3E90021904701A8FCF765FCF4E70528CF
:1018600001D0FBF7B3FB0DF5017D30BD6033020005
:10187000024B1B780BB1FFF7D5BF70476F360020C6
:1018800030B5054685B00C46002900F0B2805A4BB1
:101890000B600C22002101A800F080FA01238DF8D2
:1018A000063022688DF80450062301A92020ADF8E7
:1018B0000830FFF7B3FF60B1FCF786FC4F4A504B8E
:1018C00050499B1ADB081B04024643F00100FBF75A
:1018D000ADF80C22002101A800F060FA0123226873
:1018E0008DF8053001A94020FFF798FF60B1FCF7A3
:1018F0006BFC424A424B44499B1ADB081B040246DC
:1019000043F00100FBF792F80C22002101A800F03F
:1019100045FAF72322688DF8045001A92320ADF879
:101920000630FFF77BFF60B1FCF74EFC334A344BC7
:1019300036499B1ADB081B04024643F00100FBF703
:1019400075F80C22002101A800F028FA0120226875
:101950008DF8040001A9FFF761FF60B1FCF734FCCA
:10196000264A274B2A499B1ADB081B04024643F0F0
:101970000100FBF75BF80C22002101A800F00EFA31
:101980004FF4B0632268019301A9A120FFF746FF3D
:1019900060B1FCF719FC194A194B1E499B1ADB0868
:1019A0001B04024643F00100FBF740F80C22002123
:1019B00001A800F0F3F99DF8043022686FF30003EA
:1019C00001A9A0208DF80430FFF728FF034668B175
:1019D000FCF7FAFB094A0A4B0F499B1ADB081B0468
:1019E000024643F00100FBF721F80023184605B03A
:1019F00030BD0E23FAE700BF0C260020642602004B
:101A0000C4260200F03002003631020082310200AA
:101A1000C93102001532020066320200F8B50646EE
:101A20000768FFF7F9FE3368BB4205461DD9194B1D
:101A3000194C1A49E41AE408240444F0020420462C
:101A4000FAF7F0FF336816493A462046FAF7F7FFEF
:101A50004FF080533268D3F80C3112499B0203F1E6
:101A600000539A1A2046FAF7E1FF25B90E4B0122DE
:101A70001A702846F8BD2846FCF7A6FB054A064B17
:101A80000A499B1ADB081B04024643F00100FAF7DF
:101A9000CDFFEEE764260200C4260200B932020040
:101AA000E8320200193302006F360020433302008F
:101AB0004BDF70471FB50D4C01A8FFF7F9FF70B958
:101AC000214602A8FCF725FB039B002BF4D00198CC
