:020000022000DC
:1060000000000120756302005D6302005F6302000F
:106010006163020063630200656302000000000028
:1060200000000000000000000000000067630200A4
:1060300069630200000000006B6302006D630200F0
:10604000AD9B02006F630200F19F02006F630200CC
:106050006F6302006F6302006D9E02006F630200B7
:106060006F6302006F6302006F6302006F630200E0
:106070006F6302006F6302006F6302006F630200D0
:106080006F6302003D7702006F6302006F630200DE
:106090006F6302006F630200C5F702006F630200C6
:1060A0006F6302006F6302006F6302006F630200A0
:1060B0006F6302006F630200000000000000000038
:1060C0006F6302006F6302006F6302006F63020080
:1060D0006F6302006F6302006F6302000000000044
:1060E00000000000000000000000000000000000B0
:1060F00000000000000000000000000000000000A0
:10610000000000000000000000000000000000008F
:10611000000000000000000000000000000000007F
:10612000000000000000000000000000000000006F
:10613000000000000000000000000000000000005F
:10614000000000000000000000000000000000004F
:10615000000000000000000000000000000000003F
:10616000000000000000000000000000000000002F
:10617000000000000000000000000000000000001F
:10618000000000000000000000000000000000000F
:1061900000000000000000000000000000000000FF
:1061A00000000000000000000000000000000000EF
:1061B00000000000000000000000000000000000DF
:1061C00000000000000000000000000000000000CF
:1061D00000000000000000000000000000000000BF
:1061E00000000000000000000000000000000000AF
:1061F000000000000000000000000000000000009F
:10620000354936480A1A02D0072291438D4634494F
:1062100034480A1A06D00722914381F309880222E2
:1062200082F3148830483149314A00F044F831484B
:106230003149324A00F03FF831483249324A00F0E1
:106240003AF832483249334A00F035F83248334997
:10625000334A00F030F833483349344A00F02BF821
:1062600033483449344A00F026F83448344900228F
:1062700000F02CF833483449002200F027F8334866
:106280003349091A082902DB002202604160314AC1
:1062900090471F481F49884205D00268043003B464
:1062A000904703BCF7E700208646EC46002000211B
:1062B000294A9047FEE7884207D0521A05D0037852
:1062C00001300B700131013AF9D17047884202D098
:1062D00002700130FAE770470000012000E0002062
:1062E000000001200000012074230300642200202C
:1062F000C0220020D0630200D063020074FD0200BF
:10630000742303006422002064220020ECFE0200BB
:10631000ECFE0200ECFE0200ECFE0200ECFE0200CD
:10632000ECFE0200ECFE0200ECFE0200742303000F
:10633000D0230300C0220020C0220020C022002061
:106340001C3500201C3500201C3500201C35002089
:106350001C5500209D63020061B00200FEE7FEE7CD
:10636000FEE7FEE7FEE7FEE7FEE7FEE7FEE7FEE705
:1063700000F002B8FFF7FCBF0F484FF00701884359
:1063800085460E4880470E48016841F4700101605F
:10639000BFF34F8FBFF36F8FFFF732BF09480A4932
:1063A0000A4A884207D0521A05D0037801300B7090
:1063B0000131013AF9D1704700000120CD9502006A
:1063C00088ED00E0D8FE0200502200206422002068
:1063D000F0B595B01C46164608460D4602F0E8FF9B
:1063E0001A9B0D93CDE9086400242346082205A9D1
:1063F00028460A948DF82C400C9402F0F6FF079B77
:106400000293069B03939DF814308DF8114003F01E
:106410000302012A1DD1BDF81440059EC3F3C20337
:10642000C4F383148DF81030A20008230EA9284667
:1064300002F0DBFFC6F3952608AB0093224602ABC1
:106440000EA9304600F0F0FB284602F0B5FF15B06B
:10645000F0BD022AF8D1BDF81640C3F3C203A40967
:106460008DF810300827082C264628BF08263B4602
:1064700032460EA9284602F0B8FFA41B08AB02AAB8
:1064800031460EA8374400F033FC002CEBD1DBE79B
:10649000014B01221A707047012300207047000051
:1064A00070B50E4D06460FCD88B06C460FC495E80A
:1064B0000F00002E84E80F004FF00603084A094839
:1064C000009308BF0022694603F00AFB08B100F000
:1064D000D5FD054B1E7008B070BD00BFECFE02007C
:1064E0009164020064220020C022002007B5044B02
:1064F0000093044A4023FFF76BFF03B05DF804FBF1
:1065000009650200C122002038B50D4B0D4D002059
:1065100018700D4804782D5DD2B21C4665B1043068
:1065200004F0C4F908B100F0A9FD084B1A7812B1C3
:106530002378002BFBD038BD0C3003F089FFF1E746
:1065400001230020782B002064220020C02200209C
:1065500008B50848084A0378D35C3BB1043004F01E
:106560002FF90020BDE80840FFF79ABF0C3003F078
:106570000BFFF6E764220020782B00200120FFF7B4
:106580008FBF000008B5FFF7F9FF0421034800F0B2
:10659000B9FA034B01225A7108BD00BFC8FE0200C0
:1065A00078220020037813F0040216D003F00303CE
:1065B000012B03D0022B09D0012070470A68008804
:1065C0000232C0F3831002440A60F5E70B68428888
:1065D000023303EB92130B60EEE7104670470000A6
:1065E0002DE9F04F87B000230446851C0DF107000C
:1065F0000F4690468DF8073000F034FF4548066896
:106600003E60D0E90132134401339B1B824600F205
:106610001C4600F5836900F21447AB421BD30022ED
:10662000B8F1000F70D0052363F3070264F38912F9
:10663000DAF80010DAF808309DF807000B40033351
:106640000D444AF82320CAF8005000F02FFF012023
:1066500007B0BDE8F08F0121304602F02BF9484623
:1066600002F041F9384602F03EF9DAF80400DAF8AF
:1066700008B0029000EA0B0003300AEB800002A988
:10668000FFF790FF029B50BB0BEA03020AEB82026A
:1066900003F1020CD2680392013303EA0B0B0AEBFD
:1066A0008B0B02F00302012ACDF808C0DBF80C10B6
:1066B00022D0022A16D08346384602F017F910B1CC
:1066C000029BCAF804305946304602F0F3F8DAE982
:1066D00001231344DAF8002001339B1A9DE70BEAEB
:1066E0000300C9E7BDF80E309B0903334FEA114B95
:1066F0000CEB93030293DFE7BDF80C30C3F3831375
:106700004FEA114B6344F5E7062363F3070264F392
:106710009F528DE7D42300200B4B0C48FF2210B56D
:106720009A600022C3F81824C3E90022C3F8142495
:1067300083F8202402F0F5FD044610B9044802F065
:106740009DFE204610BD00BFD4230020ECFD0200BA
:106750002CFF020030B50A4C71B10A4A0A49121BDB
:10676000D20800239A4201D1002030BD31F82350D5
:10677000854202D00133F5E7034654F83300F4E7CD
:1067800000FE0200C8FE020064220020094B01390D
:1067900003EBC000032909D8DFE801F00A02040670
:1067A0000420704700797047407970470020704797
:1067B0000220704700FE0200034BD3E90030C31AE9
:1067C00058425841704700BFD42300202DE9F043C0
:1067D00087B0FFF7F1FF0646002840F0FB807E4DB2
:1067E000C5F81804BFF34F8F6868AC68029020406A
:1067F000033005EB800002A9FFF7D4FE029B18B11D
:10680000D5F81824002A5FD004EA0302991C01334A
:1068100005EB8202234005EB8303D268DB68049317
:1068200002F00303022B0392029162D1BDF80E30F5
:106830006A484FEA9318B8F1500FC14628BF4FF08D
:10684000500969F38F1309F10801ADF80E3002F019
:1068500080FD0746002800F0A88002F0A9FD03A9EA
:1068600000230822384602F0B6FD029924EA010608
:106870000136B600B14535D95FFA89F97EB3F6B273
:10688000A9EB0609214003315FFA89F4B146544E61
:1068900005EB810108234A46384602F09CFD36B1DB
:1068A00009F1080322463146384602F094FD029B66
:1068B00008F1030803EB98030293D5F81834002B72
:1068C0004BD1D5F810445BE02A689A4204D86A603C
:1068D000304607B0BDE8F08304EA030088E740498A
:1068E0003446D7E72140033108234A4605EB8101AE
:1068F000DAE7012B59D1BDF80C303848C3F38311C6
:10690000062928BF062161F3891302318900ADF8F9
:106910000C3002F01EFD0746002846D002F048FD6C
:106920000023082203A9384602F055FD0026BDF8D1
:106930000C20C2F38312B300964203F10803BCD2C9
:1069400002994A1C21400331029205EB8101042285
:10695000384602F040FD0136E9E7384602F02CFDEA
:10696000FFF72AFF80F00100C6B2B1E7E3685B7968
:1069700023B1236839461B6820469847E3681C68A2
:10698000002CF3D1384602F017FD0DF107008DF809
:10699000074000F067FDD5F818340BB9029B6B6017
:1069A0009DF8070000F082FDDAE7D5F8104454B9ED
:1069B0000C4B0D480D49C01AC008000440F00200FD
:1069C00000F06EF8CCE7236820469B689847E368A0
:1069D0001C68ECE700267BE7D4230020ECFD0200D6
:1069E000E023002000FE020028FE020038FF020023
:1069F0002DE9F74F284C80460F46924601A9012207
:106A000018469B46D4F80890FFF7EAFD80B3019D35
:106A10000026A91C5E4506EB010233D100211F4868
:106A200001F007FF80F310006A1C02EA090204EB80
:106A30008202000405EA0903033340EA1840D060EB
:106A400014F8232068F3C50204F8232034F8232027
:106A500066F3891224F8232054F8232067F39F2239
:106A600044F8232002F0F80242F0010204F8232047
:106A700094F820341BB1FFF7A9FE0028FBD103B026
:106A8000BDE8F08F09EA020204EB82025AF82630D0
:106A9000D3600136BEE700BFD4230020F0270020DA
:106AA00000231A46FFF7A4BF07B50123019201AAEC
:106AB000FFF79EFF03B05DF804FB07B5CDE90023A7
:106AC00002236A46FFF794FF03B05DF804FB1FB58D
:106AD000CDE90123069B039301AA0323FFF788FF57
:106AE00005B05DF804FB1FB5CDE90023069B0293BA
:106AF000079B03936A460423FFF77AFF05B05DF80E
:106B000004FB000030B50F49D1F8102400231446CF
:106B10003CB9C468237152B9C1F810042260184608
:106B200030BDE46825799D4206D02468F0E7D2683C
:106B3000116821601060F2E701330A2BE7D14FF0B2
:106B4000FF33ECE7D4230020094A38B50123D2F8FB
:106B5000104482F820341D4604B938BDE3685D71E5
:106B6000236820465B689847E3681C68F4E700BF29
:106B7000D4230020037A052B10B50C460FD0437A9E
:106B800023B1084A0849204601F013FF074920466F
:106B900001F00FFF2046BDE8104001F0FFBE002AC3
:106BA000F8D0F3E783FF0200EF160300A5FF020011
:106BB000C38873B504460D4633B1144A0092144994
:106BC000144A284601F0F5FE217A05291CD0637A83
:106BD0004BB1A088FFF7DAFD0F4B104953F8202086
:106BE000284601F0E6FE227A0D4BA08853F8226079
:106BF0000021FFF7AFFD0B4903463246284602B09D
:106C0000BDE8704001F0D5BE02B070BD83FF020048
:106C100090FF020088FF020050FF0200EF16030001
:106C2000B4FF0200A8FF02002DE9F04385B01F4623
:106C30000C9D002306460C46904695F80C902B734D
:106C400029463846FFF7B4FFB8F1060F09D8DFE848
:106C500008F00412181F283340003146284601F07E
:106C6000A8FE002229463846FFF784FF85F80C90DD
:106C700005B0BDE8F08322683146284601F099FE50
:106C8000EFE7D4E900233146284601F092FEE8E719
:106C9000A36800933146D4E90023284601F089FE19
:106CA000DFE7E3680193A36800933146D4E900234A
:106CB000284601F07EFED4E723690293E36801933E
:106CC000A36800933146D4E90023284601F071FE01
:106CD000C7E76369039323690293E3680193A36899
:106CE00000933146D4E90023284601F062FEB8E75C
:106CF00008292DE9F84F80460E4617461C463AD81B
:106D0000002593F80C901D7319461046FFF750FFAD
:106D1000DFF884A0DFF884B0AE422ED918F8052041
:106D20005946204601F045FE0135082DF4D1184999
:106D3000DFF86CB0204601F03CFE4FF0000A5645EB
:106D400020D918F80A507E2D03D8284608F046FFAF
:106D500000B92E252A465946204601F02AFE0AF19E
:106D6000010ABAF1080FEAD1012221463846FFF79D
:106D700001FF84F80C90BDE8F88F5146204601F0E1
:106D800018FED1E70349204601F013FEE7E700BFF4
:106D90007EFF02007CFF02007AFF020074FF020007
:106DA00080FF0200C30710B507D4F0234008054A4E
:106DB000145C23401943115410BD0901C9B20F23BB
:106DC000F4E700BFC028002030B5094B1C78094B00
:106DD000196800239C4202DC0022104630BD11F8E5
:106DE0003350854201EBC302F7D00133F2E700BF15
:106DF00090280020D028002070B504460D46FFF7EB
:106E0000E3FF30B1436823B129462046BDE8704016
:106E1000184770BD034B044819680022490800F068
:106E200032BA00BF942800209828002010B5C0B2C4
:106E3000FFF7CAFF0446007803F00EF863785A1E85
:106E400053425341834208D1044BD3E900231343F7
:106E500003D1BDE81040FFF7DDBF10BDB82800200A
:106E600037B54308364AD35CC2074CBF1B0903F051
:106E70000F0304460D46042B36D8DFE803F0032643
:106E80002D393D0081B30121FFF78CFF00230DF167
:106E900007008DF8073000F0E5FA0122A4F1200385
:106EA000C4F12000274902FA03F322FA00F0034359
:106EB00002FA04F4D1E9002014430343C1E900437A
:106EC0009DF8070000F0F2FA0EE0002918BF022139
:106ED0002046FFF767FF07E041B10321FFF762FF9C
:106EE00001212046FFF788FF03B030BD0121EFE705
:106EF0000029F9D10421EBE709B10321E8E7FFF705
:106F000051FF29462046FFF777FF0DF107008DF866
:106F1000075000F0A7FA0122A4F12003C4F12000D9
:106F2000084902FA03F322FA00F0034302FA04F4D8
:106F3000D1E9002022EA040420EA0303BEE700BFEF
:106F4000C0280020B82800202DE9F041124E134F30
:106F500000243378A34208DC114BD3E90023134308
:106F600018D0BDE8F041FFF755BF3D6805EBC408F8
:106F700015F8340002F070FF98F801104B1E5942CA
:106F800059410A1A514215F834005141FFF768FF80
:106F90000134DEE7BDE8F08190280020D0280020F1
:106FA000B8280020092AF7B505460C4616463DD9F3
:106FB00002F090FED8B11E4B1E481D601E4B1F4FA5
:106FC0001C701F4B002110221E6008F070FE1D4B2C
:106FD00000200021C3E90001013CE4B20326FF2C9C
:106FE0000BD1194A1948002100F042F903E002F0E0
:106FF00039FE0028DFD003B0F0BD20B29DF8063086
:107000008DF8046005EBC00223F007038DF806300D
:1070100001A9937815F830008DF805303A4602F052
:1070200063FE013CE4B20028D9D0E4E70720E2E7A0
:10703000D0280020C0280020902800202D6E0200BB
:1070400094280020B8280020496F02001400030093
:1070500070B5084D084E00242B789C4201D30020C7
:1070600070BD3368012113F8340002F0B1FE013421
:10707000F2E700BF90280020D02800201FB5002193
:10708000039001AA44F20100CDE9011100F004F8D7
:1070900005B05DF804FB000010B572B6FFF754FDB3
:1070A000FFF794FB0028FBD1104B114C1149E41A57
:1070B000E408240444F00100FFF7F2FC0E4B1B68C7
:1070C000DB0700D500BE0D4944F00200FFF7E8FCE5
:1070D000BFF34F8F0A490B4BCA6802F4E0621343B7
:1070E000CB60BFF34F8F00BFFDE700BF00FE020083
:1070F00028FE020023000300F0ED00E02F00030053
:1071000000ED00E00400FA05D0E90223D1E9020114
:10711000994208BF90422CBF012000207047000018
:107120002DE900480C4800F0F4FA0C4BD3E9002399
:1071300012EB000B43F1000C094BD3E900239C45F3
:1071400008BF93455846614603D21BF180704CF14D
:107150000001BDE8008800BF80220020D828002060
:107160005029002037B505460C460A4801A901F010
:1071700094FA60B10570446001A9064801F0B7FABD
:1071800018B1054800F0CAFA002003B030BD042051
:10719000FBE700BF3C29002080220020194B1B7810
:1071A0002DE9304804461BB900252846BDE8308843
:1071B0000028F9D0037F03F0FF05002BF4D0FFF780
:1071C000AFFFD4E90223994208BF904215D3236947
:1071D00003B92377D4E90530984721690029E3D022
:1071E000237F03F0FF05002BDED0D4E9022312EB4E
:1071F000010B43F1000CC4E902BC2146024802F035
:107200005CF9D2E7E02800204000030013B5114BE1
:1072100011491868019008235822104801F008FA13
:10722000044698B90E4A0F4801A900F063F90446D4
:1072300060B901210B4800F04FFA01230A4A0948BE
:10724000194600F0B5F9094B01221A70204602B028
:1072500010BD00BF3C000300E42800203C290020B2
:10726000D172020080220020FFFF7F00E028002072
:107270003AB103685A614A1E5142514119610020D6
:1072800070470720704738B5037F04460D4683B921
:107290008261FFF745FF421941F10003C4E902236F
:1072A000236903B1256121460020BDE83840FFF77E
:1072B00059BF002038BD0023014603770120FFF7A6
:1072C00051BF0000014800F024BA00BF8022002016
:1072D0002DE9F04F85B0074600F006FA40B1594A53
:1072E000D2E9003113F1807341F10001C2E90031AC
:1072F0000021384600F007FA38B1534C236823B117
:107300002068FFF74BFF002323600121384600F07F
:10731000FAF920B1FFF704FF4C4BC3E9000103A9C0
:107320004B48494D4B4C4C4E01F0F1F9002845D1EA
:10733000DFF820A1444CDFF828B1504602F0D3F822
:107340002368002875D07BB12368D0E90201D3E916
:107350000223994208BF90422DD223681B7F1BB1A4
:107360002168504602F0A9F8504602F0B6F8D0E97C
:10737000026305460193FFF7D3FE019BB6EB0008BD
:1073800063EB0109B8F1010F79F1000344DB334EDF
:10739000B0453FD9FFF796FF82194FF496030021BD
:1073A000584600F025F900283ED1236813B9384625
:1073B00000F0F6F8256005B0BDE8F08F0378012BEA
:1073C0001DD05BB1022B11D14FF0000A204602F014
:1073D00084F8002833D080F81CA0F7E741680B7FC1
:1073E00023B901230B77204602F067F803A9184858
:1073F00001F0B8F903A9164801F089F996E7416848
:107400002B68994202D100232B60EFE7204602F05F
:107410006DF8EBE7AA68C0E70021584600F069F96B
:107420002846FFF7BBFE01E00D28F9D000232360BA
:1074300083E7002BBFD1384600F0B6F8BBE7012345
:107440003370D3E7D8280020582900205029002085
:107450003C29002040000300E0280020FFFFB4008A
:107460008022002070B5EFF3108672B60C4A946843
:1074700001239CB993600B4B0B4DD3F8801029402E
:107480001160C3F88050D3F8841051604FF0FF3280
:10749000C3F88420047006B962B670BD0370FAE7C1
:1074A0005C29002000E100E0FC06FFBD084B9A6863
:1074B00010B55AB150B9EFF3108172B6054A1C6885
:1074C00014605C685460986001B962B610BD00BF7A
:1074D0005C29002000E100E0435882B03BB100236A
:1074E000435043580193019B012002B07047184656
:1074F000FBE70000F8B5224B4679224D43F82620E1
:10750000214A224BF7009B1AEA19DB0812791B0467
:1075100032B143F002001E49FFF7C2FA0820F8BD5D
:1075200002680C88C2F8084590F904208978002A7E
:10753000A8BF02F1604CD4B2BABF04F00F0EDFF85E
:1075400058C00CF5614C4FEA4111C9B2B4BF0CF8F8
:107550000E108CF8001352090121DFF840C004F02E
:107560001F042F4401FA04F44CF82240397145F805
:107570003600084943F00300FFF792FA0020CEE7F7
:10758000702900206829002000FE020038FE020059
:10759000660003008800030014ED00E000E100E055
:1075A000036801221A607047036801225A6070471D
:1075B00073B501F15005AD000068ADB24FF48034F1
:1075C0008C400026C0F80843C0F84843465101F5F6
:1075D000A8714559019522F07F42019D40F8212074
:1075E000C0F844430BB1C0F8044302B070BD0000C2
:1075F0002DE9F74F884699464FF48036036808F125
:1076000050058E404FEA880AAD00C3F84863ADB21A
:10761000C3F80863074603EB0A00D3F804154FF0DC
:10762000000B22F07F44D0F84025C0F8401543F805
:1076300005B05B590093009B531A23F07F43012B45
:107640000BD1244B4FF4806043F0010398473B6813
:1076500043F805B05B590193019B3868D0F8045595
:10766000C0F84463631B23F07F43012B1AD108F554
:10767000A878184B013440F8284043F001034FF438
:10768000806098473B68D3F804359D4208D13B6839
:107690000020C3F84463C3F8046303B0BDE8F08F6F
:1076A0000D20FAE78244C9F1FF19CAF84045D0F825
:1076B0000435E21A013A22F07F4209F57F499145EB
:1076C000EED3002AE3D10134CAF84045D0F80425AE
:1076D0009342DBE76000030003680222C3F84423FF
:1076E00009B1C3F8042370474FF482710068FFF7B3
:1076F000F3BE4FF4803303FA01F10368C3F8481373
:10770000C3F8081370475031890089B20068FFF749
:10771000E3BE0368D3F804057047000090F9043015
:1077200001215A0903F01F0301FA03F34032024911
:1077300041F82230704700BF00E100E0024B034AED
:107740001B681068184700BF7029002068290020B6
:1077500070B5064D0646002455F8043B0BB1304683
:1077600098470134042CF7D170BD00BF8029002058
:10777000033080B240F2FE33984230B51FD8134B2D
:107780001A783AB91C895D892C440444A4B2B4F532
:10779000806F0AD91A7DAAB99A8BDC8B22440244E5
:1077A00092B2B2F5806F0DD801220A8014461422DD
:1077B00002FB04335A8910445881002030BD48F23E
:1077C0000860FBE748F20660F8E700BFB429002034
:1077D0000B4A0C4B5188142000FB0131CB6833B9A4
:1077E0000420496810700122074801F065BB052399
:1077F0000649137002238B80012200230968F3E7F6
:1078000098290020B4290020502200207C2A002042
:1078100007B5002305490093054A09680548082370
:1078200001F0B4FA03B05DF804FB00BF7C2A00202D
:10783000A80003005022002007B500230093014652
:107840000823034A034801F0A1FA03B05DF804FBE2
:10785000A00003005022002013B500230C46009323
:1078600001460423074A084801F090FA38B9074B4B
:10787000142202FB04340123237402B010BD48F229
:107880000D60FAE79C00030050220020B42900207C
:1078900037B50A480A4B42689C8819685388032503
:1078A000033305709BB2002000909B0001EB840124
:1078B000044801F06BFA03B030BD00BF98290020E6
:1078C0007C2A00205022002010B50146044800F018
:1078D000E4FE1C220446002108F0E9F9204610BD10
:1078E000682A002068B10268084B9A4209D14068B2
:1078F000074B984207D0013398420CBF0120032068
:107900007047032070470020704700BFDEC0ADDE27
:10791000FE011EF14388033300EB830399420BD32E
:1079200082884FF6FF739A4208D0038833B180688B
:10793000431C58425841704702207047012070474D
:107940002DE9F8430223DFF860800B800D461746CF
:1079500000F5805600F108044FF00109B4420FD23F
:10796000236801330CD031462046FFF7D3FF48B1DE
:107970000FB187F8009002280BD14FF480632B8061
:10798000BDE8F883A368D8F80020934201D9C8F86D
:1079900000302B886288033313442B8063880333C1
:1079A00004EB8304DAE700BFAC290020154A142356
:1079B00003FB002070B50B6844680D4604F5805643
:1079C000ABB15C88033403EB8404B4420DD223686A
:1079D00001330AD031462046FFF79CFF01280BD027
:1079E00010F0FF0F05D00228EFD1002003E008348B
:1079F000EBE72C60012070BD6388033304EB830444
:107A0000E3E700BFB4290020436873B504460D4680
:107A10006BB3244AD1688B4229D31269934226D88A
:107A200013F0030023D1204A2189128991421ED1EB
:107A300021689A6891421AD11C4A51688B4203D935
:107A400001F580518B420DD3926993420CD902F516
:107A50008052934208D201232B80B0FA80F0400973
:107A600002B070BD0346F7E748F20960F5E700236E
:107A70002B801E46019601A92888FFF797FF30B991
:107A80002B8801339BB2012B2B80F3D9E8E7019BB4
:107A9000226899689142EED16360034B1B89238170
:107AA000DEE700BF5022002098290020B4290020E2
:107AB0002DE9F8431C461D4B1B7806460F4615461C
:107AC00073B382B37CB3DFF86C804FF01409A388E2
:107AD000012B02D948F2096020E009FB03F318F8F2
:107AE00003302BB92146A088FFF760FF20B9206042
:107AF000A3880133A380EAE723681EB199883288FE
:107B00009142EFD11FB119883A889142EAD19A681F
:107B1000C5E90023064B1B892B810020BDE8F883B3
:107B200048F20160FAE748F20460F7E79029002084
:107B300098290020B429002008B5074B191D588842
:107B4000FFF734FF18B1BDE80840FFF7A1BEBDE85C
:107B50000840FFF73DBE00BF982900202DE9F04FF7
:107B6000A34FDFF8B09289B00646B8463B6823B908
:107B70004946A04800F0CBFD3860D8F8005029787D
:107B80004B1E052B00F2FE80DFE813F006006000BC
:107B90006000F200F20064012EB1974B00225A609F
:107BA0004FF40644F0E02B79032B1DD8DFE803F0F7
:107BB00015022B3691490B78022B08461AD00B7D03
:107BC000022B4FF0010317D114225343C218002097
:107BD000C8545068FFF730FE03E001232B71FFF714
:107BE00017FE002800F0BE80834B00225A6048F246
:107BF0000D64C9E00023E7E77F4A13700023536058
:107C000041F61D54C0E07E497E48002302222B71BC
:107C10008A800122096801F04FF9E2E7784C0026DA
:107C20002E712068754DFFF707FE774BD4F800C022
:107C30005A8814235343EA18EE5451682160A188EE
:107C4000C2F804C011810222A280CAE7B5F814A0CC
:107C5000AA7DDFF8A8B1AEB1022AEB8806D91421BB
:107C600001FB0AB1DA1C088902440A81142202FBD2
:107C70000ABAC3F57F43BAF80A20FD331344AAF8C1
:107C80000A308DE7142303FB0AB318895C6804EB00
:107C90008004062A69D8DFE802F0274E36441D5AD0
:107CA000040041F61D54AA7DEB88022A06D914214E
:107CB00001FB0AB1DA1C088902440A81142202FB82
:107CC0000ABAC3F57F43BAF80A20FD331344AAF871
:107CD0000A3059E04D484E4900234360AB690360C8
:107CE000FFF792FE002874D00223AB7500230093A7
:107CF0000423EA182146434801F048F8002831D00F
:107D000048F20D64CFE72B69002B14BF0323012336
:107D1000AB750023009305F10C02042304F1080164
:107D2000E9E70123AB750022EB8800929B002A69EA
:107D300004F10C01DFE703290CBF05230623AB7513
:107D400000230093042305F10802E118D3E706237A
:107D5000AB752F4B19882D4B5868FFF77DFD0446F6
:107D60000028A0D109B0BDE8F08F48F20E649AE770
:107D7000002E7FF415AF2B79012B4DD0EBB1022BE8
:107D80003FF43EAF48F20E641422002103A807F02E
:107D90008EFF41F61D539C4208BF0024D8F80030E6
:107DA00004941A78023A042A00F20881DFE812F0FB
:107DB000E900F50018012001270102232B710DF1C4
:107DC0000A01EB68039303A8CDE90466FFF71CFEE4
:107DD00010B948F20964D7E70498BDF80A108388FF
:107DE000EB8003882B81FFF737FD044629E000BFB5
:107DF000B0290020682A002090290020B429002002
:107E00007C2A00205022002098290020742900207C
:107E1000882A0020A8290020DFF800A203AA5346E0
:107E20003146A81DFFF744FE044668B9BAF80410AD
:107E30000498FFF711FD044648F209639C423FF4A1
:107E4000DFAE002CA0D18DE708223146504607F066
:107E50002EFFF1E7002E7FF4A3AE6B4B1A7BAAB185
:107E60001E731A78013A062A8CD801A151F822F023
:107E7000177F02003D7F02005B7F0200617F0200EE
:107E8000857D0200677F0200797F02001A78072A49
:107E9000E7D801A151F822F0B97E0200637E02000A
:107EA000637E0200DF7E0200F37E0200137F020089
:107EB000137F0200DB7E02001A89544901321A81C5
:107EC00000225A801A730A78B2FA82F252099A7220
:107ED0000A7DB2FA82F25209DA72012207E04C49B5
:107EE00058688A884088033202448A8002221A70C5
:107EF000B7E7464C5A884649142505FB02420868F4
:107F0000546850608888108102228A800C600622A2
:107F1000EDE70722EBE79A7A32B9DA7A8AB90022DA
:107F20001A705A805A606BE6384900229A72CA6801
:107F3000002AF2D1097C0029EFD05A80FFF7FCFD1E
:107F400053E70022DA72314A116A0029E7D192F828
:107F50002420002AE3D00122EFE7FFF799FC44E751
:107F6000FFF736FC41E7294A5B88142101FB032314
:107F70005868FFF761FC38E700225A60FFF748FCB9
:107F800033E701228DF80C201A89ADF818209A8861
:107F9000DB68ADF81A20059310E002228DF80C2062
:107FA0001A89ADF818209A88ADF81A20DA689B7DF6
:107FB00005929A1F534253418DF81C3003A8FFF7D6
:107FC000C7FB002649461348C8F8006000F0CAFB0A
:107FD0000121114800F079FC00287FF4C7ADC1E60B
:107FE00003228DF80C20DA88ADF818201A89CFE723
:107FF0000422DB888DF80C20ADF81830DEE705236D
:108000008DF80C30DAE700BF98290020B429002051
:108010007C2A0020682A0020782A00208C2A002050
:108020004068FFF79BBD000008B50121044800F03F
:1080300036FC18B9BDE80840FFF790BD08BD00BF89
:10804000782A00202DE9F3419846374B1B780646E5
:108050000D46002B5CD000295DD009884FF6FF73D8
:1080600099425BD06B88002B58D06B689B0758D126
:108070004AB92F890DF102013846FFF779FB30B17B
:1080800002B0BDE8F08113885788ADF8023001A82E
:10809000FFF71AFC044660B9BDF80230234A1421E8
:1080A00001FB032358890338C01B588148F207603D
:1080B000E6E700238375BDF8023083826B680361B5
:1080C00080F8008001211A4800F0F4FB2B882381FE
:1080D000B8F1030F6B88A38004BF0423A3754FF08E
:1080E000000508BF3368E06008BFA361E7806581D1
:1080F00001A9104800F0FBFA36B1E36833600E4B7B
:1081000075601B89B5723381FFF78EFF0020B7E7DA
:1081100048F20160B4E748F20460B1E748F2036056
:10812000AEE748F20260ABE790290020B4290020B6
:10813000AC290020682A00209829002008B5084BA7
:108140001A68042A09D01968064A42F82100012158
:10815000184600F0AFFB002008BD48F20B60FBE7BB
:10816000842A0020802900202DE9F04F89B01422B4
:10817000002103A807F09BFD784A137803F0FF0164
:10818000009190463BB103A8FFF7E2FA002738467A
:1081900009B0BDE8F08F101D00F0A2FB0028F5D15A
:1081A00040F6F8734FF080521B685C1C08BF6C4BA4
:1081B0006C4C08BF1B6811695269581C08BF02FB50
:1081C00001F323610022A3F540536749E360204691
:1081D00000F0A8FD019407460028D8D11C238C226A
:1081E00062496348DFF89CB100F022FABA463D4686
:1081F0004FF003093C46019BDE6856443046FFF7CA
:1082000071FB012860D042B2002A4AD0032827D14E
:108210003268531C02D0574B9A4234D1321D06F5B6
:108220008051106801302ED104329142F9D1DBF82F
:1082300000203AB902220123CBF80060ABF80420F9
:1082400000930BE0142262434B4B02209918985480
:108250004A4A4E60548001340881A4B245F00105B9
:108260000AF5805ABAF5405FC5D1B9F1010F98BF40
:108270000025EDB2022D03D0062D44D0002D4CD1A7
:1082800048F20A6783E73C4914226243881809F1DF
:10829000FF394660032088541FFA89F90134A4B2DB
:1082A000DEE735491420604301EB000C0A5400F16D
:1082B000100208300A44CCF8046001443046FFF74D
:1082C0003FFB45F00205E9E7009B6BB12A4B142206
:1082D0006243991802209854DBF800204A60274A2C
:1082E000088154800134A4B200222549CBF80060F3
:1082F0003046FFF725FBBBF80420022A0CBF0422FE
:1083000008221543ACE7012388F8003003A80023B6
:10831000C8F80430FFF71CFA39E702A8FFF7D4FACF
:10832000C8B10123013D03700A2D09D8DFE805F02B
:1083300006080608070807080F110F00002303713D
:1083400002A90B4800F0D3F9FFF76EFE1FE70323E5
:10835000F5E70223F3E748F2076718E790290020C2
:1083600014100010502200209C020300DC29002081
:10837000682A0020DEC0ADDEB42900209829002044
:10838000802A00207C2A002073B50D460446C8B11F
:10839000C1B10DF10601FFF737FBB0B10C4BBDF8D1
:1083A00006006668142202FB003001210C3000F048
:1083B00081FA63682E600C336B600123A372002086
:1083C00002B070BD48F20460FAE748F20960F7E7CE
:1083D000B429002013B50446A8B10DF10601FFF73A
:1083E00013FB98B10C4ABDF80630142101FB03239E
:1083F000DA6872B1A27A62B1DA680020013ADA6012
:10840000A07202B010BD48F20460FAE748F20960B9
:10841000F7E748F20560F4E7B429002002230022C0
:10842000FFF710BE18B103230022FFF70BBE48F27E
:1084300004607047114B1B7813B50446ABB14FF67F
:10844000FF73984214D001A8FFF73EFA98B10523B4
:10845000037001230371C48001A9094800F047F9A2
:10846000FFF7E2FD002002B010BD48F20160FAE71C
:1084700048F20360F7E748F20760F4E7902900202C
:10848000682A00200F4B1B7807B5A3B101A8FFF79E
:108490001BFA98B10623037001A90B4800F027F9D5
:1084A0000A4B1A780AB101221A73FFF7BDFD0020AA
:1084B00003B05DF804FB48F20160F9E748F2076099
:1084C000F6E700BF90290020682A002098290020A4
:1084D00007B5ADF80600ADF804100DF1060001A9CE
:1084E000FFF7E6FA03B05DF804FB07B51346ADF8F5
:1084F00006000A4600200DF10601FFF7D9FA03B085
:108500005DF804FB07B51346ADF806000A460DF109
:1085100006000021FFF7CCFA03B05DF804FB20B1A0
:1085200019B103680B600020704748F2046070477F
:108530002DE9F84F3C4B1B780446002B6ED00028E9
:108540006FD012220021DFF8E4A007F0B0FB032374
:1085500023804FF0000BD04614274FF00109DAF8C2
:108560000410BAF80A50BAF808600846FFF7BAF9DA
:10857000032808BF2388628804BF03F1FF332380E8
:1085800007FB0B832E44DB681344638023891D445F
:1085900063892581B6B233446381C6F58066A389B9
:1085A000B6B2B34238BFA68101F1080501F5805685
:1085B000AE4217D92B68013314D031462846FFF755
:1085C000A9F9012819D010F0FF0F23D00228EFD10C
:1085D000E38884F81090761BE589013305EBA60546
:1085E000E380E5810AF1140ABBF1000F02D00020FC
:1085F000BDE8F88F4FF0010BB1E7E3880133E3806A
:10860000E3896A8803331344E3816B88033305EB02
:108610008305CDE7A3880133A380F6E748F2016024
:10862000E6E748F20460E3E790290020B42900203F
:1086300010B561B1B2FBF3F403FB1424A4B244B946
:10864000C0E9001484608281C381204610BD0E20E1
:10865000FCE70920FAE782B050E8022FC188B2EBAC
:10866000324F4FF0000317BF92B241EA014142EA94
:10867000014104E04268B2EB324F08BF012340E8F9
:108680000212002AE8D18DF807309DF80730002B40
:108690000CBF1120002002B0704737B550E8013FF1
:1086A0009DB2C48925448489A54228BF2D1B048915
:1086B000A54202BFBFF32F8F002207E0C5EA0305E2
:1086C00040E80154002CE9D14FF001028DF803205D
:1086D0000193019B9DF803200B6002F0FF0322B180
:1086E0000B880068184403B030BD1846FBE70A88C1
:1086F0004B889A4209D150E8012FC2EA024240E871
:108700000123002BF7D1012070470020704737B5B7
:1087100050E8023F1FFAA3F5C488A54202BFBFF389
:108720002F8F00220DE0C48925448489A54228BFEB
:108730002D1BC3EA054540E80254002CE8D14FF058
:1087400001028DF803200193019B9DF803200B602B
:1087500002F0FF0322B14B880068184403B030BD1B
:108760001846FBE70A884B889A4209D150E8022F45
:10877000C2EA224240E80223002BF7D101207047D1
:108780000020704701F01F024B090121914000EBCE
:10879000830000F063B84B0910B501F01F040121FC
:1087A000A14000EB830000F04EF8E04000F0010033
:1087B00010BD01F01F0301229A404B0900EB83001A
:1087C000D14300F061B84B0901F01F0150F82300BC
:1087D000C84000F0010070472DE9F0474E1E7609B1
:1087E00080460F460136002558F8254008EB8509DC
:1087F000E44394FAA4F4B4FA84F44FEA451A202C22
:1088000006D10135AE42EFD83C462046BDE8F087A0
:108810005444A742F5D921464046FFF7BCFF002843
:10882000F3D0D9F80040E44394FAA4F4B4FA84F401
:10883000E5E750E8002F0B4640E8003C9CF0000FB5
:10884000F7D11046704750E8002F42EA010340E894
:10885000003C9CF0000FF6D11046704750E8003FF6
:1088600043EA010240E8002C9CF0000FF6D11046CC
:10887000704750E8002F02EA010340E8003C9CF0FA
:10888000000FF6D11046704750E8003F03EA01029E
:1088900040E8002C9CF0000FF6D11046704750E8DD
:1088A000002F02EB010340E8003C9CF0000FF6D1E2
:1088B0001046704750E8003F03EB010240E8002CEF
:1088C0009CF0000FF6D11046704750E8003FA3EB34
:1088D000010240E8002C9CF0000FF6D110467047D2
:1088E0000121FFF7B0BF0121FFF7B8BF0021FFF75B
:1088F000C0BF10B590B1D0E9012301689B1ADBB26B
:108900000A60013BDBB2FF2B026802D1002010712C
:1089100010BD11684C1C14600B70F2E70E20F7E7D5
:1089200037B5054600240DF107008DF80740FEF726
:1089300099FD2A686B68116899420ED9481E10602B
:1089400011F8014CEB68298A01FB0434AB681179FA
:108950001B1ADBB2994238BF13719DF80700FEF76E
:10896000A5FD204603B030BD37B5054600230DF107
:1089700007000C468DF80730FEF774FD2A6813686F
:10898000591C1160E968641A298AB4FBF1F41C705F
:108990009DF80700FEF78AFD03B030BD826810B570
:1089A00004462AB143690168006998470023A3601F
:1089B00010BD0EB403B5039921B104AB01AA019314
:1089C00000F074F802B05DF804EB03B070470A29B8
:1089D00038B504460D4602D10D21FFF7F8FFA36814
:1089E0002268591CA160D554D4E901329A4204D3BB
:1089F0002046BDE83840FFF7D1BF38BD2DE9F84F1C
:108A00009946DDE90A431746824688460A4601260A
:108A1000BA420FD24E4538BF4E4613F0010B01D17A
:108A200064B900240125B9F1010F1AD909F1FF3900
:108A30007D43F8E7B2FBF7F20136E9E79B070ED575
:108A4000B9F1000F0CBF30252025A642EAD2013C27
:108A500029465046FFF7BBFF002CF6D1E1E7202561
:108A6000F3E7B8FBF5F39F42E2D9DFF83C90B8FB9F
:108A7000F5F3504619F8031005FB1388FFF7A7FF1D
:108A8000B5FBF7F3BD4207D2BBF1000F02D00CB12A
:108A9000A64203D3BDE8F88F1D46E8E720215046E3
:108AA000013CFFF794FFF2E7B00003002DE9F74F18
:108AB000054617468846002900F0308118F8011B4A
:108AC00049B92B7B002B00F02981284603B0BDE873
:108AD000F04FFFF763BF252940F0C080002698F8CB
:108AE00000302D2B424608F1010823D0302B24D032
:108AF0002B2B25D000242A2B02F1010123D13B6826
:108B00001A1D1B683A601C440A4613782E2B26D186
:108B100001324FF00009104610F8011BA1F1300C92
:108B2000BCF1090F1DD80A2303FB0913A3F1300977
:108B30000246F0E746F00106D1E746F00206CEE72E
:108B400046F00406CBE711F8013CA3F130000928F8
:108B5000DBD80A2202FB0434303C0A46CBE74FF054
:108B6000000912F8011B01F0FB0068289046F8D0BC
:108B700069290ED04AD8582964D006D825296DD045
:108B800098F80030002B99D19BE7632962D06429C3
:108B9000F6D13A68D2F800A0111D8AEAEA7239606B
:108BA000A2EBEA724FF0010B092A5BDCCB4538BF20
:108BB000CB462CB1BAF1000F01DB720700D5013CA6
:108BC000B30702D5B9F1000F04D0F00702D4002C8E
:108BD0004ED10024BAF1000F52DACAF1000A2D2159
:108BE0002846FFF7F4FE06F00302022A05D1B9F188
:108BF000000F02D1002C47D10024CDE900464B469E
:108C00000A2251462846FFF7F9FEB9E773294CD0EE
:108C100014D87029B4D13B681A1D3A603021284617
:108C20001C68FFF7D4FE78212846FFF7D0FE00220B
:108C30000823CDE9003221461022E3E775292BD025
:108C400078299DD139680A1D3A60CDE900464B4626
:108C5000102228E03B681A1D19783A602846FFF771
:108C6000B6FE8DE70A230BF1010BB2FBF3F29BE793
:108C7000A345AFD220212846013CFFF7A8FEA6E776
:108C80007107B0D52B21ABE7A345B6D230212846DA
:108C9000013CFFF79CFEADE73968CDE900460A1DAF
:108CA0003A604B460A220968ACE73B681A1D3A60F5
:108CB00016F00106D3F800A020D1BAF1000F03D0BE
:108CC000504607F027F80646B44200D9C4B90AF165
:108CD000FF3A1EE028460136FFF779FE1AF8061023
:108CE0000029F7D1A642BFF44BAF002C3FF448AFA8
:108CF00020212846013CFFF76AFEF3E70026EDE756
:108D000020212846013CFFF762FEDDE72846FFF7F9
:108D10005EFE1AF8011F0029F8D131E703B0BDE863
:108D2000F08F000007B50B4688B9124B1248134A62
:108D3000C01A0E23C0080093114B0004114940F0E3
:108D40000100FDF7C4FE0E2003B05DF804FB4BB933
:108D5000084B09480C4AC01AC0080E2300930004AF
:108D6000074BEBE703601B68114603B05DF804EBAB
:108D7000184700BF00FE020050FE02006D01030014
:108D8000C000030072010300E90103002DE9F34173
:108D900088B93D4B3D483E4AC01AC0080E243D4BA1
:108DA000009400043C4940F00100FDF790FE20468D
:108DB00002B0BDE8F0814AB9334B3448374AC01A93
:108DC000C0080E2400040094324BEBE7D0F800C03A
:108DD000BCF1000F09D12C4B2C48314AC01AC008F5
:108DE0000824000400942B4BDCE74BB9264B2748A2
:108DF0002C4AC01AC008092400040094254BD1E76E
:108E00004768D7F80480B3FBF8F708FB17374FB172
:108E10001D4B1E48244AC01AC008092400040094AF
:108E20001C4BBFE78F0709D0174B18481F4AC01AC1
:108E3000C008102400040094164BB3E712F0030F8F
:108E400009D0114B11481A4AC01AC0081024000456
:108E50000094104BA6E7C768B9420BD34C1E0569B6
:108E60001C44AC4206D8DCF80C40A44602B0BDE875
:108E7000F0416047044B05480E4AC01AC008102450
:108E800000040094034B8DE700FE020050FE020038
:108E90006D010300D200030072010300EF01030023
:108EA000E3010300A2010300F50103001F02030018
:108EB000370203005A020300F7B580B92A4B2B484A
:108EC0002B4AC01AC0080E242A4B009400042A49D9
:108ED00040F00100FDF7FBFD204603B0F0BDD0F8E7
:108EE00000C0BCF1000F09D11F4B2048234AC01A13
:108EF000C0080824000400941E4BE8E74AB91A4B46
:108F00001A481F4AC01AC008092400040094194BCB
:108F1000DDE74768D7F800E00EF1FF370F4209D0D0
:108F2000114B1248174AC01AC008102400040094BC
:108F3000104BCCE7C768B9420CD34C1E05690EFB39
:108F40000244AC4206D8DCF81040A44603B0BDE8A9
:108F5000F0406047044B05480B4AC01AC008102473
:108F600000040094034BB2E700FE020050FE020032
:108F70006D010300E500030072010300E30103003B
:108F8000A2010300F80003001E01030029DF70475F
:108F900028DF704770B503689D6886B004460E46AA
:108FA0006DB114220021684606F081FEA368059386
:108FB000237901962BB1012B0DD06846A84706B046
:108FC00070BD01238DF8003023690293E368039399
:108FD00063690493F1E702238DF80030E3681B0313
:108FE0000293F5E70846704700207047024B187A55
:108FF000003018BF01207047302B0020034B187A37
:109000000122B0FA80F05A7440097047302B0020DA
:1090100008B510461A4606F021FE002008BD0000E3
:1090200008B514220021044806F041FE0348FFF76A
:1090300012FB002008BD00BF302B0020202B002099
:1090400010B5094C094B43602046FFF749FC40B975
:1090500006F09EFB1C2320748C2205490548FFF76F
:10906000E7FA002010BD00BF302B00209002030063
:10907000942A0020202B002070B5244C244E237A03
:1090800025463BB923492448FFF741FB306008B926
:10909000606070BD346802232B72237973B1012B99
:1090A00024D020460321FFF775FF00232B726B604D
:1090B00018491948BDE87040FFF754BBD4E90523AF
:1090C000D21AB2F5805F28BF4FF48052D4E9031062
:1090D0009208012A38BF012219441844FFF756FFAD
:1090E00050B11128DDD101232B72D2E7D4E903035B
:1090F0001844FFF74DFFF3E72B7C002BC9D1014645
:10910000BDE87040022000F009B800BF302B0020FD
:10911000482B0020442B0020202B002038B5831E34
:10912000012B45D8234C237A002B41D0022B09D1A7
:10913000032830D0204B1B680022E2601A793AB134
:10914000012A22D0637C7BBBBDE83840FFF794BF87
:10915000D3E905128D1AB5F5805F94BF521902F557
:1091600080529A619142EDD102284FF0000308BF6E
:1091700019462372104B18BF0D211868FFF70AFF1C
:109180000E490F48FFF7EEFADCE71A6901321A615F
:109190005B699A42E7E7E3680133082B01D8E36093
:1091A000D0E70023E360DFE7BDE8384006F0E0BA2F
:1091B00038BD00BF302B0020482B0020442B00205E
:1091C000202B002000F0FD03012B08D1044B0022CE
:1091D0005A74421E504250411874FFF74DBF7047F9
:1091E000302B002010B5064C201DFFF779FB28B965
:1091F000637C1BB9BDE81040FFF73EBF10BD00BF48
:10920000302B00202DE9F34180460D460F4801A97F
:1092100016461F46FFF741FA0446A8B11C2200215A
:1092200006F045FD2D0B0123237101A9C4F8008030
:10923000A760E56066610548FFF759FAFFF7D2FFBE
:10924000002002B0BDE8F0810420FAE7202B0020C6
:109250002DE9F74381468846104801A917461E4666
:10926000FFF71BFA0446B0B11C22002106F01FFDD7
:1092700000250A9BA36001A92571C4F80090C4E9E8
:10928000037866610548FFF732FAFFF7ABFF28461F
:1092900003B0BDE8F0830420FAE700BF202B0020D4
:1092A0002DE9F047B0F806904479D2F800A09DF877
:1092B000208009FB04F4043C06460AEB0300A042AC
:1092C0000F4688BFA4EB030A191DC2F800A0B1FB2A
:1092D000F9F509FB15114DB9A9EB0104544528BF57
:1092E0005446BAF1000F04D1BDE8F0873668013D5D
:1092F000F1E704317B1970182246B8F1000F0ED047
:1093000001461846AAEB040A06F0A8FCD1452544FC
:1093100036684C464FF0000128BF5446E1E7194635
:10932000F0E7FFF7E6BAF8B546790146721E054642
:10933000002393422D6803D30024A64202D8F8BD2F
:109340000133F6E70F682846FFF70EFB0134394674
:10935000F3E72DE9F843068ACD1C0746FFF7E0FA4C
:10936000043E35440446B5FBF6F5F0B14FF4807386
:10937000EDB28380C680013D076081464FF0000852
:10938000A84512D23846FFF7CBFA064648B16379B2
:109390000133637108F10108C9F8000007608146D4
:1093A000EEE72046FFF7BFFF34462046BDE8F883CE
:1093B00001210430FFF77EBA10B5012104460430C4
:1093C000FFF783FA10F0FF0F04D12046BDE81040EC
:1093D000FFF7A9BF10BD1FB503920022009203AA98
:1093E000FFF75EFF05B05DF804FB1FB50392012295
:1093F000009203AAFFF754FF05B05DF804FB41DFBC
:1094000070470000064B10B500241C70054B1C6013
:10941000BFF35F8F0449054800F039F8204610BDBE
:10942000542B0020582B0020BC0203004C2B0020A2
:1094300007B500230DF107008DF80730FEF712F88D
:10944000F1EE103A23F09F03E1EE103ABFF35F8F85
:10945000094B4022C3F884219DF80700FEF726F847
:1094600006F096F920B1FFF7CAFF03B05DF804FBE0
:1094700020BF40BF20BFF8E700E100E08368002282
:109480005A609A60C3E90422DA601A6070470B6878
:109490004A684360934208BF0023016008BF4360ED
:1094A0007047436843B10268916852680B44934225
:1094B000436004BF00234360704770B544680646AC
:1094C0000D46206818B1B3682946984718B9236833
:1094D0002B60256070BD2468F3E74368186808B105
:1094E00002681A60704743681868704743681868D4
:1094F00000B97047884203D102681A6001207047A2
:1095000003460068F4E7000010B50D49A1F5947218
:10951000914201D800200FE08B1ADB1003EBD373CC
:109520005B1002EBC30452F83330834205D802D2F9
:1095300004F10802ECE7606810BD2146E8E700BFCF
:109540001804030008B5FFF7DFFF024B002808BF2F
:10955000184608BDDA0203000C4B1B78062B10D10D
:109560000B4B1B681A070CD10A4B186800F0F0036C
:10957000302B08D000F0E000A0F1400358425841E1
:109580007047002070470120704700BFE00F00F0D7
:10959000E40F00F0E80F00F0094B1B78062B0CD10C
:1095A000084B1B681A0708D1074B186800F0F00039
:1095B000A0F130035842584170470020704700BF67
:1095C000E00F00F0E40F00F0E80F00F008B5FFF73F
:1095D000C3FF28B17D4B7E4A1B68C3F3042313608D
:1095E000FFF7DAFF10B17B4B7B4A1A60FFF7B4FF3D
:1095F00028B17A4B7A4A1B68C3F342331360FFF7F2
:10960000CBFF20B1774AD36823F08073D360FFF794
:10961000A3FF40B14FF080430022C3F80C21C3F8F0
:109620001021C3F83825FFF7B7FF10B16E4B0322A6
:109630001A60FFF7B1FF40B16C4B05221A6001229E
:109640009A6700229A603F225A60694B1B78062B6A
:1096500050D1684B1B6819074CD1674B1B6803F04E
:10966000F003502B46D14FF08052644BD2F80414D3
:10967000C3F82015D2F80814C3F82415D2F80C1436
:10968000C3F82815D2F81014C3F82C15D2F8141406
:10969000C3F83015D2F81814C3F83415D2F81C14D6
:1096A000C3F84015D2F82014C3F84415D2F8241496
:1096B000C3F84815D2F82814C3F84C15D2F82C1466
:1096C000C3F85015D2F83014C3F85415D2F8341436
:1096D000C3F86015D2F83814C3F86415D2F83C14F6
:1096E000C3F86815D2F84014C3F86C15D2F84424B6
:1096F000C3F87025FFF730FF28B1414B414A1B6882
:1097000003F04F031360FFF727FF48B14FF080438A
:10971000D3F80024D20744BF6FF00102C3F800243D
:10972000394B1B68062B08D1384B1B68062B01BF31
:10973000374A136843F480631360364AD2F888309E
:1097400043F47003C2F88830BFF34F8FBFF36F8FBD
:109750004FF01023D3F80022002A03DBD3F80432A1
:10976000002B2FDA2C4B0122C3F80425D3F8002458
:10977000002AFBD04FF010221521C2F80012D3F8B6
:109780000024002AFBD04FF010231522C3F8042236
:10979000214B1A46D3F800140029FBD00021C3F84E
:1097A0000415D2F80034002BFBD0BFF34F8F1949BA
:1097B0001A4BCA6802F4E0621343CB60BFF34F8FC9
:1097C00000BFFDE7164B174A1A6008BD24030010BE
:1097D0004035014074C007400DF0ADBA440200109E
:1097E0003C050040F0ED00E0A005004010560040B0
:1097F000E00F00F0E40F00F0E80F00F000C00040C0
:1098000058020010E40E0040300100103401001036
:109810003C17004000ED00E000E001400400FA05C4
:10982000882200200090D003054A4FF0A043105C2E
:10983000D3F8043523FA00F0C04300F0010070476C
:10984000D6070300044B1A5C012393404FF0A0425B
:10985000C2F80C35704700BFD6070300044B1A5CF2
:10986000012393404FF0A042C2F80835704700BF73
:10987000D607030008B50020FFF7F0FF0120FFF72F
:10988000EDFF0220FFF7EAFF0320BDE80840FFF7E5
:10989000E5BF08B50020FFF7D5FF0120FFF7D2FF95
:1098A0000220FFF7CFFF0320BDE80840FFF7CABF43
:1098B000074A4FF0A041105CD1F8043501228240E4
:1098C00022EA03001340C1F80805C1F80C357047BF
:1098D000D6070300054A4FF0A043105CD3F81035BB
:1098E00023FA00F0C04300F001007047D2070300E4
:1098F0000D2809D00E2809D00F2809D010280CBF38
:1099000003204FF0FF307047002070470120704760
:1099100002207047014B185C704700BFD20703005C
:10992000C20708B501460CD54FF0A0430322C3F887
:109930004427C3F84827C3F84C27C3F85027FFF73C
:1099400099FF8B070AD54FF0A0430C22C3F83427A8
:10995000C3F83827C3F83C27C3F8402708BD0000E8
:1099600038B5074C051E04F1080318BF1C462368D0
:109970002BB11A6822605B6828469847F7E738BD24
:10998000642B002020B9054B01225A70FFF7E8BF75
:10999000012802D1014A9070F8E770475C2B002043
:1099A00020B9034B01225A70FFF7DABF704700BF9E
:1099B0005C2B002038B50B4C237883B90A486360D0
:1099C000A3602361E36000F0C7F8054605F0E0FE00
:1099D00008B900F0CDF801232370284638BD85254D
:1099E000FBE700BF5C2B00208599020037B50B4CCC
:1099F00000230DF107008DF80730FDF733FDE36814
:109A0000013BE360E56815B900F0C4F8A5709DF866
:109A10000700FDF74BFD03B030BD00BF5C2B0020FD
:109A2000012813B509D018B103281CD002B010BD0D
:109A30000F4B0122C3F88020F8E70E4C00230DF1F4
:109A400007008DF80730FDF70DFD23780BB9FFF700
:109A5000B1FFE3689DF807000133E3600123A370C1
:109A6000FDF724FDE2E700F083F8FFF7BFFFDDE735
:109A700000E100E05C2B00201FB503788DF800307A
:109A80004368019383688DF80830C3680393054ADF
:109A9000054B684653F8213052F82110984705B01D
:109AA0005DF804FB702B0020742B00201FB5037899
:109AB0008DF800304368019383688DF80830C368DF
:109AC0000393054A054B684653F8213052F821109C
:109AD000984705B05DF804FB702B0020742B002024
:109AE000F0B5184B077891F81DE043F82720164B86
:109AF00016460A6943F82720144B03F807E00C4682
:109B000084460FCC89B06D460FC594E80F0085E8F8
:109B10000F000497BEF1000F0AD0002E0C4A6946D0
:109B200008BF32460CF1040000F084FD09B0F0BD1E
:109B3000002E084A694608BF32460CF10C0000F0BE
:109B400069FBF3E7742B0020702B0020782B00209A
:109B5000799A0200AD9A0200044A137923B90121CF
:109B60001060918018467047852070477C2B00203C
:109B7000074B1A68D2075FBFC02283F80023012277
:109B80001A604FF080430122C3F81825704700BFC8
:109B900000E100E0044B01221A604FF08042D2F84D
:109BA0001834DB03FBD470470C000040154B07B59D
:109BB0001A687AB100221A601B680093009B4FF06C
:109BC00080430122C3F808230F4B587910B95A710A
:109BD0001B6898470D4B1A6882B100221A601B68F7
:109BE0000193019B4FF080430222C3F80823064BE8
:109BF0001B68012003B05DF804EB184703B05DF863
:109C000004FB00BF000100407C2B00200401004049
:109C100000F1804000F5C040002382B0036003687B
:109C20000193019B02B07047800000F1A040D0F882
:109C3000003723F44033C0F80037D0F8003743EA48
:109C40000141C0F800177047054B4FF0FF3207285D
:109C500043F8202084BF1B1883F84820704700BFBA
:109C6000842B002010B5174C94F8583043BB04F1F6
:109C700030032021FF22013911F0FF0103F8012BED
:109C8000F9D1C8B2FFF7E0FF01310C29F9D1042264
:109C900000210D4806F00BF80C4BC02283F8062378
:109CA00040221A604FF4BE70FFF7B2FF084B4FF02E
:109CB0000042C3F80423012384F85830002010BD6B
:109CC0000820FCE7842B0020D82B002000E100E0D6
:109CD00000600040034B93F85800003018BF01208B
:109CE000704700BF842B0020F0B5374B1C1894F947
:109CF0003040002C1C4664DA8D78C5F34005002DF9
:109D00000BBF082300230C260826B34201D10420F0
:109D1000F0BD54F8237001373FD1261844F82320B2
:109D200086F8303015B9E21882F848008A7855076D
:109D300013D4D60733D5820002F1A042D2F80057DF
:109D400025F00205C2F80057204EC50800F00707AD
:109D50000122BA40775D3A4372558A780D7812F045
:109D6000020225D09B0003F1804303F5C0430202A9
:109D7000D3F8101521F4473121F44071C3F81015C0
:109D80002D04D3F8101502F4F85205F440352A4397
:109D90000A43C3F810250020BAE70133B5E74D7830
:109DA00000F5E0724FF0A046AD0046F82250CBE738
:109DB000083B234493F8501041EA851583F850502E
:109DC000E9E70820A4E700BF842B0020D82B00205F
:109DD00038B51F4C251895F93020072A17DD224485
:109DE00092F84810890903290CD14FF0A043D3F809
:109DF0001035C34013F0010F08BF0221BDE8384001
:109E0000FFF712BF012914BF03210221F6E7D3B2E5
:109E1000072B1CD8930003F1804303F5C043D3F80C
:109E2000100540F00100C3F8100502F14000800069
:109E300080B2FFF7EDFE51B195F9303054F8233080
:109E40002BB1012303FA02F2024BC3F8042338BDFD
:109E5000842B0020006000404FF0A043D3F8103561
:109E600023FA00F000F00100704700002DE9F04FE8
:109E700085B000245A4D01944FF48072012102F103
:109E8000804303F5C04390B21B68012B06D1D5F87F
:109E900004330B4202D0FFF7BBFE0C430432B2F591
:109EA000907F4FEA4101EAD14E4B1B68012B0AD14A
:109EB0004FF4BE70FFF7ACFE4FF0A04344F00044F7
:109EC000D3F81035019314F0FF0F1AD0464F002538
:109ED0000126344210D0AB0003F1804303F5C043A8
:109EE000D3F81005D3F8101557F8253023B1C1F376
:109EF0000141C0F3042098470135082D4FEA46067A
:109F0000E7D1002C64DA00224FF0FF33CDE90223C1
:109F1000354D01274FF0000A344E54464FF0A0480B
:109F200016F9012B531C46D0D2B222F0C0094FEAD9
:109F3000D90104A8084402F0070310F804CC07FA7A
:109F400003F31CEA030F36D005EB090C92099CF9C8
:109F500030C055F82CB0BBF1000F0AD1032A2AD12A
:109F60000DF1080E1EF801C04CEA030C0EF801C0FA
:109F700001E0032AF4D009F5E07110F80C0C58F850
:109F800021101842C1F3014105D0022913D1032A3F
:109F90000BD1114604E003290DD1032A05D102217A
:109FA0004846FFF741FE0134E4B2BBF1000F02D096
:109FB00011464846D8470AF1010ABAF1040FAFD159
:109FC00034B14FF0A043019AD3F81035934202D137
:109FD00005B0BDE8F08F0193029B03939AE700BFA1
:109FE000006000407C610040842B0020D42B0020C6
:109FF000014B1B68184700BFE02B00200E4B984216
:10A0000037B50D4602D0002003B030BD00230DF15E
:10A0100007008DF80730FDF725FA084B1C7914B9B5
:10A0200001221D601A719DF80700FDF73FFA002C10
:10A03000E9D01120E8E700BF00200040E02B00201D
:10A04000034B984201BF034B00221A601A717047FC
:10A0500000200040E02B00200023435082B04358F2
:10A060000193019B02B070470A4610B54FF48E7100
:10A07000FFF7F2FF136A9168C95C136A0133136238
:10A08000C0F81C1510BD8B690A4610B54FF48471D9
:10A0900023B9FFF7E1FFD0F8183510BDFFF7DCFF5B
:10A0A000536AD168D0F81805C854536A0133536213
:10A0B000F3E700001FB501238DF80030044BCDE914
:10A0C0000110D3E900126846904705B05DF804FB23
:10A0D000E82B002030B54D4AD2F8043313F4007F4A
:10A0E00085B015464FD0D2F82431002B4BD04FF419
:10A0F00092711046FFF7B0FF4FF40173C2F80833B6
:10A10000434B93F8291009B9012151603F490222BC
:10A110008DF80020D1F88024C1F8802403929A6938
:10A120000292DA6801920022C3E906226846D3E966
:10A13000001290473548D0F81C315BB134494A6968
:10A140000B6A9A420A464BD991F82830002B47D126
:10A15000FFF78AFF2D4AD2F8443193B14FF4A27130
:10A160001046FFF779FF2A4B93F8291009B1012116
:10A1700011609A692AB100229A61586AD968FFF77A
:10A1800099FF05B030BDD5F804335B07D2D5D5F8BB
:10A190000831002BCED01E4C1C482146FFF773FF20
:10A1A000636AA2699A422346C4D1E269E1684AB16E
:10A1B0002369E3600023606AA261E3616362FFF7E1
:10A1C00079FFB7E794F829200AB901226A600F4A9B
:10A1D0004FF40170C2F8080300229A61586AEEE752
:10A1E0004FF48E710948FFF737FF5369002BB1D048
:10A1F00051690291002391688DF8003001915361FB
:10A200006846D2E900139847A4E700BF0020004049
:10A21000E82B00202DE9F843564F047991462C2273
:10A2200002FB0472064692F82A200D46002A40F0EE
:10A230009A8051490068FFF7E1FE8046002840F00F
:10A24000958029683368481C0BD04FF0A04001224C
:10A250008A40C0F8082501F5E0724FF0030C40F881
:10A2600022C06868421C1FBF00F5E0724FF0A04C8E
:10A270004FF0000E4CF822E0AA6995F814C0C3F81C
:10A2800024256A7DBCF1010F4CEA0202C3F86C255B
:10A29000C3F81405C3F80C151DD1AA68511C1FBFC3
:10A2A00002F5E0714FF0A0404FF0000C40F821C0E3
:10A2B000E968481C0BD04FF0A04C01208840CCF836
:10A2C000080501F5E0704FF0030E4CF820E0C3F8EC
:10A2D0000815C3F810252C236343FA18C2F804901C
:10A2E0002A69FA50B9F1000F2AD04FF48E71306804
:10A2F0002D7FFFF7B1FE30684FF4A271FFF7ACFE7F
:10A3000032681E4BC2F80433120B51B20029A8BFA9
:10A3100001F160404FEA4513BABF194802F00F053A
:10A3200000F56140DBB2B4BF435580F8003302F062
:10A330001F02012303FA02F24909124B43F82120BC
:10A3400033680422C3F800252C2303FB0473002286
:10A35000C3E9062283F829205A61012283F82A20C2
:10A360004046BDE8F8834FF00808F9E74FF01108C0
:10A37000F6E700BFE82B0020D5A002008000020015
:10A3800014ED00E000E100E0F8B5047900682D4D1F
:10A390000023C0F800352C2303FB04535B6873B122
:10A3A000294BC0F80833020B53B201215B0902F0BC
:10A3B0001F0201FA02F22033244941F82320D0F889
:10A3C0000C65D0F81415D0F80835D0F810254FF0EA
:10A3D000FF37BE42C0F8147518BF06F5E076C0F826
:10A3E0000C75C0F80875C0F810751EBF4FF0A04777
:10A3F0004FF0020C47F826C04E1C1FBF4FF0A0467E
:10A4000001F5E071022746F82170511C1FBF4FF083
:10A41000A04102F5E072022641F822605A1C1FBFDB
:10A4200003F5E0734FF0A042022142F82310FFF73A
:10A4300007FE2C2303FB0454002384F82A306360B6
:10A44000F8BD00BFE82B00208402020000E100E01C
:10A450002DE9F84F224F06794FF02C0909FB0674BD
:10A4600080466569002D38D16261A16025624FF494
:10A470008E71006884F82850FFF7EEFDD8F80000D0
:10A48000012383602146FFF7EFFD6368A1469BB976
:10A49000D8F800A0D4F814B0236A9B4512D8D8F895
:10A4A0000020D2F81C31002BFBD00123D3602C23D9
:10A4B00003FB067300225A612846BDE8F88F94F822
:10A4C000283043B9DAF81C31002BF8D04946504601
:10A4D000FFF7CAFDE0E70F25E9E71125ECE700BF2C
:10A4E000E82B00200023435082B043580193019B86
:10A4F00002B070471FB501238DF80030044BCDE941
:10A500000110D3E900126846904705B05DF804FBDE
:10A51000142C00207FB5454AD2F82461002E63D068
:10A5200010464FF49271FFF7DDFF02238DF80030E3
:10A53000D2F88034C2F880340393D2F83C350293C9
:10A540003B4BDA6801920022C3E906226846D3E950
:10A5500000129047354AD2F844317BB14FF4A271D2
:10A560001046FFF7BFFF324B996939B10021C3E9AB
:10A570000611D968D2F83C05FFF7BCFF2B4AD2F888
:10A580002031B3B14FF490711046FFF7ABFF0123B8
:10A59000D360274B596961B1D2F84C150291002262
:10A5A00099688DF8002001915A616846D3E900123C
:10A5B00090471E4AD2F85831A3B14FF4AC711046FF
:10A5C000FFF790FF1A4B596961B1D2F84C1502910F
:10A5D000002299688DF8002001915A616846D3E9FC
:10A5E0000012904704B070BDD2F81031002BB1D0EA
:10A5F0004FF488711046FFF775FF0D4BD2F83C05FC
:10A6000099698842A6D1DC69D96864B1D2F8005250
:10A6100025F02005C2F800521A699C61DA60DE61FB
:10A62000FFF768FF96E79C61FAE700BF0020004053
:10A63000142C00202DE9F8435C4F06799146242222
:10A6400002FB0672044692F820200D46002A40F0D4
:10A65000A78057490068FFF7D1FC8046002840F0EA
:10A66000A28029682368481C0BD04FF0A04001222B
:10A670008A40C0F8082501F5E0724FF0030C40F85D
:10A6800022C06868421C1FBF00F5E0724FF0A04C6A
:10A690004FF0000E4CF822E0AA6995F814C0C3F8F8
:10A6A00024256A7DBCF1010F4CEA0202C3F86C2537
:10A6B000C3F80C15C3F814051DD1AA68511C1FBF9F
:10A6C00002F5E0714FF0A0404FF0000C40F821C0BF
:10A6D000E968481C0BD04FF0A04C01208840CCF812
:10A6E000080501F5E0704FF0030E4CF820E0C3F8C8
:10A6F0000815C3F8102524237343FA18C2F80490F0
:10A700002A69FA50B9F1000F39D04FF488712068E6
:10A710002D7FFFF7E7FE4FF490712068FFF7E2FE10
:10A720004FF492712068FFF7DDFE4FF4A2712068AC
:10A73000FFF7D8FE20684FF4AC71FFF7D3FE226814
:10A740001C4BC2F80433120B51B20029A8BF01F10F
:10A7500060404FEA4513BABF174802F00F0500F5F5
:10A760006140DBB2B4BF435580F8003302F01F02F2
:10A77000012303FA02F24909104B43F82120236810
:10A780000822C3F80025242303FB06730022C3E933
:10A7900006225A61012283F820204046BDE8F88352
:10A7A0004FF00808F9E74FF01108F6E7142C0020E5
:10A7B00015A502001003420014ED00E000E100E0E6
:10A7C000F8B5374D0479242303FB045306465B6830
:10A7D000006873B1334BC0F80833020B53B2012148
:10A7E0005B0902F01F0201FA02F220332E4941F800
:10A7F0002320D0F80032012223F02003C0F80032D9
:10A800004FF4AC714260FFF76DFE3068C260D0F863
:10A810005831002BFBD00023C0F80035D0F80C6570
:10A82000D0F81415D0F80835D0F810254FF0FF37C0
:10A83000BE42C0F80C7518BF06F5E076C0F8147576
:10A84000C0F80875C0F810751EBF4FF0A0474FF054
:10A85000020C47F826C04E1C1FBF4FF0A04601F562
:10A86000E071022746F82170511C1FBF4FF0A04134
:10A8700002F5E072022641F822605A1C1FBF03F560
:10A88000E0734FF0A042022142F82310FFF7D8FBFB
:10A89000242303FB0454002384F820306360F8BDB4
:10A8A000142C00201003420000E100E001F060439E
:10A8B000B3F1005F2DE9F041074638D11E4B067910
:10A8C000242505FB063598466C69002C31D16A6158
:10A8D000A96000684FF49071FFF704FE4FF4AC716B
:10A8E0003868FFF7FFFD3B686A69A968C3F844153B
:10A8F000C3F8482501229A606A68AAB9D3F82021D2
:10A90000D3F858411AB9002CF8D00F2407E0002CD6
:10A91000FBD10122DA60D3F85821002AFBD024238E
:10A9200003FB0686002373612046BDE8F0811024F6
:10A93000FAE71124F8E700BF142C00200220FEF7EC
:10A94000B7BF00002DE9F04781460D46FEF7D0FF66
:10A950000328044604D8012D04D025B3022D2FD09E
:10A96000BDE8F087194D47003A18A918AE5C4A783F
:10A9700052B1DFF86880164842464FF48041FCF738
:10A9800082FC08B988F800903B192B449A78114B47
:10A990001A55002EE4D0104B1B68002BE0D0304637
:10A9A000BDE8F04718470A48FCF785FC074B04EB65
:10A9B000440213449E78074B1B5DB342D0D1E8E7B5
:10A9C000024B00EB40041C446678E2E7A02C002018
:10A9D000602C0020B92C0020B42C0020382C002042
:10A9E00002210078FFF7AEBF08B5094B1B7853B1C1
:10A9F0000020FEF733FF0120FEF730FF0320BDE803
:10AA00000840FEF72BBFBDE80840FEF733BF00BF8C
:10AA1000392C0020F8B57B4C237805461BB1002368
:10AA20002370FFF7E1FF172D00F28880DFE805F0C3
:10AA30000C17174354657680888D888D959A9A9A5D
:10AA40009A9AC4C9D1D9E4E4FFF7CEFF6E48FCF767
:10AA500032FC6E4B002204461A702046F8BD0020DE
:10AA6000FEF7E2FEF8B10020FEF7F8FE022D0CBF63
:10AA70004FF4E1614FF47A61644B1D704FF4004074
:10AA80004FF47A740025E0FB01454FF4FA6200238D
:10AA90002046294604F0E2FF002201465A48BDE85C
:10AAA000F840FCF7F0BBFEF7CDFE022D0CBFC8212D
:10AAB0004FF4C871E0E70020FEF7B6FE40B1002079
:10AAC000FEF7CCFE4FF44871504B03221A70D5E7C5
:10AAD000FEF7B8FEC821F7E70020FEF7A5FE38B163
:10AAE0000020FEF7BBFE4FF47A61484B0422EDE7ED
:10AAF000FEF7A8FE4FF4C871F7E70020FEF794FEBA
:10AB000048B10020FEF7AAFE404B05221A7040F61D
:10AB1000CD410022C2E7FEF795FEF5E70020FEF7E3
:10AB2000C7FE3A4B06221A70002240F26661B5E772
:10AB30000020FEF787FE354B07221A7000248CE7B1
:10AB400001202070FEF7B4FEEEE701202070FEF732
:10AB5000AFFE00224FF40051A0E7FEF79AFE2B4B08
:10AB60000C22EAE72A482B4EFCF7A5FBD5F111058C
:10AB700004461CD0D8B9012D13D0C8235D434FF42F
:10AB800000474FF47A7000214FF4FA620023C7FBAC
:10AB9000050104F063FF224601461D48FCF773FBE4
:10ABA00004460220FEF74EFE0123337055E70220D3
:10ABB000FEF754FE0023F8E7FFF716FF134B1222AF
:10ABC000BBE7FFF711FF0020FEF73CFE0F4B1322FF
:10ABD000B3E7FFF709FF0120FEF734FE0B4B142209
:10ABE000ABE7FFF701FF0020FEF72CFE0120FEF788
:10ABF00029FE064B1522A0E7FEF74BFE034B1D7006
:10AC00009CE700BFB02C0020802C0020B82C002036
:10AC1000402C0020392C0020044B1B68DB0703D597
:10AC2000034B1878FFF7F6BE704700BFAC2C00202E
:10AC3000B82C0020032801D8FEF74CBE0020704736
:10AC4000044B1B6813F0010301D0FFF7E3BE184665
:10AC5000704700BFAC2C002038B51C4B18601C4B53
:10AC600010F00204054619601AD01A4B1A480E2239
:10AC70001A700F22DA7010229A7111225A7204216E
:10AC800040F23332FCF78EF9044648B9FCF7E0F99C
:10AC9000044628B90146114A1148FCF7E9FA04466E
:10ACA000EB0711D50120FEF73BFE6CB921460D4A9A
:10ACB0000D48FCF7DDFA044630B90C4A0C48012176
:10ACC000BDE83840FCF7D4BA204638BDAC2C002093
:10ACD000B42C0020A02C0020FC070300E1A90200F6
:10ACE0002008030019AC0200240803003DA902005B
:10ACF0001C080300032813D8012A0BD1012908D10D
:10AD000000F10E02D2B200EB40000C4B1A540020AE
:10AD1000704700220129F6D04BB24BB1022901D075
:10AD200007207047054B00EB400018444270EEE7E7
:10AD3000024900EB400008448270E8E7A02C0020A4
:10AD4000032808B512D8FEF7E5FD800000F1A04009
:10AD5000D0F8003723F44033C0F80037D0F800377C
:10AD600043F44033C0F80037002008BD0620FCE75C
:10AD700008B5012202210020FFF7BCFF08B1072817
:10AD800010D1072202210120FFF7B4FF08B10728E4
:10AD900008D100210A220846FFF7ACFF10B10728AE
:10ADA00008BF002008BD00000388102B10B502D09A
:10ADB000112B1ED010BD1A4C2168B1B901220846D2
:10ADC000FFF798FF08B1072824D1072202210120AC
:10ADD000FFF790FF08B107281CD1042202210020B0
:10ADE000FFF788FF08B1072814D1236801332360D7
:10ADF000E0E70B4A1368013B1360002BDAD1FFF741
:10AE0000B7FF0028D6D0074B1B68002BD2D0BDE877
:10AE100010401847034B1B68002BE6D09847E4E727
:10AE2000C42C0020C02C002008B50020FFF788FFAC
:10AE300008B1062806D10120FFF782FF10B10628CD
:10AE400008BF002008BD00000D4B10B518600C466F
:10AE500029B10120FFF7EEFE40B102232370094B18
:10AE60001B6853B9BDE81040FFF782BFFFF7E2FE51
:10AE700008B10B23F2E72070F1E7002010BD00BFFE
:10AE8000C02C0020C42C002070DF704776DF704794
:10AE900078DF70477ADF70477CDF70478FDF70475D
:10AEA00033DF7047FCF7EAB808B50020FFF7C8FEAB
:10AEB00008B1FCF7E3F8FFF7B7FF08B1FCF7DEF8DD
:10AEC000FFF7EEFF18B1BDE80840FCF7D7B808BDA2
:10AED0000388212B13B5044635D005D8102B17D085
:10AEE000112B0AD002B010BD3B2B01D0562BF9D14B
:10AEF0001321A088FFF7CAFF20E0174B1748184915
:10AF0000C01AC008000440F00300FBF7C9FDE9E7E0
:10AF1000114B12481349C01AC008000440F0030046
:10AF2000FBF7BEFD0720FFF78BFE08B1FCF7A6F884
:10AF30000D4BA1880D48198002F052F90028D1D09C
:10AF4000FCF79CF8CEE7002301A98088ADF8043017
:10AF5000FFF7A4FFF2E700BF00FE020028FE020098
:10AF6000280803003608030090220020103100203A
:10AF700008B503784BB9054B3B211888FFF786FFCE
:10AF800018B1BDE80840FCF779B808BD9022002050
:10AF9000072808B513D00A280DD0042819D10D4B65
:10AFA00013211888FFF772FF30F0080311D0BDE8B5
:10AFB0000840FCF763B8BDE80840FFF775BF054BD4
:10AFC0001A884FF6FF739A4203D1034800F0F9FD47
:10AFD000EAE708BD90220020C82C002008B598B1EF
:10AFE000032815D10B4B0C480C49C01AC0080004AB
:10AFF00040F00300FBF754FD0220FFF721FE38B1BB
:10B00000BDE80840FCF73AB8BDE80840FFF74CBF80
:10B0100008BD00BF00FE020028FE0200A1080300D8
:10B0200008B50321044800F08BFC18B1BDE80840C6
:10B03000FCF724B808BD00BFC82C002010B504469A
:10B0400003F0E6FB204603F0C9F923780C2B03D16B
:10B05000BDE81040FFF7E4BF10BDFCF70FB80000DB
:10B0600080B54FF48041BAB00020FBF755FB08B122
:10B07000FCF704F8FBF786FAFCF7C8F808B1FBF711
:10B08000FDFF92490320FFF7E7FD08B1FBF7F6FF4C
:10B090000FA90020FFF7D8FE08B1FBF7EFFF9DF8DE
:10B0A0003C50FEF7AFF908B1FBF7E8FF04F0F2FA05
:10B0B00008B1FBF7E3FF00230FA901200F9304F071
:10B0C000B1FB08B1FBF7DAFF0FA804F05DFC08B193
:10B0D000FBF7D4FF0AAC08220021204604F0E7FD6C
:10B0E00040F2012320460A93FFF7CEFE08B1FBF79A
:10B0F000C5FF112376488DF81C3004F00BFE07AF16
:10B1000082B273493846FFF7C7FE08B1FBF7B6FFB6
:10B110004FF47070FFF7BCFE08B1FBF7AFFF0021E2
:10B1200008220FA804F0C3FD6A494FF0C8730FA8A6
:10B13000CDE90F13FFF7AEFE08B1FBF79FFF00212B
:10B14000654801F045FF08B1FBF798FFAC220021EC
:10B150000FA804F0ACFD02AB06930623ADF8143043
:10B1600004AB18935D4B0F930123ADF84C305C4B4F
:10B170005C4A1493FC238DF807300DF10703106827
:10B1800010939288584BADF80C204FF6FF72ADF833
:10B1900010200290224603F1100C186859681646D8
:10B1A00003C6083363453246F7D119889B78B370DC
:10B1B0004FF6FF733180ADF81C301323ADF820300B
:10B1C00000238DF8783001238DF8B8304FF4967253
:10B1D00044F25063CDE931230FA9444B444809940C
:10B1E0002797389300F02DFB08B1FBF747FF0121AB
:10B1F0003F4800F023FB3F4B3F480F930FA901F05E
:10B20000DDFF08B1FBF73AFF1C2200210FA804F074
:10B210004EFD00234FF4A032CDE90F32ADF84A3095
:10B220004FF4F0228DF84C30344B119214930322DA
:10B23000334B8DF848200FA8159300F0DFFD08B1BF
:10B24000FBF71CFF02F098FD08B1FBF717FF052282
:10B2500000210FA804F02BFD0F9B03F07C42294B2B
:10B2600013430F939DF8403023F0030343F003038F
:10B270000FA88DF8403002F019FE08B1FBF7FEFE72
:10B28000214802F0FBFD08B1FBF7F8FE1F4B204CF4
:10B290002049E41AE408240444F003042046FBF7A0
:10B2A000FFFB022D0FD11C492046FBF7F9FB02F0F2
:10B2B00029FE08B1FBF7E2FEFBF788FA0028FBD174
:10B2C000FEF7B6F8F8E7FFF7ABFEF5E791AF02003F
:10B2D000410803005000A000FC30002001050106D9
:10B2E0008C220020880803008E080300DDAF0200D6
:10B2F000C82C0020A5AE02001031002071AF020062
:10B300005BB00200310710033DB0020000FE0200F6
:10B3100028FE0200610803007B0803006DDF704710
:10B3200079DF70477DDF704764DF70472DE9F04FAC
:10B3300085B000250E9CBDF83CB027880191804661
:10B3400091469A462E46B8F80020B2420CDC3DB138
:10B350002288013AD21B92B2FF2A3BD80AF8072072
:10B36000002005B0BDE8F08FD8F8042052F8260080
:10B37000039000220DF10B0103A8FFF7D5FF002871
:10B38000EFD19DF80B204A4522D12288002D14BF11
:10B390000020022002EB0901014459451ADC45B99D
:10B3A000013292B2019B22800AF8023022880132D7
:10B3B000228022880DF10B01524403A8FFF7B4FF4D
:10B3C0000028CED121889DF80B200A442280012537
:10B3D0000136B8E70C20C4E72DE9F341089CBDF81D
:10B3E00024501746CDE90045022206469846FFF74D
:10B3F0009DFF50B94346102239463046CDE90845F5
:10B4000002B0BDE8F041FFF791BF02B0BDE8F081A6
:10B410002DE9F04F00231688138090F82D3085B069
:10B4200007460D46144653B3082E01D80C2027E1D9
:10B4300002A8FFF773FF002840F02281238808222A
:10B44000EA54238801339BB21B222380EA542088CC
:10B45000013080B2208006220DF10901284404F059
:10B46000FDFB23889DF8082006339BB212F0FE02F4
:10B4700018BF01222380EA54238801332380BB783C
:10B48000FBB123880433B342D0D802A8FFF748FFAA
:10B49000002840F0F58023880322EA5423880133F2
:10B4A0009BB219222380EA542388BDF80820013377
:10B4B0009BB2E9182380EA54120A4A7023880233A7
:10B4C0002380FA789AB12388D91CB142AED80221E0
:10B4D000E954238801339BB201212380E954238856
:10B4E0000B449BB22380EA5423880B4423807A6860
:10B4F000AAB12388D91CB14298D8022192F9002020
:10B50000E954238801339BB20A212380E95423881C
:10B5100001339BB22380EA542388013323803B8983
:10B52000002B40F0A1803B8A5BB1CDE900462B4661
:10B530000722032107F11000FFF74EFF002840F01B
:10B540009F803B8B5BB1CDE900462B461522142131
:10B5500007F11800FFF740FF002840F091803A6A99
:10B56000002A40F09080D7F82480B8F1000F30D046
:10B57000B8F804302188981C8A1C0244B2423FF675
:10B5800055AFFE283FF652AF03336B542388013387
:10B590009BB2FF222380EA54238801339BB223808D
:10B5A000B8F80020EA54E918120A4A7020880230DC
:10B5B00080B22080B8F804205AB1D8F808100029C9
:10B5C0006BD0284404F04AFB2388B8F804201344C5
:10B5D000238097F82C30002B40F09A803878002890
:10B5E0004ED03B88012B58D0228802F1020CB44582
:10B5F0003FF61CAF012805D17B78023313449E42ED
:10B60000FFF414AF023EB61AB6B202A905EB0C0065
:10B61000ADF80860FFF786FE90BB3978BDF80820CA
:10B62000022900F0BA807B78934202D3B24240F202
:10B63000B280012940F0B3809BB29E42C0F0AF803F
:10B64000ADF808300821BDF80830FE2B3FF6EEAE0D
:10B6500022880133AB542288013292B22280A9544D
:10B660002288134423800BE0CDE900462B460622B6
:10B67000022107F10800FFF7AFFE00283FF453AFA7
:10B6800005B0BDE8F08FB4F800C00CF10603B3427A
:10B690003FF6CCAE1188052901D80720F0E76FF4FA
:10B6A000486E01EB0E039BB24FF27D3E7345F4D919
:10B6B0005388052BF1D96FF44860181880B2704593
:10B6C000EBD94FF6FF70814203D0834201D09942FB
:10B6D000E3D8052305F80C30238801339BB21221EF
:10B6E0002380E954238801339BB223801188E954D5
:10B6F000E818090A4170238802339BB223805288DC
:10B70000EA54E918120A4A702388023323802AE790
:10B71000BB6A002BC1D04FF000094FF00C0A4FF06C
:10B72000160B97F82C305FFA89F293427FF656AFEA
:10B73000B96A0AFB02F201EB0208B8F80430981C5F
:10B74000FE283FF673AE208803332B542388013341
:10B750009BB2238005F803B0238801339BB223807A
:10B760008A5AEA54E918120A4A702088023080B2D4
:10B770002080B8F804205AB1D8F8081000298CD0DD
:10B78000284404F06BFA2388B8F80420134423807B
:10B7900009F10109C5E7092155E7B242FBD9ADF826
:10B7A00008604FE770B5E0B14AB116880024B44292
:10B7B00003D305196D789D4208D0A14201D800201D
:10B7C0000FE0055D01352C44A4B2F0E7A142F6D9A3
:10B7D000005DA31C01389BB280B21C188C42EEDCC9
:10B7E000138070BD13B50023ADF8063013460DF17C
:10B7F00006020446FFF7D6FF10B1BDF8060020444C
:10B8000002B010BD72DF704773DF704774DF70479E
:10B8100038B5012204460D46B0F81414D0F81004CF
:10B82000FFF7E0FF00B1057004F13C0204F582610E
:10B8300004F15400BDE83840FFF7E4BF80F8301051
:10B840007047F8B504460F46002975D0002873D01C
:10B8500091F87A301BB191F89830002B6ED1D7F85F
:10B86000A030042B6AD0D7F89C30042B66D007F1A7
:10B8700078060FCE4FF0000C251D84F802C00FC5CE
:10B880000FCE0FC596E8070085E8070084F830C0A2
:10B89000D7F8A4306363D7F8A830A3634FF6FF75D9
:10B8A00004F58263C4F82034A4F8245407226146C6
:10B8B00004F2264004F0FBF923780BB984F85450C5
:10B8C00094F82430002B14BFEE231F2304F15501FC
:10B8D000C4F81014A4F8143404F214423846FFF7E4
:10B8E00097FD40BB94F82430002B14BFEE231F2398
:10B8F00004F23121C4F81814A4F81C3404F21C42D8
:10B9000007F13C00FFF784FDA8B9A369A4F848300B
:10B910004FF480730125A4F8503063692064014618
:10B9200084F83C50636404F13C0204F15400FFF7D6
:10B9300069FF00B92570F8BD0E20FCE70720FAE783
:10B94000F8B5077804460D46002F00F0038100F299
:10B950002646A17007220021304604F0A8F9E388AA
:10B9600013B1A378012B04D0E3794BB1A378022B58
:10B9700006D1636BA3B1012284F82D2408209847D7
:10B98000334604F22C4113F8012F12B98B42FAD13D
:10B9900017466B1E032B51D8DFE803F0050B0F127F
:10B9A00084F82D34ECE7A3791BB194F8243003B963
:10B9B0005FB9E3790BB1002F42D1237A002B41D13B
:10B9C000637A002B0CBF00250425636BA570002B48
:10B9D0003AD0033D012D37D86279AAB394F82E24CA
:10B9E00092BB84F83024012284F82F240720984742
:10B9F00004F13C0518220021284604F058F9E26AB7
:10BA0000531E0121022B28BF0A4684F8512094F8C6
:10BA1000242084F83C1032B1A36A581E022828BFA3
:10BA20000B4684F85230A178002384F85030042962
:10BA30001BD8DFE801F0770D223559000025C4E757
:10BA40000225C2E70325C0E7002384F82F34CFE79F
:10BA5000C4F82034C4E910630223012284F83C3086
:10BA6000802384F83120A4F84830A378002B5CD1DF
:10BA7000636B002B6AD1002067E00223002A84F860
:10BA8000313014BF0723032384F83C302369A4F822
:10BA900048300023C4F82034E36826646364E4E794
:10BAA00063696364A369A4F8483012B1062384F87B
:10BAB0003C306379B3B194F82E349BB994F83034A8
:10BAC00083B1022384F8503004212046FFF7A0FE02
:10BAD0000028CAD1052384F8313004F58263C4F804
